:020000040000FA
:1080000000C00091780005FD61C0F092000608E113
:10801000009316060FEF0A950023E9F70091080672
:1080200006FFECC0E0E0F0E0079116910F3F19F475
:108030001F3F09F4E3C04AC03091CF0137FDFCCFA8
:108040003BB72BBFF8012091CA0113E21093CA017C
:108050000A01E8952093CA013BBF08953BB72BBFA7
:10806000F8012091CA014093CA013DE930933400E0
:10807000E8952093CA013BBF089522EB3EE8F90141
:1080800005911591A591B591459155919F0140306C
:10809000504041F0FA016591AF016D9301501040DD
:1080A000C9F705C040E04D9301501040D9F71EE8D4
:1080B0002E3B310720F3089501E70DBF00E20EBF0C
:1080C000C3E2DAE20E943D400E942B42F092160683
:1080D00000910020109101200A3A154511F00C94EE
:1080E0000000F0920020F092012000E2009378005E
:1080F000F6CF7B2F0A2ED80106C0F90161919F01AE
:108100006D934150504040305040B9F7A02DB72FEB
:108110000895998488847F806E805D804C80BB81C7
:10812000AA8199818881F0E0EC0FFD1FEF0108958D
:10813000AF93BF93D80101900D9241505040D9F7B1
:10814000BF91AF9108959A928A927A926A925A92C6
:108150004A92BA93AA939A938A9308954091CA0136
:10816000E22FF32F0093CA0104914093CA010895AE
:1081700040E04BBFF80158ED54BF20830895000F35
:10818000111F4A95E2F70895169507954A95E2F76B
:02819000089550
:1081F4000C94C5440C948F455DCF88D0608167FD95
:10820400FDCF4030504051F0F9016491F801619381
:108214008F012F5F3F4F41505040F3CF08950E948C
:10822400A34022972A013901D801912F882707C03A
:108234006DD0408147FDFCCF45E20E942E40042DC5
:10824400052909F440C0992461D0008107FDFDCFC0
:1082540000E8802EFC0105911491088319830F3FD7
:108264002FEF1F4F11F099249394042D0529A1F0A9
:10827400A817B90739F42BD0088301E0401A00E0AD
:10828400500A51F08D01015010400817190721F4CC
:10829400420E521E1CD00983488159818C0120E072
:1082A40030E00E941C4002968A94A1F68C011A9533
:1082B40020E030E0992009F0BBCF28D0408147FD71
:1082C400FCCF44E2BACF2296EAE00C94894011969E
:1082D400F30101913F01089519D0608167FDFDCF3D
:1082E400ECEC608168606083305F89D0ECECF1E095
:1082F4000081077F0083089521E00BEC11E00C94CA
:10830400B84004D0008107FDFDCF0895EFECF1E003
:108314000895F7DFFBDF008101FF04C006E300934B
:10832400CA01EADF08958A938091CA0160D08093DC
:10833400CA01899108950E94A3402A01D901C80164
:1083440032C08D013091CA01E1DF208127FDFDCFCC
:1083540023E32093CA0120E02093C2012093C101AA
:108364002093C001F80141918F014093C4012395EA
:108374002032B0F33093CA01C9DF008107FDFDCF7D
:108384008C0145E00E94C64010E2019F09D1109281
:10839400C1010092C00105E3C6DF8096909600EE0D
:1083A400400E0FEF501E042D052901F1082F0F7107
:1083B40029F400E2401600E0500618F68D903C01C6
:1083C40001969090CA01A5DFA1DF008107FDFDCFD2
:1083D400E4D07092C1016092C0018092C40105E3AF
:1083E40006D09092CA010FEF400EDCCF6DCF009300
:1083F400CA0121E00BEC11E082CF2E583F4D0C94C2
:1084040079402C5E3E4DFBCFF8940AEA15E5E0E096
:10841400F0E20083118320917900216009E7A5D05F
:10842400FFCF0FBF0895202F30E002E00C94AE4040
:108434000FB7F8940895F5CFFBCFE02FFDDF10952B
:10844400F0E0E059FF4F208121232083F4CFE9CFCE
:10845400EACF8A9327E402EA88D024E001E485D0B5
:108464000DE1F6DF009362000CE1F2DF009363009C
:108474000FB7F894E0E5F0E0108112601083E7DFB5
:10848400E1E5008101FFFDCF21E000E410E037DFEA
:10849400E6E5F0E00081097F008300E807870BEB45
:1084A400008B008104600083E0E6008101600083AA
:1084B4007894F093600010E400E0BFDF23E004E46C
:1084C40054D0C9D20064008301E000936000B0DF9F
:1084D400802F00E018E0019FF001E851FF4D10E00B
:1084E400158303950230B0F30AE13AD00093FA04FD
:1084F4000BE136D00093FB040091C0040093C00448
:10850400AAD2006800830081006100830CEE10E2AF
:10851400E6EC00831183E0ECC7D40FEF0583E8ECAD
:10852400008101600083082F7CDF82DF10E4128366
:1085340010E21283E1EC108111601083E9EC1081E8
:1085440012601083E8EC108110641083E9EC108150
:1085540011601083E8EC10811068108362DFFFCF94
:1085640062DF0F3F09F40FE1089510E0C8CE9A933B
:108574008A93802F9091CA01CCDEC3DE0ED0009383
:10858400C1010093C0018093C40103950032C8F374
:108594009093CA0189919991089503E30093CA01C4
:1085A40000E00093C201089500E00093222101E05D
:1085B40010E01BD000AB11AB089517D0008D0F77DE
:1085C4000093C304089511D000E006A302E002A7BB
:1085D40000E004A305A302A303A3089506D0068F15
:1085E400178F03D020A331A30895E8EEF0E2089595
:1085F4000E94A74052D4A8EEB0E200E0FD0102AB15
:1086040003AB07E211E2F80150812181FD0185AD40
:1086140094AD48E6442E49E2542E203041E05407FC
:10862400C9F4992331F0882321F003E006A302E082
:108634009DC0F20126813781322B59F1C2D009F451
:10864400B7C020E038E00CD103E414E4FD0104A336
:1086540015A3ACC0203043E0540791F4B2D009F420
:10866400A7C0AAD0B1F0992329F0882319F008EE05
:1086740013E402C00DE114E4FD0102AB13AB96C098
:108684002130540709F044C09CD009F491C094D01F
:1086940011F403E068C000851185012B29F400E082
:1086A40018EF80E098E00EC0F201008511850030DB
:1086B400104069F1183010F4C80102C080E098E05D
:1086C400081B190B00871187AC01FD0124A935A9EA
:1086D400C4D0F2016481F581E62F0995BED007C0AC
:1086E400FD0124A935A92F5F3F4F24AB35AB9C0175
:1086F4000197232BC9F2F80121918F012F3F81F3B8
:1087040005E0FD0106A304E314E402AB13AB4EC081
:10871400203044E05407B1F4F9DD008107FDFCCFBB
:1087240040E200E010E098010E942E400FEF1FDFAE
:10873400EDDD008107FDFDCF00E3F5DDFD0100E087
:1087440004AF34C02330540719F401E003AF31C03F
:108754002330564069F5F8012281222339F523811B
:10876400213130F008E0FD0106A30AE002A720C091
:10877400233041F0223031F0243021F0253011F043
:1087840011E001C010E0FD0115AF12E0219FF001DE
:10879400E356FF4D2081F18108E619E2E22F48E01B
:1087A40050E00E949840FD0144AB45AB01E001C09C
:1087B40000E0E6E00C948D40F20124813581322BF7
:1087C400089509E211E20AD00023089503E000931A
:1087D4000E2102E00093122100E008950E94A940B6
:1087E400F8011080018008EE10E2D801D4960D92B1
:1087F4001C92328120E04381532FE8E6F9E2808124
:108804009181A281B381481739072A072B0738F0D1
:1088140028E0F80126A32AE022A700E009C04019B5
:1088240051094F5F5F4FE8E6F9E24087518701E065
:10883400E4E00C948F400E94A94088E699E2FC0190
:108844004085518519D009D0DC01149630D0FC0143
:108854002085318505D001E0EBCF08E611E20895CB
:10886400FCDFBCCE09D0309368212093692122E03B
:1088740030E0F6DF01E00895E8EEF0E224A935A93E
:108884000895F6D0B2DE04A915A9E8E6F9E2408518
:108894005185202F2F7330E028593E4DAEE6B9E2C2
:1088A40006D000E0A2DE04A305A301E0DEC0ED9142
:1088B400FC9109941B2F2A2FE8ECCED00F7D008366
:1088C40000810F7D00831AD102E00593A6EFB0E288
:1088D40000E00D930C93539611D100E20ED100E405
:1088E40011D000E20FD000E4069300E00D930D9345
:1088F4000D930C9315970D930C935D960C93A22FE7
:10890400B12F08950693ECEEF0E2089507FF02C03C
:1089140021E001C020E030E012E0019F0EE10022DE
:108924001124200D311D890143E00E94C1400451EE
:108934001F4D08952051304041F02051304039F00E
:108944002052304031F050E405C051E403C052E4F9
:1089540001C053E491D1F80120E0218326E0208373
:108964005183089504E000932621ECEEF0E202E046
:108974000693089503E00093262137DE00E006877E
:108984000787BCD0F4CF74D061D18FB7EBEC64D03F
:1089940007FF02C000E85AC0A8EEB0E2008102FF5F
:1089A40016C0F093CA04FD01048506FF50C065D1CA
:1089B40001FD4DC03AD109F04AC0FD0106AD0130B8
:1089C40011F431D144C0043009F041C016C0008113
:1089D40001FF15C002E056D2FD01048106FF37C035
:1089E4004CD101FD34C021D191F5FD0106AD023019
:1089F40011F4B8DF2CC0033051F586D028C00081B3
:108A040004FF1BC000E13ED2FD0100E002AF01E023
:108A140010E000AB11AB1093C30420E430E000E09D
:108A240089DF20E430E010E000E884DF02E719E2A7
:108A3400FD0100871187F8D00AC0008106FF02C03B
:108A440000E404C0008105FF02C000E21BD28FBF16
:108A5400EED00BD01895E0ECF4E00081089508D036
:108A6400AAE0B1E203D109F00995A991B991089559
:108A7400BA93AA9308950E94A74008EE402E00E2FC
:108A8400502EF20106AD033019F4E9DFCDD034C025
:108A9400B3D080A191A1801B910B80309040A9F4A8
:108AA400B3D0EDD10217130721F00091B2290023AE
:108AB40011F058DF21C0A3D079F0E7D169F0F201B9
:108AC40000E000AF01AF80A191A1803400E09007E5
:108AD40018F080E490E001C001E00093B229F201B3
:108AE40086879787268D378D87D0200F311F208B5F
:108AF400318B93D003D03BDF5CCE0693E4EFF0E2FE
:108B0400089505E000932621E5EFF0E204E00593E3
:108B1400EDEEF0E204E0059308954A92A9DF9A93FA
:108B240095D04FB6AAD001FD03C07FD009F05EC036
:108B340002E00093CC040091C5049DD0F8010081AB
:108B440005FF4EC098D020E2F8012693A1D104304D
:108B540049F422A133A12030304011F0F9010995E4
:108B640063D044C08681978160AD71AD00A111A12D
:108B74009B01280F391F0217130718F4C801861B1D
:108B8400970BAC0122E739E2068D178D060F171FEC
:108B940036DCFD0142D080349040B9F439D0448DA4
:108BA400558D2417350788F420A131A120173107EA
:108BB40051F425D089F069D179F0FD011DD024D07C
:108BC40000E000AF01AFD1DE11C000A311A3949661
:108BD4004DD021F05BD111F494DF08C024D006C03D
:108BE40000E84AD020E2F801269345DF4FBE1FD0AB
:108BF40099913BDF4990189500AD11AD089524A1DA
:108C040035A120303040089503D026AB37AB08950A
:108C140026A937A9200F311F0895EEDF080F191F69
:108C240000AF11AF0895A6CE45CE29D0CDCD099180
:108C340019912991399149915991699179910990A1
:108C4400199029903990E991F99173CB8A93FA9309
:108C5400EA933A922A921A920A927A936A935A93CC
:108C64004A933A932A931A930A930895ED91FC91A7
:108C7400E030F040089500E049CEECECEDCEF8DEB3
:108C8400FCDF00FD02C000E0F9C001E000833BDE30
:108C940000E833DF00E8069301E0F4D034DE00E1BD
:108CA4000693F6D0002331F0033011F0043009F4B8
:108CB400D6DEBADFFD01068117810830104009F0C5
:108CC400DCC048E050E022E739E20EEF10E297DB27
:108CD400E8ECF4E0E9D0E8D0FD0100E000A301A352
:108CE40002A303A304A305A3068907FF04C0C7D0F6
:108CF400012B09F4B7C00689102F1F71007627894C
:108D040009F077C0112309F0ADC0368937FF44C09C
:108D1400322F2223E1F1365091F0325009F069C02C
:108D240021E030E002E211E29CDDFD01068907FD4D
:108D34009BC0A5D0012B09F09CC075DF9EC0608D3F
:108D4400418D4A95A1F04A9559F04A9509F051C0D0
:108D5400662309F087C024E030E004EE10E20CC082
:108D6400E0ECF0E22281338100EC10E205C02091B6
:108D7400D22030E002ED10E274DDFD0180D020A1AC
:108D840031A10217130788F600A311A3CECF22E066
:108D940030E008E111E2C8CF322F355029F13450C8
:108DA40041F502DCFD01008D02AF002309F4BDCFC3
:108DB40000E003AF72D000919000FD0104A7009180
:108DC400910005A70091920006A70091930007A7C0
:108DD400E0EDF1E0008101FD04C001E0FD0104AF1C
:108DE400A4CFFD0100E0FBCF0FED12E402A313A317
:108DF4009CCF1130B9F50032A9F5068907FF15C0DB
:108E0400225019F02A9561F028C0D296ED91FC9178
:108E1400D397E030F04009F139D009F086CF22C071
:108E240026E030E00EE011E27FCF2A9519F02350BE
:108E340091F013C003AD002319F006E012E4D6CF7D
:108E440020E430E007E211E20CDD0AEF12E4FD0158
:108E540004A315A36ACF21D068CF0FE0FD0106A3B8
:108E64000AE002A74EDE09C019D002E006AF03DE15
:108E740004C014D001E006AF78DD01E0F6CD048D26
:108E8400158D08950093CA040895F90109959CCCA1
:108E9400A8EEB0E2FD0106AD089595CB00E006AB67
:108EA40007AB00AF01AF08950081006223CACB086D
:108EB400E820000076007220BE8E040000008000CE
:108EC40000FF401141000400006E419D4103000079
:108ED40000FF410000040000000342000000000005
:108EE400000000000075207D209520952085208DB0
:108EF40020952095209520952095209520952095C6
:108F0400209520952095200009021200010100C03F
:108F1400320904000000FF000000120100020000FA
:108F24000040EB03E42F04000000000104030904E3
:040000050000800077
:00000001FF
