:10000000E8C5000002C6000000C60000FEC50000F2
:10001000FCC50000FAC50000F8C50000F6C50000E8
:10002000F4C50000F2C50000F0C50000EEC50000F8
:10003000ECC50000EAC50000E8C50000E6C5000008
:10004000E4C50000E2C50000E0C50000DEC5000018
:10005000DCC50000DAC500000C94CD1DD6C500003B
:10006000D4C50000D2C50000D0C50000CEC5000038
:10007000CCC50000CAC50000C8C50000C6C5000048
:10008000C4C50000C2C500000C948A1DBEC5000096
:10009000BCC50000BAC50000B8C50000B6C5000068
:1000A000B4C50000B2C50000B0C50000AEC5000078
:1000B000ACC50000AAC50000A8C50000A6C5000088
:1000C000A4C50000A2C50000A0C500009EC5000098
:1000D0009CC500009AC5000098C5000096C50000A8
:1000E00094C5000092C5000090C500008EC50000B8
:1000F0008CC500008AC5000088C5000086C50000C8
:1001000084C5000082C5000080C500007EC50000D7
:100110007CC500007AC5000078C5000076C50000E7
:1001200074C5000072C5000070C500006EC50000F7
:100130006CC500006AC5000068C5000066C5000007
:1001400064C5000062C5000060C500000C94681E14
:100150005CC500005AC5000058C5000056C5000027
:1001600054C5000052C5000050C500004EC5000037
:100170004CC500004AC5000048C5000046C5000047
:1001800044C5000042C5000040C500003EC5000057
:100190003CC500003AC5000038C5000036C5000067
:1001A00034C5000032C5000030C500002EC5000077
:1001B0002CC500002AC5000028C5000026C5000087
:1001C00024C5000022C5000020C500001EC5000097
:1001D0001CC500001AC5000018C5000016C50000A7
:1001E00014C5000012C5000010C500000EC50000B7
:1001F0000CC500000C947A2F08C500002E03520095
:1002000065007600450020005200650062006F0026
:100210006F0074006500640020002800690063001E
:1002200065006D0061006E00290000001C034300A2
:10023000680061006D0065006C0065006F006E0075
:100240004D0069006E006900000004030904090202
:100250003E00020100C03209040000010202010058
:1002600005240010010424020605240600010705E8
:1002700082030800FF09040100020A0000000705CC
:100280000402100005070583021000051201100189
:1002900002000008EB03442001000102DC01E1063A
:1002A0000000E206E306E406E506E606CD06CE0615
:1002B000DB06D106D706DA06D206D6061000000005
:1002C0000000000004014C1F0000831F0720E321F1
:1002D000E506E606CD06CD23BA27E7272C283128E8
:1002E0001F282728000400000000000004004C1F05
:1002F0000000831F0720E321E506E606CD06CD2397
:10030000BA27E7272C2831281F28272800040000B7
:100310000000000007004C1F0000831F1120E32194
:10032000E506E606CD06CD23BA27E7272C28312897
:100330001F282728001000000000000004004C1FA8
:100340000000831F1120E321E506E606CD06CD233C
:10035000BA27E7272C2831281F282728001000005B
:100360000000000007004C1F0000831F1B20E3213A
:10037000E506E606CD06CD23BA27E7272C28312847
:100380001F282728400100000000000004004C1F27
:100390000000831F2020E321E506E606CD06CD23DD
:1003A000BA27E7272C2831281F2827280004000017
:1003B000D000000004004C1F0000831FC421E32173
:1003C000E5063721DE21CD23BA27E7272C2831285F
:1003D0001F28272800040000FFFFFFFF0400004340
:1003E0004C4F534544000000000000000000000096
:1003F00000000000000000000000000000000001FC
:100400004D465F434C41535349435F314B0000001D
:1004100000000000000000000000000000000000DC
:10042000024D465F434C41535349435F314B5F3765
:10043000420000000000000000000000000000007A
:1004400000034D465F434C41535349435F344B00D7
:10045000000000000000000000000000000000009C
:100460000000044D465F434C41535349435F344BB6
:100470005F374200000000000000000000000000A4
:10048000000000054D465F434C41535349435F4DC7
:10049000494E49000000000000000000000000007C
:1004A00000000000064D465F434C41535349435FF3
:1004B000444554454354494F4E000000000000009D
:1004C0000000000000074D465F434C415353494331
:1004D0005F4C4F47000000000000000000000000DB
:1004E0000000000000000100000100010100000107
:1004F00001000100000100010100010000010100F4
:1005000000010001010000010100010000010100E3
:1005100000010001010001000001000101000001D3
:1005200001000100000100010100010000010100C3
:1005300000010001010001000001000101000001B3
:1005400001000100000101000001000101000001A3
:100550000100010000010001010001000001010093
:100560000001000101000001010001000001010083
:100570000001000101000100000100010100000173
:100580000100010000010100000100010100000163
:100590000100010000010001010001000001010053
:1005A0000001000101000100000100010100000143
:1005B0000100010000010001010001000001010033
:1005C0000001000101000001010001000001010023
:1005D0000001000101000100000100010100000113
:1005E000010001000001008040C020A060E01090E8
:1005F00050D030B070F0088848C828A868E818982B
:1006000058D838B878F8048444C424A464E4149412
:1006100054D434B474F40C8C4CCC2CAC6CEC1C9CCA
:100620005CDC3CBC7CFC028242C222A262E21292EE
:1006300052D232B272F20A8A4ACA2AAA6AEA1A9ACA
:100640005ADA3ABA7AFA068646C626A666E61696B2
:1006500056D636B676F60E8E4ECE2EAE6EEE1E9E6A
:100660005EDE3EBE7EFE018141C121A161E11191AC
:1006700051D131B171F1098949C929A969E919999A
:1006800059D939B979F9058545C525A565E5159582
:1006900055D535B575F50D8D4DCD2DAD6DED1D9D3A
:1006A0005DDD3DBD7DFD038343C323A363E313935E
:1006B00053D333B373F30B8B4BCB2BAB6BEB1B9B3A
:1006C0005BDB3BBB7BFB078747C727A767E7179722
:1006D00057D737B777F70F8F4FCF2FAF6FEF1F9FDA
:1006E0005FDF3FBF7FFF434C4F5345440000000096
:1006F0000000000000000000000052414E444F4D39
:100700005F5549440000000000000000000055490A
:10071000445F4C4546545F494E4352454D454E5407
:1007200000005549445F52494748545F494E43527F
:10073000454D454E54005549445F4C4546545F4431
:10074000454352454D454E5400005549445F52497A
:100750004748545F44454352454D454E5400535716
:100760004954434843415244000000000000000047
:100770000000524541444F4E4C590000000000001B
:10078000000000000000434152445F46554E435470
:10079000494F4E0000000000000000062000061037
:1007A0000006080006048006088006048006028011
:1007B0000601080B0B1000010008000800010000F2
:1007C0000100000800F80000080400020000080012
:1007D000080B0B10000100100008000200000100CF
:1007E000000800F800001008000400001000090CC8
:1007F0000C110002001000100002000002000010A6
:1008000000F001001010000800002000090C0C107E
:10081000000200200010000400000100001000F0A1
:10082000000040200010000040000903030A0001FE
:1008300000800008001000000400000800F8030019
:100840002040002000008000257500253575206DB2
:100850005600257500256C750052414E444F4D00E1
:100860004368616D656C656F6E4D696E692D2573AA
:10087000207625642E2564202825733A20257329A7
:10088000000D0A000D0A000D0A000D0A000D0A00F5
:100890000D0A00643130303A4F4B00000000000078
:1008A0000000000000000000000000000000000048
:1008B00000000000653130313A4F4B205749544811
:1008C00020544558540000000000000000000000C3
:1008D00000000000006E3131303A57414954494E12
:1008E0004720464F5220584D4F44454D00000000D0
:1008F000000000000000C83230303A554E4B4E4FD9
:10090000574E20434F4D4D414E4400000000000023
:1009100000000000000000C93230313A494E564113
:100920004C494420434F4D4D414E4420555341477F
:100930004500000000000000CA3230323A494E56ED
:10094000414C494420504152414D455445520000CC
:10095000000000000000000000CB3230333A544960
:100960004D454F55540000000000000000000000FD
:100970000000000000000000000056455253494F9F
:100980004E00000000000000000000000000000019
:100990008216434F4E464947000000000000000009
:1009A0000000B6160000AB16A5165549440000001D
:1009B00000000000000000000000000000007B17A5
:1009C0005117415451410000000000000000000098
:1009D000000000000000E316BC1653414B0000006D
:1009E00000000000000000000000000000003617BA
:1009F0001617524541444F4E4C590000000000006C
:100A0000000000000000CE17C21755504C4F414463
:100A100000000000000000000000E11700000000DE
:100A20000000444F574E4C4F41440000000000006E
:100A30000000E61700000000000052455345540036
:100A400000000000000000000000EB1700000000A4
:100A5000000055504752414445000000000000008E
:100A60000000F6170000000000004D454D53495AA4
:100A70004500000000000000000000000000000031
:100A80000118574F524B4D454D000000000000002B
:100A900000001619000000001219574F524B4D4527
:100AA0004D55504C4F41440000001A190000000001
:100AB0000000574F524B4D454D444F574E4C4F4100
:100AC00044001F1900000000000055494453495AD2
:100AD00045000000000000000000000000000000D1
:100AE0002419425554544F4E0000000000000000ED
:100AF00000003A19000048194019425554544F4E0D
:100B00005F4C4F4E47000000000053190000611970
:100B1000591953455454494E470000000000000045
:100B200000000000000072196C19434C454152004E
:100B3000000000000000000000007D19000000001F
:100B4000000048454C50000000000000000000007C
:100B500000008D19000000000000525353490000AE
:100B60000000000000000000000000000000000085
:100B7000CC19444554454354494F4E0000000000F1
:100B80000000000000000000E7195549444D4F44A3
:100B90004500000000000000000000000000341AC2
:100BA0001E1A434C454152414C4C000000000000CD
:100BB0000000461A000000000000000000000000D5
:100BC0000000000000000000000000000000000025
:100BD000000011241FBECFEFCDBFDFE2DEBF11E268
:100BE000A0E0B0E2E0E5FDE602C005900D92AC3673
:100BF000B107D9F729E2ACE6B1E201C01D92A33FEB
:100C0000B207E1F703D00C94A63657C05CD00E941F
:100C100071132DD387D3F8D00E94211642D186D2EA
:100C20000ED4B6D0C1E080910C0A80FF0CC0C093F6
:100C30000C0A91D33AD10E943E167FD2E091F42360
:100C4000F091F52309950E942516E091EC23F0918F
:100C5000ED230995E8CF292F30E02230310559F0F6
:100C60002330310569F021303105F9F482E190E05B
:100C70002CE832E01EC08EE390E02EE432E019C092
:100C8000882349F0813061F0823079F48EE290E07F
:100C90002CEF31E00EC084E090E02AE432E009C09D
:100CA0008CE190E02CE232E004C080E090E020E0B3
:100CB00030E0FA012083318308951F920F920FB61E
:100CC0000F921124FFCF8091780083FF0AC088E043
:100CD0008093780088ED84BF81E080938000FD954B
:100CE000FEC080915000866080935000809151003A
:100CF00081FFFCCF8091510082FFFCCF1092560003
:100D000081E08093600098ED94BF8093400023EDD4
:100D100030E32093260A3093270A96E09093000A46
:100D20008093430080930004089588ED84BF81E0A0
:100D300080937900089588ED84BF8BE180938000D3
:100D400008958BEC809352008091500088608093CE
:100D500050008091510083FFFCCF84EC80935500BC
:100D6000809150008061809350008091510084FFF9
:100D7000FCCF0895E0E4F0E084818E7F8483E0E599
:100D8000F0E080818F7E80838081877F80830895DB
:100D900087E08093A20078940895089580E090E021
:100DA00008950895FC011082118208950895FC01B0
:100DB00010820895089524E0FC0111922A95E9F724
:100DC0000895089508950895089508950895CF9376
:100DD000DF93E0911124F0911224828398E2899F9D
:100DE000B001112462567D4F48E250E088EE93E254
:100DF0000E949932C8EED3E2E881F9810995EE812B
:100E0000FF81DF91CF910994E0911124F091122498
:100E10008281DDCF0F931F93E0911124F091122472
:100E20008B019C01428168E08EED93E0A4D21F917A
:100E30000F9108951F93CF93DF931F92CDB7DEB725
:100E40009E012F5F3F4FAC0168E08EED93E0ABD287
:100E5000182F882311F08981BADF812F0F90DF913D
:100E6000CF911F9108959B01AC0168E08EED93E056
:100E7000C1C228E2829FC0011124FC01E454FD4F4D
:100E80006591759185919491089528E2829FC001A2
:100E90001124FC01E054FD4F659175918591949169
:100EA000089508950C948B3208950E948B320E940D
:100EB0008B320E948B320C948B32CF93DF93EC01F8
:100EC00061507109DA01420F531FFC01CF018C1BE5
:100ED0009D0BA417B50721F41082DF91CF910895DF
:100EE00062307105C8F39D91392F32953F703A30C9
:100EF00010F4305D01C0395C30839F709A3010F47B
:100F0000905D01C0995C9183329662507109DECF89
:100F1000CF93DF93EC01DA0120E030E05C915523C0
:100F200051F111969C911197992339F126173707A2
:100F300011F180ED850F8A3020F08FEB850F863020
:100F4000E0F480ED890F8A3020F04FEB490F4630F6
:100F5000A0F4E52FF0E0513408F0F797E295E07F38
:100F6000913410F4982F01C097539E2B99932F5FC3
:100F70003F4F1296D3CFC90102C080E090E0DF91CD
:100F8000CF9108950F931F93CF93DF93CDB7DEB723
:100F90006097CDBFDEBF8130B9F4E091FA23F091C4
:100FA000FB23CE010196099510E080910E241817BD
:100FB00008F099C077DFE1E0F0E0EC0FFD1FE10FF2
:100FC000F11D80831F5FF1CF8230B9F5E091FA23E4
:100FD000F091FB238E010F5F1F4FC80109952091EF
:100FE0000E24F80191E08E2F801B8217F8F49923CC
:100FF00039F0808191E08F3F09F090E08F5F80832E
:101000003196F1CF843009F049C0E091FA23F09194
:10101000FB238E010F5F1F4FC801099520910E24FD
:10102000F80191E08E2F801B821770F1E091FC2374
:10103000F091FD23C801099571C0833019F7E09143
:10104000FA23F091FB23CE010196099580910E249D
:1010500041E0815008F447C04423D9F3282F30E001
:10106000E1E0F0E0EC0FFD1FE20FF31F908141E0A3
:101070009F3F09F040E0E1E0F0E0EC0FFD1FE20FE0
:10108000F31F9F5F9083E5CF992331F0808191E03A
:10109000811190E0815080833196C4CF853051F525
:1010A000E091FA23F091FB23CE01019609958091FE
:1010B0000E2441E08150B8F04423E1F3282F30E0C2
:1010C000E1E0F0E0EC0FFD1FE20FF31F908141E043
:1010D000911140E0E1E0F0E0EC0FFD1FE20FF31FA3
:1010E00091509083E7CFE091FC23F091FD23CE0156
:1010F0000196A1CF863011F4DDD010C0873039F4CD
:1011000090910F2481E0892780930F2407C08830B5
:1011100029F4E091F623F091F72309956096CDBF6D
:10112000DEBFDF91CF911F910F910895E0E0F6E0CF
:1011300080E4828388E1868B0895909108068091EF
:101140006C2196FD10C08A3050F08A30B9F4E091DD
:101150001124F0911224818115DF80916C218F5F21
:1011600080936C21089581508A3030F4E0911124ED
:10117000F0911224808106DF10926C210895CF93A4
:101180006150710946EE56E020E0CCE2FA01DC0144
:10119000CD013491311108C0283071F0CC936150E9
:1011A0007109CD01019608C065317105A8F33D9321
:1011B000319661507109ECCF2F5F4C5E5F4F293043
:1011C00029F7FC011082CF910895E0E1F4E298E064
:1011D000811102C0638303C0813009F4648391509C
:1011E00035969111F5CF0895282FCB0121110AC012
:1011F000E0911124F0911224608124E1629FB001FA
:1012000011240BC0213069F4E0911124F0911224D3
:101210006181E4E16E9FB00111246A51794F0C9411
:10122000AB32FB0110820895EF92FF920F931F9350
:10123000CF93DF93D82F7B0106EE16E0C0E0B80114
:10124000C7010E94A232892B29F46C2F8D2FBDDF9C
:1012500081E006C0CF5F0C5E1F4FC93081F780E090
:10126000DF91CF911F910F91FF90EF9008954CE285
:1012700050E060E070E080E194E20C94FF354CE2D5
:1012800050E060E070E080E194E20C94AC3588308E
:1012900078F48093102425E0829FC00111248D5E94
:1012A0009B4D8093112490931224AEDD81E008952C
:1012B00080E008953091102429E045E02150B1F0FC
:1012C000832F90E0019687709927382FBC016F5FBC
:1012D0007F4F469FF001479FF00D1124E05FFB4DCB
:1012E0005081552359F3D3DF8111C9CF0895FC01F3
:1012F0008EE480838FE481838EE282838091102448
:10130000805D838314820895FC012181211105C031
:1013100080818053883008F4BACF80E008958093AC
:101320003B24ADCF8FE0809381068CE38093010650
:10133000089590E0FC01EE0FFF1F8E0F9F1FFC0130
:10134000E656F84FA591B491FC01E456F84F84910C
:1013500015968C930895A0E0B6E016961C92169709
:10136000E0E8F6E016828CE316968C938FE0868395
:1013700080911024DECF0F931F93FC01662379F038
:1013800094916150941309C0BF016F5F7F4FA80112
:10139000C9010E94AB3281E003C0B196EFCF80E07B
:1013A0001F910F910895CF92DF92EF92FF921F93BA
:1013B000CF93DF93EC017A016901162F112389F095
:1013C000BE016F5F7F4FC7010E94A2321150892B6F
:1013D00031F4FE01C491F601C08381E003C0A196FF
:1013E000EDCF80E0DF91CF911F91FF90EF90DF90E4
:1013F000CF900895CF930196CCE26623D1F0FC0103
:10140000DA01AD017491772341F021153105A9F07E
:101410007D93319621503109F4CF623038F0211597
:10142000310559F0FD01C0834F5F5F4F61508196D8
:10143000E4CF232B11F0FA011082CF910895E0E060
:10144000F2E081E08083118292E0928393E09483C2
:1014500080A388E381A3089580912002806880930F
:1014600020028091230280FFFCCF81E08093230241
:10147000A0911002B0911102AE5BB109B7FF02C09A
:10148000A0E0B0E029E637E54BE050E00C943E32B6
:101490000895E0ECF1E084858860848780E094E042
:1014A00080933C2490933D2481E00895FF920F9314
:1014B0001F93CF93DF93CDB7DEB72897CDBFDEBFA5
:1014C00088E0E4E4F0E2DE01119601900D928A9545
:1014D000E1F7FFB600E010E048E050E0B801CE01CF
:1014E00001960E941A36085F1F4F011584E0180705
:1014F00099F7FFBE81E02896CDBFDEBFDF91CF9187
:101500001F910F91FF900895CF93DF93CDB7DEB772
:101510002897CDBFDEBF20916D21222309F45CC046
:1015200020914E2430914F248217930708F054C025
:1015300020E147ED209366064093A0093091A10970
:1015400036FFFCCF3091A10937FFFCCF3091A009C5
:101550001092A0093091A10936FFFCCF3091A1096A
:1015600037FFFCCF3091A0092093650637FFE2CF0B
:1015700020E120936606A0E0B0E00090482404C07B
:10158000880F991FAA1FBB1F0A94D2F78D839E83D1
:10159000AF83B88781E889838F818A838E818B832B
:1015A0008D818C83FE013196CE010596E817F907EF
:1015B00071F021912093A0092091A10926FFFCCF71
:1015C0002091A10927FFFCCF2091A009EFCF80E156
:1015D0008093650681E001C080E02896CDBFDEBF24
:1015E000DF91CF910895CF93DF93CDB7DEB72897E2
:1015F000CDBFDEBF20916D21222309F45AC0209176
:101600005224309153248217930708F052C020E1EE
:1016100047ED209366064093A0093091A10936FF5B
:10162000FCCF3091A10937FFFCCF3091A009109277
:10163000A0093091A10936FFFCCF3091A10937FFF5
:10164000FCCF3091A0092093650637FFE2CF20E15F
:10165000209366060090492402C0880F991F0A94BF
:10166000E2F7A0E0B0E08D839E83AF83B88780E58A
:1016700089838F818A838E818B838D818C83FE0108
:101680003196CE010596E817F90771F02191209364
:10169000A0092091A10926FFFCCF2091A10927FFD5
:1016A000FCCF2091A009EFCF80E18093650681E017
:1016B00001C080E02896CDBFDEBFDF91CF910895B5
:1016C000CF93DF93CDB7DEB72897CDBFDEBF209194
:1016D0006D21222309F46EC020915E2430E0821730
:1016E000930708F067C020E147ED2093660640931A
:1016F000A0093091A10936FFFCCF3091A10937FF35
:10170000FCCF3091A0091092A0093091A10936FFB9
:10171000FCCF3091A10937FFFCCF3091A009209375
:10172000650637FFE2CF20E120936606009761F05F
:10173000A0E0B0E000904B2404C0880F991FAA1FBE
:10174000BB1F0A94D2F710C080E090E04CDF81E02C
:1017500090E0A0E0B0E000904A2404C0880F991FF8
:10176000AA1FBB1F0A94D2F78D839E83AF83B887CD
:101770008CE789838F818A838E818B838D818C8393
:10178000FE013196CE010596E817F90771F0219117
:101790002093A0092091A10926FFFCCF2091A10947
:1017A00027FFFCCF2091A009EFCF80E18093650651
:1017B00081E001C080E02896CDBFDEBFDF91CF91F0
:1017C0000895FF920F931F93CF93DF93CDB7DEB7AA
:1017D0002597CDBFDEBF80E18093650682E08093D0
:1017E000660688E0809365068AE180936106109220
:1017F000A6091092A70980EC8093A50988E180933F
:10180000A40980E127ED809366062093A0099091BA
:10181000A10996FFFCCF9091A10997FFFCCF909171
:10182000A0091092A0099091A10996FFFCCF909178
:10183000A10997FFFCCF9091A0098093650697FFBF
:10184000E2CF80E1809366068FE98093A0098091C2
:10185000A10986FFFCCF8091A10987FFFCCF809171
:10186000A009FE013196CE0106968F01E817F9070F
:1018700071F01092A0092091A10926FFFCCF2091C0
:10188000A10927FFFCCF2091A0092193EFCF80E190
:10189000F82EF0926506898180933E248A81809398
:1018A0003F242B81209340249D8190934124982FA5
:1018B000929596959770909342248F7190E08093C3
:1018C000432490934424322F3295369537703093C9
:1018D00045242F7130E02093462430934724049709
:1018E0008530910508F0A1C02EE1289FB001299F05
:1018F000700D11246E54784F4EE150E088E494E26C
:101900000E94993280913E248F3109F08EC08091DF
:101910004224813009F089C0F092660687ED8093F9
:10192000A0098091A10986FFFCCF8091A10987FFC2
:10193000FCCF8091A0091092A0098091A10986FF97
:10194000FCCF8091A10987FFFCCF8091A00990E195
:101950009093650680FD65C080914C2090914D204C
:10196000A0914E20B0914F2089839A83AB83BC8392
:1019700080E127ED809366062093A0099091A1094C
:1019800096FFFCCF9091A10997FFFCCF9091A00901
:101990001092A0099091A10996FFFCCF9091A10906
:1019A00097FFFCCF9091A0098093650697FFE2CF47
:1019B00080E180936606F801CE0105968E179F0799
:1019C00071F021912093A0092091A10926FFFCCF5D
:1019D0002091A10927FFFCCF2091A009EFCF80E142
:1019E0008093650627ED809366062093A009909169
:1019F000A10996FFFCCF9091A10997FFFCCF909190
:101A0000A0091092A0099091A10996FFFCCF909196
:101A1000A10997FFFCCF9091A0098093650697FFDD
:101A2000E2CF81E080936D2101C080E02596CDBF9B
:101A3000DEBFDF91CF911F910F91FF900895CF925C
:101A4000DF92EF92FF920F931F93CF93DF93CDB767
:101A5000DEB72897CDBFDEBFE0916D21EE23B9F050
:101A6000011511052105310591F0C0906224D09037
:101A70006324E0906424F0906524C01AD10AE20A3D
:101A8000F30AE1E0C416D506E606F70608F4E0E03E
:101A9000E0FF68C0F0E1A7EDF0936606A093A0090F
:101AA000E091A109E6FFFCCFE091A109E7FFFCCF9F
:101AB000E091A0091092A009E091A109E6FFFCCFF6
:101AC000E091A109E7FFFCCFE091A009F093650642
:101AD000E7FFE2CFE0E1E09366064D835E836F832C
:101AE00078874BE049834F814A834E814B834D81F8
:101AF0004C83FE013196AE014B5F5F4FE417F50753
:101B000071F061916093A0096091A10966FFFCCF1B
:101B10006091A10967FFFCCF6091A009EFCF1092FF
:101B2000A0094091A10946FFFCCF4091A10947FFC0
:101B3000FCCF4091A009FC010150110970F01092F6
:101B4000A0098091A10986FFFCCF8091A10987FFA0
:101B5000FCCF8091A0098193EFCF80E1809365064F
:101B600081E001C080E02896CDBFDEBFDF91CF913C
:101B70001F910F91FF90EF90DF90CF9008952F92DB
:101B80003F924F925F926F927F928F929F92AF920D
:101B9000BF92CF92DF92EF92FF920F931F93CF935A
:101BA000DF93CDB7DEB76A97CDBFDEBF8D8B9E8B3F
:101BB0002A013B014801590180916D218823B9F028
:101BC000011511052105310591F0409162245091D4
:101BD00063246091642470916524401B510B620B57
:101BE000730B81E0441555056605770508F480E020
:101BF00080FFFFC01D861E861F86188A10E100E147
:101C00001E0125E0220E311CC0904C24D0904D24A2
:101C1000C601A0E0B0E08F8B988FA98FBA8FC30167
:101C2000B2012F89388D498D5A8D0E94FC3169018E
:101C30007A010090482404C0CC0CDD1CEE1CFF1C73
:101C40000A94D2F7C98ADA8AEB8AFC8ACF88D88CC0
:101C5000E98CFA8C8C149D04AE04BF0428F0C61ADB
:101C6000D70AE80AF90A02C0750164010093660602
:101C700027ED2093A0092091A10926FFFCCF2091F8
:101C8000A10927FFFCCF2091A0091092A009209163
:101C9000A10926FFFCCF2091A10927FFFCCF2091AD
:101CA000A0091093650627FFE1CF009366062989F6
:101CB0003A894B895C892D833E834F83588733E56E
:101CC00039832F812A832E812B832D812C83FE0142
:101CD0003196E215F30571F021912093A00920912E
:101CE000A10926FFFCCF2091A10927FFFCCF20915D
:101CF000A009EFCF109365061093660647ED409359
:101D0000A0092091A10926FFFCCF2091A10927FF5E
:101D1000FCCF2091A0091092A0092091A10926FFD3
:101D2000FCCF2091A10927FFFCCF2091A00910939F
:101D3000650627FFE1CF0093660629893A894B891A
:101D40005C89262B372B482B592B29873A874B87C1
:101D50005C8732E839838B858A838A858B83898582
:101D60008C83FE013196E215F30571F08191809329
:101D7000A0098091A10986FFFCCF8091A10987FF6E
:101D8000FCCF8091A009EFCFC601ED89FE894D857A
:101D90005E85E40FF51F019770F021912093A00953
:101DA0002091A10926FFFCCF2091A10927FFFCCF9C
:101DB0002091A009F0CF109365068C189D08AE08FD
:101DC000BF084C0C5D1C6E1C7F1C8D859E85AF85ED
:101DD000B8898C0D9D1DAE1DBF1D8D879E87AF8759
:101DE000B88B81149104A104B10409F00DCF81E0F6
:101DF00001C080E06A96CDBFDEBFDF91CF911F9119
:101E00000F91FF90EF90DF90CF90BF90AF909F9099
:101E10008F907F906F905F904F903F902F9008959C
:101E2000CF93DF9300D000D0CDB7DEB780916D2186
:101E3000882309F468C08091502090915120A0918E
:101E40005220B091532089839A83AB83BC8380E175
:101E500027ED809366062093A0099091A10996FF33
:101E6000FCCF9091A10997FFFCCF9091A00910920F
:101E7000A0099091A10996FFFCCF9091A10997FF2D
:101E8000FCCF9091A0098093650697FFE2CF80E197
:101E900080936606FE013196CE010596E817F90794
:101EA00071F021912093A0092091A10926FFFCCF78
:101EB0002091A10927FFFCCF2091A009EFCF80E15D
:101EC0008093650627ED809366062093A009909184
:101ED000A10996FFFCCF9091A10997FFFCCF9091AB
:101EE000A0091092A0099091A10996FFFCCF9091B2
:101EF000A10997FFFCCF9091A0098093650697FFF9
:101F0000E2CF81E001C080E02496CDBFDEBFDF914B
:101F1000CF9108952F923F924F925F926F927F924E
:101F20008F929F92AF92BF92CF92DF92EF92FF92E9
:101F30000F931F93CF93DF93CDB7DEB72E97CDBF0F
:101F4000DEBF4B015C0129013A012DB73EB72C875A
:101F50003D87672B682B692B79F4809162249091DF
:101F60006324A0916424B091652484159505A60589
:101F7000B70511F455DF13C280914C2490914D2484
:101F8000A0E0B0E0481659066A067B06D0F4CDB64C
:101F9000DEB64DB75EB7441955094DBF5EBF8DB76C
:101FA0009EB701967C01A2016FEF70E00E94D032D3
:101FB00093018201B501A401C701E1DDCDBEDEBE02
:101FC000EEC180916D218823B9F041145104610460
:101FD000710491F0409162245091632460916424D3
:101FE00070916524441955096609770981E04815FF
:101FF00059056A057B0508F480E080FFCFC1C090D9
:102000005424D0905524E0905624F0905724C301D6
:10201000B201A70196010E94FC3129833A834B83C8
:102020005C836D8379878A879B8729803A80211416
:10203000310409F48AC0C501B401A70196010E94C8
:10204000FC318901672B682B692B99F429813A812E
:102050004B815C8144275527C701B6010E94CD31D1
:10206000860E971EA81EB91E4D8059846A847B84F3
:102070003AC02A94232899F129803A80A1E02A1AAB
:10208000310889010F5F1F4F0C9DC0010D9D900D00
:102090001C9D900D1124881999099C0140E050E085
:1020A00029833A834B835C83892B19F0C501B401E2
:1020B00031DFD101A70196010E943432860E971EAE
:1020C000A81EB91E29813A814B815C81260F371FDA
:1020D000481F591F421A530A640A750A04C000E0D7
:1020E00010E0212C312C8091542490915524A09102
:1020F0005624B0915724C816D906EA06FB0681F08B
:102100008091502490915124A0E0B0E0C816D906E7
:10211000EA06FB0651F0E4E8CE2EEAE0DE2E09C026
:1021200070E6C72E7BE0D72E04C063EFC62E6AE0B0
:10213000D62E7101E00EF11EE016F10631F0C80155
:10214000F60109950F5F1F4FF7CF009150241091B2
:1021500051246801E12CF12CC301B201A7019601C1
:102160000E94FC312D833E834F83588769877A878D
:102170008B879E872D803E802114310409F493C003
:10218000C501B401A70196010E94FC3129833A835D
:10219000672B682B692B99F42D813E814F815885DF
:1021A00044275527C701B6010E94CD31860E971EE0
:1021B000A81EB91E49845A846B847E843AC02A942E
:1021C000232899F12D803E8081E0281A3108D90119
:1021D0001196A983BA830A9FC0010B9F900D1A9F85
:1021E000900D1124881999099C0140E050E02D833D
:1021F0003E834F835887892B19F0C501B4018ADECD
:102200009801D1010E942532860E971EA81EB91E84
:10221000461A570A680A790A8D819E81AF81B8856E
:10222000481A590A6A0A7B0A04C019821A82212CA8
:10223000312C8091542490915524A0915624B09132
:102240005724C816D906EA06FB0681F0809150246F
:1022500090915124A0E0B0E0C816D906EA06FB062A
:1022600051F054E8E52E5AE0F52E09C040E6E42E80
:102270004BE0F42E04C033EFE32E3AE0F32E098155
:102280001A81020D131D49815A810417150759F04F
:1022900089819A81F701099529813A812F5F3F4F02
:1022A00029833A83F0CFC0904C24D0904D24C601AE
:1022B000A0E0B0E089839A83AB83BC83C301B20101
:1022C00029813A814B815C810E94FC3129013A01CC
:1022D0007901232B11F481E062C0C501B401298189
:1022E0003A814B815C810E94FC318901672B682B0C
:1022F000692BF1F091E049165104B1F07201A1E0AF
:10230000EA1AF1080F5F1F4FC09E9001C19E300D69
:10231000D09E300D11242819390951F040E050E0C9
:10232000C501B401F7DD04C000E010E0E12CF12CA0
:102330008091542490915524A0915624B091572413
:1023400029813A814B815C81281739074A075B074D
:1023500081F08091502490915124A0E0B0E02817A2
:1023600039074A075B0751F024E8C22E2AE0D22E33
:1023700009C090E6C92E9BE0D92E04C083EFC82E79
:102380008AE0D82EE00EF11E0E151F0509F4A3CF2A
:10239000C801F60109950F5F1F4FF6CF80E02C852D
:1023A0003D852DBF3EBF2E96CDBFDEBFDF91CF91C5
:1023B0001F910F91FF90EF90DF90CF90BF90AF9063
:1023C0009F908F907F906F905F904F903F902F9055
:1023D0000895CF92DF92EF92FF926A017B012091E4
:1023E0006E2130916F214091702150917121A82F61
:1023F000B0E00E9434326C0D7D1D8E1D9F1DFF903C
:10240000EF90DF90CF9008950F931F939091102439
:10241000981309C0009106241091072420910824E4
:10242000309109240FC090E0019625E0289FF0012B
:10243000299FF00D1124E05FFB4D80810E94390738
:102440008B019C01609172217091732180917421A4
:10245000909175210F3F4FEF14072407340739F08F
:10246000061717072807390710F4C901B8011F918B
:102470000F91089580911024C7CF8F929F92AF92B1
:10248000BF92CF92DF92EF92FF92CF93C82F4A0173
:102490005B01BADF6B017C0120916E2130916F21CD
:1024A0004091702150917121AC2FB0E00E943432E4
:1024B000DC01CB01880D991DAA1DBB1DBC01CD01FE
:1024C0006C0D7D1D8E1D9F1DCF91FF90EF90DF90B5
:1024D000CF90BF90AF909F908F9008958F929F92D2
:1024E000AF92BF92CF92DF92EF92FF92CF93C82F1D
:1024F000809110248C1309C080900A2490900B24A2
:10250000A0900C24B0900D2410C08C2F90E0019668
:1025100025E0289FF001299FF00D1124E05FFB4D7D
:1025200080810E9445074B015C01C0906E21D090D4
:102530006F21E0907021F09071218C2F65DFA70151
:102540009601261B370B480B590BCA01B9013FEF07
:1025500083169306A306B30639F086169706A806D7
:10256000B90610F4C501B401CF91FF90EF90DF9050
:10257000CF90BF90AF909F908F900895809110243E
:10258000ADCFCF92DF92EF92FF92CF93C82F3CDF77
:102590006B017C018C2FA2DF6C0D7D1D8E1D9F1D9C
:1025A000CF91FF90EF90DF90CF90089590911024FD
:1025B000981731F091E0883008F090E0892F01C041
:1025C00081E0817008954F925F926F927F928F9217
:1025D0009F92AF92BF92CF92DF92EF92FF920F93B2
:1025E0001F93509178215523E1F0280139014B01C7
:1025F0005C01842FDBDF8823A1F081149104A10406
:10260000B10479F08C149D04AE04BF0450F08C1812
:102610009D08AE08BF0881E084149504A604B704A1
:1026200008F480E01F910F91FF90EF90DF90CF9022
:10263000BF90AF909F908F907F906F905F904F90E2
:1026400008958F929F92AF92BF92CF92DF92EF92B6
:10265000FF920F931F93CF93C82F4A015B0168012C
:102660007901809110248C1302C004DF02C08C2FEA
:10267000CBDE950184014C2FA6DFCF911F910F91E6
:10268000FF90EF90DF90CF90BF90AF909F908F9092
:1026900008958F929F92AF92BF92CF92DF92EF9266
:1026A000FF920F931F93CF93C82F4A015B016801DC
:1026B0007901809110248C1302C060DF02C08C2F3E
:1026C0000DDF950184014C2F7EDFCF911F910F917B
:1026D000FF90EF90DF90CF90BF90AF909F908F9042
:1026E0000895CF936ED88823E9F180916224909168
:1026F0006324A0916424B0916524AC01BD0133E052
:1027000076956795579547953A95D1F740936E2101
:1027100050936F21609370217093712146E0B695BC
:10272000A795979587954A95D1F7809372219093B5
:102730007321A0937421B093752181159041A10557
:10274000B10590F410926E2110926F2110927021B9
:1027500010927121109272211092732110927421A3
:1027600010927521C0E001C0C1E00E94490A88238F
:10277000B9F080913C2490913D2423E09695879573
:102780002A95E1F78093762190937721C19750F4B1
:1027900010926E2110926F2110927021109271216F
:1027A00080E003C0CC23E1F381E081708093782145
:1027B000CF9108952F923F924F925F926F927F92A6
:1027C0008F929F92AF92BF92CF92DF92EF92FF9241
:1027D0000F931F93CF93FC014B01C42F19012701C5
:1027E000380196018501B301A2018C2F0995882338
:1027F00061F0B301A2018C2FF4010995AB01BC017A
:1028000096018501C1011BD901C080E0CF911F91C4
:102810000F91FF90EF90DF90CF90BF90AF909F907F
:102820008F907F906F905F904F903F902F90089582
:10283000AF92BF92CF92DF92EF92FF920F931F93CE
:102840005701680179018A019B01482F69EE71E106
:1028500081E293E1AFDF1F910F91FF90EF90DF9046
:10286000CF90BF90AF900895EF92FF920F931F9378
:10287000780189019A01AB01BC0180911024D8DF55
:102880001F910F91FF90EF900895AF92BF92CF925A
:10289000DF92EF92FF920F931F9357016801790126
:1028A0008A019B01482F6DE372E189E493E182DFA5
:1028B0001F910F91FF90EF90DF90CF90BF90AF905E
:1028C0000895EF92FF920F931F93780189019A0167
:1028D000AB01BC0180911024D8DF1F910F91FF90B4
:1028E000EF9008952F923F924F925F926F927F9256
:1028F0008F929F92AF92BF92CF92DF92EF92FF9210
:102900000F931F93CF93FC014B01C42F1901270193
:10291000380196018501B301A2018C2F0995882306
:1029200061F0B301A2018C2FF4010995AB01BC0148
:1029300096018501C10123D901C080E0CF911F918B
:102940000F91FF90EF90DF90CF90BF90AF909F904E
:102950008F907F906F905F904F903F902F90089551
:10296000AF92BF92CF92DF92EF92FF920F931F939D
:102970005701680179018A019B01482F69EE71E1D5
:1029800081E293E1AFDF1F910F91FF90EF90DF9015
:10299000CF90BF90AF900895EF92FF920F931F9347
:1029A000780189019A01AB01BC0180911024D8DF24
:1029B0001F910F91FF90EF900895AF92BF92CF9229
:1029C000DF92EF92FF920F931F93570168017901F5
:1029D0008A019B01482F6DE372E189E493E182DF74
:1029E0001F910F91FF90EF90DF90CF90BF90AF902D
:1029F0000895EF92FF920F931F93780189019A0136
:102A0000AB01BC0180911024D8DF1F910F91FF9082
:102A1000EF9008954F925F926F927F92AF92BF9224
:102A2000CF92DF92EF92FF920F931F93CF93DF939A
:102A3000EB015A0128013901FC0109954616570698
:102A40006806790698F48B019C010419150926097A
:102A50003709C016D106E206F30610F49701860185
:102A6000B301A201C501FE01099501C080E0DF911B
:102A7000CF911F910F91FF90EF90DF90CF90BF907B
:102A8000AF907F906F905F904F900895CF92DF92BC
:102A9000EF92FF920F931F93680179018A019B01C6
:102AA000AC0161E674E18EEB92E1B4DF1F910F910E
:102AB000FF90EF90DF90CF900895CF92DF92EF924A
:102AC000FF920F931F93680179018A019B01AC016A
:102AD00064E374E18AE392E19DDF1F910F91FF901F
:102AE000EF90DF90CF900895CF92DF92EF92FF9218
:102AF0000F931F93680179018A019B01AC016CEC73
:102B000074E18AE392E186DF1F910F91FF90EF90CD
:102B1000DF90CF900895CF92DF92EF92FF920F93C4
:102B20001F93680179018A019B01AC0169EF74E18F
:102B30008EEB92E16FDF1F910F91FF90EF90DF908E
:102B4000CF900895CF936CD9C82F0E94560AC11117
:102B500002C080E090E08170CF9108958F929F92A3
:102B6000AF92BF92CF92DF92EF92FF920F931F939B
:102B70006A017B014801590119DD882379F0A5011B
:102B80009401C701B6011F910F91FF90EF90DF9064
:102B9000CF90BF90AF909F908F90BCC980E01F9165
:102BA0000F91FF90EF90DF90CF90BF90AF909F90EC
:102BB0008F900895CF92DF92EF92FF920F931F9321
:102BC000CF93C82FDEDC6B017C0120916E21309108
:102BD0006F214091702150917121AC2FB0E00E9483
:102BE0003432AB01BC01970186018C2FB7DFCF9146
:102BF0001F910F91FF90EF90DF90CF9008958091FB
:102C00001024D8CF80913B240895BC0181E090E24C
:102C10000C940830CF93DF93FC016491EC01219672
:102C2000662331F081E090E20E945630CE01F4CF6D
:102C3000DF91CF910895AB01BC0181E090E20C944B
:102C4000323080E2809362060895CF93DF9381E073
:102C500090E20E94BF300E94AC2B81E090E20E9483
:102C6000DB30EC0197FD07C05ED4811104C08C2FCE
:102C7000DF91CF91FEC5DF91CF91089580917921A9
:102C8000813079F028F08230D9F0833011F12EC0F4
:102C90008091680685FF2AC084E18093002081E04E
:102CA0000CC08091002081508093002081111EC0B3
:102CB0000E94A1060E94442F82E08093792116C0D1
:102CC0008091680685FD12C084E18093002083E036
:102CD000F4CF80910020815080930020811106C0A4
:102CE0000E94092F0E94BA06109279216ED5BEC6A5
:102CF0000895089581E090E20C94E32F81E090E242
:102D00000C942F3120EE30E23F932F9328EE30E2E7
:102D10003F932F931F9223E02F931F9221E02F9335
:102D20004FEE50E25F934F9340E658E05F934F932E
:102D30002F931F929F938F930E94DE328DB79EB781
:102D400040968DBF9EBF85E6089560E071E00E94C9
:102D50000A0785E60895CB010E941A07882321F00F
:102D60000E943F0984E608958AEC089560E071E0CE
:102D70000E94330785E608950F931F93CF93DF9347
:102D800000D000D0CDB7DEB78C01E0910224F091E5
:102D90000324CE01039609959B818C819A838983B4
:102DA00022E030E0AE014F5F5F4F60E071E0C801AC
:102DB0000E945D0785E62496CDBFDEBFDF91CF91EF
:102DC0001F910F9108950F931F93CF93DF9300D01E
:102DD000CDB7DEB78B0119821A82AB0162E070E0D9
:102DE000CE0101960E9488070297C1F4F801019074
:102DF0000020E9F73197E01BF10B339730F0898120
:102E00009A8198278927982702C0898190E0E091CC
:102E10000424F0910524099584E601C08AEC0F9002
:102E20000F90DF91CF911F910F9108950F931F93F2
:102E3000CF93DF931F92CDB7DEB78C01E091FE23D5
:102E4000F091FF23CE010196099521E030E0AE011B
:102E50004F5F5F4F60E071E0C8010E945D0785E64B
:102E60000F90DF91CF911F910F910895CF93DF9332
:102E70001F92CDB7DEB7AB0161E070E0CE010196E5
:102E80000E948807019741F4E0910024F091012409
:102E90008981099584E601C08AEC0F90DF91CF917A
:102EA0000895EF92FF920F931F93CF93DF93CDB7C7
:102EB000DEB7A097CDBFDEBF7C01E8EEF3E206A14E
:102EC00010E00288F389E02DCE0101960995980162
:102ED000AE014F5F5F4F60E071E0C7010E945D0788
:102EE00085E6A096CDBFDEBFDF91CF911F910F91F8
:102EF000FF90EF900895DF92EF92FF920F931F9350
:102F0000CF93DF93CDB7DEB7A097CDBFDEBF7B01F8
:102F100000910E2410E069E578E0C7010E94A2321A
:102F2000892BD1F4D12CED2CF12CE016F10658F4BC
:102F30000E945207E1E0F0E0EC0FFD1FEE0DFF1DD7
:102F40008083D394F0CFE091FC23F091FD23CE0158
:102F50000196099584E60BC0A70160E270E0CE01FE
:102F600001960E9488070817190769F38AECA09652
:102F7000CDBFDEBFDF91CF911F910F91FF90EF90FA
:102F8000DF900895FC0180910F24882311F081E3E4
:102F900001C080E38083118285E60895FB01818171
:102FA00081110DC08081813321F481E080930F2451
:102FB00004C0803321F410920F2484E608958AEC33
:102FC000089584E795E17ED28EE608958DE595E13A
:102FD00094D28EE60895E0ECF4E081818E7F8183C7
:102FE0000E94092F0E94950684E60895E0ECF4E023
:102FF00081818E7F81830E94092F0E949B0684E637
:103000000895E8EEF3E221A12F9320A12F93278DBD
:103010002F93268D2F9325E538E03F932F9321E0C2
:103020002F931F929F938F930E94DE328DB79EB78E
:103030000A968DBF9EBF85E608954F925F926F926C
:103040007F928F929F92AF92BF92CF92DF92EF9238
:10305000FF920F931F93CF93DF93CDB7DEB77A0123
:10306000B02E4DB65EB6213041E0340708F042C0C4
:103070002E153F0508F43EC06DB67EB62DB73EB79F
:103080002E193F092DBF3EBF2F5F3F4F69018701BA
:1030900020E030E0AB01BC01C60113DCBB2029F10C
:1030A0008DB69EB68701000F111FB8016D5F7F4F6F
:1030B0008DB79EB7861B970B8DBF9EBF2DB73EB7B2
:1030C0002F5F3F4F59019701A601C5010E945D077F
:1030D000F501E00FF11F8DE080838AE08183128289
:1030E000C50193DD8DBE9EBE03C0B701C601A3DD41
:1030F0006DBE7EBE4DBE5EBEDF91CF911F910F9122
:10310000FF90EF90DF90CF90BF90AF909F908F9007
:103110007F906F905F904F9008952F923F924F92C3
:103120005F926F927F928F929F92AF92BF92CF9257
:10313000DF92EF92FF920F931F93CF93DF93CDB760
:10314000DEB72A97CDBFDEBF1C01162F17DA21E0AC
:103150002216320608F04DC06115710581059105F2
:1031600009F447C04101A12CB12CA50194010E9492
:10317000FC312D833E834F83588769837A838B8309
:103180009C8349815A8149875A8760E070E0CB016E
:10319000C12CD12C760124013501460E571E681E24
:1031A000791E2D813E814F815885C216D306E406D3
:1031B000F50661F0012F9101A1013FDF5FEFC51A14
:1031C000D50AE50AF50AC301B201E5CF49855A855A
:1031D000452B59F0A5019401C701B6010E94CD31DC
:1031E000012F910149815A8128DF111104C084E621
:1031F00003C089EC01C085E62A96CDBFDEBFDF9112
:10320000CF911F910F91FF90EF90DF90CF90BF90E3
:10321000AF909F908F907F906F905F904F903F9076
:103220002F90089561E080E190E077CF60E080E04A
:1032300091E073CF8BE895E145D18EE6089586E461
:1032400095E15BD18EE6089520910E241F922F9375
:1032500022E538E03F932F9321E02F931F929F9315
:103260008F930E94DE328DB79EB708968DBF9EBFAA
:1032700085E6089560E071E00E94BF0885E6089544
:1032800040E051E0BC0180E00E94F40885E608952A
:1032900080E00E941409882321F00E943F0984E6FF
:1032A00008958AEC089560E071E00E94BF0885E609
:1032B000089540E051E0BC0181E00E94F40885E6F9
:1032C000089581E00E941409882321F00E943F099B
:1032D00084E608958AEC089560E071E00E94770921
:1032E00085E60895CB010E948409882321F00E947D
:1032F0003F0984E608958AEC089581DC80E00E940D
:10330000E70666E080E00E94E50860E081E00E9458
:10331000E5080E943F0984E60895BF92CF92DF92AC
:10332000EF92FF920F931F93CF93DF93EC01EE2464
:10333000EA94F12C0AE719E09CE2B92E6801B80181
:103340008EE091E20E94A232892BC9F0DE01F601E3
:103350002491ED012196C7010197211105C0BC926E
:103360007C01085E1F4FEACFF1E2EF16F104B8F3DB
:103370002C93DE012FEFC21AD20A7C01E8CF2197ED
:10338000188285E6DF91CF911F910F91FF90EF900A
:10339000DF90CF90BF900895CF93DF93EC010E9410
:1033A0002C0A9F938F938BE498E09F938F9381E0F7
:1033B0008F931F92DF93CF930E94DE328DB79EB71B
:1033C00008968DBF9EBF85E6DF91CF910895EF925D
:1033D000FF920F931F93CF93DF93EC0100E110E076
:1033E00020E030E040E050E0BA016BDA00EC10E0A1
:1033F00020E030E040E150E060E070E0CE01409637
:1034000060DA60ED70E0CE010E9434288E017E010A
:1034100082EDE80EF11CF80161918F0181E090E2EC
:103420000E9456300E151F05B1F7188284E6DF9111
:10343000CF911F910F91FF90EF90089520913B2421
:103440001F922F9328E438E03F932F9321E02F938E
:103450001F929F938F930E94DE328DB79EB708967E
:103460008DBF9EBF85E60895FB01818181110CC04F
:103470008081813311F481E003C0803329F480E03E
:103480000E948F0984E608958AEC0895CF935ADB51
:10349000C0E08C2F0E94470980E00E94E70666E0AA
:1034A00080E00E94E50860E081E00E94E508CF5FCF
:1034B000C83079F780E00E9447090E943F0984E6FE
:1034C000CF91089521E0209387212093862124E144
:1034D0002093842125E030E02093822130938321C2
:1034E00010927C2110927D2110927E2110927F21DA
:1034F00080937A2190937B21089527E02093872160
:1035000024E630E0209382213093832110927C21A5
:1035100010927D2110927E2110927F2180937A213A
:1035200090937B2108950F931F93CF9390918721C0
:103530009530B9F130F4933001F118F5913068F419
:103540003EC1973009F4A5C008F440C0983009F492
:10355000A5C0993009F430C132C1813031F41092E4
:1035600080211092812183E0FBC0843011F466E059
:103570008BC0883109F0F6C01FC18093852184E09B
:10358000EFC090E0409185212FEF30E0241B3109FE
:103590008217930721F485E0E3C0891741F165E1C3
:1035A0006CC02091802130918121A9014F5F5F4F34
:1035B0004093802150938121F901EA59FB4D80838A
:1035C0004038510509F0CEC086E0CAC0209185215F
:1035D00090918621291349C0E6E6F4E226EE34E212
:1035E00090E02E173F07C9F24191940FFACF409116
:1035F0007C2150917D2160917E2170917F21E0910D
:103600007A21F0917B2100E810E020E030E086E6AE
:1036100094E20995C82F882311F1809186218F5F4C
:103620008093862180917C2190917D21A0917E21A3
:10363000B0917F2180589F4FAF4FBF4F80937C2127
:1036400090937D21A0937E21B0937F2166E081E05D
:1036500090E20E94563082E080938721B1C068E1F9
:1036600081E090E20E9456300EC030E0892F90E059
:1036700001972817390739F466E081E090E20E944B
:10368000563082E06DC068E181E090E20E945630E1
:1036900093C0853119F41092862106C0883109F44F
:1036A00066CF863009F060C0809186218F5F80935D
:1036B000862140917C2150917D2160917E217091E5
:1036C0007F21E0917A21F0917B2100E810E020E059
:1036D00030E086E694E20995C82F8823D9F161E0AD
:1036E00081E090E20E9456306091862181E090E274
:1036F0000E94563060918621609581E090E20E94A0
:10370000563060E870E086E694E295DAE6E6F4E2A8
:1037100086EE94E260E08E179F0719F02191620F08
:10372000FACF81E090E20E94563080917C21909106
:103730007D21A0917E21B0917F2180589F4FAF4F76
:10374000BF4F80937C2190937D21A0937E21B093E5
:103750007F2136C064E081E090E20E94563089E02B
:1037600080938721C1E02CC08531E1F761E081E0E1
:1037700090E20E9456306091862181E090E20E94A2
:10378000563060918621609581E090E20E9456302B
:1037900060E870E086E694E24EDAE6E6F4E260E0A5
:1037A00084E2E63EF80719F08191680FF9CF81E0D5
:1037B00090E20E945630D6CF10928721D3CFC0E03E
:1037C0008C2FCF911F910F91089580918721813087
:1037D00019F0873029F108958091822190918321F9
:1037E0009C01215031092093822130938321892B20
:1037F00031F5809184219FEF980F90938421882345
:1038000031F065E181E090E20E94563002C01092F2
:10381000872185E090E08093822190938321089511
:1038200080918221909183219C0121503109209324
:10383000822130938321892B11F4109287210895DE
:10384000E3E9F8E020E030E09491981309C041E208
:10385000429FC001439F900D11248C56974F0895AD
:103860002F5F3F4FB1962730310571F780E090E030
:103870000895CF92DF92EF92FF920F931F93CF9311
:10388000982F9F7D91549A3160F090ED980F9A3067
:1038900040F08F3531F0982F9D7F9D3311F08032AD
:1038A000C9F49FE9980F9A3108F4805220918D2134
:1038B00030918E212F3F310508F0CFC0A9014F5F15
:1038C0005F4F40938D2150938E21F901EA59FB4DB2
:1038D0008083C3C08D3009F095C0E0918D21F091B7
:1038E0008E21EA59FB4D108210928D2110928E216B
:1038F00080918C218111B1C080916624982F9F7D89
:1039000009F495C08D7F8D3309F491C0E6E6F4E2A9
:103910007F01C191CC2331F0CF3321F0CD3311F0B1
:10392000C032B1F7F70110828AE7C82E89E0D82E9D
:1039300000E010E0B60186E694E20E94A232892BF4
:1039400009F056C010926624CF3349F488E1809F75
:10395000F001819FF00D1124E057F64F18C0B70118
:103960006F5F7F4FCD3349F488E1809FF001819FE5
:10397000F00D1124E257F64F20C0C11113C088E1A9
:10398000809FF001819FF00D1124E657F64F25919D
:1039900034912115310509F44DC086E694E2F90110
:1039A000099514C0C03209F045C088E1809FF0013C
:1039B000819FF00D1124E457F64F25913491211584
:1039C0003105C1F186E694E2F90109958F3F99F539
:1039D00081E080938C212EB13FB1809108049091B9
:1039E0000904822B932B80938A2190938B2135C0DD
:1039F0000F5F1F4FF8E1CF0ED11C0931110509F0FF
:103A000099CF15C0883061F480918D2190918E21DD
:103A1000009719F1019780938D2190938E211DC0FD
:103A20008B31D9F410928D2110928E2116C088EC22
:103A3000C0E002C089ECC1E003DFECD880E998E087
:103A4000E9D8CC2351F080916624882331F086E6B2
:103A500094E2DBD88DE898E0DDD881E0CF911F912A
:103A60000F91FF90EF90DF90CF90089580918C217F
:103A7000882389F1E0911124F0911224238134816B
:103A80002115310541F14EB15FB18091080490914B
:103A90000904842B952B40918A2150918B21841B02
:103AA000950B64E670E00E94E8316217730798F0A6
:103AB00010928C218BECC4DEADD88AE898E0AAD8AD
:103AC000E0918821F0918921309729F00995109291
:103AD0008821109289210895A0E2B6E082E0119633
:103AE0008C93119715968C931597E0E4F8E010A24B
:103AF00011A28DE291E086A397A38FEF9FEF80A79D
:103B000091A781E0808398E8938393E097831A9646
:103B10008C9308951F920F920FB60F9211248F93DA
:103B20009F93EF93FF9386E695E280939B2190937A
:103B30009C2186EE95E28093992190939A21109290
:103B400094211092932110928F211092972110921C
:103B5000982110929221E0E4F8E0138286E990E047
:103B600086AB97AB8AE190E080AF91AFE0E4F9E0FB
:103B700010A211A28FEF9FEF86A397A389E88383FA
:103B80008EE0808310922A06FF91EF919F918F9192
:103B90000F900FBE0F901F9018951F920F920FB6A7
:103BA0000F9211242F933F938F939F93EF93FF9343
:103BB0009091280680919321957021E009F020E0F2
:103BC000880F822B8093932190918F21992309F460
:103BD0006BC0982F9770973091F51092400880E154
:103BE00080934C081092430980919121882319F009
:103BF0008CEB94E002C08CE794E08093660990938C
:103C000067091092902181E080934C0983E08093B2
:103C100046098091972190919821877061F0909149
:103C200094218F5F893011F09695FBCFE0919B2115
:103C3000F0919C21908381E080939D2135C0982F45
:103C40009C7091F191E0382F347082FD90E0909358
:103C5000912180919221811125C020919421269556
:103C6000311101C080E8282B209394218091972165
:103C70009091982101968093972190939821877035
:103C80009927892B89F4E0919B21F0919C21CF0108
:103C9000019680939B2190939C21208381E08093C7
:103CA000922102C01092922190918F2181E0892768
:103CB00080938F2188E880934308FF91EF919F9133
:103CC0008F913F912F910F900FBE0F901F901895DD
:103CD0001F920F920FB60F9211242F933F938F9341
:103CE0009F93EF93FF9380919021853009F45AC000
:103CF000B8F48230B9F178F4882369F1813009F0A1
:103D0000C0C08FE390E080936609909367098EE0CE
:103D10008093000827C0833051F18430B1F1B1C0E5
:103D2000883009F4A3C038F4863009F460C08730C5
:103D300009F46DC0A6C0893009F49DC08A3009F02D
:103D4000A0C010924009109246091092000881E02C
:103D500080939E2196C08FE790E0809366099093B0
:103D600067098FC080E48093450683E088C080E4C3
:103D70008093460684E080939021E0919B21F0910E
:103D80009C218081809394217CC08091942180FF2C
:103D900004C080E48093450603C080E48093460617
:103DA00085E06DC08091942190E480FF03C09093E2
:103DB000460602C090934506869580939421809193
:103DC000952190919621019680939521909396212B
:103DD0009C0127703327232B11F486E050C02091DB
:103DE00097213091982182179307F1F529C0E0912E
:103DF0009921F0919A218081882321F080E4809399
:103E0000450603C080E48093460687E038C0E09111
:103E10009921F0919A218081882321F080E4809378
:103E2000460603C080E48093450620919521309199
:103E3000962180919721909198212817390711F4A4
:103E400088E01DC03196E0939921F0939A21E0918A
:103E50009B21F0919C21CF01019680939B2190930F
:103E60009C2181818093942184E009C080E4809327
:103E7000460689E004C080E4809346068AE0809389
:103E80009021FF91EF919F918F913F912F910F90F2
:103E90000FBE0F901F901895CF93DF93E0E4F6E0EC
:103EA00084E08283128AC0E8D1E082E68E83A0E2B9
:103EB000B6E085E012968C93129781E050968C9331
:103EC000509782E052968C9352971A961C921A97AA
:103ED00083E019968C9398E598839AE5998390E40A
:103EE0009183968381838683E0E0F8E08FE090E021
:103EF00086A397A388E090E082A793A783E28183BB
:103F0000DF91CF91E9CD80919D21882309F457C09D
:103F100010929D2182E08093210680932606609175
:103F20009721709198216115710521F1E091F82395
:103F3000F091F92386E695E2099594FD08C0AC015D
:103F400023E0569547952A95E1F720E002C09F7E31
:103F500017C0A22FB0E0A417B50790F4AA59BA4D24
:103F6000EC91F0E0EA51FB4FE491A058BF4FEC9385
:103F70002F5FEFCFE091F023F091F12309951AC064
:103F80000097C1F0809397219093982110929521EA
:103F90001092962186E695E280939B2190939C2136
:103FA00086EE95E28093992190939A2181E0809307
:103FB000902105C010924009109246098DDD809134
:103FC0009E21882319F010929E2186CD0895FC0130
:103FD00060817181828193810C941E320895FA016F
:103FE0009083818372836383089521E020933F202F
:103FF0004093C023411180648093C2239093C323D4
:104000006093C1231092BF231092BE23089541E014
:1040100080910E24873009F040E068E084E090E071
:10402000E4CF41E080910E24873009F040E068E160
:1040300082E090E0DACF40E069E084E090E0D5CF24
:1040400081E08093BD231092AB231092AA2340E01D
:1040500068E084E090E0C9CF0F931F93CF93DF9384
:10406000CDB7DEB76097CDBFDEBF00E110E020E046
:1040700030E040E050E0BA01CE0101960E946114A8
:10408000998180E9890F823090F481E0913709F0BD
:1040900080E08093A923CE010D9699DF6093A5233C
:1040A0007093A6238093A7239093A8230BC081E04D
:1040B0008093A9231092A5231092A6231092A723E0
:1040C0001092A8236096CDBFDEBFDF91CF911F91E4
:1040D0000F910895EF92FF920F931F93CF93DF9369
:1040E000CDB7DEB76097CDBFDEBFCE0101967C01B4
:1040F00080E1F70111928A95E9F78091A923811156
:1041000002C080E701C081E789836091A523709197
:10411000A6238091A7239091A823AE01435F5F4F10
:104120005EDF00E110E020E030E040E050E0BA0166
:10413000C7010E94F9146096CDBFDEBFDF91CF9119
:104140001F910F91FF90EF900895CF92DF92EF9221
:10415000FF920F931F93CF93DF937C018B0123E09A
:10416000169507952A95E1F767707727672B11F069
:104170000F5F1F4FE0913F20F0E0EE0FFF1FE95D62
:10418000FF4D20813181D901FD0101900020E9F727
:104190003197EA1BFB0BC091A323D091A4236801A4
:1041A000CC0CDD1CCE010E96E80FF91FEC0DFD1DA9
:1041B000EF3FF10509F0E8F56EB17FB18091080499
:1041C000909109043F932F931F924F93862B972B27
:1041D0009F938F9388EF90E29F938F9380911D2000
:1041E00090911E208C0F9D1F9F938F930E940B33E5
:1041F000C80FD91FB6016F5F7F4F80911D2090912E
:104200001E209801A7018C0F9D1F0E945D07CC0DF9
:10421000DD1D80911D2090911E2069E071E28C0FC0
:104220009D1F0E94D73222968DB79EB70A968DBFEA
:104230009EBF80E091E08C1B9D0B039758F080910E
:104240001D2090911E206CE071E28C0F9D1F0E943A
:10425000D7322296C093A323D093A423DF91CF918A
:104260001F910F91FF90EF90DF90CF900895CF9224
:10427000DF92EF92FF920F931F93C090A323D090F1
:10428000A42380911D2090911E2020911C20222388
:1042900049F02FE931E220931D2030931E20109227
:1042A0001C2009C02FE932E220931D2030931E20EC
:1042B00021E020931C201092A3231092A42320918C
:1042C000A923222309F452C0C114D10409F44EC019
:1042D000E12CF12C4091A5235091A6236091A723B6
:1042E0007091A8234C0D5D1D6E1D7F1D00919F23B5
:1042F0001091A0232091A1233091A22340175107B0
:104300006207730740F01092A5231092A623109223
:10431000A7231092A8234091A5235091A623609132
:10432000A7237091A823405F5F4F6F4F7F4F970186
:1043300086010E94F9148091A5239091A623A09153
:10434000A723B091A823C80ED91EEA1EFB1EC09257
:10435000A523D092A623E092A723F092A8231F9131
:104360000F91FF90EF90DF90CF90B4CE1F910F91FF
:10437000FF90EF90DF90CF9008951092A923AACEDE
:1043800081E08093A923A6CE40E068E084E090E03D
:104390002CDE62DE0E94BE12DC01CB014097A10937
:1043A000B10980939F239093A023A093A123B0935E
:1043B000A2231092A3231092A42308958091A923ED
:1043C0008111DBCFDDCF81E080933F200895FF9204
:1043D0000F931F93CF93DF93FC012081203501F5CC
:1043E000218121111DC08B01EC018091BF23FF248D
:1043F000F3948F2580933F2062E070E0CF015FD679
:10440000882331F010923F20F8011082118206C0FB
:10441000F88284E090E0F8018083918381E001C01C
:1044200080E0DF91CF911F910F91FF900895EF925F
:10443000FF920F931F93CF93DF934730510511F0F5
:1044400080E020C0E80179018B01682FC80168D69F
:104450008823B1F3B701C8016FD680913F20823025
:1044600040F484E080933F2080E190E0888399834A
:1044700008C09091BF2381E0892780933F20188254
:10448000198281E0DF91CF911F910F91FF90EF9002
:1044900008958F929F92AF92BF92CF92DF92EF9248
:1044A000FF920F931F93CF93DF93CDB7DEB7629741
:1044B000CDBFDEBF982E7B016A01DB018C91803677
:1044C00019F02AE330E002C020E330E08091BD2300
:1044D0008823C9F0911017C080E1ECEAF3E2DF0114
:1044E0001D928A95E9F784E0F701ACEAB3E2019006
:1044F0000D928A95E1F778E0A72EB12C46E350E0C3
:104500008FEF90E018C0F701818187FF0AC0807F9C
:10451000F0E18F9FC001112420543F4F46EF50E03F
:1045200007C08C7F40E1849FC001112446E350E026
:104530005C01A20EB31ED7012C9121702093D823C9
:104540009C0164E0369527956A95E1F72093D9237D
:10455000480F591F60E070E004E010E020E030E018
:1045600084EC93E20E9434148091C02304E010E0B4
:1045700020E030E0882329F043E050E060E070E084
:1045800003C040E050E0BA01CE010F960E943414FF
:10459000A50160E070E006E010E020E030E0CE0130
:1045A00001960E943414992009F453C01B861C867E
:1045B0001D861E8681E08B878B859C85AD85BE859B
:1045C0008093DA239093DB23A093DC23B093DD2345
:1045D00060E470E08AED93E272D78091DA239091E3
:1045E000DB23A091DC23B091DD238093DE23909325
:1045F000DF23A093E023B093E12360E270E08EED2F
:1046000093E25DD79E01295F3F4FAE01455F5F4F4B
:10461000BE01615F7F4FCE01019695D6FE013B96AC
:104620005F01D701CE0107969E01215F3F4FF50143
:1046300041915F014D93FC016191CF01AD01415862
:104640005F4FFA016083A216B30689F780E290E11A
:104650004EC08091542090915520A0915620B09149
:1046600057208F839887A987BA8780905820909089
:104670005920A0905A20B0905B2040915C2050912E
:104680005D2060915E2070915F202091BD232223E8
:1046900041F08093B0239093B123A093B223B093C1
:1046A000B3238092DA239092DB23A092DC23B09292
:1046B000DD234093DE235093DF236093E023709348
:1046C000E1238F819885A985BA85F701808391833D
:1046D000A283B38320E030E0AE01495F5F4FBE01AB
:1046E000615F7F4FCE0101962ED680E290E0D60129
:1046F0008D939C9386E080933F206296CDBFDEBF72
:10470000DF91CF911F910F91FF90EF90DF90CF90AD
:10471000BF90AF909F908F9008950F931F93CF936A
:10472000DF93EC018C01060F111DC017D10729F092
:10473000A0D6988189278993F8CFDF91CF911F91D7
:104740000F910895CF92DF92EF92FF920F931F93F4
:10475000CF937B018C016C01C40ED11C0C151D057F
:10476000A1F0F701C1917F0184D68C27F8018193D4
:104770008F01EC2FF0E0EA51FB4FC491ADD5D80189
:10478000A158BF4F8C278C93E9CFCF911F910F91E8
:10479000FF90EF90DF90CF9008958F929F92AF920D
:1047A000BF92CF92DF92EF92FF920F931F93CF931E
:1047B000DF93CDB7DEB72897CDBFDEBF7C016F8317
:1047C00078878091A923882319F042E5C701BDDCD1
:1047D0001D821E822091C2233091C3234F815885B0
:1047E00081E090913F20911180E08E010B5F1F4F7F
:1047F000B7011DDE811156C3B801C701E8DD811183
:1048000051C360913F20653009F40FC150F462300C
:1048100061F1B0F0633009F466C0643009F487C018
:1048200039C3683009F4AAC238F4663009F419C1F2
:10483000673009F489C12EC36C3008F4C7C22AC39B
:10484000609561706093BF231092BE23F701808151
:10485000803409F027C30E940216882309F422C37A
:1048600082E080933F208AE077C2F7018081982F11
:104870009D7F913469F1803311F0803A59F562E0FF
:1048800070E0C7011CD4811102C081E065C2F7014C
:104890008081803399F44181F0E14F9FA001112480
:1048A00060E070E000E110E020E030E0C7010E942D
:1048B000341460E170E0C701D7D3ABC0803A09F08F
:1048C000F1C2F70181818093D92383E080933F2057
:1048D0008AE043C2803509F0E5C2BE016B5F7F4FBD
:1048E000C70175DDDFC260E170E0C701E8D388234E
:1048F000B9F080910F24811111C04091D923F0E1CA
:104900004F9FA0011124052E000C660B770B00E1D0
:1049100010E020E030E0C7010E94CC148AE001C022
:1049200081E0F701808382E080933F2017C2F70186
:104930008081833971F58091C023882351F088E804
:104940008983B4E0DB2E14E0C12E03E0CE01029691
:1049500007C0C090C123A5E0DA2E04E0CE01019685
:1049600010E020E030E040E050E0BA010E94341452
:104970002C2DAE014F5F5F4FBE01695F7F4FC701B6
:10498000DFD3882371F1D0923F2081E08093BE2352
:1049900028C09091BE23992309F43EC09091C02372
:1049A000992311F1853901F504E010E020E030E0B1
:1049B00043E050E060E070E0CE0101960E943414C4
:1049C0002091C123AE014F5F5F4FBE01695F7F4FF2
:1049D000C701B6D3882329F085E080933F20109249
:1049E000BE238F819885BCC18033B1F400E110E013
:1049F00020E030E040E050E0BA01C7010E943414EA
:104A000060E170E0C70130D385E080933F201092D1
:104A1000BE2380E990E0A4C19091BF2381E0892763
:104A200080933F201092BE233DC2F70180818034E5
:104A300021F40E940216811113CFF7018081805664
:104A4000823068F462E070E0C70139D3882309F44A
:104A50001CCFAE014B5F5F4FB70180E08DC184E09A
:104A60007BC18091BD23882309F447C088E0F7010A
:104A7000A4EBB3E201900D928A95E1F78091AC230B
:104A8000803671F48091AB23482F4295407FF0E14E
:104A9000DF2ED40E8F5F0E94DC319093AB230DC0CC
:104AA0008091AA23482F4295407FE0E7DE2ED40E66
:104AB0008F5F0E94DC319093AA238091BC238111E7
:104AC0000FC008E010E020E030E048E050E060E097
:104AD00070E08FE190E20E94F91481E08093BC23A2
:104AE0004D2D50E060E070E000E110E020E030E0AB
:104AF0008CEA93E20E94F91425C0C7019ED464E0B9
:104B00006701F4E0CF0ED11CC60107DE44E050E09F
:104B10006AED73E2C6010E94BA32892B59F444E06F
:104B20006EED73E2C7010EDE87E080933F2080E2E6
:104B300090E116C181E080933F208091BD238823BE
:104B400009F4B0C185E0ACC164E0C701E6DDBE0197
:104B50006B5F7F4FC7013BDC8111A4C162E070E055
:104B6000C701ADD2811107C08091BF2311E0812719
:104B700080933F20DAC0F7018081803309F0A7C01D
:104B8000418147FD04C0842F8370833029F0842F36
:104B90008F708F3009F083C04093D9238091C42354
:104BA0009091C5232091C623382F32953095592FE7
:104BB0005327507F09F03FC032273F70E1F59295AF
:104BC00090959227907FB9F5342F47FD02C033703E
:104BD00003C03F7009F033E08095622F62956F70DB
:104BE0003323B1F090E0032E02C0959587950A9487
:104BF000E2F7E22FF0E0032E02C0F595E7950A9464
:104C0000E2F72E2F70E002C0759567953A95E2F7AE
:104C100060FBAA24A0F8B12CF501EE0FFF1FEE0FE8
:104C2000FF1F20FBCC24C0F8D12CCC0CDD1CEC29C0
:104C30008170E82B01C0E7E0F0E08091D823EE0F0F
:104C4000FF1FE05AFF4DE80FF11D8081F70197012A
:104C5000205F3F4F1192E217F307E1F79091C723CE
:104C6000F701918782FF09C09091C42396839091A8
:104C7000C52397839091C623908784FF1DC043600E
:104C8000F0E14F9FA0011124465F5F4F60E070E0AC
:104C900006E010E020E030E0C7010A960BC080E19A
:104CA000489FA001112460E070E000E110E020E0E6
:104CB00030E0C7010E94341460E170E0C701D4D134
:104CC00042E1B701C7013EDD80E990E149C0982F7C
:104CD0009F7E903A09F5F70141814093D923411114
:104CE00002C0DAD339C0803A11F488E030C0803B8A
:104CF000A9F580910F2481112CC0F0E14F9FA001F4
:104D0000112460E070E000E110E020E030E088EC89
:104D100093E20E94CC141DC0803C51F4F7018181C4
:104D20008093D9231AE010933F20B6D3812714C073
:104D3000813C31F4F70181818093D92389E007C058
:104D4000823C89F4F70181818093D9238BE08093A1
:104D50003F20A2D39AE08927F701808384E090E086
:104D60008D839E839FC08056823008F0EBCEAE01CB
:104D70004B5F5F4FB70181E08CDB94C062E1C701FC
:104D8000CCDCBE016B5F7F4FC70121DB81118AC084
:104D900060E170E0C70193D1882341F180910F2435
:104DA000811111C04091D923F0E14F9FA00111243E
:104DB000052E000C660B770B00E110E020E030E0E0
:104DC000C7010E94CC1468D39AE012C066E0C70104
:104DD000A4DCBE016B5F7F4FC701F9DA811162C0AD
:104DE00064E070E0C7016BD1811107C055D391E039
:104DF0008927F701808387E097CD4091D923F0E19F
:104E00004F9FA001112460E070E000E110E020E07D
:104E100030E088EC93E20E9434149091C823809192
:104E2000CC23809598135BC08091D023981357C0F2
:104E30009091C9238091CD238095981350C0809183
:104E4000D12398134CC09091CA238091CE23809592
:104E5000981345C08091D223981341C09091CB23E1
:104E60008091CF23809598133AC08091D3239813D3
:104E700036C09091D4238091D523809598132FC06C
:104E80008091D62398132BC08091D72380959813B7
:104E900026C028C01D821E829091BF2381E08927F1
:104EA00080933F208091A923882339F06D817E81F2
:104EB00074FD7F7E44E5C70148D98D819E81289687
:104EC000CDBFDEBFDF91CF911F910F91FF90EF908B
:104ED000DF90CF90BF90AF909F908F900895DCD2DD
:104EE00095E086CF8091C8239091C923A091CA23D1
:104EF000B091CB23F7014081518162817381209170
:104F00003F202A3029F4841B950BA60BB70B06C053
:104F1000293021F4840F951FA61FB71F8093C82343
:104F2000892E9A2EAB2EBB248092C9238D01222775
:104F300033270093CA234B2F5527662777274093A3
:104F4000CB23E82FE095E093CC23E82DE095E09388
:104F5000CD23E02FE095E093CE23E42FE095E0937E
:104F6000CF238093D0238092D1230093D2234093E8
:104F7000D32341CF0F931F93CF93DF93EC01809105
:104F8000C0238823A9F003E010E020E030E040E0F7
:104F900050E0BA01CE010E94341404E010E020E099
:104FA00030E043E050E060E070E0CE01039608C0DE
:104FB00004E010E020E030E040E050E0BA01CE0133
:104FC0000E943414DF91CF911F910F9108950F9398
:104FD0001F93CF93DF931F92CDB7DEB72091C023ED
:104FE000222349F000910E2410E020E030E040E060
:104FF00050E0BA011CC0FC0130812181232732819D
:10500000232733812327298304E010E020E030E0C8
:1050100040E050E0BA010E94CC1401E010E020E032
:1050200030E044E050E060E070E0CE0101960E9484
:10503000CC140F90DF91CF911F910F910895209183
:10504000C2233091C323FC012083318308958093D0
:10505000C2239093C32308952091C123FC01208390
:1050600008958093C123089520E42093D00026EC76
:105070002093D5002093D40021E02093D000DC01C0
:10508000680F791FA617B70741F0ED91F0E0EA51DC
:10509000FA4FE491E093D300F5CFE091D500F0E032
:1050A000EA51FA4FE491EC93E091D400F0E0EA5138
:1050B000FA4FE4911196EC931092D000089520E4F9
:1050C0002093D00026EC2093D5002093D40021E03B
:1050D0002093D000DC01680F791FA617B70741F0B5
:1050E000ED91F0E0EA51FA4FE491E093D300F5CF6F
:1050F000E091D500F0E0EA51FA4FE4918C918E13E3
:105100000AC0E091D400F0E0EA51FA4FE49181E066
:1051100011969C919E1380E01092D00081700895AA
:10512000FC01908181E0611102C0963219F0923544
:1051300009F080E081700895FC0160837183089517
:10514000AF92BF92CF92DF92EF92FF920F931F9395
:10515000CF93DF93EC01FA019981903229F08A0113
:105160006B01903789F02DC03081388321812983EC
:1051700092819A8383818B832327922789278C832B
:1051800088E290E0FB0156C09A81FA018081981371
:105190001BC09B818181981317C09C8182819813C9
:1051A00013C09D81838198130FC0288361E070E054
:1051B000CE015ADF88E190E0F6018083918381E09F
:1051C0003CC0892F8F7021F0F6011082118234C00B
:1051D00092959F709250E92EF12CA701BE016E5F4F
:1051E0007F4FCF010E94BA32892B19F0F60110824D
:1051F000118284E090E05C01AE18BF08B8016E0D2A
:105200007F1DA501CE010E94C732CA0DDB1DF8012A
:105210009081818189279281892793818927888339
:1052200085E090E08E199F0923E0880F991F2A9549
:10523000E1F7F6018083918380E0DF91CF911F91A8
:105240000F91FF90EF90DF90CF90BF90AF900895B7
:10525000A091E223B091E3234091E423F091E52370
:10526000E091E6233091E7232A2F217E9B2F907136
:105270009227242F207292272F2F247992272E2FC6
:1052800023779227232F2A739227292F22952F7075
:105290009227292F269526959227292F269550E08B
:1052A00060E070E0BA01552744275B2B4A2B7695C6
:1052B0006795579547959227917098136068F0937A
:1052C000E223E093E3233093E4234093E5235093D8
:1052D000E6236093E7230895CF93DF9385EE93E26F
:1052E000DC011196EC911197AC91A295AF70B0E0F2
:1052F000A057BF4DCE2FCF70D0E0C057DF4D3C91AF
:105300002889232BE295EF70F0E0E057FF4D30A1A4
:10531000232BEC01EA81AE2FAF70B0E0A057BF4D58
:10532000D0968C91922F982BE295EF70F0E0E0539D
:10533000FF4D8081E92FE82BF0E0E059FF4D80819F
:10534000DF91CF9108955F926F927F928F929F929B
:10535000AF92BF92CF92DF92EF92FF920F931F9383
:10536000CF93DF936901DC0102EE13E2C5EED3E2D5
:105370007C0186E0E80EF11C11962C91119730E02B
:10538000322F22278C91282B88E090E0B12CB69404
:10539000969520FF03C0EB2DE068BE2E21FD90689E
:1053A0003695279536952795815089F7F801B19262
:1053B0008F0199931296EA16FB06F1F67B01EA013A
:1053C00086015601F4E0AF0EB11C9880F701719090
:1053D0007F01792488E0682E812C552453947CDF4A
:1053E00081118528872D817033DF550C76946A945E
:1053F0006110F5CF89248992C114D10449F0E92DB7
:10540000F0E0EA51FB4F949067DF8925F801808333
:105410000F5F1F4FA016B106C1F6DF91CF911F910C
:105420000F91FF90EF90DF90CF90BF90AF909F9043
:105430008F907F906F905F900895CF92DF92EF9260
:10544000FF92CF93FC01C080D180E280F380C0E264
:1054500043DF9C2D91708927FBDEF694E794D79467
:10546000C794C150A9F7CF91FF90EF90DF90CF90F4
:1054700008951F93CF93DF93D8E0C0E02DDF182F5E
:1054800080E0E6DEC6951111C068D150B9F78C2FC7
:10549000DF91CF911F9108951F93CF93DF93D4E0B5
:1054A000C0E01ADF182F80E0D3DEC6951111C86066
:1054B000D150B9F78C2FDF91CF911F910895FC0146
:1054C0009B0121503109E0F082818D72982F9295D5
:1054D0009F708927982F969596958927982F96954E
:1054E0004081518162817381769567955795479583
:1054F000892780FD70684083518362837383E1CF85
:1055000008950F931F93CF93DF93CDB7DEB7EA973C
:10551000CDBFDEBF0BE616E29FD2F80181938F016B
:10552000F6E203371F07C1F70E947E1610D38823C7
:1055300009F404C180916B2690916C26953009F492
:1055400078C030F4913091F168F0933079F1F6C081
:10555000983009F4CDC0993009F4D2C0963009F0E2
:10556000EDC07BC0803821F0823809F0E7C008C068
:105570001091672680916826882399F0126011C0E7
:1055800080916F268F70863008F0D8C085D2E09168
:105590007526F0917626118112FB112710F980E013
:1055A0007BD2EFD2812F68D280E0A7C0282F2D7F39
:1055B00009F0C4C0882319F0823061F0BFC0809127
:1055C0006D26813009F0BAC0933009F080E08093F5
:1055D00068262AC080916D26811126C0E0916F2631
:1055E0001E2F1F708FEF810F853008F0A7C0812F0D
:1055F00053D280916C26833011F4EFD215C0E09124
:105600007526F091762681818B7F818324E8129F15
:10561000F0011124E754F94D1082E0917526F091C4
:10562000762680818E7F808380E036D2AAD298D37E
:1056300085C0811183C010916D261F77A2D290D3AF
:1056400060D28823E9F31093C304111102C082E0F1
:1056500001C083E080936A2671C08058823008F0D0
:105660006DC080916D2690916E268C3DE3E09E0783
:1056700061F583E08A838AE389834FB7F894DE017A
:10568000139620E038E052E05093CA01E32FF0E097
:10569000E4911092CA0120FF03C0E295EF703F5FD2
:1056A000EF708E2F90E0EA3010F0C79601C0C096E0
:1056B0008D939D932F5F2C3139F74FBF62D26AE3F0
:1056C00070E0CE010196A6D011C060916F26709156
:1056D0007026AE014F5F5F4F0E942B068C01892B15
:1056E00069F14FD2B80189819A8110D1A6D126C023
:1056F000803821F546D280916626BED185D197CFDC
:1057000081111CC080916D2690916E269927029779
:10571000ACF437D280916D268093662621D3809198
:105720006626811106C08091C304811102C081E008
:1057300001C084E080936A260E947A1608D28823EA
:1057400011F01FD24AD2EA96CDBFDEBFDF91CF91D2
:105750001F910F9108950895CF9380916A26882311
:1057600051F0C091772680E097D1F1D18111C9DE47
:105770008C2FCF9191C1CF910895CF92DF92EF926C
:10578000FF920F931F93CF93DF93EC018B017A016C
:10579000FDD2811136C0E114F10439F0F7018081A6
:1057A0009181081B190BC80FD91FC12CD12C0115D1
:1057B000110531F18091732690917426FC01EF5B05
:1057C000FF4F208131978081281790F01DD1C4DFD1
:1057D000E114F10449F0F70180819181C80ED91ECE
:1057E000C082D18285E00DC0D1D2882301F309C0E7
:1057F000899142D101501109FFEFCF1ADF0AD7CFAB
:1058000080E0DF91CF911F910F91FF90EF90DF909B
:10581000CF900895DF92EF92FF920F931F93CF9353
:10582000DF93D82FC92F8B0180917726806834D1E0
:1058300080917126909172268017910728F00115AA
:10584000110519F4E1D001C08C01ED2EFC2ED12CF4
:105850000115110509F440C080916A26811102C02A
:1058600082E04CC0853011F483E048C070D18823B9
:1058700011F081E043C051D181113CC042D1882355
:1058800039F3209177268091732690917426FC013C
:1058900027FF05C0EF5BFF4FC081D0E013C0E05C85
:1058A000FF4FC08131968081D0E0C81BD1090AC06A
:1058B000C830D10550F4F70181917F01DDD001504E
:1058C000110921960115110599F7DD24D394289724
:1058D00009F0D12C99D0BCCFD110BECF0BC0809194
:1058E0006A26882309F4BCCF853009F4BDCF2FD1B7
:1058F0008111BFCF12D1882391F380E0DF91CF9146
:105900001F910F91FF90EF90DF900895DF92EF923B
:10591000FF920F931F93CF93DF93D82FC92F8B0143
:10592000809177268068B8D08091712690917226F8
:105930008017910728F00115110519F465D001C0F1
:105940008C01ED2EFC2ED12C0115110509F442C05D
:1059500080916A26811102C082E04EC0853011F428
:1059600083E04AC0F4D0882311F081E045C0D5D04F
:1059700081113EC0C6D0882339F3209177268091CB
:10598000732690917426FC0127FF05C0EF5BFF4F43
:10599000C081D0E015C0E05CFF4FC08131968081AE
:1059A000D0E0C81BD1090CC0C830D10560F4F701A4
:1059B000849162D0FFEFEF1AFF0A0150110921967E
:1059C0000115110589F7DD24D394289709F0D12C0E
:1059D0001BD0BACFD110BCCF0BC080916A268823D0
:1059E00009F4BACF853009F4BBCFB1D08111BDCF56
:1059F00094D0882391F380E0DF91CF911F910F9194
:105A0000FF90EF90DF900895E0917526F091762653
:105A1000A0917326B0917426AF5BBF4F8C9190E03C
:105A20008283938380818D798083E0917326F091C6
:105A30007426EF5BFF4F10820895E0917526F09178
:105A4000762680818D798083E0917326F09174268B
:105A5000EF5BFF4F1082089580917326909174261A
:105A6000FC01EF5BFF4F208131E0320F3083FC01FE
:105A7000E20FF11D808108952091732630917426E4
:105A8000F901EF5BFF4F908141E0490F4083F9013D
:105A9000E90FF11D8083089580937726482F4F707A
:105AA00050E06091C6047091C7049A0194E0220FFF
:105AB000331F9A95E1F7E4E887FF11C0E49FC00126
:105AC000E59F900D11248654994D809373269093F1
:105AD0007426C90108969B01280F391F0DC0E49F49
