:1000000093C50000ADC50000ABC50000A9C5000048
:10001000A7C50000A5C50000A3C50000A1C500003C
:100020009FC500009DC500009BC5000099C500004C
:1000300097C5000095C5000093C5000091C500005C
:100040008FC500008DC500008BC5000089C500006C
:1000500087C5000085C500000C94411D81C50000C6
:100060007FC500007DC500007BC5000079C500008C
:1000700077C5000075C5000073C5000071C500009C
:100080006FC500006DC500000C94FE1C69C5000022
:1000900067C5000065C5000063C5000061C50000BC
:1000A0005FC500005DC500005BC5000059C50000CC
:1000B00057C5000055C5000053C5000051C50000DC
:1000C0004FC500004DC500004BC5000049C50000EC
:1000D00047C5000045C5000043C5000041C50000FC
:1000E0003FC500003DC500003BC5000039C500000C
:1000F00037C5000035C5000033C5000031C500001C
:100100002FC500002DC500002BC5000029C500002B
:1001100027C5000025C5000023C5000021C500003B
:100120001FC500001DC500001BC5000019C500004B
:1001300017C5000015C5000013C5000011C500005B
:100140000FC500000DC500000BC500000C94DC1DA0
:1001500007C5000005C5000003C5000001C500007B
:10016000FFC40000FDC40000FBC40000F9C400008F
:10017000F7C40000F5C40000F3C40000F1C400009F
:10018000EFC40000EDC40000EBC40000E9C40000AF
:10019000E7C40000E5C40000E3C40000E1C40000BF
:1001A000DFC40000DDC40000DBC40000D9C40000CF
:1001B000D7C40000D5C40000D3C40000D1C40000DF
:1001C000CFC40000CDC40000CBC40000C9C40000EF
:1001D000C7C40000C5C40000C3C40000C1C40000FF
:1001E000BFC40000BDC40000BBC40000B9C400000F
:1001F000B7C400000C94842CB3C400002E0352003A
:1002000065007600450020005200650062006F0026
:100210006F0074006500640020002800690063001E
:1002200065006D0061006E00290000001C034300A2
:10023000680061006D0065006C0065006F006E0075
:100240004D0069006E006900000004030904090202
:100250003E00020100C03209040000010202010058
:1002600005240010010424020605240600010705E8
:1002700082030800FF09040100020A0000000705CC
:100280000402100005070583021000051201100189
:1002900002000008EB03442001000102DC018C068F
:1002A00000008D068E068F06900691067806790668
:1002B00086067C06820685067D0681061000000003
:1002C000000000000401C01E0000F71E6D1F861F05
:1002D0009006910678064021C424F12436253B255A
:1002E0002925312500040000000000000400C01E84
:1002F0000000F71E6D1F861F9006910678064021AC
:10030000C424F12436253B2529253125000400008D
:10031000000000000700C01E0000F71E771F861FA8
:100320009006910678064021C424F12436253B2509
:100330002925312500100000000000000400C01E27
:100340000000F71E771F861F900691067806402151
:10035000C424F12436253B25292531250010000031
:10036000000000000700C01E0000F71E811F861F4E
:100370009006910678064021C424F12436253B25B9
:100380002925312540010000000000000400004341
:100390004C4F5345440000000000000000000000E6
:1003A000000000000000000000000000000000014C
:1003B0004D465F434C41535349435F314B0000006E
:1003C000000000000000000000000000000000002D
:1003D000024D465F434C41535349435F314B5F37B6
:1003E00042000000000000000000000000000000CB
:1003F00000034D465F434C41535349435F344B0028
:1004000000000000000000000000000000000000EC
:100410000000044D465F434C41535349435F344B06
:100420005F374200000000000000000000000000F4
:10043000000000054D465F434C41535349435F4D17
:10044000494E4900000000000000000000000000CC
:100450000000000001000001000101000001010096
:100460000100000100010100010000010100000184
:100470000001010000010100010000010100000174
:100480000001010001000001000101000001010064
:100490000100000100010100010000010100000154
:1004A0000001010001000001000101000001010044
:1004B0000100000101000001000101000001010034
:1004C0000100000100010100010000010100000124
:1004D0000001010000010100010000010100000114
:1004E0000001010001000001000101000001010004
:1004F00001000001010000010001010000010100F4
:1005000001000001000101000100000101000001E3
:1005100000010100010000010001010000010100D3
:1005200001000001000101000100000101000001C3
:1005300000010100000101000100000101000001B3
:1005400000010100010000010001010000010100A3
:1005500001000001008040C020A060E0109050D059
:1005600030B070F0088848C828A868E8189858D8AB
:1005700038B878F8048444C424A464E4149454D4AB
:1005800034B474F40C8C4CCC2CAC6CEC1C9C5CDC4B
:100590003CBC7CFC028242C222A262E2129252D293
:1005A00032B272F20A8A4ACA2AAA6AEA1A9A5ADA4B
:1005B0003ABA7AFA068646C626A666E6169656D64B
:1005C00036B676F60E8E4ECE2EAE6EEE1E9E5EDEEB
:1005D0003EBE7EFE018141C121A161E1119151D157
:1005E00031B171F1098949C929A969E9199959D91B
:1005F00039B979F9058545C525A565E5159555D51B
:1006000035B575F50D8D4DCD2DAD6DED1D9D5DDDBA
:100610003DBD7DFD038343C323A363E3139353D302
:1006200033B373F30B8B4BCB2BAB6BEB1B9B5BDBBA
:100630003BBB7BFB078747C727A767E7179757D7BA
:1006400037B777F70F8F4FCF2FAF6FEF1F9F5FDF5A
:100650003FBF7FFF434C4F53454400000000000064
:10066000000000000000000052414E444F4D5F5515
:100670004944000000000000000000005549445FAC
:100680004C4546545F494E4352454D454E5400003B
:100690005549445F52494748545F494E4352454D7E
:1006A000454E54005549445F4C4546545F444543CC
:1006B00052454D454E5400005549445F5249474804
:1006C000545F44454352454D454E54005357495499
:1006D0004348434152440000000000000000000075
:1006E000524541444F4E4C590000000000000000AC
:1006F00000000000434152445F46554E4354494F69
:100700004E00000000000000000620000610000659
:1007100008000604800608800604800602800601A0
:10072000080B0B1000010008000800010000010088
:10073000000800F800000804000200000800080B90
:100740000B1000010010000800020000010000086A
:1007500000F800001008000400001000090C0C1143
:10076000000200100010000200000200001000F063
:1007700001001010000800002000090C0C100002FD
:1007800000200010000400000100001000F0000034
:1007900040200010000040000903030A000100800F
:1007A0000008001000000400000800F803002040CA
:1007B000002000008000257500253575206D56004D
:1007C000257500256C750052414E444F4D0043681D
:1007D000616D656C656F6E4D696E692D2573207650
:1007E00025642E2564202825733A20257329000DC1
:1007F0000A000D0A000D0A000D0A000D0A000D0A7C
:1008000000643130303A4F4B00000000000000001F
:1008100000000000000000000000000000000000D8
:100820000000653130313A4F4B205749544820542D
:1008300045585400000000000000000000000000C7
:100840000000006E3131303A57414954494E47203B
:10085000464F5220584D4F44454D000000000000C7
:1008600000000000C83230303A554E4B4E4F574EC4
:1008700020434F4D4D414E44000000000000000059
:100880000000000000C93230313A494E56414C490F
:100890004420434F4D4D414E442055534147450060
:1008A000000000000000CA3230323A494E56414C36
:1008B000494420504152414D4554455200000000EA
:1008C00000000000000000CB3230333A54494D455F
:1008D0004F55540000000000000000000000000020
:1008E000000000000000000056455253494F4E00E2
:1008F00000000000000000000000000000002D16B5
:10090000434F4E4649470000000000000000000031
:1009100061160000561650165549440000000000AC
:100920000000000000000000000000002617FC1678
:100930004154514100000000000000000000000090
:10094000000000008E16671653414B0000000000A7
:10095000000000000000000000000000E116C116C9
:10096000524541444F4E4C59000000000000000029
:100970000000000079176D1755504C4F414400009E
:1009800000000000000000008C17000000000000C4
:10099000444F574E4C4F41440000000000000000FF
:1009A000911700000000000052455345540000001C
:1009B000000000000000000096170000000000008A
:1009C000555047524144450000000000000000001F
:1009D000A1170000000000004D454D53495A450045
:1009E0000000000000000000000000000000AC1744
:1009F000574F524B4D454D000000000000000000D5
:100A0000C11800000000BD18574F524B4D454D55C1
:100A1000504C4F4144000000C51800000000000089
:100A2000574F524B4D454D444F574E4C4F4144004C
:100A3000CA1800000000000055494453495A4500B7
:100A40000000000000000000000000000000CF18BF
:100A5000425554544F4E00000000000000000000BA
:100A6000E5180000F318EB18425554544F4E5F4CF4
:100A70004F4E470000000000FE1800000C1904193A
:100A800053455454494E4700000000000000000048
:100A9000000000001D191719434C45415200000089
:100AA0000000000000000000281900000000000005
:100AB00048454C500000000000000000000000000D
:100AC0003819000000000000525353490000000094
:100AD0000000000000000000000000000000771986
:100AE0005549444D4F4445000000000000000000FF
:100AF00000000000A8199219434C454152414C4C4A
:100B00000000000000000000BA1900000000000012
:100B100000000000000000000000000000000000D5
:100B2000000000000000000011241FBECFEFCDBF69
:100B3000DFE2DEBF10E2A0E0B0E2E2EFF6E602C0E4
:100B400005900D92A63DB107D9F727E2A6EDB0E2D8
:100B500001C01D92AE33B207E1F703D00C94773396
:100B600057C05CD00E941C132DD387D3F8D00E94AD
:100B7000CC1542D186D20ED4B6D0C1E080910C0AF9
:100B800080FF0CC0C0930C0A91D33AD10E94E915A2
:100B90007FD2E0913F21F091402109950E94D0152C
:100BA000E0913721F09138210995E8CF292F30E0E5
:100BB0002230310559F02330310569F021303105FB
:100BC000F9F482E190E02CE832E01EC08EE390E080
:100BD0002EE432E019C0882349F0813061F0823080
:100BE00079F48EE290E02CEF31E00EC084E090E0EA
:100BF0002AE432E009C08CE190E02CE232E004C04B
:100C000080E090E020E030E0FA0120833183089515
:100C10001F920F920FB60F921124FFCF8091780090
:100C200083FF0AC088E08093780088ED84BF81E06C
:100C300080938000FD95FEC0809150008660809377
:100C400050008091510081FFFCCF8091510082FFC4
:100C5000FCCF1092560081E08093600098ED94BF25
:100C60008093400023ED30E32093260A3093270A37
:100C700096E09093000A80934300809300040895C7
:100C800088ED84BF81E080937900089588ED84BF6A
:100C90008BE18093800008958BEC809352008091CB
:100CA00050008860809350008091510083FFFCCFFA
:100CB00084EC8093550080915000806180935000B7
:100CC0008091510084FFFCCF0895E0E4F0E084813E
:100CD0008E7F8483E0E5F0E080818F7E8083808159
:100CE000877F8083089587E08093A2007894089599
:100CF000089580E090E008950895FC01108211822B
:100D000008950895FC0110820895089524E0FC01DF
:100D100011922A95E9F70895089508950895089580
:100D200008950895CF93DF93E0915C21F0915D21C8
:100D3000828398E2899FB001112462567D4F48E278
:100D400050E083E391E20E94902FC3E3D1E2E88177
:100D5000F9810995EE81FF81DF91CF910994E091AE
:100D60005C21F0915D218281DDCF0F931F93E09193
:100D70005C21F0915D218B019C01428166E08EE84F
:100D800093E0A4D21F910F9108951F93CF93DF9307
:100D90001F92CDB7DEB79E012F5F3F4FAC0166E0DB
:100DA0008EE893E0ABD2182F882311F08981BADF47
:100DB000812F0F90DF91CF911F9108959B01AC017E
:100DC00066E08EE893E0C1C228E2829FC001112450
:100DD000FC01E454FD4F65917591859194910895BE
:100DE00028E2829FC0011124FC01E054FD4F65916F
:100DF000759185919491089508950C94822F08958A
:100E00000E94822F0E94822F0E94822F0C94822F98
:100E1000CF93DF93EC0161507109DA01420F531F48
:100E2000FC01CF018C1B9D0BA417B50721F4108288
:100E3000DF91CF91089562307105C8F39D91392FEC
:100E400032953F703A3010F4305D01C0395C308328
:100E50009F709A3010F4905D01C0995C9183329636
:100E600062507109DECFCF93DF93EC01DA0120E00D
:100E700030E05C91552351F111969C911197992383
:100E800039F12617370711F180ED850F8A3020F0F0
:100E90008FEB850F8630E0F480ED890F8A3020F0EB
:100EA0004FEB490F4630A0F4E52FF0E0513408F045
:100EB000F797E295E07F913410F4982F01C0975393
:100EC0009E2B99932F5F3F4F1296D3CFC90102C03B
:100ED00080E090E0DF91CF9108950F931F93CF931F
:100EE000DF93CDB7DEB76097CDBFDEBF8130B9F4F9
:100EF000E0914521F0914621CE010196099510E03F
:100F000080915921181708F099C077DFE1E0F0E0EF
:100F1000EC0FFD1FE10FF11D80831F5FF1CF8230C9
:100F2000B9F5E0914521F09146218E010F5F1F4FE9
:100F3000C801099520915921F80191E08E2F801B5D
:100F40008217F8F4992339F0808191E08F3F09F0FE
:100F500090E08F5F80833196F1CF843009F049C0F3
:100F6000E0914521F09146218E010F5F1F4FC8018E
:100F7000099520915921F80191E08E2F801B82174D
:100F800070F1E0914721F0914821C801099571C0A5
:100F9000833019F7E0914521F0914621CE01019669
:100FA00009958091592141E0815008F447C04423BC
:100FB000D9F3282F30E0E1E0F0E0EC0FFD1FE20F65
:100FC000F31F908141E09F3F09F040E0E1E0F0E055
:100FD000EC0FFD1FE20FF31F9F5F9083E5CF992376
:100FE00031F0808191E0811190E0815080833196D1
:100FF000C4CF853051F5E0914521F0914621CE01D5
:10100000019609958091592141E08150B8F044231F
:10101000E1F3282F30E0E1E0F0E0EC0FFD1FE20FFC
:10102000F31F908141E0911140E0E1E0F0E0EC0F2E
:10103000FD1FE20FF31F91509083E7CFE09147210E
:10104000F0914821CE010196A1CF863011F4DDD078
:1010500010C0873039F490915A2181E0892780931C
:101060005A2107C0883029F4E0914121F0914221B2
:1010700009956096CDBFDEBFDF91CF911F910F9193
:101080000895E0E0F6E080E4828388E1868B0895AD
:10109000909108068091D62096FD10C08A3050F0BD
:1010A0008A30B9F4E0915C21F0915D21818115DFF6
:1010B0008091D6208F5F8093D620089581508A300A
:1010C00030F4E0915C21F0915D21808106DF109287
:1010D000D6200895CF936150710944E556E020E091
:1010E000CCE2FA01DC01CD013491311108C0283085
:1010F00071F0CC9361507109CD01019608C0653142
:101100007105A8F33D93319661507109ECCF2F5FC3
:101110004C5E5F4F293029F7FC011082CF91089572
:10112000EBE5F1E298E0811102C0638303C08130F6
:1011300009F46483915035969111F5CF0895282FC5
:10114000CB0121110AC0E0915C21F0915D21608109
:1011500024E1629FB00111240BC0213069F4E091B9
:101160005C21F0915D216181E4E16E9FB001112469
:101170006C5A794F0C94A22FFB0110820895EF92C4
:10118000FF920F931F93CF93DF93D82F7B0104E53A
:1011900016E0C0E0B801C7010E94992F892B29F4FD
:1011A0006C2F8D2FBDDF81E006C0CF5F0C5E1F4F1F
:1011B000C93081F780E0DF91CF911F910F91FF90AF
:1011C000EF9008954CE250E060E070E08BE591E232
:1011D0000C94D0324CE250E060E070E08BE591E29C
:1011E0000C947D32883078F480935B2125E0829FD7
:1011F000C0011124825A9E4D80935C2190935D2101
:10120000AEDD81E0089580E0089530915B2129E012
:1012100045E02150B1F0832F90E001968770992727
:10122000382FBC016F5F7F4F469FF001479FF00D45
:101230001124E55AFE4D5081552359F3D3DF811116
:10124000C9CF0895FC018EE480838FE481838EE210
:10125000828380915B21805D838314820895FC01E9
:101260002181211105C080818053883008F4BACFD4
:1012700080E0089580938621ADCF8FE08093810632
:101280008CE380930106089590E0FC01EE0FFF1FB0
:101290008E0F9F1FFC01E85FF84FA591B491FC01F0
:1012A000E65FF84F849115968C930895A0E0B6E020
:1012B00016961C921697E0E8F6E016828CE31696D6
:1012C0008C938FE0868380915B21DECF0F931F93F9
:1012D000FC01662379F094916150941309C0BF0119
:1012E0006F5F7F4FA801C9010E94A22F81E003C058
:1012F000B196EFCF80E01F910F910895CF92DF92CA
:10130000EF92FF921F93CF93DF93EC017A01690173
:10131000162F112389F0BE016F5F7F4FC7010E9416
:10132000992F1150892B31F4FE01C491F601C0832D
:1013300081E003C0A196EDCF80E0DF91CF911F91B6
:10134000FF90EF90DF90CF900895CF930196CCE27D
:101350006623D1F0FC01DA01AD017491772341F0ED
:1013600021153105A9F07D93319621503109F4CF33
:10137000623038F02115310559F0FD01C0834F5F0F
:101380005F4F61508196E4CF232B11F0FA01108258
:10139000CF910895E0E0F2E081E08083118292E055
:1013A000928393E0948380A388E381A3089580913E
:1013B00020028068809320028091230280FFFCCF6E
:1013C00081E080932302A0911002B0911102AE5BE4
:1013D000B109B7FF02C0A0E0B0E029E637E54BE075
:1013E00050E00C94352F0895E0ECF1E0848588609E
:1013F000848780E094E0809387219093882181E026
:101400000895FF920F931F93CF93DF93CDB7DEB76D
:101410002897CDBFDEBF88E0E1E2F0E2DE01119661
:1014200001900D928A95E1F7FFB600E010E048E0E8
:1014300050E0B801CE0101960E94EB32085F1F4FC9
:10144000011584E0180799F7FFBE81E02896CDBF0B
:10145000DEBFDF91CF911F910F91FF900895CF9341
:10146000DF93CDB7DEB72897CDBFDEBF2091D72061
:10147000222309F45CC02091992130919A2182178E
:10148000930708F054C020E147ED2093660640938F
:10149000A0093091A10936FFFCCF3091A10937FF97
:1014A000FCCF3091A0091092A0093091A10936FF1C
:1014B000FCCF3091A10937FFFCCF3091A0092093D8
:1014C000650637FFE2CF20E120936606A0E0B0E09A
:1014D0000090932104C0880F991FAA1FBB1F0A9474
:1014E000D2F78D839E83AF83B88781E889838F810C
:1014F0008A838E818B838D818C83FE013196CE0110
:101500000596E817F90771F021912093A009209121
:10151000A10926FFFCCF2091A10927FFFCCF209134
:10152000A009EFCF80E18093650681E001C080E0F3
:101530002896CDBFDEBFDF91CF910895CF93DF9383
:10154000CDB7DEB72897CDBFDEBF2091D7202223AD
:1015500009F45AC020919D2130919E218217930752
:1015600008F052C020E147ED209366064093A009A1
:101570003091A10936FFFCCF3091A10937FFFCCF94
:101580003091A0091092A0093091A10936FFFCCF3B
:101590003091A10937FFFCCF3091A0092093650657
:1015A00037FFE2CF20E1209366060090942102C02D
:1015B000880F991F0A94E2F7A0E0B0E08D839E8324
:1015C000AF83B88780E589838F818A838E818B83FF
:1015D0008D818C83FE013196CE010596E817F907BF
:1015E00071F021912093A0092091A10926FFFCCF41
:1015F0002091A10927FFFCCF2091A009EFCF80E126
:101600008093650681E001C080E02896CDBFDEBFF3
:10161000DF91CF910895CF93DF93CDB7DEB72897B1
:10162000CDBFDEBF2091D720222309F46EC02091C8
:10163000A92130E08217930708F067C020E147ED49
:10164000209366064093A0093091A10936FFFCCF94
:101650003091A10937FFFCCF3091A0091092A00969
:101660003091A10936FFFCCF3091A10937FFFCCFA3
:101670003091A0092093650637FFE2CF20E1209347
:101680006606009761F0A0E0B0E00090962104C0EB
:10169000880F991FAA1FBB1F0A94D2F710C080E0C1
:1016A00090E04CDF81E090E0A0E0B0E00090952178
:1016B00004C0880F991FAA1FBB1F0A94D2F78D83FD
:1016C0009E83AF83B8878CE789838F818A838E81DD
:1016D0008B838D818C83FE013196CE010596E817B0
:1016E000F90771F021912093A0092091A10926FF0B
:1016F000FCCF2091A10927FFFCCF2091A009EFCFBB
:1017000080E18093650681E001C080E02896CDBF2E
:10171000DEBFDF91CF910895FF920F931F93CF9378
:10172000DF93CDB7DEB72597CDBFDEBF80E18093D5
:10173000650682E08093660688E0809365068AE10C
:10174000809361061092A6091092A70980EC8093FD
:10175000A50988E18093A40980E127ED80936606BE
:101760002093A0099091A10996FFFCCF9091A10927
:1017700097FFFCCF9091A0091092A0099091A10928
:1017800096FFFCCF9091A10997FFFCCF9091A00903
:101790008093650697FFE2CF80E1809366068FE92C
:1017A0008093A0098091A10986FFFCCF8091A109B7
:1017B00087FFFCCF8091A009FE013196CE010696ED
:1017C0008F01E817F90771F01092A0092091A10983
:1017D00026FFFCCF2091A10927FFFCCF2091A00973
:1017E0002193EFCF80E1F82EF092650689818093F6
:1017F00089218A8180938A212B8120938B219D814D
:1018000090938C21982F92959695977090938D2117
:101810008F7190E080938E2190938F21322F32959B
:1018200036953770309390212F7130E020939121BD
:101830003093922104978530910508F0A1C02EE1E4
:10184000289FB001299F700D1124605E784F4EE1F2
:1018500050E083E991E20E94902F809189218F319D
:1018600009F08EC080918D21813009F089C0F092FD
:10187000660687ED8093A0098091A10986FFFCCFC1
:101880008091A10987FFFCCF8091A0091092A00947
:101890008091A10986FFFCCF8091A10987FFFCCF31
:1018A0008091A00990E19093650680FD65C08091CC
:1018B000292090912A20A0912B20B0912C2089835F
:1018C0009A83AB83BC8380E127ED809366062093E7
:1018D000A0099091A10996FFFCCF9091A10997FFD3
:1018E000FCCF9091A0091092A0099091A10996FFB8
:1018F000FCCF9091A10997FFFCCF9091A009809314
:10190000650697FFE2CF80E180936606F801CE017D
:1019100005968E179F0771F021912093A0092091C1
:10192000A10926FFFCCF2091A10927FFFCCF209120
:10193000A009EFCF80E18093650627ED80936606CE
:101940002093A0099091A10996FFFCCF9091A10945
:1019500097FFFCCF9091A0091092A0099091A10946
:1019600096FFFCCF9091A10997FFFCCF9091A00921
:101970008093650697FFE2CF81E08093D72001C076
:1019800080E02596CDBFDEBFDF91CF911F910F91F3
:10199000FF900895CF92DF92EF92FF920F931F93E3
:1019A000CF93DF93CDB7DEB72897CDBFDEBFE091F1
:1019B000D720EE23B9F0011511052105310591F06D
:1019C000C090AD21D090AE21E090AF21F090B02139
:1019D000C01AD10AE20AF30AE1E0C416D506E60607
:1019E000F70608F4E0E0E0FF68C0F0E1A7EDF0934F
:1019F0006606A093A009E091A109E6FFFCCFE09163
:101A0000A109E7FFFCCFE091A0091092A009E091A5
:101A1000A109E6FFFCCFE091A109E7FFFCCFE0912F
:101A2000A009F0936506E7FFE2CFE0E1E0936606E8
:101A30004D835E836F8378874BE049834F814A8370
:101A40004E814B834D814C83FE013196AE014B5F3D
:101A50005F4FE417F50771F061916093A009609101
:101A6000A10966FFFCCF6091A10967FFFCCF6091DF
:101A7000A009EFCF1092A0094091A10946FFFCCF29
:101A80004091A10947FFFCCF4091A009FC01015002
:101A9000110970F01092A0098091A10986FFFCCF76
:101AA0008091A10987FFFCCF8091A0098193EFCF9E
:101AB00080E18093650681E001C080E02896CDBF7B
:101AC000DEBFDF91CF911F910F91FF90EF90DF90DC
:101AD000CF9008952F923F924F925F926F927F9294
:101AE0008F929F92AF92BF92CF92DF92EF92FF922E
:101AF0000F931F93CF93DF93CDB7DEB76A97CDBF18
:101B0000DEBF8D8B9E8B2A013B01480159018091DC
:101B1000D7208823B9F0011511052105310591F071
:101B20004091AD215091AE216091AF217091B021D3
:101B3000401B510B620B730B81E044155505660584
:101B4000770508F480E080FFFFC01D861E861F8693
:101B5000188A10E100E11E0125E0220E311CC09020
:101B60009721D0909821C601A0E0B0E08F8B988F8C
:101B7000A98FBA8FC301B2012F89388D498D5A8D33
:101B80000E94FA2E69017A010090932104C0CC0CC6
:101B9000DD1CEE1CFF1C0A94D2F7C98ADA8AEB8A94
:101BA000FC8ACF88D88CE98CFA8C8C149D04AE0406
:101BB000BF0428F0C61AD70AE80AF90A02C075015C
:101BC00064010093660627ED2093A0092091A109E6
:101BD00026FFFCCF2091A10927FFFCCF2091A0096F
:101BE0001092A0092091A10926FFFCCF2091A10904
:101BF00027FFFCCF2091A0091093650627FFE1CFB6
:101C00000093660629893A894B895C892D833E8336
:101C10004F83588733E539832F812A832E812B8385
:101C20002D812C83FE013196E215F30571F021918F
:101C30002093A0092091A10926FFFCCF2091A109A2
:101C400027FFFCCF2091A009EFCF109365061093DA
:101C5000660647ED4093A0092091A10926FFFCCF1D
:101C60002091A10927FFFCCF2091A0091092A00983
:101C70002091A10926FFFCCF2091A10927FFFCCFCD
:101C80002091A0091093650627FFE1CF0093660617
:101C900029893A894B895C89262B372B482B592B6C
:101CA00029873A874B875C8732E839838B858A831B
:101CB0008A858B8389858C83FE013196E215F30535
:101CC00071F081918093A0098091A10986FFFCCFDA
:101CD0008091A10987FFFCCF8091A009EFCFC601B9
:101CE000ED89FE894D855E85E40FF51F019770F043
:101CF00021912093A0092091A10926FFFCCF2091DA
:101D0000A10927FFFCCF2091A009F0CF1093650611
:101D10008C189D08AE08BF084C0C5D1C6E1C7F1C07
:101D20008D859E85AF85B8898C0D9D1DAE1DBF1D0F
:101D30008D879E87AF87B88B81149104A104B1046D
:101D400009F00DCF81E001C080E06A96CDBFDEBF13
:101D5000DF91CF911F910F91FF90EF90DF90CF9087
:101D6000BF90AF909F908F907F906F905F904F90BB
:101D70003F902F900895CF93DF9300D000D0CDB740
:101D8000DEB78091D720882309F468C080912D2088
:101D900090912E20A0912F20B091302089839A839A
:101DA000AB83BC8380E127ED809366062093A00976
:101DB0009091A10996FFFCCF9091A10997FFFCCFCC
:101DC0009091A0091092A0099091A10996FFFCCFD3
:101DD0009091A10997FFFCCF9091A009809365068F
:101DE00097FFE2CF80E180936606FE013196CE0137
:101DF0000596E817F90771F021912093A009209129
:101E0000A10926FFFCCF2091A10927FFFCCF20913B
:101E1000A009EFCF80E18093650627ED80936606E9
:101E20002093A0099091A10996FFFCCF9091A10960
:101E300097FFFCCF9091A0091092A0099091A10961
:101E400096FFFCCF9091A10997FFFCCF9091A0093C
:101E50008093650697FFE2CF81E001C080E0249681
:101E6000CDBFDEBFDF91CF9108952F923F924F9269
:101E70005F926F927F928F929F92AF92BF92CF921A
:101E8000DF92EF92FF920F931F93CF93DF93CDB723
:101E9000DEB72E97CDBFDEBF4B015C0129013A01B1
:101EA0002DB73EB72C873D87672B682B692B79F4BC
:101EB0008091AD219091AE21A091AF21B091B02140
:101EC00084159505A605B70511F455DF13C2809159
:101ED000972190919821A0E0B0E0481659066A0633
:101EE0007B06D0F4CDB6DEB64DB75EB744195509C2
:101EF0004DBF5EBF8DB79EB701967C01A2016FEF0B
:101F000070E00E94C72F93018201B501A401C701AF
:101F1000E1DDCDBEDEBEEEC18091D7208823B9F0D1
:101F2000411451046104710491F04091AD2150912C
:101F3000AE216091AF217091B02144195509660915
:101F4000770981E0481559056A057B0508F480E0AA
:101F500080FFCFC1C0909F21D090A021E090A1210F
:101F6000F090A221C301B201A70196010E94FA2EAE
:101F700029833A834B835C836D8379878A879B8728
:101F800029803A802114310409F48AC0C501B401C2
:101F9000A70196010E94FA2E8901672B682B692BF5
:101FA00099F429813A814B815C8144275527C701E7
:101FB000B6010E94D72E860E971EA81EB91E4D8010
:101FC00059846A847B843AC02A94232899F1298011
:101FD0003A80A1E02A1A310889010F5F1F4F0C9D3A
:101FE000C0010D9D900D1C9D900D1124881999091B
:101FF0009C0140E050E029833A834B835C83892B2A
:1020000019F0C501B40131DFD101A70196010E9489
:102010002B2F860E971EA81EB91E29813A814B814F
:102020005C81260F371F481F591F421A530A640A42
:10203000750A04C000E010E0212C312C80919F2112
:102040009091A021A091A121B091A221C816D906FA
:10205000EA06FB0681F080919B2190919C21A0E0F3
:10206000B0E0C816D906EA06FB0651F0EFE2CE2E24
:10207000EAE0DE2E09C07BE0C72E7BE0D72E04C04D
:102080006EE9C62E6AE0D62E7101E00EF11EE01652
:10209000F10631F0C801F60109950F5F1F4FF7CF28
:1020A00000919B2110919C216801E12CF12CC3012E
:1020B000B201A70196010E94FA2E2D833E834F8321
:1020C000588769877A878B879E872D803E80211469
:1020D000310409F493C0C501B401A70196010E941F
:1020E000FA2E29833A83672B682B692B99F42D816B
:1020F0003E814F81588544275527C701B6010E946C
:10210000D72E860E971EA81EB91E49845A846B844A
:102110007E843AC02A94232899F12D803E8081E064
:10212000281A3108D9011196A983BA830A9FC001E0
:102130000B9F900D1A9F900D1124881999099C01ED
:1021400040E050E02D833E834F835887892B19F060
:10215000C501B4018ADE9801D1010E941C2F860EB0
:10216000971EA81EB91E461A570A680A790A8D8159
:102170009E81AF81B885481A590A6A0A7B0A04C051
:1021800019821A82212C312C80919F219091A021BB
:10219000A091A121B091A221C816D906EA06FB069A
:1021A00081F080919B2190919C21A0E0B0E0C81625
:1021B000D906EA06FB0651F05FE2E52E5AE0F52E5D
:1021C00009C04BE0E42E4BE0F42E04C03EE9E32EC0
:1021D0003AE0F32E09811A81020D131D49815A81BB
:1021E0000417150759F089819A81F701099529810A
:1021F0003A812F5F3F4F29833A83F0CFC0909721D8
:10220000D0909821C601A0E0B0E089839A83AB8387
:10221000BC83C301B20129813A814B815C810E9458
:10222000FA2E29013A017901232B11F481E062C0D1
:10223000C501B40129813A814B815C810E94FA2E4B
:102240008901672B682B692BF1F091E04916510445
:10225000B1F07201A1E0EA1AF1080F5F1F4FC09EB2
:102260009001C19E300DD09E300D112428193909DE
:1022700051F040E050E0C501B401F7DD04C000E0DA
:1022800010E0E12CF12C80919F219091A021A09150
:10229000A121B091A22129813A814B815C8128172B
:1022A00039074A075B0781F080919B2190919C211F
:1022B000A0E0B0E0281739074A075B0751F02FE28A
:1022C000C22E2AE0D22E09C09BE0C92E9BE0D92E57
:1022D00004C08EE9C82E8AE0D82EE00EF11E0E153D
:1022E0001F0509F4A3CFC801F60109950F5F1F4F21
:1022F000F6CF80E02C853D852DBF3EBF2E96CDBF0D
:10230000DEBFDF91CF911F910F91FF90EF90DF9093
:10231000CF90BF90AF909F908F907F906F905F9085
:102320004F903F902F900895CF92DF92EF92FF92BF
:102330006A017B012091D8203091D9204091DA2088
:102340005091DB20A82FB0E00E942B2F6C0D7D1D3B
:102350008E1D9F1DFF90EF90DF90CF9008950F93FB
:102360001F9390915B21981309C000915121109106
:10237000522120915321309154210FC090E00196B9
:1023800025E0289FF001299FF00D1124E55AFE4D0C
:1023900080810E94E4068B019C016091DC20709199
:1023A000DD208091DE209091DF200F3F4FEF14075A
:1023B0002407340739F0061717072807390710F4E0
:1023C000C901B8011F910F91089580915B21C7CF7A
:1023D0008F929F92AF92BF92CF92DF92EF92FF9235
:1023E000CF93C82F4A015B01BADF6B017C012091BA
:1023F000D8203091D9204091DA205091DB20AC2FA9
:10240000B0E00E942B2FDC01CB01880D991DAA1D85
:10241000BB1DBC01CD016C0D7D1D8E1D9F1DCF917F
:10242000FF90EF90DF90CF90BF90AF909F908F90F4
:1024300008958F929F92AF92BF92CF92DF92EF92C8
:10244000FF92CF93C82F80915B218C1309C080909D
:10245000552190905621A0905721B090582110C03E
:102460008C2F90E0019625E0289FF001299FF00D28
:102470001124E55AFE4D80810E94F0064B015C015B
:10248000C090D820D090D920E090DA20F090DB20C6
:102490008C2F65DFA7019601261B370B480B590BC4
:1024A000CA01B9013FEF83169306A306B30639F0BC
:1024B00086169706A806B90610F4C501B401CF9197
:1024C000FF90EF90DF90CF90BF90AF909F908F9054
:1024D000089580915B21ADCFCF92DF92EF92FF9272
:1024E000CF93C82F3CDF6B017C018C2FA2DF6C0DDA
:1024F0007D1D8E1D9F1DCF91FF90EF90DF90CF909F
:10250000089590915B21981731F091E0883008F0A0
:1025100090E0892F01C081E0817008954F925F9211
:102520006F927F928F929F92AF92BF92CF92DF92E3
:10253000EF92FF920F931F935091E2205523E1F009
:10254000280139014B015C01842FDBDF8823A1F0D6
:1025500081149104A104B10479F08C149D04AE049B
:10256000BF0450F08C189D08AE08BF0881E08414A9
:102570009504A604B70408F480E01F910F91FF9022
:10258000EF90DF90CF90BF90AF909F908F907F9013
:102590006F905F904F9008958F929F92AF92BF92ED
:1025A000CF92DF92EF92FF920F931F93CF93C82F9A
:1025B0004A015B016801790180915B218C1302C0A3
:1025C00004DF02C08C2FCBDE950184014C2FA6DFE7
:1025D000CF911F910F91FF90EF90DF90CF90BF9020
:1025E000AF909F908F9008958F929F92AF92BF92DD
:1025F000CF92DF92EF92FF920F931F93CF93C82F4A
:102600004A015B016801790180915B218C1302C052
:1026100060DF02C08C2F0DDF950184014C2F7EDF1F
:10262000CF911F910F91FF90EF90DF90CF90BF90CF
:10263000AF909F908F900895CF936ED88823E9F143
:102640008091AD219091AE21A091AF21B091B021A8
:10265000AC01BD0133E076956795579547953A955E
:10266000D1F74093D8205093D9206093DA2070930B
:10267000DB2046E0B695A795979587954A95D1F7C3
:102680008093DC209093DD20A093DE20B093DF20A8
:1026900081159041A105B10590F41092D8201092B7
:1026A000D9201092DA201092DB201092DC201092B8
:1026B000DD201092DE201092DF20C0E001C0C1E0DA
:1026C0000E94F4098823B9F0809187219091882194
:1026D00023E0969587952A95E1F78093E0209093E3
:1026E000E120C19750F41092D8201092D920109276
:1026F000DA201092DB2080E003C0CC23E1F381E0FC
:1027000081708093E220CF9108952F923F924F9253
:102710005F926F927F928F929F92AF92BF92CF9271
:10272000DF92EF92FF920F931F93CF93FC014B0127
:10273000C42F19012701380196018501B301A201B7
:102740008C2F0995882361F0B301A2018C2FF4012D
:102750000995AB01BC0196018501C1011BD901C0DE
:1027600080E0CF911F910F91FF90EF90DF90CF907D
:10277000BF90AF909F908F907F906F905F904F90A1
:102780003F902F900895AF92BF92CF92DF92EF9239
:10279000FF920F931F935701680179018A019B01F2
:1027A000482F64E971E18CEC92E1AFDF1F910F914A
:1027B000FF90EF90DF90CF90BF90AF900895EF9291
:1027C000FF920F931F93780189019A01AB01BC011D
:1027D00080915B21D8DF1F910F91FF90EF900895BA
:1027E000AF92BF92CF92DF92EF92FF920F931F931F
:1027F0005701680179018A019B01482F68EE71E158
:1028000084EF92E182DF1F910F91FF90EF90DF90B4
:10281000CF90BF90AF900895EF92FF920F931F93C8
:10282000780189019A01AB01BC0180915B21D8DF5D
:102830001F910F91FF90EF9008952F923F924F922A
:102840005F926F927F928F929F92AF92BF92CF9240
:10285000DF92EF92FF920F931F93CF93FC014B01F6
:10286000C42F19012701380196018501B301A20186
:102870008C2F0995882361F0B301A2018C2FF401FC
:102880000995AB01BC0196018501C10123D901C0A5
:1028900080E0CF911F910F91FF90EF90DF90CF904C
:1028A000BF90AF909F908F907F906F905F904F9070
:1028B0003F902F900895AF92BF92CF92DF92EF9208
:1028C000FF920F931F935701680179018A019B01C1
:1028D000482F64E971E18CEC92E1AFDF1F910F9119
:1028E000FF90EF90DF90CF90BF90AF900895EF9260
:1028F000FF920F931F93780189019A01AB01BC01EC
:1029000080915B21D8DF1F910F91FF90EF90089588
:10291000AF92BF92CF92DF92EF92FF920F931F93ED
:102920005701680179018A019B01482F68EE71E126
:1029300084EF92E182DF1F910F91FF90EF90DF9083
:10294000CF90BF90AF900895EF92FF920F931F9397
:10295000780189019A01AB01BC0180915B21D8DF2C
:102960001F910F91FF90EF9008954F925F926F9299
:102970007F92AF92BF92CF92DF92EF92FF920F932E
:102980001F93CF93DF93EB015A0128013901FC011A
:102990000995461657066806790698F48B019C013E
:1029A0000419150926093709C016D106E206F306EF
:1029B00010F497018601B301A201C501FE0109953A
:1029C00001C080E0DF91CF911F910F91FF90EF90B8
:1029D000DF90CF90BF90AF907F906F905F904F90BF
:1029E0000895CF92DF92EF92FF920F931F936801A9
:1029F00079018A019B01AC016CE074E189E692E106
:102A0000B4DF1F910F91FF90EF90DF90CF9008956A
:102A1000CF92DF92EF92FF920F931F93680179019B
:102A20008A019B01AC016FED73E185EE91E19DDFC1
:102A30001F910F91FF90EF90DF90CF900895CF926C
:102A4000DF92EF92FF920F931F93680179018A0141
:102A50009B01AC0167E774E185EE91E186DF1F9190
:102A60000F91FF90EF90DF90CF900895CF92DF927B
:102A7000EF92FF920F931F93680179018A019B01E6
:102A8000AC0164EA74E189E692E16FDF1F910F9176
:102A9000FF90EF90DF90CF900895CF936CD9C82F1F
:102AA0000E94010AC11102C080E090E08170CF91C4
:102AB00008958F929F92AF92BF92CF92DF92EF9242
:102AC000FF920F931F936A017B014801590119DDA1
:102AD000882379F0A5019401C701B6011F910F91D8
:102AE000FF90EF90DF90CF90BF90AF909F908F902E
:102AF000BCC980E01F910F91FF90EF90DF90CF90C5
:102B0000BF90AF909F908F900895CF92DF92EF92F9
:102B1000FF920F931F93CF93C82FDEDC6B017C01D4
:102B20002091D8203091D9204091DA205091DB209B
:102B3000AC2FB0E00E942B2FAB01BC0197018601A6
:102B40008C2FB7DFCF911F910F91FF90EF90DF9007
:102B5000CF90089580915B21D8CF809186210895F0
:102B6000BC0181E090E20C94122DCF93DF93FC0125
:102B70006491EC012196662331F081E090E20E949D
:102B8000602DCE01F4CFDF91CF910895AB01BC0150
:102B900081E090E20C943C2D80E2809362060895DF
:102BA000CF93DF9381E090E20E94C92D0E94B62866
:102BB00081E090E20E94E52DEC0197FD07C027D44B
:102BC000811104C08C2FDF91CF91C7C5DF91CF91C8
:102BD00008958091E320813079F028F08230D9F097
:102BE000833011F12EC08091680685FF2AC084E1F0
:102BF0008093002081E00CC0809100208150809360
:102C0000002081111EC00E944C060E944E2C82E0C2
:102C10008093E32016C08091680685FD12C084E190
:102C20008093002083E0F4CF809100208150809336
:102C30000020811106C00E94132C0E94650610928C
:102C4000E32037D587C60895089581E090E20C947B
:102C5000ED2C81E090E20C94392E2DEB30E23F9385
:102C60002F9325EC30E23F932F931F9223E02F9375
:102C70001F9221E02F934CEC50E25F934F934EEC68
:102C800057E05F934F932F931F929F938F930E94D0
:102C9000CE2F8DB79EB740968DBF9EBF85E6089517
:102CA00060E071E00E94B50685E60895CB010E94C0
:102CB000C506882321F00E94EA0884E608958AEC7C
:102CC000089560E071E00E94DE0685E608950F93A6
:102CD0001F93CF93DF9300D000D0CDB7DEB78C0128
:102CE000E0914D21F0914E21CE01039609959B81F3
:102CF0008C819A83898322E030E0AE014F5F5F4F81
:102D000060E071E0C8010E94080785E62496CDBF07
:102D1000DEBFDF91CF911F910F9108950F931F9305
:102D2000CF93DF9300D0CDB7DEB78B0119821A8223
:102D3000AB0162E070E0CE0101960E94330702977A
:102D4000C1F4F80101900020E9F73197E01BF10B85
:102D5000339730F089819A8198278927982702C074
:102D6000898190E0E0914F21F0915021099584E60E
:102D700001C08AEC0F900F90DF91CF911F910F91BE
:102D800008950F931F93CF93DF931F92CDB7DEB7B4
:102D90008C01E0914921F0914A21CE0101960995DB
:102DA00021E030E0AE014F5F5F4F60E071E0C801AD
:102DB0000E94080785E60F90DF91CF911F910F9138
:102DC0000895CF93DF931F92CDB7DEB7AB0161E0DB
:102DD00070E0CE0101960E943307019741F4E09123
:102DE0004B21F0914C218981099584E601C08AEC40
:102DF0000F90DF91CF910895EF92FF920F931F9361
:102E0000CF93DF93CDB7DEB7A097CDBFDEBF7C01F8
:102E1000E3E3F1E206A110E00288F389E02DCE01A0
:102E2000019609959801AE014F5F5F4F60E071E038
:102E3000C7010E94080785E6A096CDBFDEBFDF91DF
:102E4000CF911F910F91FF90EF900895DF92EF9235
:102E5000FF920F931F93CF93DF93CDB7DEB7A09769
:102E6000CDBFDEBF7B010091592110E067EC77E018
:102E7000C7010E94992F892BD1F4D12CED2CF12C74
:102E8000E016F10658F40E94FD06E1E0F0E0EC0FD8
:102E9000FD1FEE0DFF1D8083D394F0CFE0914721FD
:102EA000F0914821CE010196099584E60BC0A70157
:102EB00060E270E0CE0101960E94330708171907FF
:102EC00069F38AECA096CDBFDEBFDF91CF911F9151
:102ED0000F91FF90EF90DF900895FC0180915A21AF
:102EE000882311F081E301C080E38083118285E6AD
:102EF0000895FB01818181110DC08081813321F40E
:102F000081E080935A2104C0803321F410925A2129
:102F100084E608958AEC08958FE195E147D28EE624
:102F2000089588E095E15DD28EE60895E0ECF4E046
:102F300081818E7F81830E94132C0E94400684E64B
:102F40000895E0ECF4E081818E7F81830E94132C50
:102F50000E94460684E60895E3E3F1E221A12F935F
:102F600020A12F93278D2F93268D2F9323EC37E0CD
:102F70003F932F9321E02F931F929F938F930E9453
:102F8000CE2F8DB79EB70A968DBF9EBF85E608955A
:102F90004F925F926F927F928F929F92AF92BF9269
:102FA000CF92DF92EF92FF920F931F93CF93DF9315
:102FB000CDB7DEB77A01B02E4DB65EB6213041E016
:102FC000340708F042C02E153F0508F43EC06DB628
:102FD0007EB62DB73EB72E193F092DBF3EBF2F5FDE
:102FE0003F4F6901870120E030E0AB01BC01C60121
:102FF00013DCBB2029F18DB69EB68701000F111F8F
:10300000B8016D5F7F4F8DB79EB7861B970B8DBF45
:103010009EBF2DB73EB72F5F3F4F59019701A601C5
:10302000C5010E940807F501E00FF11F8DE08083C4
:103030008AE081831282C50193DD8DBE9EBE03C0EE
:10304000B701C601A3DD6DBE7EBE4DBE5EBEDF9183
:10305000CF911F910F91FF90EF90DF90CF90BF9095
:10306000AF909F908F907F906F905F904F9008955A
:103070002F923F924F925F926F927F928F929F9288
:10308000AF92BF92CF92DF92EF92FF920F931F9376
:10309000CF93DF93CDB7DEB72A97CDBFDEBF1C013C
:1030A000162F17DA21E02216320608F04DC06115FE
:1030B00071058105910509F447C04101A12CB12C8E
:1030C000A50194010E94FA2E2D833E834F835887D9
:1030D00069837A838B839C8349815A8149875A8784
:1030E00060E070E0CB01C12CD12C760124013501C8
:1030F000460E571E681E791E2D813E814F815885D0
:10310000C216D306E406F50661F0012F9101A10174
:103110003FDF5FEFC51AD50AE50AF50AC301B20120
:10312000E5CF49855A85452B59F0A5019401C70182
:10313000B6010E94D72E012F910149815A8128DFC3
:10314000111104C084E603C089EC01C085E62A960B
:10315000CDBFDEBFDF91CF911F910F91FF90EF9018
:10316000DF90CF90BF90AF909F908F907F906F90A7
:103170005F904F903F902F90089561E080E190E044
:1031800077CF60E080E091E073CF86E395E10ED1E8
:103190008EE6089581EF94E124D18EE60895209182
:1031A00059211F922F9320EC37E03F932F9321E07A
:1031B0002F931F929F938F930E94CE2F8DB79EB710
:1031C00008968DBF9EBF85E6089560E071E00E947D
:1031D0006A0885E6089540E051E0BC0180E00E9465
:1031E0009F0885E6089580E00E94BF08882321F0AB
:1031F0000E94EA0884E608958AEC089560E071E090
:103200000E946A0885E6089540E051E0BC0181E033
:103210000E949F0885E6089581E00E94BF088823E8
:1032200021F00E94EA0884E608958AEC089560E09F
:1032300071E00E94220985E60895CB010E942F09C2
:10324000882321F00E94EA0884E608958AEC089514
:1032500081DC80E00E94920666E080E00E94900897
:1032600060E081E00E9490080E94EA0884E60895E8
:10327000BF92CF92DF92EF92FF920F931F93CF9363
:10328000DF93EC01EE24EA94F12C08EE18E09CE2C6
:10329000B92E6801B80184EC90E20E94992F892B25
:1032A000C9F0DE01F6012491ED012196C7010197D5
:1032B000211105C0BC927C01085E1F4FEACFF1E2EC
:1032C000EF16F104B8F32C93DE012FEFC21AD20AE5
:1032D0007C01E8CF2197188285E6DF91CF911F917D
:1032E0000F91FF90EF90DF90CF90BF900895CF9314
:1032F000DF93EC010E94D7099F938F9389EB97E0AE
:103300009F938F9381E08F931F92DF93CF930E94BF
:10331000CE2F8DB79EB708968DBF9EBF85E6DF91F5
:10332000CF910895209186211F922F9326EB37E0AD
:103330003F932F9321E02F931F929F938F930E948F
:10334000CE2F8DB79EB708968DBF9EBF85E6089598
:10335000FB01818181110CC08081813311F481E0F6
:1033600003C0803329F480E00E943A0984E608957E
:103370008AEC0895CF9391DBC0E08C2F0E94F20875
:1033800080E00E94920666E080E00E94900860E083
:1033900081E00E949008CF5FC83079F780E00E94FA
:1033A000F2080E94EA0884E6CF91089521E0209374
:1033B000F1202093F02024E12093EE2025E030E05E
:1033C0002093EC203093ED201092E6201092E7201D
:1033D0001092E8201092E9208093E4209093E52059
:1033E000089527E02093F12024E630E02093EC209C
:1033F0003093ED201092E6201092E7201092E82002
:103400001092E9208093E4209093E52008950F9393
:103410001F93CF939091F1209530B9F130F4933010
:1034200001F118F5913068F43EC1973009F4A5C058
:1034300008F440C0983009F4A5C0993009F430C1AF
:1034400032C1813031F41092EA201092EB2083E0F7
:10345000FBC0843011F466E08BC0883109F0F6C0FF
:103460001FC18093EF2084E0EFC090E04091EF20F7
:103470002FEF30E0241B31098217930721F485E0F8
:10348000E3C0891741F165E16CC02091EA203091D9
:10349000EB20A9014F5F5F4F4093EA205093EB2050
:1034A000F901EF54FE4D80834038510509F0CEC03C
:1034B00086E0CAC02091EF209091F020291349C0E6
:1034C000E1EBF1E221E332E290E02E173F07C9F28F
:1034D0004191940FFACF4091E6205091E7206091FE
:1034E000E8207091E920E091E420F091E52000E8E7
:1034F00010E020E030E081EB91E20995C82F8823AD
:1035000011F18091F0208F5F8093F0208091E62070
:103510009091E720A091E820B091E92080589F4F3A
:10352000AF4FBF4F8093E6209093E720A093E82011
:10353000B093E92066E081E090E20E94602D82E095
:103540008093F120B1C068E181E090E20E94602D9B
:103550000EC030E0892F90E001972817390739F421
:1035600066E081E090E20E94602D82E06DC068E13B
:1035700081E090E20E94602D93C0853119F4109291
:10358000F02006C0883109F466CF863009F060C0AB
:103590008091F0208F5F8093F0204091E620509141
:1035A000E7206091E8207091E920E091E420F0911B
:1035B000E52000E810E020E030E081EB91E20995A1
:1035C000C82F8823D9F161E081E090E20E94602D4C
:1035D0006091F02081E090E20E94602D6091F020E7
:1035E000609581E090E20E94602D60E870E081EBE0
:1035F00091E2CCDAE1EBF1E281E392E260E08E1756
:103600009F0719F02191620FFACF81E090E20E94AA
:10361000602D8091E6209091E720A091E820B09164
:10362000E92080589F4FAF4FBF4F8093E620909383
:10363000E720A093E820B093E92036C064E081E061
:1036400090E20E94602D89E08093F120C1E02CC0BF
:103650008531E1F761E081E090E20E94602D6091A8
:10366000F02081E090E20E94602D6091F020609552
:1036700081E090E20E94602D60E870E081EB91E2D1
:1036800085DAE1EBF1E260E082E2E133F80719F07C
:103690008191680FF9CF81E090E20E94602DD6CF32
:1036A0001092F120D3CFC0E08C2FCF911F910F91BA
:1036B00008958091F120813019F0873029F1089523
:1036C0008091EC209091ED209C01215031092093B4
:1036D000EC203093ED20892B31F58091EE209FEF87
:1036E000980F9093EE20882331F065E181E090E21D
:1036F0000E94602D02C01092F12085E090E080933E
:10370000EC209093ED2008958091EC209091ED2095
:103710009C01215031092093EC203093ED20892B1E
:1037200011F41092F1200895E1E0F8E020E030E09B
:103730009491981309C041E2429FC001439F900DAC
:1037400011248E5F974F08952F5F3F4FB19627301A
:10375000310571F780E090E00895CF92DF92EF920B
:10376000FF920F931F93CF93982F9F7D91549A317F
:1037700060F090ED980F9A3040F08F3531F0982F2F
:103780009D7F9D3311F08032C9F49FE9980F9A31E3
:1037900008F480522091F7203091F8202F3F310516
:1037A00008F0CFC0A9014F5F5F4F4093F7205093BF
:1037B000F820F901EF54FE4D8083C3C08D3009F02D
:1037C00095C0E091F720F091F820EF54FE4D108263
:1037D0001092F7201092F8208091F6208111B1C04C
:1037E0008091B121982F9F7D09F495C08D7F8D33F5
:1037F00009F491C0E1EBF1E27F01C191CC2331F0FA
:10380000CF3321F0CD3311F0C032B1F7F701108280
:1038100088EEC82E88E0D82E00E010E0B60181EBDB
:1038200091E20E94992F892B09F056C01092B12184
:10383000CF3349F488E1809FF001819FF00D11247E
:10384000E250F74F18C0B7016F5F7F4FCD3349F497
:1038500088E1809FF001819FF00D1124E450F74F23
:1038600020C0C11113C088E1809FF001819FF00D3D
:103870001124E850F74F259134912115310509F4B1
:103880004DC081EB91E2F901099514C0C03209F0F5
:1038900045C088E1809FF001819FF00D1124E65022
:1038A000F74F2591349121153105C1F181EB91E25A
:1038B000F90109958F3F99F581E08093F6202EB1AB
:1038C0003FB18091080490910904822B932B80933F
:1038D000F4209093F52035C00F5F1F4FF8E1CF0E15
:1038E000D11C0831110509F099CF15C0883061F459
:1038F0008091F7209091F820009719F1019780931B
:10390000F7209093F8201DC08B31D9F41092F72046
:103910001092F82016C088ECC0E002C089ECC1E02B
:1039200003DF23D98EEF97E020D9CC2351F080918B
:10393000B121882331F081EB91E212D98BEF97E02E
:1039400014D981E0CF911F910F91FF90EF90DF90FC
:10395000CF9008958091F620882389F1E0915C2131
:10396000F0915D21238134812115310541F14EB162
:103970005FB18091080490910904842B952B4091AC
:10398000F4205091F520841B950B64E670E00E94B2
:10399000E62E6217730798F01092F6208BECC4DEC7
:1039A000E4D888EF97E0E1D8E091F220F091F3209D
:1039B000309729F009951092F2201092F320089583
:1039C000A0E2B6E082E011968C93119715968C9345
:1039D0001597E0E4F8E010A211A28DE291E086A331
:1039E00097A38FEF9FEF80A791A781E0808398E84E
:1039F000938393E097831A968C9308951F920F9266
:103A00000FB60F9211248F939F93EF93FF9381EB47
:103A100092E2809305219093062181E393E28093C3
:103A20000321909304211092FE201092FD20109209
:103A3000F92010920121109202211092FC20E0E462
:103A4000F8E0138286E990E086AB97AB8AE190E0DC
:103A500080AF91AFE0E4F9E010A211A28FEF9FEFE9
:103A600086A397A389E883838EE0808310922A0639
:103A7000FF91EF919F918F910F900FBE0F901F902C
:103A800018951F920F920FB60F9211242F933F9308
:103A90008F939F93EF93FF93909128068091FD2041
:103AA000957021E009F020E0880F822B8093FD20A3
:103AB0009091F920992309F46BC0982F9770973053
:103AC00091F51092400880E180934C0810924309D0
:103AD0008091FB20882319F08CEB94E002C08CE7E6
:103AE00094E080936609909367091092FA2081E030
:103AF00080934C0983E08093460980910121909145
:103B00000221877061F09091FE208F5F893011F063
:103B10009695FBCFE0910521F0910621908381E0FD
:103B20008093072135C0982F9C7091F191E0382F38
:103B3000347082FD90E09093FB208091FC208111F5
:103B400025C02091FE202695311101C080E8282B48
:103B50002093FE2080910121909102210196809373
:103B600001219093022187709927892B89F4E09194
:103B70000521F0910621CF010196809305219093B4
:103B80000621208381E08093FC2002C01092FC205B
:103B90009091F92081E089278093F92088E880932B
:103BA0004308FF91EF919F918F913F912F910F903B
:103BB0000FBE0F901F9018951F920F920FB60F9285
:103BC00011242F933F938F939F93EF93FF938091B3
:103BD000FA20853009F45AC0B8F48230B9F178F48B
:103BE000882369F1813009F0C0C08FE390E08093B1
:103BF0006609909367098EE08093000827C08330A0
:103C000051F18430B1F1B1C0883009F4A3C038F467
:103C1000863009F460C0873009F46DC0A6C08930D1
:103C200009F49DC08A3009F0A0C01092400910929A
:103C300046091092000881E08093082196C08FE722
:103C400090E080936609909367098FC080E4809329
:103C5000450683E088C080E48093460684E0809334
:103C6000FA20E0910521F091062180818093FE20C9
:103C70007CC08091FE2080FF04C080E480934506D4
:103C800003C080E48093460685E06DC08091FE20ED
:103C900090E480FF03C09093460602C090934506CF
:103CA00086958093FE208091FF20909100210196BF
:103CB0008093FF20909300219C0127703327232BB2
:103CC00011F486E050C02091012130910221821729
:103CD0009307F1F529C0E0910321F091042180813F
:103CE000882321F080E48093450603C080E480931C
:103CF000460687E038C0E0910321F09104218081DD
:103D0000882321F080E48093460603C080E48093FA
:103D100045062091FF203091002180910121909152
:103D200002212817390711F488E01DC03196E0936D
:103D30000321F0930421E0910521F0910621CF01A8
:103D40000196809305219093062181818093FE2026
:103D500084E009C080E48093460689E004C080E4E2
:103D6000809346068AE08093FA20FF91EF919F911D
:103D70008F913F912F910F900FBE0F901F9018952C
:103D8000CF93DF93E0E4F6E084E08283128AC0E818
:103D9000D1E082E68E83A0E2B6E085E012968C93B5
:103DA000129781E050968C93509782E052968C93B4
:103DB00052971A961C921A9783E019968C9398E55D
:103DC00098839AE5998390E491839683818386838F
:103DD000E0E0F8E08FE090E086A397A388E090E031
:103DE00082A793A783E28183DF91CF91E9CD809170
:103DF0000721882309F457C01092072182E080939D
:103E0000210680932606609101217091022161159F
:103E1000710521F1E0914321F091442181EB92E27F
:103E2000099594FD08C0AC0123E0569547952A9565
:103E3000E1F720E002C09F7E17C0A22FB0E0A417D8
:103E4000B50790F4AF54BD4DEC91F0E0EC5AFB4F48
:103E5000E491A058BF4FEC932F5FEFCFE0913B214F
:103E6000F0913C2109951AC00097C1F0809301217F
:103E7000909302211092FF201092002181EB92E298
:103E8000809305219093062181E393E2809303219F
:103E90009093042181E08093FA2005C0109240099C
:103EA000109246098DDD80910821882319F0109227
:103EB000082186CD089521E020931C2040930B21FA
:103EC0004111806480930D2190930E2160930C2109
:103ED00010920A2110920921089541E08091592100
:103EE000873009F040E068E084E090E0E4CF41E012
:103EF00080915921873009F040E068E182E090E04C
:103F0000DACF40E069E084E090E0D5CF81E08093B3
:103F10001C200895FF920F931F93CF93DF93FC0112
:103F20002081203501F5218121111DC08B01EC017B
:103F300080910A21FF24F3948F2580931C2062E056
:103F400070E0CF01C6D5882331F010921C20F80113
:103F50001082118206C0F88284E090E0F80180832C
:103F6000918381E001C080E0DF91CF911F910F919B
:103F7000FF900895EF92FF920F931F93CF93DF93DB
:103F80004730510511F080E020C0E80179018B0134
:103F9000682FC801CFD58823B1F3B701C801D6D5A2
:103FA00080911C20823040F484E080931C2080E1CA
:103FB00090E08883998308C090910A2181E0892745
:103FC00080931C201882198281E0DF91CF911F918C
:103FD0000F91FF90EF9008958F929F92AF92BF92B2
:103FE000CF92DF92EF92FF920F931F93CF93DF93C5
:103FF000CDB7DEB76297CDBFDEBF982E7B016A01D9
:10400000FB012081203619F06AE370E002C060E312
:1040100070E0F701818187FF0AC0807FF0E18F9F08
:10402000C001112460547F4F46EF50E007C08C7FE1
:1040300030E1839FC001112446E350E05C01A60EED
:10404000B71E2170209323219C0164E036952795AB
:104050006A95E1F720932421480F591F60E070E032
:1040600004E010E020E030E08FE091E20E94DF13F6
:1040700080910B2104E010E020E030E0882329F05B
:1040800043E050E060E070E003C040E050E0BA017F
:10409000CE010F960E94DF13A50160E070E006E0FC
:1040A00010E020E030E0CE0101960E94DF1399205D
:1040B00009F452C01B861C861D861E8681E08B87F4
:1040C0008B859C85AD85BE85809325219093262187
:1040D000A0932721B093282160E470E085E291E26B
:1040E000F8D68091252190912621A0912721B09189
:1040F00028218093292190932A21A0932B21B093EA
:104100002C2160E270E089E291E2E3D69E01295F12
:104110003F4FAE01455F5F4FBE01615F7F4FCE01F4
:1041200001961BD6CE010B965C01D70104979E0128
:10413000215F3F4FF50141915F014D93FC0161917A
:10414000CF01AD0141585F4FFA016083A216B3065B
:1041500089F780E290E13EC080903120909032203B
:10416000A0903320B09034208F829886A986BA869A
:104170004091352050913620609137207091382041
:104180008091392090913A20A0913B20B0913C2021
:104190004093252150932621609327217093282155
:1041A0008093292190932A21A0932B21B0932C2135
:1041B000F70180829182A282B38220E030E0AE01DA
:1041C000495F5F4FBE01615F7F4FCE010196C5D54C
:1041D00080E290E0F6018083918386E080931C204A
:1041E0006296CDBFDEBFDF91CF911F910F91FF90FF
:1041F000EF90DF90CF90BF90AF909F908F900895F9
:104200000F931F93CF93DF93EC018C01060F111DC9
:10421000C017D10729F037D6988189278993F8CF1D
:10422000DF91CF911F910F910895CF92DF92EF927E
:10423000FF920F931F93CF937B018C016C01C40EEF
:10424000D11C0C151D05A1F0F701C1917F011BD6F2
:104250008C27F80181938F01EC2FF0E0EC5AFB4F93
:10426000C49144D5D801A158BF4F8C278C93E9CF76
:10427000CF911F910F91FF90EF90DF90CF90089515
:10428000AF92BF92CF92DF92EF92FF920F931F9364
:10429000CF93DF93CDB7DEB72897CDBFDEBF7C01CC
:1042A000AB016F8378871D821E8220910D21309192
:1042B0000E2181E090911C20911180E08E010B5F16
:1042C0001F4FB70157DE811104C3B801C70122DEB9
:1042D0008111FFC280911C20853009F40DC150F47A
:1042E000823061F1B0F0833009F466C0843009F4A3
:1042F00085C0E7C2883009F452C238F4863009F428
:1043000017C1873009F433C1DCC28C3008F46FC2A6
:10431000D8C28095817080930A2110920921F701FB
:104320008081803409F0D5C20E94AD15882309F43C
:10433000D0C282E080931C208AE004C2F701808111
:10434000982F9D7F913469F1803311F0803A59F5AF
:1043500062E070E0C701BDD3811102C081E0F2C10B
:10436000F7018081803399F44181F0E14F9FA001F2
:10437000112460E070E000E110E020E030E0C701CF
:104380000E94DF1360E170E0C70178D3A9C0803AD2
:1043900009F09FC2F70181818093242183E08093FB
:1043A0001C208AE0D0C1803509F093C2BE016B5F4A
:1043B0007F4FC701AFDD8DC260E170E0C70189D3D7
:1043C0008823B9F080915A21811111C04091242194
:1043D000F0E14F9FA0011124052E000C660B770B16
:1043E00000E110E020E030E0C7010E9477148AE08D
:1043F00001C081E0F701808382E00FC2F701808174
:10440000833971F580910B21882351F088E88983E5
:10441000F4E0DF2EA4E0CA2E03E0CE01029607C02E
:10442000C0900C21E5E0DE2E04E0CE01019610E004
:1044300020E030E040E050E0BA010E94DF132C2D74
:10444000AE014F5F5F4FBE01695F7F4FC70182D3EF
:10445000882371F1D0921C2081E08093092128C02B
:1044600090910921992309F43EC090910B21992341
:1044700011F1853901F504E010E020E030E043E07F
:1044800050E060E070E0CE0101960E94DF132091C1
:104490000C21AE014F5F5F4FBE01695F7F4FC701C7
:1044A00059D3882329F085E080931C20109209219C
:1044B0008F819885B6C18033B1F400E110E020E02F
:1044C00030E040E050E0BA01C7010E94DF1360E134
:1044D00070E0C701D3D285E080931C20109209219F
:1044E00080E990E09EC190910A2181E08927809324
:1044F0001C2010920921EDC1F7018081803421F444
:104500000E94AD15811115CFF70180818056823050
:1045100068F462E070E0C701DCD2882309F41ECFA2
:10452000AE014B5F5F4FB70180E035C184E00AC147
:10453000C7018DD464E06701F4E0CF0ED11CC60141
:104540005FDE44E050E065E271E2C6010E94B12FF7
:10455000892B59F444E069E271E2C70166DE87E025
:1045600080931C2080E290E15CC181E0B0C164E0F6
:10457000C70146DEBE016B5F7F4FC701CBDC8111F7
:10458000A8C162E070E0C701A4D2811107C0809188
:104590000A2111E0812780931C20E0C0F70180816F
:1045A000803309F0A7C0418147FD04C0842F837088
:1045B000833029F0842F8F708F3009F083C04093AF
:1045C000242180910F219091102120911121382FC9
:1045D00032953095592F5327507F09F03FC032272D
:1045E0003F70E1F5929590959227907FB9F5342F21
:1045F00047FD02C0337003C03F7009F033E080957F
:10460000622F62956F703323B1F090E0032E02C0E9
:10461000959587950A94E2F7E22FF0E0032E02C009
:10462000F595E7950A94E2F72E2F70E002C0759594
:1046300067953A95E2F760FBAA24A0F8B12CF50142
:10464000EE0FFF1FEE0FFF1F20FBCC24C0F8D12C74
:10465000CC0CDD1CEC298170E82B01C0E7E0F0E018
:1046600080912321EE0FFF1FE35CFF4DE80FF11D4A
:104670008081F7019701205F3F4F1192E217F30706
:10468000E1F790911221F701918782FF09C0909183
:104690000F219683909110219783909111219087FB
:1046A00084FF1DC04360F0E14F9FA0011124465FCD
:1046B0005F4F60E070E006E010E020E030E0C7010E
:1046C0000A960BC080E1489FA001112460E070E0D1
:1046D00000E110E020E030E0C7010E94DF1360E15C
:1046E00070E0C701CBD142E1B701C7019EDD80E98F
:1046F00090E197C0982F9F7E903A39F5F70141815C
:1047000040932421411102C0D1D31CC0803A11F43E
:1047100088E036C0803B09F082C080915A21811127
:104720000EC0F0E14F9FA001112460E070E000E1B5
:1047300010E020E030E083E191E20E947714B6D3EC
:104740009AE08927F70180836AC0803C51F4F70121
:104750008181809324211AE010931C20A7D3812704
:10476000F1CF813C31F4F70181818093242189E0EC
:1047700007C0823C41F4F7018181809324218BE0C2
:1047800080931C20DCCF8056823038F4AE014B5F22
:104790005F4FB70181E020DC9CC085E098C062E1FA
:1047A000C7012EDDBE016B5F7F4FC701B3DB8111F7
:1047B00090C060E170E0C7018CD1882341F1809105
:1047C0005A21811111C040912421F0E14F9FA00195
:1047D0001124052E000C660B770B00E110E020E0A1
:1047E00030E0C7010E94771461D39AE012C066E0FE
:1047F000C70106DDBE016B5F7F4FC7018BDB8111F7
:1048000068C064E070E0C70164D181110DC04ED36F
:1048100091E08927F701808387E080931C2084E062
:1048200090E08D839E8355C040912421F0E14F9FFD
:10483000A001112460E070E000E110E020E030E031
:1048400083E191E20E94DF1390911321809117215F
:10485000809598134EC080911B2198134AC0909167
:104860001421809118218095981343C080911C21B8
:1048700098133FC09091152180911921809598132C
:1048800038C080911D21981334C0909116218091D9
:104890001A21809598132DC080911E21981329C04C
:1048A00090911F21809120218095981322C08091A2
:1048B000212198131EC0809122218095981319C040
:1048C0001BC01D821E8290910A2181E0892780935E
:1048D0001C208D819E812896CDBFDEBFDF91CF91B8
:1048E0001F910F91FF90EF90DF90CF90BF90AF900E
:1048F0000895DCD295E08DCF809113219091142101
:10490000A0911521B0911621F7014081518162815A
:10491000738120911C202A3029F4841B950BA60B4F
:10492000B70B06C0293021F4840F951FA61FB71FAF
:1049300080931321C92EDA2EEB2EFF24C09214216E
:104940008D0122273327009315214B2F55276627EA
:10495000772740931621E82FE095E0931721EC2D5F
:10496000E095E0931821E02FE095E0931921E42FE2
:10497000E095E0931A2180931B21C0921C210093A3
:104980001D2140931E2148CF0F931F93CF93DF9398
:10499000EC0180910B218823A9F003E010E020E0D6
:1049A00030E040E050E0BA01CE010E94DF1304E0A5
:1049B00010E020E030E043E050E060E070E0CE0145
:1049C000039608C004E010E020E030E040E050E052
:1049D000BA01CE010E94DF13DF91CF911F910F9199
:1049E00008950F931F93CF93DF931F92CDB7DEB738
:1049F00020910B21222349F00091592110E020E061
:104A000030E040E050E0BA011CC0FC01308121815F
:104A100023273281232733812327298304E010E0D1
:104A200020E030E040E050E0BA010E94771401E05D
:104A300010E020E030E044E050E060E070E0CE01C3
:104A400001960E9477140F90DF91CF911F910F91E3
:104A5000089520910D2130910E21FC012083318396
:104A6000089580930D2190930E21089520910C219B
:104A7000FC012083089580930C21089520E4209365
:104A8000D00026EC2093D5002093D40021E0209381
:104A9000D000DC01680F791FA617B70741F0ED9130
:104AA000F0E0EC5AFA4FE491E093D300F5CFE091B7
:104AB000D500F0E0EC5AFA4FE491EC93E091D40089
:104AC000F0E0EC5AFA4FE4911196EC931092D0007A
:104AD000089520E42093D00026EC2093D500209365
:104AE000D40021E02093D000DC01680F791FA617C5
:104AF000B70741F0ED91F0E0EC5AFA4FE491E09302
:104B0000D300F5CFE091D500F0E0EC5AFA4FE491F4
:104B10008C918E130AC0E091D400F0E0EC5AFA4F69
:104B2000E49181E011969C919E1380E01092D00058
:104B300081700895FC01908181E0611102C096327C
:104B400019F0923509F080E081700895FC016083CE
:104B500071830895AF92BF92CF92DF92EF92FF924E
:104B60000F931F93CF93DF93EC01FA019981903259
:104B700029F08A016B01903789F02DC0308138838C
:104B80002181298392819A8383818B832327922792
:104B900089278C8388E290E0FB0156C09A81FA0154
:104BA000808198131BC09B818181981317C09C81C1
:104BB0008281981313C09D81838198130FC028832D
:104BC00061E070E0CE015ADF88E190E0F601808379
:104BD000918381E03CC0892F8F7021F0F601108213
:104BE000118234C092959F709250E92EF12CA7014A
:104BF000BE016E5F7F4FCF010E94B12F892B19F04C
:104C0000F6011082118284E090E05C01AE18BF08CA
:104C1000B8016E0D7F1DA501CE010E94BE2FCA0DE9
:104C2000DB1DF801908181818927928189279381F9
:104C30008927888385E090E08E199F0923E0880FFB
:104C4000991F2A95E1F7F6018083918380E0DF9137
:104C5000CF911F910F91FF90EF90DF90CF90BF9079
:104C6000AF900895A0912D21B0912E2140912F2138
:104C7000F0913021E0913121309132212A2F217E93
:104C80009B2F90719227242F207292272F2F247907
:104C900092272E2F23779227232F2A739227292FAB
:104CA00022952F709227292F269526959227292F16
:104CB000269550E060E070E0BA01552744275B2B51
:104CC0004A2B76956795579547959227917098133B
:104CD0006068F0932D21E0932E2130932F21409393
:104CE000302150933121609332210895CF93DF9387
:104CF00080E391E2DC011196EC911197AC91A295C1
:104D0000AF70B0E0A359BF4DCE2FCF70D0E0C359E4
:104D1000DF4D3C912889232BE295EF70F0E0E359B9
:104D2000FF4D30A1232BEC01EA81AE2FAF70B0E034
:104D3000A359BF4DD0968C91922F982BE295EF708E
:104D4000F0E0E355FF4D8081E92FE82BF0E0E35BD5
:104D5000FF4D8081DF91CF9108955F926F927F9296
:104D60008F929F92AF92BF92CF92DF92EF92FF927B
:104D70000F931F93CF93DF936901DC010DE211E2E2
:104D8000C0E3D1E27C0186E0E80EF11C11962C9183
:104D9000119730E0322F22278C91282B88E090E069
:104DA000B12CB694969520FF03C0EB2DE068BE2E83
:104DB00021FD90683695279536952795815089F77E
:104DC000F801B1928F0199931296EA16FB06F1F65B
:104DD0007B01EA0186015601F4E0AF0EB11C988018
:104DE000F70171907F01792488E0682E812C552489
:104DF00053947CDF81118528872D817033DF550C1A
:104E000076946A946110F5CF89248992C114D104F3
:104E100049F0E92DF0E0EC5AFB4F949067DF8925CB
:104E2000F80180830F5F1F4FA016B106C1F6DF9116
:104E3000CF911F910F91FF90EF90DF90CF90BF9097
:104E4000AF909F908F907F906F905F900895CF92DA
:104E5000DF92EF92FF92CF93FC01C080D180E2807D
:104E6000F380C0E243DF9C2D91708927FBDEF6942E
:104E7000E794D794C794C150A9F7CF91FF90EF90D2
:104E8000DF90CF9008951F93CF93DF93D8E0C0E0D9
:104E90002DDF182F80E0E6DEC6951111C068D150D5
:104EA000B9F78C2FDF91CF911F9108951F93CF9366
:104EB000DF93D4E0C0E01ADF182F80E0D3DEC69580
:104EC0001111C860D150B9F78C2FDF91CF911F918C
:104ED0000895FC019B0121503109E0F082818D721F
:104EE000982F92959F708927982F96959695892748
:104EF000982F96954081518162817381769567954F
:104F000057954795892780FD706840835183628358
:104F10007383E1CF08950F931F93CF93DF93CDB7A2
:104F2000DEB7EA97CDBFDEBF06EB13E29FD2F801F2
:104F300081938F01F3E20E3B1F07C1F70E942916F0
:104F400010D3882309F404C18091B6239091B7232C
:104F5000953009F478C030F4913091F168F09330D5
:104F600079F1F6C0983009F4CDC0993009F4D2C077
:104F7000963009F0EDC07BC0803821F0823809F00E
:104F8000E7C008C01091B2238091B323882399F021
:104F9000126011C08091BA238F70863008F0D8C09B
:104FA00085D2E091C023F091C123118112FB11271A
:104FB00010F980E07BD2EFD2812F68D280E0A7C0C9
:104FC000282F2D7F09F0C4C0882319F0823061F0AA
:104FD000BFC08091B823813009F0BAC0933009F086
:104FE00080E08093B3232AC08091B823811126C02A
:104FF000E091BA231E2F1F708FEF810F853008F0CC
:10500000A7C0812F53D28091B723833011F4EFD200
:1050100015C0E091C023F091C12381818B7F8183F2
:1050200024E8129FF0011124EC5FFB4D1082E09107
:10503000C023F091C12380818E7F808380E036D2AF
:10504000AAD298D385C0811183C01091B8231F774D
:10505000A2D290D360D28823E9F31093C304111134
:1050600002C082E001C083E08093B52371C0805804
:10507000823008F06DC08091B8239091B9238C3DA7
:10508000E3E09E0761F583E08A838AE389834FB773
:10509000F894DE01139620E038E052E05093CA0104
:1050A000E32FF0E0E4911092CA0120FF03C0E295E3
:1050B000EF703F5FEF708E2F90E0EA3010F0C796F0
:1050C00001C0C0968D939D932F5F2C3139F74FBF50
:1050D00062D26AE370E0CE010196A6D011C0609161
:1050E000BA237091BB23AE014F5F5F4F0E94D6057C
:1050F0008C01892B69F14FD2B80189819A8110D135
:10510000A6D126C0803821F546D28091B123BED1E8
:1051100085D197CF81111CC08091B8239091B9237C
:1051200099270297ACF437D28091B8238093B123AA
:1051300021D38091B123811106C08091C3048111D4
:1051400002C081E001C084E08093B5230E9425164F
:1051500008D2882311F01FD24AD2EA96CDBFDEBF13
:10516000DF91CF911F910F9108950895CF93809172
:10517000B523882351F0C091C22380E097D1F1D1AB
:105180008111C9DE8C2FCF9191C1CF910895CF921B
:10519000DF92EF92FF920F931F93CF93DF93EC0177
:1051A0008B017A01FDD2811136C0E114F10439F08E
:1051B000F70180819181081B190BC80FD91FC12CE1
:1051C000D12C0115110531F18091BE239091BF239F
:1051D000FC01EF5BFF4F208131978081281790F011
:1051E0001DD1C4DFE114F10449F0F7018081918100
:1051F000C80ED91EC082D18285E00DC0D1D28823CD
:1052000001F309C0899142D101501109FFEFCF1A72
:10521000DF0AD7CF80E0DF91CF911F910F91FF90F0
:10522000EF90DF90CF900895DF92EF92FF920F936F
:105230001F93CF93DF93D82FC92F8B018091C22367
:10524000806834D18091BC239091BD238017910751
:1052500028F00115110519F4E1D001C08C01ED2EE3
:10526000FC2ED12C0115110509F440C08091B52305
:10527000811102C082E04CC0853011F483E048C047
:1052800070D1882311F081E043C051D181113CC01D
:1052900042D1882339F32091C2238091BE2390917B
:1052A000BF23FC0127FF05C0EF5BFF4FC081D0E0AB
:1052B00013C0E05CFF4FC08131968081D0E0C81BF5
:1052C000D1090AC0C830D10550F4F70181917F019E
:1052D000DDD00150110921960115110599F7DD2442
:1052E000D394289709F0D12C99D0BCCFD110BECF40
:1052F0000BC08091B523882309F4BCCF853009F415
:10530000BDCF2FD18111BFCF12D1882391F380E07F
:10531000DF91CF911F910F91FF90EF90DF90089553
:10532000DF92EF92FF920F931F93CF93DF93D82FCB
:10533000C92F8B018091C2238068B8D08091BC2393
:105340009091BD238017910728F00115110519F4DC
:1053500065D001C08C01ED2EFC2ED12C011511055C
:1053600009F442C08091B523811102C082E04EC091
:10537000853011F483E04AC0F4D0882311F081E035
:1053800045C0D5D081113EC0C6D0882339F32091C5
:10539000C2238091BE239091BF23FC0127FF05C04B
:1053A000EF5BFF4FC081D0E015C0E05CFF4FC081D4
:1053B00031968081D0E0C81BD1090CC0C830D1051E
:1053C00060F4F701849162D0FFEFEF1AFF0A0150F9
:1053D000110921960115110589F7DD24D394289729
:1053E00009F0D12C1BD0BACFD110BCCF0BC080910B
:1053F000B523882309F4BACF853009F4BBCFB1D0E7
:105400008111BDCF94D0882391F380E0DF91CF91BB
:105410001F910F91FF90EF90DF900895E091C023CE
:10542000F091C123A091BE23B091BF23AF5BBF4FCA
:105430008C9190E08283938380818D798083E09149
:10544000BE23F091BF23EF5BFF4F10820895E091E0
:10545000C023F091C12380818D798083E091BE23A8
:10546000F091BF23EF5BFF4F108208958091BE2320
:105470009091BF23FC01EF5BFF4F208131E0320FA1
:105480003083FC01E20FF11D808108952091BE233D
:105490003091BF23F901EF5BFF4F908141E0490F4D
:1054A0004083F901E90FF11D808308958093C223A1
:1054B000482F4F7050E06091C6047091C7049A0164
:1054C00094E0220F331F9A95E1F7E4E887FF11C0BB
:1054D000E49FC001E59F900D11248B5F9B4D80934D
:1054E000BE239093BF23C90108969B01280F391F43
:1054F0000DC0E49FC001E59F900D11248D539C4D7C
:105500008093BE239093BF23260F371F2093C02381
:105510003093C12308958091C2238068C7DFE09152
:10552000C023F091C1238081869581700895809178
:10553000C2238F77BBDFA091C023B091C1238C9190
:1055400085FF0DC0E091BE23F091BF2312968D918F
:105550009C911397E05CFF4F808381E0089580E089
:1055600008958091C2238F77A1DFA091C023B091CD
:10557000C1238C9184FF0DC0E091BE23F091BF2325
:1055800012968D919C911397E05CFF4F808381E090
:10559000089580E008958091C2238F7787DFE0919E
:1055A000C023F091C12380818D788083E091C02356
:1055B000F091C123808181608083E091BE23F091CE
:1055C000BF23EF5BFF4F10828091C22380686EDFA4
:1055D000E091C023F091C123808181608083E091BC
:1055E000BE23F091BF23EF5BFF4F10820895E0913F
:1055F000C023F091C123818184608183E091C02325
:10560000F091C1238181807C803459F48091C22340
:1056100080584CDFE091C023F091C12381818460E8
:10562000818308951F93CF93DF93C82F162FD42F14
:105630003DDFE091C023F091C1231182E091C023AE
:10564000F091C1238C2F881F8827881F880F8083A3
:10565000E091C023F091C1231183E091C023F09128
:10566000C123128213822091BE233091BF23248351
:105670003583CC0FCC0BCD23F901E05CFF4FC08309
:105680003196108281E0DF91CF911F910895CF92E2
:10569000DF92EF92FF920F931F93CF93DF93C62E6B
:1056A0008C01D12CDC1409F43FC0F801D081D11158
:1056B00004C0D3940B5F1F4FF5CFF801E180F28057
:1056C00093818481823010F488E001C088E128E071
:1056D00030E0C0E02E153F0520F4CF5F220F331FCE
:1056E000F9CFC82B8D2F8F70863010F080E01DC051
:1056F000CF7EF1E4EF16F104C8F7992321F0913041
:1057000021F4C06C0AC0C06403C0C068911105C018
:105710004E2D6C2F80E88D0F85DF4E2D6C2F8D2F39
:1057200081DF8111C6CFE2CF81E0DF91CF911F9160
:105730000F91FF90EF90DF90CF90089580E090E080
:10574000E091C604F091C7049C0144E0220F331F8E
:105750004A95E1F7E20FF31F11864091C60450917C
:10576000C704FA01E20FF31F1182019686309105FA
:1057700039F708958091B62387FF0DC0D8DE8111D7
:1057800005C08091B5238111F9CF09C060CE809109
:10579000B523882321F0BFDE8823C9F33FCE0895C7
:1057A0000F931F93CF93E091C604F091C704E05A82
:1057B000FF4F00811181C4E68091C22387FF0AC098
:1057C000AADE811105C08091B523811105C022C0D8
:1057D00080E025C0ACDEF5CF8530F1F0E091C0234C
:1057E000F091C123818182FD19C0E091C604F0913E
:1057F000C704E05AFF4F808191810817190711F4FF
:105800008C01DACF2FEF2C0FCC2311F0C22FF8CF61
:1058100084E005C082E003C083E001C081E0CF9155
:105820001F910F91089563D069D0E0ECF4E081817D
:105830008E7F818380818F7780831092B423089537
:10584000CF93DF93E0E4F0E014828481816084836D
:105850004ED054D0C0ECD4E088818F778883888183
:10586000806888831092B5231092B1231092B323DD
:105870001092B22388818064888348E068E480E8DD
:10588000D1DE48E068E480E0CDDE888580648887EA
:10589000898181608983DF91CF910895CF93DF93D0
:1058A0003FB7F894C0ECD1E022E02A87EAE1F0E0CB
:1058B000E491A0ECB4E0DA96EC93DA97EBE1F0E057
:1058C000E491DB96EC93DB971A868CED96E28E7F63
:1058D00016968D939C93179785E18C9318962C932D
:1058E0003FBF81E08093B423DF91CF91A9CFE0EC5B
:1058F000F4E080858370808711860895E0ECF4E001
:105900008FEF8287848708951F920F920FB60F92B0
:1059100011242F933F934F935F936F937F938F93B4
:105920009F93AF93BF93EF93FF938091CA0487FF38
:1059300008C08091C80487FF04C080E88093CA042F
:1059400014DC8091CA0486FF07C080E48093CA04F7
:105950001092B5230E9424168091CA0485FF14C0BA
:1059600080E28093CA048091B123882311F084E0FF
:1059700007C08091C304811102C081E001C083E0AF
:105980008093B5230E9423168091CA0484FF14C01B
:1059900080E18093CA0482E08093B5231092B12302
:1059A0001092C304CBDE48E068E480E83BDE48E0C8
:1059B00068E480E037DED9DBFF91EF91BF91AF91D2
:1059C0009F918F917F916F915F914F913F912F9117
:1059D0000F900FBE0F901F901895CF93DF93EC019F
:1059E000FC0170968BE0DF011D928A95E9F782E059
:1059F0008C83898783E08E8761E0CE01019647DE44
:105A0000882361F061E0CE01069641DE882331F003
:105A100061E0CE010B96DF91CF9139CE80E0DF912E
:105A2000CF9108950F931F93CF93DF932091B523C8
:105A30002430E1F4FC010489158926893789012B7A
:105A4000022B032B99F0EB01818130DDFE010190E7
:105A50000020E9F73197BF016C1B7D0B40E050E05F
:105A6000CE01DF91CF911F910F9191CB82E0DF9119
:105A7000CF911F910F9108950F931F93CF93DF93B1
:105A80002091B5232430B1F4FC01048915892689BD
:105A90003789012B022B032B69F08A01EB018181ED
:105AA00005DD40E050E0B801CE01DF91CF911F91BC
:105AB0000F916DCB82E0DF91CF911F910F910895EF
:105AC0000F931F93CF932091B523243009F5FC0148
:105AD0000489158926893789012B022B032BC1F0F4
