:10000000E8C5000002C6000000C60000FEC50000F2
:10001000FCC50000FAC50000F8C50000F6C50000E8
:10002000F4C50000F2C50000F0C50000EEC50000F8
:10003000ECC50000EAC50000E8C50000E6C5000008
:10004000E4C50000E2C50000E0C50000DEC5000018
:10005000DCC50000DAC500000C94CD1DD6C500003B
:10006000D4C50000D2C50000D0C50000CEC5000038
:10007000CCC50000CAC50000C8C50000C6C5000048
:10008000C4C50000C2C500000C948A1DBEC5000096
:10009000BCC50000BAC50000B8C50000B6C5000068
:1000A000B4C50000B2C50000B0C50000AEC5000078
:1000B000ACC50000AAC50000A8C50000A6C5000088
:1000C000A4C50000A2C50000A0C500009EC5000098
:1000D0009CC500009AC5000098C5000096C50000A8
:1000E00094C5000092C5000090C500008EC50000B8
:1000F0008CC500008AC5000088C5000086C50000C8
:1001000084C5000082C5000080C500007EC50000D7
:100110007CC500007AC5000078C5000076C50000E7
:1001200074C5000072C5000070C500006EC50000F7
:100130006CC500006AC5000068C5000066C5000007
:1001400064C5000062C5000060C500000C94681E14
:100150005CC500005AC5000058C5000056C5000027
:1001600054C5000052C5000050C500004EC5000037
:100170004CC500004AC5000048C5000046C5000047
:1001800044C5000042C5000040C500003EC5000057
:100190003CC500003AC5000038C5000036C5000067
:1001A00034C5000032C5000030C500002EC5000077
:1001B0002CC500002AC5000028C5000026C5000087
:1001C00024C5000022C5000020C500001EC5000097
:1001D0001CC500001AC5000018C5000016C50000A7
:1001E00014C5000012C5000010C500000EC50000B7
:1001F0000CC500000C94562E08C500002E035200BA
:1002000065007600450020005200650062006F0026
:100210006F0074006500640020002800690063001E
:1002200065006D0061006E00290000001C034300A2
:10023000680061006D0065006C0065006F006E0075
:100240004D0069006E006900000004030904090202
:100250003E00020100C03209040000010202010058
:1002600005240010010424020605240600010705E8
:1002700082030800FF09040100020A0000000705CC
:100280000402100005070583021000051201100189
:1002900002000008EB03442001000102DC01E1063A
:1002A0000000E206E306E406E506E606CD06CE0615
:1002B000DB06D106D706DA06D206D6061000000005
:1002C0000000000004014C1F0000831F07202C20A9
:1002D000E506E606CD061722ED255D2608270D2743
:1002E000FB260327000400000000000004004C1F50
:1002F0000000831F07202C20E506E606CD06172206
:10030000ED255D2608270D27FB26032700040000A6
:100310000000000007004C1F0000831F11202C204C
:10032000E506E606CD061722ED255D2608270D27F2
:10033000FB260327001000000000000004004C1FF3
:100340000000831F11202C20E506E606CD061722AB
:10035000ED255D2608270D27FB260327001000004A
:100360000000000007004C1F0000831F1B202C20F2
:10037000E506E606CD061722ED255D2608270D27A2
:10038000FB260327400100000000000004004C1F72
:100390000000831F20202C20E506E606CD0617224C
:1003A000ED255D2608270D27FB2603270004000006
:1003B000D000000004004C1F0000831F34262C20B6
:1003C000E506EE26E8261722ED255D2608270D27EF
:1003D000FB26032700040000100000000400004377
:1003E0004C4F534544000000000000000000000096
:1003F00000000000000000000000000000000001FC
:100400004D465F434C41535349435F314B0000001D
:1004100000000000000000000000000000000000DC
:10042000024D465F434C41535349435F314B5F3765
:10043000420000000000000000000000000000007A
:1004400000034D465F434C41535349435F344B00D7
:10045000000000000000000000000000000000009C
:100460000000044D465F434C41535349435F344BB6
:100470005F374200000000000000000000000000A4
:10048000000000054D465F434C41535349435F4DC7
:10049000494E49000000000000000000000000007C
:1004A00000000000064D465F434C41535349435FF3
:1004B000444554454354494F4E000000000000009D
:1004C0000000000000074D465F434C415353494331
:1004D0005F4252555445000000000000000000003B
:1004E0000000000000000100000100010100000107
:1004F00001000100000100010100010000010100F4
:1005000000010001010000010100010000010100E3
:1005100000010001010001000001000101000001D3
:1005200001000100000100010100010000010100C3
:1005300000010001010001000001000101000001B3
:1005400001000100000101000001000101000001A3
:100550000100010000010001010001000001010093
:100560000001000101000001010001000001010083
:100570000001000101000100000100010100000173
:100580000100010000010100000100010100000163
:100590000100010000010001010001000001010053
:1005A0000001000101000100000100010100000143
:1005B0000100010000010001010001000001010033
:1005C0000001000101000001010001000001010023
:1005D0000001000101000100000100010100000113
:1005E000010001000001008040C020A060E01090E8
:1005F00050D030B070F0088848C828A868E818982B
:1006000058D838B878F8048444C424A464E4149412
:1006100054D434B474F40C8C4CCC2CAC6CEC1C9CCA
:100620005CDC3CBC7CFC028242C222A262E21292EE
:1006300052D232B272F20A8A4ACA2AAA6AEA1A9ACA
:100640005ADA3ABA7AFA068646C626A666E61696B2
:1006500056D636B676F60E8E4ECE2EAE6EEE1E9E6A
:100660005EDE3EBE7EFE018141C121A161E11191AC
:1006700051D131B171F1098949C929A969E919999A
:1006800059D939B979F9058545C525A565E5159582
:1006900055D535B575F50D8D4DCD2DAD6DED1D9D3A
:1006A0005DDD3DBD7DFD038343C323A363E313935E
:1006B00053D333B373F30B8B4BCB2BAB6BEB1B9B3A
:1006C0005BDB3BBB7BFB078747C727A767E7179722
:1006D00057D737B777F70F8F4FCF2FAF6FEF1F9FDA
:1006E0005FDF3FBF7FFF434C4F5345440000000096
:1006F0000000000000000000000052414E444F4D39
:100700005F5549440000000000000000000055490A
:10071000445F4C4546545F494E4352454D454E5407
:1007200000005549445F52494748545F494E43527F
:10073000454D454E54005549445F4C4546545F4431
:10074000454352454D454E5400005549445F52497A
:100750004748545F44454352454D454E5400535716
:100760004954434843415244000000000000000047
:100770000000524541444F4E4C590000000000001B
:10078000000000000000434152445F46554E435470
:10079000494F4E0000000000000000062000061037
:1007A0000006080006048006088006048006028011
:1007B0000601080B0B1000010008000800010000F2
:1007C0000100000800F80000080400020000080012
:1007D000080B0B10000100100008000200000100CF
:1007E000000800F800001008000400001000090CC8
:1007F0000C110002001000100002000002000010A6
:1008000000F001001010000800002000090C0C107E
:10081000000200200010000400000100001000F0A1
:10082000000040200010000040000903030A0001FE
:1008300000800008001000000400000800F8030019
:100840002040002000008000257500253575206DB2
:100850005600257500256C750052414E444F4D00E1
:100860004368616D656C656F6E4D696E692D2573AA
:10087000207625642E2564202825733A20257329A7
:10088000000D0A000D0A000D0A000D0A000D0A00F5
:100890000D0A00643130303A4F4B00000000000078
:1008A0000000000000000000000000000000000048
:1008B00000000000653130313A4F4B205749544811
:1008C00020544558540000000000000000000000C3
:1008D00000000000006E3131303A57414954494E12
:1008E0004720464F5220584D4F44454D00000000D0
:1008F000000000000000C83230303A554E4B4E4FD9
:10090000574E20434F4D4D414E4400000000000023
:1009100000000000000000C93230313A494E564113
:100920004C494420434F4D4D414E4420555341477F
:100930004500000000000000CA3230323A494E56ED
:10094000414C494420504152414D455445520000CC
:10095000000000000000000000CB3230333A544960
:100960004D454F55540000000000000000000000FD
:100970000000000000000000000056455253494F9F
:100980004E00000000000000000000000000000019
:100990008216434F4E464947000000000000000009
:1009A0000000B6160000AB16A5165549440000001D
:1009B00000000000000000000000000000007B17A5
:1009C0005117415451410000000000000000000098
:1009D000000000000000E316BC1653414B0000006D
:1009E00000000000000000000000000000003617BA
:1009F0001617524541444F4E4C590000000000006C
:100A0000000000000000CE17C21755504C4F414463
:100A100000000000000000000000E11700000000DE
:100A20000000444F574E4C4F41440000000000006E
:100A30000000E61700000000000052455345540036
:100A400000000000000000000000EB1700000000A4
:100A5000000055504752414445000000000000008E
:100A60000000F6170000000000004D454D53495AA4
:100A70004500000000000000000000000000000031
:100A80000118574F524B4D454D000000000000002B
:100A900000001619000000001219574F524B4D4527
:100AA0004D55504C4F41440000001A190000000001
:100AB0000000574F524B4D454D444F574E4C4F4100
:100AC00044001F1900000000000055494453495AD2
:100AD00045000000000000000000000000000000D1
:100AE0002419425554544F4E0000000000000000ED
:100AF00000003A19000048194019425554544F4E0D
:100B00005F4C4F4E47000000000053190000611970
:100B1000591953455454494E470000000000000045
:100B200000000000000072196C19434C454152004E
:100B3000000000000000000000007D19000000001F
:100B4000000048454C50000000000000000000007C
:100B500000008D19000000000000525353490000AE
:100B60000000000000000000000000000000000085
:100B7000CC19444554454354494F4E0000000000F1
:100B80000000000000000000E7195549444D4F44A3
:100B90004500000000000000000000000000341AC2
:100BA0001E1A434C454152414C4C000000000000CD
:100BB0000000461A000000000000000000000000D5
:100BC0000000000000000000000000000000000025
:100BD000000011241FBECFEFCDBFDFE2DEBF10E269
:100BE000A0E0B0E2ECEBFAE602C005900D92AE3D5B
:100BF000B107D9F727E2AEEDB0E201C01D92A036F1
:100C0000B207E1F703D00C945C3557C05CD00E946A
:100C100071132DD387D3F8D00E94211642D186D2EA
:100C20000ED4B6D0C1E080910C0A80FF0CC0C093F6
:100C30000C0A91D33AD10E943E167FD2E0916121F5
:100C4000F091622109950E942516E0915921F091B9
:100C50005A210995E8CF292F30E02230310559F08B
:100C60002330310569F021303105F9F482E190E05B
:100C70002CE832E01EC08EE390E02EE432E019C092
:100C8000882349F0813061F0823079F48EE290E07F
:100C90002CEF31E00EC084E090E02AE432E009C09D
:100CA0008CE190E02CE232E004C080E090E020E0B3
:100CB00030E0FA012083318308951F920F920FB61E
:100CC0000F921124FFCF8091780083FF0AC088E043
:100CD0008093780088ED84BF81E080938000FD954B
:100CE000FEC080915000866080935000809151003A
:100CF00081FFFCCF8091510082FFFCCF1092560003
:100D000081E08093600098ED94BF8093400023EDD4
:100D100030E32093260A3093270A96E09093000A46
:100D20008093430080930004089588ED84BF81E0A0
:100D300080937900089588ED84BF8BE180938000D3
:100D400008958BEC809352008091500088608093CE
:100D500050008091510083FFFCCF84EC80935500BC
:100D6000809150008061809350008091510084FFF9
:100D7000FCCF0895E0E4F0E084818E7F8483E0E599
:100D8000F0E080818F7E80838081877F80830895DB
:100D900087E08093A20078940895089580E090E021
:100DA00008950895FC011082118208950895FC01B0
:100DB00010820895089524E0FC0111922A95E9F724
:100DC0000895089508950895089508950895CF9376
:100DD000DF93E0917E21F0917F21828398E2899FC9
:100DE000B001112462567D4F48E250E085E591E262
:100DF0000E947531C5E5D1E2E881F9810995EE815E
:100E0000FF81DF91CF910994E0917E21F0917F21C4
:100E10008281DDCF0F931F93E0917E21F0917F219E
:100E20008B019C01428168E08EED93E0A4D21F917A
:100E30000F9108951F93CF93DF931F92CDB7DEB725
:100E40009E012F5F3F4FAC0168E08EED93E0ABD287
:100E5000182F882311F08981BADF812F0F90DF913D
:100E6000CF911F9108959B01AC0168E08EED93E056
:100E7000C1C228E2829FC0011124FC01E454FD4F4D
:100E80006591759185919491089528E2829FC001A2
:100E90001124FC01E054FD4F659175918591949169
:100EA000089508950C94673108950E9467310E9457
:100EB00067310E9467310C946731CF93DF93EC0167
:100EC00061507109DA01420F531FFC01CF018C1BE5
:100ED0009D0BA417B50721F41082DF91CF910895DF
:100EE00062307105C8F39D91392F32953F703A30C9
:100EF00010F4305D01C0395C30839F709A3010F47B
:100F0000905D01C0995C9183329662507109DECF89
:100F1000CF93DF93EC01DA0120E030E05C915523C0
:100F200051F111969C911197992339F126173707A2
:100F300011F180ED850F8A3020F08FEB850F863020
:100F4000E0F480ED890F8A3020F04FEB490F4630F6
:100F5000A0F4E52FF0E0513408F0F797E295E07F38
:100F6000913410F4982F01C097539E2B99932F5FC3
:100F70003F4F1296D3CFC90102C080E090E0DF91CD
:100F8000CF9108950F931F93CF93DF93CDB7DEB723
:100F90006097CDBFDEBF8130B9F4E0916721F09159
:100FA0006821CE010196099510E080917B211817E8
:100FB00008F099C077DFE1E0F0E0EC0FFD1FE10FF2
:100FC000F11D80831F5FF1CF8230B9F5E091672179
:100FD000F09168218E010F5F1F4FC8010995209184
:100FE0007B21F80191E08E2F801B8217F8F4992362
:100FF00039F0808191E08F3F09F090E08F5F80832E
:101000003196F1CF843009F049C0E0916721F09129
:1010100068218E010F5F1F4FC801099520917B2128
:10102000F80191E08E2F801B821770F1E091692109
:10103000F0916A21C801099571C0833019F7E091D8
:101040006721F0916821CE010196099580917B215D
:1010500041E0815008F447C04423D9F3282F30E001
:10106000E1E0F0E0EC0FFD1FE20FF31F908141E0A3
:101070009F3F09F040E0E1E0F0E0EC0FFD1FE20FE0
:10108000F31F9F5F9083E5CF992331F0808191E03A
:10109000811190E0815080833196C4CF853051F525
:1010A000E0916721F0916821CE0101960995809128
:1010B0007B2141E08150B8F04423E1F3282F30E058
:1010C000E1E0F0E0EC0FFD1FE20FF31F908141E043
:1010D000911140E0E1E0F0E0EC0FFD1FE20FF31FA3
:1010E00091509083E7CFE0916921F0916A21CE0180
:1010F0000196A1CF863011F4DDD010C0873039F4CD
:1011000090917C2181E0892780937C2107C08830E1
:1011100029F4E0916321F091642109956096CDBF97
:10112000DEBFDF91CF911F910F910895E0E0F6E0CF
:1011300080E4828388E1868B0895909108068091EF
:10114000DE2096FD10C08A3050F08A30B9F4E0916C
:101150007E21F0917F21818115DF8091DE208F5FDC
:101160008093DE20089581508A3030F4E0917E2112
:10117000F0917F21808106DF1092DE200895CF93C9
:101180006150710946EE56E020E0CCE2FA01DC0144
:10119000CD013491311108C0283071F0CC936150E9
:1011A0007109CD01019608C065317105A8F33D9321
:1011B000319661507109ECCF2F5F4C5E5F4F293043
:1011C00029F7FC011082CF910895EDE7F1E298E054
:1011D000811102C0638303C0813009F4648391509C
:1011E00035969111F5CF0895282FCB0121110AC012
:1011F000E0917E21F0917F21608124E1629FB00126
:1012000011240BC0213069F4E0917E21F0917F21FF
:101210006181E4E16E9FB00111246A51794F0C9411
:101220008731FB0110820895EF92FF920F931F9375
:10123000CF93DF93D82F7B0106EE16E0C0E0B80114
:10124000C7010E947E31892B29F46C2F8D2FBDDFC1
:1012500081E006C0CF5F0C5E1F4FC93081F780E090
:10126000DF91CF911F910F91FF90EF9008954CE285
:1012700050E060E070E08DE791E20C94B5344CE210
:1012800050E060E070E08DE791E20C9462348830C9
:1012900078F480937D2125E0829FC001112480583D
:1012A0009E4D80937E2190937F21AEDD81E0089555
:1012B00080E0089530917D2129E045E02150B1F092
:1012C000832F90E0019687709927382FBC016F5FBC
:1012D0007F4F469FF001479FF00D1124E358FE4DCC
:1012E0005081552359F3D3DF8111C9CF0895FC01F3
:1012F0008EE480838FE481838EE2828380917D21DE
:10130000805D838314820895FC012181211105C031
:1013100080818053883008F4BACF80E008958093AC
:10132000A821ADCF8FE0809381068CE380930106E6
:10133000089590E0FC01EE0FFF1F8E0F9F1FFC0130
:10134000E656F84FA591B491FC01E456F84F84910C
:1013500015968C930895A0E0B6E016961C92169709
:10136000E0E8F6E016828CE316968C938FE0868395
:1013700080917D21DECF0F931F93FC01662379F0CE
:1013800094916150941309C0BF016F5F7F4FA80112
:10139000C9010E94873181E003C0B196EFCF80E0A0
:1013A0001F910F910895CF92DF92EF92FF921F93BA
:1013B000CF93DF93EC017A016901162F112389F095
:1013C000BE016F5F7F4FC7010E947E311150892B94
:1013D00031F4FE01C491F601C08381E003C0A196FF
:1013E000EDCF80E0DF91CF911F91FF90EF90DF90E4
:1013F000CF900895CF930196CCE26623D1F0FC0103
:10140000DA01AD017491772341F021153105A9F07E
:101410007D93319621503109F4CF623038F0211597
:10142000310559F0FD01C0834F5F5F4F61508196D8
:10143000E4CF232B11F0FA011082CF910895E0E060
:10144000F2E081E08083118292E0928393E09483C2
:1014500080A388E381A3089580912002806880930F
:1014600020028091230280FFFCCF81E08093230241
:10147000A0911002B0911102AE5BB109B7FF02C09A
:10148000A0E0B0E029E637E54BE050E00C941A31DB
:101490000895E0ECF1E084858860848780E094E042
:1014A0008093A9219093AA2181E00895FF920F9340
:1014B0001F93CF93DF93CDB7DEB72897CDBFDEBFA5
:1014C00088E0E9E2F0E2DE01119601900D928A9542
:1014D000E1F7FFB600E010E048E050E0B801CE01CF
:1014E00001960E94D034085F1F4F011584E0180751
:1014F00099F7FFBE81E02896CDBFDEBFDF91CF9187
:101500001F910F91FF900895CF93DF93CDB7DEB772
:101510002897CDBFDEBF2091DF20222309F45CC0D5
:101520002091BB213091BC218217930708F054C051
:1015300020E147ED209366064093A0093091A10970
:1015400036FFFCCF3091A10937FFFCCF3091A009C5
:101550001092A0093091A10936FFFCCF3091A1096A
:1015600037FFFCCF3091A0092093650637FFE2CF0B
:1015700020E120936606A0E0B0E00090B52104C011
:10158000880F991FAA1FBB1F0A94D2F78D839E83D1
:10159000AF83B88781E889838F818A838E818B832B
:1015A0008D818C83FE013196CE010596E817F907EF
:1015B00071F021912093A0092091A10926FFFCCF71
:1015C0002091A10927FFFCCF2091A009EFCF80E156
:1015D0008093650681E001C080E02896CDBFDEBF24
:1015E000DF91CF910895CF93DF93CDB7DEB72897E2
:1015F000CDBFDEBF2091DF20222309F45AC0209105
:10160000BF213091C0218217930708F052C020E11A
:1016100047ED209366064093A0093091A10936FF5B
:10162000FCCF3091A10937FFFCCF3091A009109277
:10163000A0093091A10936FFFCCF3091A10937FFF5
:10164000FCCF3091A0092093650637FFE2CF20E15F
:10165000209366060090B62102C0880F991F0A9455
:10166000E2F7A0E0B0E08D839E83AF83B88780E58A
:1016700089838F818A838E818B838D818C83FE0108
:101680003196CE010596E817F90771F02191209364
:10169000A0092091A10926FFFCCF2091A10927FFD5
:1016A000FCCF2091A009EFCF80E18093650681E017
:1016B00001C080E02896CDBFDEBFDF91CF910895B5
:1016C000CF93DF93CDB7DEB72897CDBFDEBF209194
:1016D000DF20222309F46EC02091CB2130E0821755
:1016E000930708F067C020E147ED2093660640931A
:1016F000A0093091A10936FFFCCF3091A10937FF35
:10170000FCCF3091A0091092A0093091A10936FFB9
:10171000FCCF3091A10937FFFCCF3091A009209375
:10172000650637FFE2CF20E120936606009761F05F
:10173000A0E0B0E00090B82104C0880F991FAA1F54
:10174000BB1F0A94D2F710C080E090E04CDF81E02C
:1017500090E0A0E0B0E00090B72104C0880F991F8E
:10176000AA1FBB1F0A94D2F78D839E83AF83B887CD
:101770008CE789838F818A838E818B838D818C8393
:10178000FE013196CE010596E817F90771F0219117
:101790002093A0092091A10926FFFCCF2091A10947
:1017A00027FFFCCF2091A009EFCF80E18093650651
:1017B00081E001C080E02896CDBFDEBFDF91CF91F0
:1017C0000895FF920F931F93CF93DF93CDB7DEB7AA
:1017D0002597CDBFDEBF80E18093650682E08093D0
:1017E000660688E0809365068AE180936106109220
:1017F000A6091092A70980EC8093A50988E180933F
:10180000A40980E127ED809366062093A0099091BA
:10181000A10996FFFCCF9091A10997FFFCCF909171
:10182000A0091092A0099091A10996FFFCCF909178
:10183000A10997FFFCCF9091A0098093650697FFBF
:10184000E2CF80E1809366068FE98093A0098091C2
:10185000A10986FFFCCF8091A10987FFFCCF809171
:10186000A009FE013196CE0106968F01E817F9070F
:1018700071F01092A0092091A10926FFFCCF2091C0
:10188000A10927FFFCCF2091A0092193EFCF80E190
:10189000F82EF092650689818093AB218A8180932E
:1018A000AC212B812093AD219D819093AE21982F67
:1018B0009295969597709093AF218F7190E0809359
:1018C000B0219093B121322F3295369537703093F5
:1018D000B2212F7130E02093B3213093B4210497CB
:1018E0008530910508F0A1C02EE1289FB001299F05
:1018F000700D11246E54784F4EE150E085EB91E26B
:101900000E9475318091AB218F3109F08EC080919A
:10191000AF21813009F089C0F092660687ED80938F
:10192000A0098091A10986FFFCCF8091A10987FFC2
:10193000FCCF8091A0091092A0098091A10986FF97
:10194000FCCF8091A10987FFFCCF8091A00990E195
:101950009093650680FD65C0809131209091322082
:10196000A0913320B091342089839A83AB83BC83C8
:1019700080E127ED809366062093A0099091A1094C
:1019800096FFFCCF9091A10997FFFCCF9091A00901
:101990001092A0099091A10996FFFCCF9091A10906
:1019A00097FFFCCF9091A0098093650697FFE2CF47
:1019B00080E180936606F801CE0105968E179F0799
:1019C00071F021912093A0092091A10926FFFCCF5D
:1019D0002091A10927FFFCCF2091A009EFCF80E142
:1019E0008093650627ED809366062093A009909169
:1019F000A10996FFFCCF9091A10997FFFCCF909190
:101A0000A0091092A0099091A10996FFFCCF909196
:101A1000A10997FFFCCF9091A0098093650697FFDD
:101A2000E2CF81E08093DF2001C080E02596CDBF2A
:101A3000DEBFDF91CF911F910F91FF900895CF925C
:101A4000DF92EF92FF920F931F93CF93DF93CDB767
:101A5000DEB72897CDBFDEBFE091DF20EE23B9F0DF
:101A6000011511052105310591F0C090CF21D090CD
:101A7000D021E090D121F090D221C01AD10AE20AFF
:101A8000F30AE1E0C416D506E606F70608F4E0E03E
:101A9000E0FF68C0F0E1A7EDF0936606A093A0090F
:101AA000E091A109E6FFFCCFE091A109E7FFFCCF9F
:101AB000E091A0091092A009E091A109E6FFFCCFF6
:101AC000E091A109E7FFFCCFE091A009F093650642
:101AD000E7FFE2CFE0E1E09366064D835E836F832C
:101AE00078874BE049834F814A834E814B834D81F8
:101AF0004C83FE013196AE014B5F5F4FE417F50753
:101B000071F061916093A0096091A10966FFFCCF1B
:101B10006091A10967FFFCCF6091A009EFCF1092FF
:101B2000A0094091A10946FFFCCF4091A10947FFC0
:101B3000FCCF4091A009FC010150110970F01092F6
:101B4000A0098091A10986FFFCCF8091A10987FFA0
:101B5000FCCF8091A0098193EFCF80E1809365064F
:101B600081E001C080E02896CDBFDEBFDF91CF913C
:101B70001F910F91FF90EF90DF90CF9008952F92DB
:101B80003F924F925F926F927F928F929F92AF920D
:101B9000BF92CF92DF92EF92FF920F931F93CF935A
:101BA000DF93CDB7DEB76A97CDBFDEBF8D8B9E8B3F
:101BB0002A013B01480159018091DF208823B9F0B7
:101BC000011511052105310591F04091CF2150916A
:101BD000D0216091D1217091D221401B510B620B19
:101BE000730B81E0441555056605770508F480E020
:101BF00080FFFFC01D861E861F86188A10E100E147
:101C00001E0125E0220E311CC090B921D090BA21CE
:101C1000C601A0E0B0E08F8B988FA98FBA8FC30167
:101C2000B2012F89388D498D5A8D0E94D8306901B3
:101C30007A010090B52104C0CC0CDD1CEE1CFF1C09
:101C40000A94D2F7C98ADA8AEB8AFC8ACF88D88CC0
:101C5000E98CFA8C8C149D04AE04BF0428F0C61ADB
:101C6000D70AE80AF90A02C0750164010093660602
:101C700027ED2093A0092091A10926FFFCCF2091F8
:101C8000A10927FFFCCF2091A0091092A009209163
:101C9000A10926FFFCCF2091A10927FFFCCF2091AD
:101CA000A0091093650627FFE1CF009366062989F6
:101CB0003A894B895C892D833E834F83588733E56E
:101CC00039832F812A832E812B832D812C83FE0142
:101CD0003196E215F30571F021912093A00920912E
:101CE000A10926FFFCCF2091A10927FFFCCF20915D
:101CF000A009EFCF109365061093660647ED409359
:101D0000A0092091A10926FFFCCF2091A10927FF5E
:101D1000FCCF2091A0091092A0092091A10926FFD3
:101D2000FCCF2091A10927FFFCCF2091A00910939F
:101D3000650627FFE1CF0093660629893A894B891A
:101D40005C89262B372B482B592B29873A874B87C1
:101D50005C8732E839838B858A838A858B83898582
:101D60008C83FE013196E215F30571F08191809329
:101D7000A0098091A10986FFFCCF8091A10987FF6E
:101D8000FCCF8091A009EFCFC601ED89FE894D857A
:101D90005E85E40FF51F019770F021912093A00953
:101DA0002091A10926FFFCCF2091A10927FFFCCF9C
:101DB0002091A009F0CF109365068C189D08AE08FD
:101DC000BF084C0C5D1C6E1C7F1C8D859E85AF85ED
:101DD000B8898C0D9D1DAE1DBF1D8D879E87AF8759
:101DE000B88B81149104A104B10409F00DCF81E0F6
:101DF00001C080E06A96CDBFDEBFDF91CF911F9119
:101E00000F91FF90EF90DF90CF90BF90AF909F9099
:101E10008F907F906F905F904F903F902F9008959C
:101E2000CF93DF9300D000D0CDB7DEB78091DF2015
:101E3000882309F468C08091352090913620A091C4
:101E40003720B091382089839A83AB83BC8380E1AB
:101E500027ED809366062093A0099091A10996FF33
:101E6000FCCF9091A10997FFFCCF9091A00910920F
:101E7000A0099091A10996FFFCCF9091A10997FF2D
:101E8000FCCF9091A0098093650697FFE2CF80E197
:101E900080936606FE013196CE010596E817F90794
:101EA00071F021912093A0092091A10926FFFCCF78
:101EB0002091A10927FFFCCF2091A009EFCF80E15D
:101EC0008093650627ED809366062093A009909184
:101ED000A10996FFFCCF9091A10997FFFCCF9091AB
:101EE000A0091092A0099091A10996FFFCCF9091B2
:101EF000A10997FFFCCF9091A0098093650697FFF9
:101F0000E2CF81E001C080E02496CDBFDEBFDF914B
:101F1000CF9108952F923F924F925F926F927F924E
:101F20008F929F92AF92BF92CF92DF92EF92FF92E9
:101F30000F931F93CF93DF93CDB7DEB72E97CDBF0F
:101F4000DEBF4B015C0129013A012DB73EB72C875A
:101F50003D87672B682B692B79F48091CF21909175
:101F6000D021A091D121B091D22184159505A6054B
:101F7000B70511F455DF13C28091B9219091BA21B0
:101F8000A0E0B0E0481659066A067B06D0F4CDB64C
:101F9000DEB64DB75EB7441955094DBF5EBF8DB76C
:101FA0009EB701967C01A2016FEF70E00E94AC31F8
:101FB00093018201B501A401C701E1DDCDBEDEBE02
:101FC000EEC18091DF208823B9F0411451046104EF
:101FD000710491F04091CF215091D0216091D12195
:101FE0007091D221441955096609770981E0481595
:101FF00059056A057B0508F480E080FFCFC1C090D9
:10200000C121D090C221E090C321F090C421C3012E
:10201000B201A70196010E94D83029833A834B83ED
:102020005C836D8379878A879B8729803A80211416
:10203000310409F48AC0C501B401A70196010E94C8
:10204000D8308901672B682B692B99F429813A8153
:102050004B815C8144275527C701B6010E94A930F6
:10206000860E971EA81EB91E4D8059846A847B84F3
:102070003AC02A94232899F129803A80A1E02A1AAB
:10208000310889010F5F1F4F0C9DC0010D9D900D00
:102090001C9D900D1124881999099C0140E050E085
:1020A00029833A834B835C83892B19F0C501B401E2
:1020B00031DFD101A70196010E941031860E971ED3
:1020C000A81EB91E29813A814B815C81260F371FDA
:1020D000481F591F421A530A640A750A04C000E0D7
:1020E00010E0212C312C8091C1219091C221A0912E
:1020F000C321B091C421C816D906EA06FB0681F0B7
:102100008091BD219091BE21A0E0B0E0C816D90613
:10211000EA06FB0651F0E4E8CE2EEAE0DE2E09C026
:1021200070E6C72E7BE0D72E04C063EFC62E6AE0B0
:10213000D62E7101E00EF11EE016F10631F0C80155
:10214000F60109950F5F1F4FF7CF0091BD21109148
:10215000BE216801E12CF12CC301B201A701960157
:102160000E94D8302D833E834F83588769877A87B2
:102170008B879E872D803E802114310409F493C003
:10218000C501B401A70196010E94D83029833A8382
:10219000672B682B692B99F42D813E814F815885DF
:1021A00044275527C701B6010E94A930860E971E05
:1021B000A81EB91E49845A846B847E843AC02A942E
:1021C000232899F12D803E8081E0281A3108D90119
:1021D0001196A983BA830A9FC0010B9F900D1A9F85
:1021E000900D1124881999099C0140E050E02D833D
:1021F0003E834F835887892B19F0C501B4018ADECD
:102200009801D1010E940131860E971EA81EB91EA9
:10221000461A570A680A790A8D819E81AF81B8856E
:10222000481A590A6A0A7B0A04C019821A82212CA8
:10223000312C8091C1219091C221A091C321B091F4
:10224000C421C816D906EA06FB0681F08091BD219B
:102250009091BE21A0E0B0E0C816D906EA06FB06C0
:1022600051F054E8E52E5AE0F52E09C040E6E42E80
:102270004BE0F42E04C033EFE32E3AE0F32E098155
:102280001A81020D131D49815A810417150759F04F
:1022900089819A81F701099529813A812F5F3F4F02
:1022A00029833A83F0CFC090B921D090BA21C601DA
:1022B000A0E0B0E089839A83AB83BC83C301B20101
:1022C00029813A814B815C810E94D83029013A01F1
:1022D0007901232B11F481E062C0C501B401298189
:1022E0003A814B815C810E94D8308901672B682B31
:1022F000692BF1F091E049165104B1F07201A1E0AF
:10230000EA1AF1080F5F1F4FC09E9001C19E300D69
:10231000D09E300D11242819390951F040E050E0C9
:10232000C501B401F7DD04C000E010E0E12CF12CA0
:102330008091C1219091C221A091C321B091C4216B
:1023400029813A814B815C81281739074A075B074D
:1023500081F08091BD219091BE21A0E0B0E02817CE
:1023600039074A075B0751F024E8C22E2AE0D22E33
:1023700009C090E6C92E9BE0D92E04C083EFC82E79
:102380008AE0D82EE00EF11E0E151F0509F4A3CF2A
:10239000C801F60109950F5F1F4FF6CF80E02C852D
:1023A0003D852DBF3EBF2E96CDBFDEBFDF91CF91C5
:1023B0001F910F91FF90EF90DF90CF90BF90AF9063
:1023C0009F908F907F906F905F904F903F902F9055
:1023D0000895CF92DF92EF92FF926A017B012091E4
:1023E000E0203091E1204091E2205091E320A82F9D
:1023F000B0E00E9410316C0D7D1D8E1D9F1DFF9061
:10240000EF90DF90CF9008950F931F9390917D21CF
:10241000981309C0009173211091742120917521A6
:10242000309176210FC090E0019625E0289FF001C1
:10243000299FF00D1124E358FE4D80810E94390739
:102440008B019C016091E4207091E5208091E62051
:102450009091E7200F3F4FEF14072407340739F01E
:10246000061717072807390710F4C901B8011F918B
:102470000F91089580917D21C7CF8F929F92AF9247
:10248000BF92CF92DF92EF92FF92CF93C82F4A0173
:102490005B01BADF6B017C012091E0203091E120EB
:1024A0004091E2205091E320AC2FB0E00E94103127
:1024B000DC01CB01880D991DAA1DBB1DBC01CD01FE
:1024C0006C0D7D1D8E1D9F1DCF91FF90EF90DF90B5
:1024D000CF90BF90AF909F908F9008958F929F92D2
:1024E000AF92BF92CF92DF92EF92FF92CF93C82F1D
:1024F00080917D218C1309C0809077219090782164
:10250000A0907921B0907A2110C08C2F90E0019694
:1025100025E0289FF001299FF00D1124E358FE4D7E
:1025200080810E9445074B015C01C090E020D09063
:10253000E120E090E220F090E3208C2F65DFA701FE
:102540009601261B370B480B590BCA01B9013FEF07
:1025500083169306A306B30639F086169706A806D7
:10256000B90610F4C501B401CF91FF90EF90DF9050
:10257000CF90BF90AF909F908F90089580917D21D4
:10258000ADCFCF92DF92EF92FF92CF93C82F3CDF77
:102590006B017C018C2FA2DF6C0D7D1D8E1D9F1D9C
:1025A000CF91FF90EF90DF90CF90089590917D2193
:1025B000981731F091E0883008F090E0892F01C041
:1025C00081E0817008954F925F926F927F928F9217
:1025D0009F92AF92BF92CF92DF92EF92FF920F93B2
:1025E0001F935091EA205523E1F0280139014B0156
:1025F0005C01842FDBDF8823A1F081149104A10406
:10260000B10479F08C149D04AE04BF0450F08C1812
:102610009D08AE08BF0881E084149504A604B704A1
:1026200008F480E01F910F91FF90EF90DF90CF9022
:10263000BF90AF909F908F907F906F905F904F90E2
:1026400008958F929F92AF92BF92CF92DF92EF92B6
:10265000FF920F931F93CF93C82F4A015B0168012C
:10266000790180917D218C1302C004DF02C08C2F80
:10267000CBDE950184014C2FA6DFCF911F910F91E6
:10268000FF90EF90DF90CF90BF90AF909F908F9092
:1026900008958F929F92AF92BF92CF92DF92EF9266
:1026A000FF920F931F93CF93C82F4A015B016801DC
:1026B000790180917D218C1302C060DF02C08C2FD4
:1026C0000DDF950184014C2F7EDFCF911F910F917B
:1026D000FF90EF90DF90CF90BF90AF909F908F9042
:1026E0000895CF936ED88823E9F18091CF219091FE
:1026F000D021A091D121B091D221AC01BD0133E014
:1027000076956795579547953A95D1F74093E02090
:102710005093E1206093E2207093E32046E0B69569
:10272000A795979587954A95D1F78093E420909344
:10273000E520A093E620B093E72081159041A10504
:10274000B10590F41092E0201092E1201092E22066
:102750001092E3201092E4201092E5201092E620DF
:102760001092E720C0E001C0C1E00E94490A88231E
:10277000B9F08091A9219091AA2123E0969587959F
:102780002A95E1F78093E8209093E920C19750F4CF
:102790001092E0201092E1201092E2201092E320AB
:1027A00080E003C0CC23E1F381E081708093EA20D4
:1027B000CF9108952F923F924F925F926F927F92A6
:1027C0008F929F92AF92BF92CF92DF92EF92FF9241
:1027D0000F931F93CF93FC014B01C42F19012701C5
:1027E000380196018501B301A2018C2F0995882338
:1027F00061F0B301A2018C2FF4010995AB01BC017A
:1028000096018501C1011BD901C080E0CF911F91C4
:102810000F91FF90EF90DF90CF90BF90AF909F907F
:102820008F907F906F905F904F903F902F90089582
:10283000AF92BF92CF92DF92EF92FF920F931F93CE
:102840005701680179018A019B01482F69EE71E106
:1028500081E293E1AFDF1F910F91FF90EF90DF9046
:10286000CF90BF90AF900895EF92FF920F931F9378
:10287000780189019A01AB01BC0180917D21D8DFEB
:102880001F910F91FF90EF900895AF92BF92CF925A
:10289000DF92EF92FF920F931F9357016801790126
:1028A0008A019B01482F6DE372E189E493E182DFA5
:1028B0001F910F91FF90EF90DF90CF90BF90AF905E
:1028C0000895EF92FF920F931F93780189019A0167
:1028D000AB01BC0180917D21D8DF1F910F91FF904A
:1028E000EF9008952F923F924F925F926F927F9256
:1028F0008F929F92AF92BF92CF92DF92EF92FF9210
:102900000F931F93CF93FC014B01C42F1901270193
:10291000380196018501B301A2018C2F0995882306
:1029200061F0B301A2018C2FF4010995AB01BC0148
:1029300096018501C10123D901C080E0CF911F918B
:102940000F91FF90EF90DF90CF90BF90AF909F904E
:102950008F907F906F905F904F903F902F90089551
:10296000AF92BF92CF92DF92EF92FF920F931F939D
:102970005701680179018A019B01482F69EE71E1D5
:1029800081E293E1AFDF1F910F91FF90EF90DF9015
:10299000CF90BF90AF900895EF92FF920F931F9347
:1029A000780189019A01AB01BC0180917D21D8DFBA
:1029B0001F910F91FF90EF900895AF92BF92CF9229
:1029C000DF92EF92FF920F931F93570168017901F5
:1029D0008A019B01482F6DE372E189E493E182DF74
:1029E0001F910F91FF90EF90DF90CF90BF90AF902D
:1029F0000895EF92FF920F931F93780189019A0136
:102A0000AB01BC0180917D21D8DF1F910F91FF9018
:102A1000EF9008954F925F926F927F92AF92BF9224
:102A2000CF92DF92EF92FF920F931F93CF93DF939A
:102A3000EB015A0128013901FC0109954616570698
:102A40006806790698F48B019C010419150926097A
:102A50003709C016D106E206F30610F49701860185
:102A6000B301A201C501FE01099501C080E0DF911B
:102A7000CF911F910F91FF90EF90DF90CF90BF907B
:102A8000AF907F906F905F904F900895CF92DF92BC
:102A9000EF92FF920F931F93680179018A019B01C6
:102AA000AC0161E674E18EEB92E1B4DF1F910F910E
:102AB000FF90EF90DF90CF900895CF92DF92EF924A
:102AC000FF920F931F93680179018A019B01AC016A
:102AD00064E374E18AE392E19DDF1F910F91FF901F
:102AE000EF90DF90CF900895CF92DF92EF92FF9218
:102AF0000F931F93680179018A019B01AC016CEC73
:102B000074E18AE392E186DF1F910F91FF90EF90CD
:102B1000DF90CF900895CF92DF92EF92FF920F93C4
:102B20001F93680179018A019B01AC0169EF74E18F
:102B30008EEB92E16FDF1F910F91FF90EF90DF908E
:102B4000CF900895CF936CD9C82F0E94560AC11117
:102B500002C080E090E08170CF9108958F929F92A3
:102B6000AF92BF92CF92DF92EF92FF920F931F939B
:102B70006A017B014801590119DD882379F0A5011B
:102B80009401C701B6011F910F91FF90EF90DF9064
:102B9000CF90BF90AF909F908F90BCC980E01F9165
:102BA0000F91FF90EF90DF90CF90BF90AF909F90EC
:102BB0008F900895CF92DF92EF92FF920F931F9321
:102BC000CF93C82FDEDC6B017C012091E020309197
:102BD000E1204091E2205091E320AC2FB0E00E9430
:102BE0001031AB01BC01970186018C2FB7DFCF916B
:102BF0001F910F91FF90EF90DF90CF9008958091FB
:102C00007D21D8CF8091A8210895BC0181E090E278
:102C10000C94E42ECF93DF93FC016491EC01219698
:102C2000662331F081E090E20E94322FCE01F4CF92
:102C3000DF91CF910895AB01BC0181E090E20C944B
:102C40000E2F80E2809362060895CF93DF9381E098
:102C500090E20E949B2F0E94882A81E090E20E94CD
:102C6000B72FEC0197FD07C05ED4811104C08C2FF3
:102C7000DF91CF91FEC5DF91CF9108958091EB2038
:102C8000813079F028F08230D9F0833011F12EC0F4
:102C90008091680685FF2AC084E18093002081E04E
:102CA0000CC08091002081508093002081111EC0B3
:102CB0000E94A1060E94202E82E08093EB2016C085
:102CC0008091680685FD12C084E18093002083E036
:102CD000F4CF80910020815080930020811106C0A4
:102CE0000E94E52D0E94BA061092EB206ED5BEC65A
:102CF0000895089581E090E20C94BF2E81E090E267
:102D00000C940B3025EC30E23F932F932DEC30E206
:102D10003F932F931F9223E02F931F9221E02F9335
:102D200044ED50E25F934F9340E658E05F934F933A
:102D30002F931F929F938F930E94B3318DB79EB7AD
:102D400040968DBF9EBF85E6089560E071E00E94C9
:102D50000A0785E60895CB010E941A07882321F00F
:102D60000E943F0984E608958AEC089560E071E0CE
:102D70000E94330785E608950F931F93CF93DF9347
:102D800000D000D0CDB7DEB78C01E0916F21F0917B
:102D90007021CE01039609959B818C819A8389834A
:102DA00022E030E0AE014F5F5F4F60E071E0C801AC
:102DB0000E945D0785E62496CDBFDEBFDF91CF91EF
:102DC0001F910F9108950F931F93CF93DF9300D01E
:102DD000CDB7DEB78B0119821A82AB0162E070E0D9
:102DE000CE0101960E9488070297C1F4F801019074
:102DF0000020E9F73197E01BF10B339730F0898120
:102E00009A8198278927982702C0898190E0E091CC
:102E10007121F0917221099584E601C08AEC0F902E
:102E20000F90DF91CF911F910F9108950F931F93F2
:102E3000CF93DF931F92CDB7DEB78C01E0916B216A
:102E4000F0916C21CE010196099521E030E0AE01B0
:102E50004F5F5F4F60E071E0C8010E945D0785E64B
:102E60000F90DF91CF911F910F910895CF93DF9332
:102E70001F92CDB7DEB7AB0161E070E0CE010196E5
:102E80000E948807019741F4E0916D21F0916E2135
:102E90008981099584E601C08AEC0F90DF91CF917A
:102EA0000895EF92FF920F931F93CF93DF93CDB7C7
:102EB000DEB7A097CDBFDEBF7C01E5E5F1E206A15C
:102EC00010E00288F389E02DCE0101960995980162
:102ED000AE014F5F5F4F60E071E0C7010E945D0788
:102EE00085E6A096CDBFDEBFDF91CF911F910F91F8
:102EF000FF90EF900895DF92EF92FF920F931F9350
:102F0000CF93DF93CDB7DEB7A097CDBFDEBF7B01F8
:102F100000917B2110E069E578E0C7010E947E31D5
:102F2000892BD1F4D12CED2CF12CE016F10658F4BC
:102F30000E945207E1E0F0E0EC0FFD1FEE0DFF1DD7
:102F40008083D394F0CFE0916921F0916A21CE0182
:102F50000196099584E60BC0A70160E270E0CE01FE
:102F600001960E9488070817190769F38AECA09652
:102F7000CDBFDEBFDF91CF911F910F91FF90EF90FA
:102F8000DF900895FC0180917C21882311F081E37A
:102F900001C080E38083118285E60895FB01818171
:102FA00081110DC08081813321F481E080937C21E7
:102FB00004C0803321F410927C2184E608958AECC9
:102FC000089584E795E17ED28EE608958DE595E13A
:102FD00094D28EE60895E0ECF4E081818E7F8183C7
:102FE0000E94E52D0E94950684E60895E0ECF4E049
:102FF00081818E7F81830E94E52D0E949B0684E65D
:103000000895E5E5F1E221A12F9320A12F93278DCB
:103010002F93268D2F9325E538E03F932F9321E0C2
:103020002F931F929F938F930E94B3318DB79EB7BA
:103030000A968DBF9EBF85E608954F925F926F926C
:103040007F928F929F92AF92BF92CF92DF92EF9238
:10305000FF920F931F93CF93DF93CDB7DEB77A0123
:10306000B02E4DB65EB6213041E0340708F042C0C4
:103070002E153F0508F43EC06DB67EB62DB73EB79F
:103080002E193F092DBF3EBF2F5F3F4F69018701BA
:1030900020E030E0AB01BC01C60113DCBB2029F10C
:1030A0008DB69EB68701000F111FB8016D5F7F4F6F
:1030B0008DB79EB7861B970B8DBF9EBF2DB73EB7B2
:1030C0002F5F3F4F59019701A601C5010E945D077F
:1030D000F501E00FF11F8DE080838AE08183128289
:1030E000C50193DD8DBE9EBE03C0B701C601A3DD41
:1030F0006DBE7EBE4DBE5EBEDF91CF911F910F9122
:10310000FF90EF90DF90CF90BF90AF909F908F9007
:103110007F906F905F904F9008952F923F924F92C3
:103120005F926F927F928F929F92AF92BF92CF9257
:10313000DF92EF92FF920F931F93CF93DF93CDB760
:10314000DEB72A97CDBFDEBF1C01162F17DA21E0AC
:103150002216320608F04DC06115710581059105F2
:1031600009F447C04101A12CB12CA50194010E9492
:10317000D8302D833E834F83588769837A838B832E
:103180009C8349815A8149875A8760E070E0CB016E
:10319000C12CD12C760124013501460E571E681E24
:1031A000791E2D813E814F815885C216D306E406D3
:1031B000F50661F0012F9101A1013FDF5FEFC51A14
:1031C000D50AE50AF50AC301B201E5CF49855A855A
:1031D000452B59F0A5019401C701B6010E94A93001
:1031E000012F910149815A8128DF111104C084E621
:1031F00003C089EC01C085E62A96CDBFDEBFDF9112
:10320000CF911F910F91FF90EF90DF90CF90BF90E3
:10321000AF909F908F907F906F905F904F903F9076
:103220002F90089561E080E190E077CF60E080E04A
:1032300091E073CF8BE895E145D18EE6089586E461
:1032400095E15BD18EE6089520917B211F922F930B
:1032500022E538E03F932F9321E02F931F929F9315
:103260008F930E94B3318DB79EB708968DBF9EBFD6
:1032700085E6089560E071E00E94BF0885E6089544
:1032800040E051E0BC0180E00E94F40885E608952A
:1032900080E00E941409882321F00E943F0984E6FF
:1032A00008958AEC089560E071E00E94BF0885E609
:1032B000089540E051E0BC0181E00E94F40885E6F9
:1032C000089581E00E941409882321F00E943F099B
:1032D00084E608958AEC089560E071E00E94770921
:1032E00085E60895CB010E948409882321F00E947D
:1032F0003F0984E608958AEC089581DC80E00E940D
:10330000E70666E080E00E94E50860E081E00E9458
:10331000E5080E943F0984E60895BF92CF92DF92AC
:10332000EF92FF920F931F93CF93DF93EC01EE2464
:10333000EA94F12C0AE719E09CE2B92E6801B80181
:103340008CEC90E20E947E31892BC9F0DE01F601FF
:103350002491ED012196C7010197211105C0BC926E
:103360007C01085E1F4FEACFF1E2EF16F104B8F3DB
:103370002C93DE012FEFC21AD20A7C01E8CF2197ED
:10338000188285E6DF91CF911F910F91FF90EF900A
:10339000DF90CF90BF900895CF93DF93EC010E9410
:1033A0002C0A9F938F938BE498E09F938F9381E0F7
:1033B0008F931F92DF93CF930E94B3318DB79EB747
:1033C00008968DBF9EBF85E6DF91CF910895EF925D
:1033D000FF920F931F93CF93DF93EC0100E110E076
:1033E00020E030E040E050E0BA016BDA00EC10E0A1
:1033F00020E030E040E150E060E070E0CE01409637
:1034000060DA60ED70E0CE010E9410278E017E012F
:1034100082EDE80EF11CF80161918F0181E090E2EC
:103420000E94322F0E151F05B1F7188284E6DF9136
:10343000CF911F910F91FF90EF9008952091A821B7
:103440001F922F9328E438E03F932F9321E02F938E
:103450001F929F938F930E94B3318DB79EB70896AA
:103460008DBF9EBF85E60895FB01818181110CC04F
:103470008081813311F481E003C0803329F480E03E
:103480000E948F0984E608958AEC0895CF935ADB51
:10349000C0E08C2F0E94470980E00E94E70666E0AA
:1034A00080E00E94E50860E081E00E94E508CF5FCF
:1034B000C83079F780E00E9447090E943F0984E6FE
:1034C000CF91089521E02093F9202093F82024E162
:1034D0002093F62025E030E02093F4203093F5206F
:1034E0001092EE201092EF201092F0201092F12016
:1034F0008093EC209093ED20089527E02093F9200D
:1035000024E630E02093F4203093F5201092EE2052
:103510001092EF201092F0201092F1208093EC2076
:103520009093ED2008950F931F93CF939091F920DE
:103530009530B9F130F4933001F118F5913068F419
:103540003EC1973009F4A5C008F440C0983009F492
:10355000A5C0993009F430C132C1813031F41092E4
:10356000F2201092F32083E0FBC0843011F466E077
:103570008BC0883109F0F6C01FC18093F72084E02A
:10358000EFC090E04091F7202FEF30E0241B31098D
:103590008217930721F485E0E3C0891741F165E1C3
:1035A0006CC02091F2203091F320A9014F5F5F4F52
:1035B0004093F2205093F320F901ED52FE4D8083A9
:1035C0004038510509F0CEC086E0CAC02091F720EE
:1035D0009091F820291349C0E3EDF1E223E532E2AE
:1035E00090E02E173F07C9F24191940FFACF409116
:1035F000EE205091EF206091F0207091F120E09149
:10360000EC20F091ED2000E810E020E030E083EDC8
:1036100091E20995C82F882311F18091F8208F5FDE
:103620008093F8208091EE209091EF20A091F020DF
:10363000B091F12080589F4FAF4FBF4F8093EE2045
:103640009093EF20A093F020B093F12066E081E00A
:1036500090E20E94322F82E08093F920B1C068E1AD
:1036600081E090E20E94322F0EC030E0892F90E07E
:1036700001972817390739F466E081E090E20E944B
:10368000322F82E06DC068E181E090E20E94322F2B
:1036900093C0853119F41092F82006C0883109F4DE
:1036A00066CF863009F060C08091F8208F5F8093EC
:1036B000F8204091EE205091EF206091F020709121
:1036C000F120E091EC20F091ED2000E810E020E006
:1036D00030E083ED91E20995C82F8823D9F161E0AC
:1036E00081E090E20E94322F6091F82081E090E228
:1036F0000E94322F6091F820609581E090E20E9454
:10370000322F60E870E083ED91E295DAE3EDF1E2CB
:1037100083E592E260E08E179F0719F02191620F16
:10372000FACF81E090E20E94322F8091EE209091BA
:10373000EF20A091F020B091F12080589F4FAF4F23
:10374000BF4F8093EE209093EF20A093F020B09392
:10375000F12036C064E081E090E20E94322F89E0DF
:103760008093F920C1E02CC08531E1F761E081E070
:1037700090E20E94322F6091F82081E090E20E9456
:10378000322F6091F820609581E090E20E94322F04
:1037900060E870E083ED91E24EDAE3EDF1E260E0A3
:1037A00082E2E335F80719F08191680FF9CF81E0E3
:1037B00090E20E94322FD6CF1092F920D3CFC0E0F2
:1037C0008C2FCF911F910F9108958091F920813016
:1037D00019F0873029F108958091F4209091F52017
:1037E0009C01215031092093F4203093F520892B3E
:1037F00031F58091F6209FEF980F9093F620882363
:1038000031F065E181E090E20E94322F02C0109217
:10381000F92085E090E08093F4209093F5200895BE
:103820008091F4209091F5209C0121503109209342
:10383000F4203093F520892B11F41092F92008958B
:10384000E3E9F8E020E030E09491981309C041E208
:10385000429FC001439F900D11248C56974F0895AD
:103860002F5F3F4FB1962730310571F780E090E030
:103870000895CF92DF92EF92FF920F931F93CF9311
:10388000982F9F7D91549A3160F090ED980F9A3067
:1038900040F08F3531F0982F9D7F9D3311F08032AD
:1038A000C9F49FE9980F9A3108F480522091FF20C3
:1038B000309100212F3F310508F0CFC0A9014F5FA3
:1038C0005F4F4093FF2050930021F901ED52FE4DD0
:1038D0008083C3C08D3009F095C0E091FF20F09146
:1038E0000021ED52FE4D10821092FF201092002117
:1038F0008091FE208111B1C08091D321982F9F7DAE
:1039000009F495C08D7F8D3309F491C0E3EDF1E2A8
:103910007F01C191CC2331F0CF3321F0CD3311F0B1
:10392000C032B1F7F70110828AE7C82E89E0D82E9D
:1039300000E010E0B60183ED91E20E947E31892B18
:1039400009F056C01092D321CF3349F488E1809F0B
:10395000F001819FF00D1124E057F64F18C0B70118
:103960006F5F7F4FCD3349F488E1809FF001819FE5
:10397000F00D1124E257F64F20C0C11113C088E1A9
:10398000809FF001819FF00D1124E657F64F25919D
:1039900034912115310509F44DC083ED91E2F9010F
:1039A000099514C0C03209F045C088E1809FF0013C
:1039B000819FF00D1124E457F64F25913491211584
:1039C0003105C1F183ED91E2F90109958F3F99F538
:1039D00081E08093FE202EB13FB180910804909148
:1039E0000904822B932B8093FC209093FD2035C0FB
:1039F0000F5F1F4FF8E1CF0ED11C0931110509F0FF
:103A000099CF15C0883061F48091FF2090910021FA
:103A1000009719F101978093FF20909300211DC01A
:103A20008B31D9F41092FF201092002116C088EC3F
:103A3000C0E002C089ECC1E003DFECD880E998E087
:103A4000E9D8CC2351F08091D321882331F083ED44
:103A500091E2DBD88DE898E0DDD881E0CF911F912D
:103A60000F91FF90EF90DF90CF9008958091FE200E
:103A7000882389F1E0917E21F0917F212381348197
:103A80002115310541F14EB15FB18091080490914B
:103A90000904842B952B4091FC205091FD20841B20
:103AA000950B64E670E00E94C4306217730798F0CB
:103AB0001092FE208BECC4DEADD88AE898E0AAD83C
:103AC000E091FA20F091FB20309729F009951092AF
:103AD000FA201092FB200895A0E2B6E082E0119651
:103AE0008C93119715968C931597E0E4F8E010A24B
:103AF00011A28DE291E086A397A38FEF9FEF80A79D
:103B000091A781E0808398E8938393E097831A9646
:103B10008C9308951F920F920FB60F9211248F93DA
:103B20009F93EF93FF9383ED92E280930D21909307
:103B30000E2183E593E280930B2190930C21109248
:103B40000621109205211092012110920921109254
:103B50000A2110920421E0E4F8E0138286E990E063
:103B600086AB97AB8AE190E080AF91AFE0E4F9E0FB
:103B700010A211A28FEF9FEF86A397A389E88383FA
:103B80008EE0808310922A06FF91EF919F918F9192
:103B90000F900FBE0F901F9018951F920F920FB6A7
:103BA0000F9211242F933F938F939F93EF93FF9343
:103BB0009091280680910521957021E009F020E080
:103BC000880F822B8093052190910121992309F47C
:103BD0006BC0982F9770973091F51092400880E154
:103BE00080934C081092430980910321882319F097
:103BF0008CEB94E002C08CE794E08093660990938C
:103C000067091092022181E080934C0983E0809340
:103C100046098091092190910A21877061F0909165
:103C200006218F5F893011F09695FBCFE0910D2131
:103C3000F0910E21908381E080930F2135C0982F61
:103C40009C7091F191E0382F347082FD90E0909358
:103C5000032180910421811125C020910621269500
:103C6000311101C080E8282B209306218091092181
:103C700090910A2101968093092190930A218770DF
:103C80009927892B89F4E0910D21F0910E21CF0124
:103C9000019680930D2190930E21208381E08093E3
:103CA000042102C0109204219091012181E0892712
:103CB0008093012188E880934308FF91EF919F91C1
:103CC0008F913F912F910F900FBE0F901F901895DD
:103CD0001F920F920FB60F9211242F933F938F9341
:103CE0009F93EF93FF9380910221853009F45AC08E
:103CF000B8F48230B9F178F4882369F1813009F0A1
:103D0000C0C08FE390E080936609909367098EE0CE
:103D10008093000827C0833051F18430B1F1B1C0E5
:103D2000883009F4A3C038F4863009F460C08730C5
:103D300009F46DC0A6C0893009F49DC08A3009F02D
:103D4000A0C010924009109246091092000881E02C
:103D50008093102196C08FE790E08093660990933E
:103D600067098FC080E48093450683E088C080E4C3
:103D70008093460684E080930221E0910D21F0912A
:103D80000E218081809306217CC08091062180FFD6
:103D900004C080E48093450603C080E48093460617
:103DA00085E06DC08091062190E480FF03C0909370
:103DB000460602C090934506869580930621809121
:103DC0000721909108210196809307219093082163
:103DD0009C0127703327232B11F486E050C02091DB
:103DE000092130910A2182179307F1F529C0E0914A
:103DF0000B21F0910C218081882321F080E48093B5
:103E0000450603C080E48093460687E038C0E09111
:103E10000B21F0910C218081882321F080E4809394
:103E2000460603C080E48093450620910721309127
:103E300008218091092190910A212817390711F44E
:103E400088E01DC03196E0930B21F0930C21E091A6
:103E50000D21F0910E21CF01019680930D219093B9
:103E60000E2181818093062184E009C080E4809343
:103E7000460689E004C080E4809346068AE0809389
:103E80000221FF91EF919F918F913F912F910F9080
:103E90000FBE0F901F901895CF93DF93E0E4F6E0EC
:103EA00084E08283128AC0E8D1E082E68E83A0E2B9
:103EB000B6E085E012968C93129781E050968C9331
:103EC000509782E052968C9352971A961C921A97AA
:103ED00083E019968C9398E598839AE5998390E40A
:103EE0009183968381838683E0E0F8E08FE090E021
:103EF00086A397A388E090E082A793A783E28183BB
:103F0000DF91CF91E9CD80910F21882309F457C02B
:103F100010920F2182E08093210680932606609103
:103F2000092170910A216115710521F1E091652146
:103F3000F091662183ED92E2099594FD08C0AC01F1
:103F400023E0569547952A95E1F720E002C09F7E31
:103F500017C0A22FB0E0A417B50790F4AD52BD4D25
:103F6000EC91F0E0EA51FB4FE491A058BF4FEC9385
:103F70002F5FEFCFE0915D21F0915E2109951AC08E
:103F80000097C1F08093092190930A211092072194
:103F90001092082183ED92E280930D2190930E21DF
:103FA00083E593E280930B2190930C2181E0809331
:103FB000022105C010924009109246098DDD8091C2
:103FC0001021882319F01092102186CD0895FC014C
:103FD00060817181828193810C94FA300895FA0195
:103FE0009083818372836383089521E0209324204A
:103FF00040932D214111806480932F219093302193
:1040000060932E2110922C2110922B21089541E0D3
:1040100080917B21873009F040E068E084E090E007
:10402000E4CF41E080917B21873009F040E068E1F6
:1040300082E090E0DACF40E069E084E090E0D5CF24
:1040400081E080932A21109218211092172140E0DC
:1040500068E084E090E0C9CF81E080932420089557
:10406000FF920F931F93CF93DF93FC0120812035A4
:1040700001F5218121111DC08B01EC0180912C21C2
:10408000FF24F3948F258093242062E070E0CF0119
:10409000F2D6882331F010922420F8011082118288
:1040A00006C0F88284E090E0F8018083918381E08B
:1040B00001C080E0DF91CF911F910F91FF90089593
:1040C000EF92FF920F931F93CF93DF9347305105E9
:1040D00011F080E020C0E80179018B01682FC80150
:1040E000FBD68823B1F3B701C80102D78091242001
:1040F000823040F484E08093242080E190E0888343
:10410000998308C090912C2181E0892780932420F5
:104110001882198281E0DF91CF911F910F91FF905A
:10412000EF9008958F929F92AF92BF92CF92DF92BD
:10413000EF92FF920F931F93CF93DF93CDB7DEB72C
:104140006297CDBFDEBF982E7B016A01DB018C91A7
:10415000803619F02AE330E002C020E330E080919D
:104160002A218823C9F0911017C080E1E9E1F1E22A
:10417000DF011D928A95E9F784E0F701A9E1B1E238
:1041800001900D928A95E1F778E0A72EB12C46E3D5
:1041900050E08FEF90E018C0F701818187FF0AC0DF
:1041A000807FF0E18F9FC001112420543F4F46EFE4
:1041B00050E007C08C7F40E1849FC001112446E39A
:1041C00050E05C01A20EB31ED7012C912170209308
:1041D00045219C0164E0369527956A95E1F7209387
:1041E0004621480F591F60E070E004E010E020E035
:1041F00030E081E391E20E94341480912D2104E0AB
:1042000010E020E030E0882329F043E050E060E057
:1042100070E003C040E050E0BA01CE010F960E946A
:104220003414A50160E070E006E010E020E030E02A
:10423000CE0101960E943414992009F454C01B86C3
:104240001C861D861E8681E08B878B859C85AD85AF
:10425000BE858093472190934821A0934921B09334
:104260004A2160E470E087E491E20E943B2980915A
:10427000472190914821A0914921B0914A218093F2
:104280004B2190934C21A0934D21B0934E2160E29D
:1042900070E08BE491E2EFD79E01295F3F4FAE01C2
:1042A000455F5F4FBE01615F7F4FCE01019627D70B
:1042B000FE013B965F01D701CE0107969E01215F6B
:1042C0003F4FF50141915F014D93FC016191CF0199
:1042D000AD0141585F4FFA016083A216B30689F71A
:1042E00080E290E14EC08091392090913A20A091D7
:1042F0003B20B0913C208F839887A987BA87809014
:104300003D2090903E20A0903F20B09040204091D2
:10431000412050914220609143207091442020918F
:104320002A21222341F080931D2190931E21A093E6
:104330001F21B09320218092472190924821A09282
:104340004921B0924A2140934B2150934C216093D4
:104350004D2170934E218F819885A985BA85F701EB
:1043600080839183A283B38320E030E0AE01495F74
:104370005F4FBE01615F7F4FCE010196C0D680E2E4
:1043800090E0D6018D939C9386E0809324206296E2
:10439000CDBFDEBFDF91CF911F910F91FF90EF90C6
:1043A000DF90CF90BF90AF909F908F9008950F9324
:1043B0001F93CF93DF93EC018C01060F111DC017E3
:1043C000D10729F032D7988189278993F8CFDF91D7
:1043D000CF911F910F910895CF92DF92EF92FF92AC
:1043E0000F931F93CF937B018C016C01C40ED11CE2
:1043F0000C151D05A1F0F701C1917F0116D78C277F
:10440000F80181938F01EC2FF0E0EA51FB4FC4914A
:104410003FD6D801A158BF4F8C278C93E9CFCF91BD
:104420001F910F91FF90EF90DF90CF900895AF9282
:10443000BF92CF92DF92EF92FF920F931F93CF9391
:10444000DF93CDB7DEB72897CDBFDEBF7C01AB01D0
:104450006F8378871D821E8220912F213091302119
:1044600081E090912420911180E08E010B5F1F4F1D
:10447000B70126DE811156C3B801C701F1DD8111F4
:1044800051C360912420653009F40FC150F46230AB
:1044900061F1B0F0633009F466C0643009F487C09C
:1044A00039C3683009F4AAC238F4663009F419C176
:1044B000673009F489C12EC36C3008F4C7C22AC31F
:1044C0006095617060932C2110922B21F7018081FF
:1044D000803409F027C30E940216882309F422C3FE
:1044E00082E0809324208AE077C2F7018081982FB0
:1044F0009D7F913469F1803311F0803A59F562E083
:1045000070E0C701B8D4811102C081E065C2F70133
:104510008081803399F44181F0E14F9FA001112403
:1045200060E070E000E110E020E030E0C7010E94B0
:10453000341460E170E0C70173D4ABC0803A09F075
:10454000F1C2F70181818093462183E0809324208A
:104550008AE043C2803509F0E5C2BE016B5F7F4F40
:10456000C7017EDDDFC260E170E0C70184D488232B
:10457000B9F080917C21811111C040914621F0E178
:104580004F9FA0011124052E000C660B770B00E154
:1045900010E020E030E0C7010E94CC148AE001C0A6
:1045A00081E0F701808382E08093242017C2F70125
:1045B0008081833971F580912D21882351F088E81D
:1045C0008983B4E0DB2E14E0C12E03E0CE01029615
:1045D00007C0C0902E21A5E0DA2E04E0CE0101969E
:1045E00010E020E030E040E050E0BA010E943414D6
:1045F0002C2DAE014F5F5F4FBE01695F7F4FC7013A
:104600007BD4882371F1D092242081E080932B21E8
:1046100028C090912B21992309F43EC090912D211F
:10462000992311F1853901F504E010E020E030E034
:1046300043E050E060E070E0CE0101960E94341447
:1046400020912E21AE014F5F5F4FBE01695F7F4F0A
:10465000C70152D4882329F085E08093242010924A
:104660002B218F819885BCC18033B1F400E110E02B
:1046700020E030E040E050E0BA01C7010E9434146D
:1046800060E170E0C701CCD385E0809324201092D4
:104690002B2180E990E0A4C190912C2181E0892711
:1046A0008093242010922B213DC2F7018081803419
:1046B00021F40E940216811113CFF70180818056E8
:1046C000823068F462E070E0C701D5D3882309F432
:1046D0001CCFAE014B5F5F4FB70180E08DC184E01E
:1046E0007BC180912A21882309F447C088E0F70123
:1046F000A1E2B1E201900D928A95E1F78091192132
:10470000803671F480911821482F4295407FF0E166
:10471000FF2EF40E8F5F0E94B830909318210DC0C9
:1047200080911721482F4295407FE0E7FE2EF40E3E
:104730008F5F0E94B83090931721809129218111B9
:104740000FC008E010E020E030E048E050E060E01A
:1047500070E08CE190E20E94F91481E080932921BD
:104760004F2D50E060E070E000E110E020E030E02C
:1047700089E191E20E94F91425C0C7013AD564E0AD
:104780006701F4E0CF0ED11CC60111DE44E050E019
:1047900067E471E2C6010E949631892B59F444E026
:1047A0006BE471E2C70118DE87E08093242080E289
:1047B00090E116C181E08093242080912A218823F2
:1047C00009F4B0C185E0ACC164E0C701F0DDBE0111
:1047D0006B5F7F4FC70144DC8111A4C162E070E0D0
:1047E000C70149D3811107C080912C2111E0812795
:1047F00080932420DAC0F7018081803309F0A7C0BC
:10480000418147FD04C0842F8370833029F0842FB9
:104810008F708F3009F083C0409346218091312101
:104820009091322120913321382F32953095592F94
:104830005327507F09F03FC032273F70E1F5929532
:1048400090959227907FB9F5342F47FD02C03370C1
:1048500003C03F7009F033E08095622F62956F705E
:104860003323B1F090E0032E02C0959587950A940A
:10487000E2F7E22FF0E0032E02C0F595E7950A94E7
:10488000E2F72E2F70E002C0759567953A95E2F732
:1048900060FBAA24A0F8B12CF501EE0FFF1FEE0F6C
:1048A000FF1F20FBCC24C0F8D12CCC0CDD1CEC2944
:1048B0008170E82B01C0E7E0F0E080914521EE0F28
:1048C000FF1FEB5BFF4DE80FF11D8081F7019701A2
:1048D000205F3F4F1192E217F307E1F790913421E7
:1048E000F701918782FF09C09091312196839091C1
:1048F0003221978390913321908784FF1DC04360BC
:10490000F0E14F9FA0011124465F5F4F60E070E02F
:1049100006E010E020E030E0C7010A960BC080E11D
:10492000489FA001112460E070E000E110E020E069
:1049300030E0C7010E94341460E170E0C70170D21A
:1049400042E1B701C70148DD80E990E149C0982FF5
:104950009F7E903A09F5F70141814093462141112C
:1049600002C076D439C0803A11F488E030C0803B70
:10497000A9F580917C2181112CC0F0E14F9FA0010D
:10498000112460E070E000E110E020E030E085E319
:1049900091E20E94CC141DC0803C51F4F70181814A
:1049A000809346211AE01093242052D4812714C00A
:1049B000813C31F4F70181818093462189E007C071
:1049C000823C89F4F7018181809346218BE08093BA
:1049D00024203ED49AE08927F701808384E090E088
:1049E0008D839E839FC08056823008F0EBCEAE014F
:1049F0004B5F5F4FB70181E095DB94C062E1C70177
:104A0000D6DCBE016B5F7F4FC7012ADB81118AC0F4
:104A100060E170E0C7012FD2882341F180917C21B1
:104A2000811111C040914621F0E14F9FA001112456
:104A3000052E000C660B770B00E110E020E030E063
:104A4000C7010E94CC1404D49AE012C066E0C701EA
:104A5000AEDCBE016B5F7F4FC70102DB811162C01C
:104A600064E070E0C70107D2811107C0F1D391E083
:104A70008927F701808387E097CD40914621F0E1B7
:104A80004F9FA001112460E070E000E110E020E001
:104A900030E085E391E20E943414909135218091B9
:104AA00039218095981396C080913D21981392C02A
:104AB0009091362180913A21809598138BC08091F6
:104AC0003E21981387C09091372180913B2180959A
:104AD000981380C080913F2198137CC09091382119
:104AE00080913C218095981375C080914021981346
:104AF00071C09091412180914221809598136AC0A4
:104B000080914321981366C0809144218095981329
:104B100061C018C01D821E8290912C2181E08927DE
:104B2000809324208D819E812896CDBFDEBFDF91AA
:104B3000CF911F910F91FF90EF90DF90CF90BF909A
:104B4000AF9008958091352190913621A091372121
:104B5000B0913821F70140815181628173812091A8
:104B600024202A3029F4841B950BA60BB70B06C012
:104B7000293021F4840F951FA61FB71F809335217C
:104B8000C92EDA2EEB2EFF24C09236218D0122276A
:104B90003327009337214B2F5527662777274093DC
:104BA0003821E82FE095E0933921EC2DE095E09352
:104BB0003A21E02FE095E0933B21E42FE095E0934C
:104BC0003C2180933D21C0923E2100933F214093A0
:104BD000402151CF3DD395E04BCF0F931F93CF93FF
:104BE000DF93EC0180912D218823A9F003E010E0F0
:104BF00020E030E040E050E0BA01CE010E943414E1
:104C000004E010E020E030E043E050E060E070E0DD
:104C1000CE01039608C004E010E020E030E040E060
:104C200050E0BA01CE010E943414DF91CF911F9160
:104C30000F910895CF93DF9300D000D0CDB7DEB7AA
:104C4000CE010196CADFCE010196C1D96093112130
:104C50007093122180931321909314212496CDBF39
:104C6000DEBFDF91CF9108950F931F93CF93DF9312
:104C70001F92CDB7DEB740E068E084E090E0B5D9A0
:104C800081EB898301E010E020E030E040E050E07B
:104C9000BA01CE0101960E94611481E09981913B95
:104CA00009F080E08093162110921521C3DF0F9048
:104CB000DF91CF911F910F9108950F931F93CF9381
:104CC000DF931F92CDB7DEB720912D21222349F02B
:104CD00000917B2110E020E030E040E050E0BA019C
:104CE0001CC0FC013081218123273281232733819D
:104CF0002327298304E010E020E030E040E050E08A
:104D0000BA010E94CC1401E010E020E030E044E061
:104D100050E060E070E0CE0101960E94CC140F904C
:104D2000DF91CF911F910F9108950F931F93CF9310
:104D3000DF93CDB7DEB72597CDBFDEBF80911621BB
:104D4000811102C080EB01C081EB8D8301E010E096
:104D500020E030E040E050E0BA01CE0105960E942C
:104D6000F914609111217091122180911321909179
:104D70001421AE014F5F5F4F32D9CE0101969DDF06
:104D80002596CDBFDEBFDF91CF911F910F91089582
:104D90001092162110921521C8CF21E020931621E0
:104DA000109215218091112190911221A09113212F
:104DB000B09114210196A11DB11D809311219093F2
:104DC0001221A0931321B093142120932420ADCF5E
:104DD000809116218111DCCF2DDFDFCF809116214C
:104DE000882341F080911521833008F0D6CF8F5F62
:104DF00080931521089520912F2130913021FC01BD
:104E000020833183089580932F219093302108953A
:104E100020912E21FC012083089580932E21089556
:104E200020E42093D00026EC2093D5002093D400DA
:104E300021E02093D000DC01680F791FA617B70787
:104E400041F0ED91F0E0EA51FA4FE491E093D300A4
:104E5000F5CFE091D500F0E0EA51FA4FE491EC9300
:104E6000E091D400F0E0EA51FA4FE4911196EC930E
:104E70001092D000089520E42093D00026EC2093D7
:104E8000D5002093D40021E02093D000DC01680FEE
:104E9000791FA617B70741F0ED91F0E0EA51FA4FFC
:104EA000E491E093D300F5CFE091D500F0E0EA5132
:104EB000FA4FE4918C918E130AC0E091D400F0E097
:104EC000EA51FA4FE49181E011969C919E1380E0A3
:104ED0001092D00081700895FC01908181E06111F1
:104EE00002C0963219F0923509F080E08170089581
:104EF000FC01608371830895AF92BF92CF92DF92DD
:104F0000EF92FF920F931F93CF93DF93EC01FA017F
:104F10009981903229F08A016B01903789F02DC078
:104F2000308138832181298392819A8383818B8385
:104F30002327922789278C8388E290E0FB0156C0C3
:104F40009A81FA01808198131BC09B8181819813FB
:104F500017C09C818281981313C09D81838198130F
:104F60000FC0288361E070E0CE015ADF88E190E055
:104F7000F6018083918381E03CC0892F8F7021F0FE
:104F8000F6011082118234C092959F709250E92EE2
:104F9000F12CA701BE016E5F7F4FCF010E949631B9
:104FA000892B19F0F6011082118284E090E05C01F7
:104FB000AE18BF08B8016E0D7F1DA501CE010E947D
:104FC000A331CA0DDB1DF80190818181892792816F
:104FD000892793818927888385E090E08E199F092E
:104FE00023E0880F991F2A95E1F7F60180839183CA
:104FF00080E0DF91CF911F910F91FF90EF90DF90B4
:10500000CF90BF90AF900895A0914F21B0915021C3
:1050100040915121F0915221E0915321309154213E
:105020002A2F217E9B2F90719227242F2072922766
:105030002F2F247992272E2F23779227232F2A731D
:105040009227292F22952F709227292F2695269572
:105050009227292F269550E060E070E0BA0155278D
:1050600044275B2B4A2B7695679557954795922752
:10507000917098136068F0934F21E0935021309322
:10508000512140935221509353216093542108950C
:10509000CF93DF9382E591E2DC011196EC911197B9
:1050A000AC91A295AF70B0E0AB58BF4DCE2FCF7092
:1050B000D0E0CB58DF4D3C912889232BE295EF704F
:1050C000F0E0EB58FF4D30A1232BEC01EA81AE2F2D
:1050D000AF70B0E0AB58BF4DD0968C91922F982B0B
:1050E000E295EF70F0E0EB54FF4D8081E92FE82B63
:1050F000F0E0EB5AFF4D8081DF91CF9108955F92F0
:105100006F927F928F929F92AF92BF92CF92DF92D7
:10511000EF92FF920F931F93CF93DF936901DC010E
:105120000FE411E2C2E5D1E27C0186E0E80EF11C59
:1051300011962C91119730E0322F22278C91282B39
:1051400088E090E0B12CB694969520FF03C0EB2D3B
:10515000E068BE2E21FD90683695279536952795F7
:10516000815089F7F801B1928F0199931296EA164E
:10517000FB06F1F67B01EA0186015601F4E0AF0E71
:10518000B11C9880F70171907F01792488E0682E26
:10519000812C552453947CDF81118528872D8170C3
:1051A00033DF550C76946A946110F5CF8924899287
:1051B000C114D10449F0E92DF0E0EA51FB4F94907D
:1051C00067DF8925F80180830F5F1F4FA016B106A6
:1051D000C1F6DF91CF911F910F91FF90EF90DF907B
:1051E000CF90BF90AF909F908F907F906F905F9087
:1051F0000895CF92DF92EF92FF92CF93FC01C0808F
:10520000D180E280F380C0E243DF9C2D917089273A
:10521000FBDEF694E794D794C794C150A9F7CF91D9
:10522000FF90EF90DF90CF9008951F93CF93DF937F
:10523000D8E0C0E02DDF182F80E0E6DEC695111122
:10524000C068D150B9F78C2FDF91CF911F9108958D
:105250001F93CF93DF93D4E0C0E01ADF182F80E0D4
:10526000D3DEC6951111C860D150B9F78C2FDF91EC
:10527000CF911F910895FC019B0121503109E0F06D
:1052800082818D72982F92959F708927982F96957D
:1052900096958927982F96954081518162817381D7
:1052A0007695679557954795892780FD7068408367
:1052B000518362837383E1CF08950F931F93CF933C
:1052C000DF93CDB7DEB7EA97CDBFDEBF08ED13E2BF
:1052D0009FD2F80181938F01F3E2003E1F07C1F7CF
:1052E0000E947E1610D3882309F404C18091D8232C
:1052F0009091D923953009F478C030F4913091F130
:1053000068F0933079F1F6C0983009F4CDC0993047
:1053100009F4D2C0963009F0EDC07BC0803821F08E
:10532000823809F0E7C008C01091D4238091D523BA
:10533000882399F0126011C08091DC238F70863031
:1053400008F0D8C085D2E091E223F091E3231181E7
:1053500012FB112710F980E07BD2EFD2812F68D2A7
:1053600080E0A7C0282F2D7F09F0C4C0882319F042
:10537000823061F0BFC08091DA23813009F0BAC079
:10538000933009F080E08093D5232AC08091DA23FE
:10539000811126C0E091DC231E2F1F708FEF810F3B
:1053A000853008F0A7C0812F53D28091D923833054
:1053B00011F4EFD215C0E091E223F091E323818153
:1053C0008B7F818324E8129FF0011124EA5DFB4D5D
:1053D0001082E091E223F091E32380818E7F80832D
:1053E00080E036D2AAD298D385C0811183C01091B3
:1053F000DA231F77A2D290D360D28823E9F31093E7
:10540000C304111102C082E001C083E08093D7235E
:1054100071C08058823008F06DC08091DA2390917D
:10542000DB238C3DE3E09E0761F583E08A838AE31A
:1054300089834FB7F894DE01139620E038E052E0FC
:105440005093CA01E32FF0E0E4911092CA0120FFCB
:1054500003C0E295EF703F5FEF708E2F90E0EA306F
:1054600010F0C79601C0C0968D939D932F5F2C318D
:1054700039F74FBF62D26AE370E0CE010196A6D041
:1054800011C06091DC237091DD23AE014F5F5F4F4F
:105490000E942B068C01892B69F14FD2B8018981BA
:1054A0009A8110D1A6D126C0803821F546D28091AC
:1054B000D323BED185D197CF81111CC08091DA232F
:1054C0009091DB2399270297ACF437D28091DA23AD
:1054D0008093D32321D38091D323811106C080915F
:1054E000C304811102C081E001C084E08093D7230E
:1054F0000E947A1608D2882311F01FD24AD2EA9667
:10550000CDBFDEBFDF91CF911F910F910895089518
:10551000CF938091D723882351F0C091E42380E07A
:1055200097D1F1D18111C9DE8C2FCF9191C1CF914B
:105530000895CF92DF92EF92FF920F931F93CF9334
:10554000DF93EC018B017A01FDD2811136C0E114A9
:10555000F10439F0F70180819181081B190BC80F04
:10556000D91FC12CD12C0115110531F18091E023F7
:105570009091E123FC01EF5BFF4F20813197808107
:10558000281790F01DD1C4DFE114F10449F0F701B0
:1055900080819181C80ED91EC082D18285E00DC064
:1055A000D1D2882301F309C0899142D10150110958
:1055B000FFEFCF1ADF0AD7CF80E0DF91CF911F91A5
:1055C0000F91FF90EF90DF90CF900895DF92EF92D0
:1055D000FF920F931F93CF93DF93D82FC92F8B0187
:1055E0008091E423806834D18091DE239091DF2381
:1055F0008017910728F00115110519F4E1D001C0B9
:105600008C01ED2EFC2ED12C0115110509F440C0A2
:105610008091D723811102C082E04CC0853011F403
:1056200083E048C070D1882311F081E043C051D19C
:1056300081113CC042D1882339F32091E423809129
:10564000E0239091E123FC0127FF05C0EF5BFF4FB2
:10565000C081D0E013C0E05CFF4FC08131968081F3
:10566000D0E0C81BD1090AC0C830D10550F4F701F9
:1056700081917F01DDD0015011092196011511059D
:1056800099F7DD24D394289709F0D12C99D0BCCF79
:10569000D110BECF0BC08091D723882309F4BCCF93
:1056A000853009F4BDCF2FD18111BFCF12D188230E
:1056B00091F380E0DF91CF911F910F91FF90EF90D8
:1056C000DF900895DF92EF92FF920F931F93CF9395
:1056D000DF93D82FC92F8B018091E4238068B8D045
:1056E0008091DE239091DF238017910728F0011528
:1056F000110519F465D001C08C01ED2EFC2ED12CC2
:105700000115110509F442C08091D723811102C00F
:1057100082E04EC0853011F483E04AC0F4D0882383
:1057200011F081E045C0D5D081113EC0C6D088239C
:1057300039F32091E4238091E0239091E123FC014F
:1057400027FF05C0EF5BFF4FC081D0E015C0E05CD4
:10575000FF4FC08131968081D0E0C81BD1090CC0B9
:10576000C830D10560F4F701849162D0FFEFEF1AE1
:10577000FF0A0150110921960115110589F7DD2451
:10578000D394289709F0D12C1BD0BACFD110BCCF1D
:105790000BC08091D723882309F4BACF853009F450
:1057A000BBCFB1D08111BDCF94D0882391F380E0DD
:1057B000DF91CF911F910F91FF90EF90DF900895AF
:1057C000E091E223F091E323A091E023B091E12363
:1057D000AF5BBF4F8C9190E08283938380818D7902
:1057E0008083E091E023F091E123EF5BFF4F108293
:1057F0000895E091E223F091E32380818D79808305
:10580000E091E023F091E123EF5BFF4F10820895D8
:105810008091E0239091E123FC01EF5BFF4F208119
:1058200031E0320F3083FC01E20FF11D80810895D9
:105830002091E0233091E123F901EF5BFF4F90814C
:1058400041E0490F4083F901E90FF11D808308957C
:105850008093E423482F4F7050E06091C60470910C
:10586000C7049A0194E0220F331F9A95E1F7E4E808
:1058700087FF11C0E49FC001E59F900D1124895D51
:105880009B4D8093E0239093E123C90108969B01EF
:10589000280F391F0DC0E49FC001E59F900D112412
:1058A0008B519C4D8093E0239093E123260F371F6B
:1058B0002093E2233093E32308958091E4238068CA
:1058C000C7DFE091E223F091E32380818695817028
:1058D00008958091E4238F77BBDFA091E223B091FC
:1058E000E3238C9185FF0DC0E091E023F091E1234B
:1058F00012968D919C911397E05CFF4F808381E01D
:10590000089580E008958091E4238F77A1DFA0912E
:10591000E223B091E3238C9184FF0DC0E091E0235A
:10592000F091E12312968D919C911397E05CFF4FCB
:10593000808381E0089580E008958091E4238F774B
:1059400087DFE091E223F091E32380818D788083EB
:10595000E091E223F091E323808181608083E091F4
:10596000E023F091E123EF5BFF4F10828091E4236D
:1059700080686EDFE091E223F091E3238081816013
:105980008083E091E023F091E123EF5BFF4F1082F1
:105990000895E091E223F091E32381818460818383
:1059A000E091E223F091E3238181807C803459F4FB
:1059B0008091E42380584CDFE091E223F091E323CF
:1059C00081818460818308951F93CF93DF93C82FD3
:1059D000162FD42F3DDFE091E223F091E3231182D3
:1059E000E091E223F091E3238C2F881F8827881F02
:1059F000880F8083E091E223F091E3231183E0910B
:105A0000E223F091E323128213822091E02330916C
:105A1000E12324833583CC0FCC0BCD23F901E05C4B
:105A2000FF4FC0833196108281E0DF91CF911F91AB
:105A30000895CF92DF92EF92FF920F931F93CF932F
:105A4000DF93C62E8C01D12CDC1409F43FC0F80181
:105A5000D081D11104C0D3940B5F1F4FF5CFF80153
:105A6000E180F28093818481823010F488E001C06B
:105A700088E128E030E0C0E02E153F0520F4CF5F3C
:105A8000220F331FF9CFC82B8D2F8F70863010F067
:105A900080E01DC0CF7EF1E4EF16F104C8F7992332
:105AA00021F0913021F4C06C0AC0C06403C0C0680A
:105AB000911105C04E2D6C2F80E88D0F85DF4E2D86
:105AC0006C2F8D2F81DF8111C6CFE2CF81E0DF9176
:105AD000CF911F910F91FF90EF90DF90CF9008959D
