:1000000001C600001BC6000019C6000017C600008C
:1000100015C6000013C6000011C600000FC6000080
:100020000DC600000BC6000009C6000007C6000090
:1000300005C6000003C6000001C60000FFC50000A1
:10004000FDC50000FBC50000F9C50000F7C50000B4
:10005000F5C50000F3C500000C94AF1DEFC500000E
:10006000EDC50000EBC50000E9C50000E7C50000D4
:10007000E5C50000E3C50000E1C50000DFC50000E4
:10008000DDC50000DBC500000C946C1DD7C5000069
:10009000D5C50000D3C50000D1C50000CFC5000004
:1000A000CDC50000CBC50000C9C50000C7C5000014
:1000B000C5C50000C3C50000C1C50000BFC5000024
:1000C000BDC50000BBC50000B9C50000B7C5000034
:1000D000B5C50000B3C50000B1C50000AFC5000044
:1000E000ADC50000ABC50000A9C50000A7C5000054
:1000F000A5C50000A3C50000A1C500009FC5000064
:100100009DC500009BC5000099C5000097C5000073
:1001100095C5000093C5000091C500008FC5000083
:100120008DC500008BC5000089C5000087C5000093
:1001300085C5000083C5000081C500007FC50000A3
:100140007DC500007BC5000079C500000C944A1EE7
:1001500075C5000073C5000071C500006FC50000C3
:100160006DC500006BC5000069C5000067C50000D3
:1001700065C5000063C5000061C500005FC50000E3
:100180005DC500005BC5000059C5000057C50000F3
:1001900055C5000053C5000051C500004FC5000003
:1001A0004DC500004BC5000049C5000047C5000013
:1001B00045C5000043C5000041C500003FC5000023
:1001C0003DC500003BC5000039C5000037C5000033
:1001D00035C5000033C5000031C500002FC5000043
:1001E0002DC500002BC5000029C5000027C5000053
:1001F00025C500000C94363021C500002E035200A6
:1002000065007600450020005200650062006F0026
:100210006F0074006500640020002800690063001E
:1002200065006D0061006E00290000001C034300A2
:10023000680061006D0065006C0065006F006E0075
:100240004D0069006E006900000004030904090202
:100250003E00020100C03209040000010202010058
:1002600005240010010424020605240600010705E8
:1002700082030800FF09040100020A0000000705CC
:100280000402100005070583021000051201100189
:1002900002000008EB03442001000102DC01FA0621
:1002A0000000FB06FC06FD06FE06FF06E606E70666
:1002B000F406EA06F006F306EB06EF06100000006F
:1002C0000000000004012E1F0000651FDB1FF41F4B
:1002D000FE06FF06E606AE2132255F25A425A925E8
:1002E00097259F25000400000000000004002E1F39
:1002F0000000651FDB1FF41FFE06FF06E606AE21A9
:1003000032255F25A425A92597259F2500040000F7
:100310000000000007002E1F0000651FE51FF41FEE
:10032000FE06FF06E606AE2132255F25A425A92597
:1003300097259F25001000000000000004002E1FDC
:100340000000651FE51FF41FFE06FF06E606AE214E
:1003500032255F25A425A92597259F25001000009B
:100360000000000007002E1F0000651FEF1FF41F94
:10037000FE06FF06E606AE2132255F25A425A92547
:1003800097259F25400100000000000004002E1F5B
:100390000000651FF428F028FE06FF06E6062C295B
:1003A0007F289E28F006F306EB06EF06B400000057
:1003B0000000000007002E1F0000651F0629F0281E
:1003C000FE06FF06E6062C297F289E28F006F30687
:1003D000EB06EF061C0200000000000007002E1FC5
:1003E0000000651F1929F028FE06FF06E6062C29E5
:1003F0007F289E28F006F306EB06EF069C0300001C
:1004000000000000070000434C4F5345440000002B
:1004100000000000000000000000000000000000DC
:1004200000000000000000014D465F434C41535363
:1004300049435F314B000000000000000000000055
:100440000000000000000000024D465F434C415395
:100450005349435F314B5F3742000000000000000A
:10046000000000000000000000034D465F434C41C7
:10047000535349435F344B0000000000000000006C
:1004800000000000000000000000044D465F434CE7
:1004900041535349435F344B5F3742000000000033
:1004A0000000000000000000000000054D465F4312
:1004B0004C41535349435F4D494E490000000000F1
:1004C000000000000000000000000000064E544143
:1004D000473231330000000000000000000000003F
:1004E00000000000000000000000000000074E5463
:1004F00041473231350000000000000000000000DC
:100500000000000000000000000000000000084E95
:100510005441473231360000000000000000000066
:1005200000000000000000000000000000000001CA
:1005300000000100010100000101000100000100B4
:1005400001010001000001010000010001010000A3
:100550000101000100000101000001000101000192
:100560000000010001010000010100010000010084
:100570000101000100000101000001000101000172
:100580000000010001010000010100010000010163
:100590000000010001010000010100010000010054
:1005A0000101000100000101000001000101000043
:1005B0000101000100000101000001000101000132
:1005C0000000010001010000010100010000010123
:1005D0000000010001010000010100010000010014
:1005E0000101000100000101000001000101000102
:1005F00000000100010100000101000100000100F4
:1006000001010001000001010000010001010000E2
:1006100001010001000001010000010001010001D1
:1006200000000100010100000101000100000100C3
:100630008040C020A060E0109050D030B070F00832
:100640008848C828A868E8189858D838B878F804AE
:100650008444C424A464E4149454D434B474F40CD2
:100660008C4CCC2CAC6CEC1C9C5CDC3CBC7CFC0254
:100670008242C222A262E2129252D232B272F20AD2
:100680008A4ACA2AAA6AEA1A9A5ADA3ABA7AFA064E
:100690008646C626A666E6169656D636B676F60E72
:1006A0008E4ECE2EAE6EEE1E9E5EDE3EBE7EFE01F7
:1006B0008141C121A161E1119151D131B171F109A2
:1006C0008949C929A969E9199959D939B979F9051E
:1006D0008545C525A565E5159555D535B575F50D42
:1006E0008D4DCD2DAD6DED1D9D5DDD3DBD7DFD03C4
:1006F0008343C323A363E3139353D333B373F30B42
:100700008B4BCB2BAB6BEB1B9B5BDB3BBB7BFB07BD
:100710008747C727A767E7179757D737B777F70FE1
:100720008F4FCF2FAF6FEF1F9F5FDF3FBF7FFF4325
:100730004C4F534544000000000000000000000042
:1007400000000052414E444F4D5F554944000000A7
:10075000000000000000005549445F4C4546545FCE
:10076000494E4352454D454E5400005549445F5251
:10077000494748545F494E4352454D454E540055F4
:1007800049445F4C4546545F44454352454D454EB0
:100790005400005549445F52494748545F4445431B
:1007A00052454D454E5400535749544348434152D6
:1007B0004400000000000000000000524541444F8A
:1007C0004E4C5900000000000000000000000043F3
:1007D0004152445F46554E4354494F4E000000007D
:1007E0000000000006200006100006080006048035
:1007F0000608800604800602800601080B0B100024
:100800000100080008000100000100000800F800D5
:10081000000804000200000800080B0B1000010093
:10082000100008000200000100000800F80000109D
:1008300008000400001000090C0C11000200100058
:1008400010000200000200001000F0010010100073
:100850000800002000090C0C10000200200010000D
:100860000400000100001000F00000402000100013
:100870000040000903030A00010080000800100086
:10088000000400000800F803002040002000008061
:1008900000257500253575206D5600257500256CE1
:1008A000750052414E444F4D004368616D656C6563
:1008B0006F6E4D696E692D2573207625642E256433
:1008C000202825733A20257329000D0A000D0A00FF
:1008D0000D0A000D0A000D0A000D0A0064313030C7
:1008E0003A4F4B0000000000000000000000000034
:1008F0000000000000000000000000000065313032
:10090000313A4F4B20574954482054455854000021
:1009100000000000000000000000000000006E3138
:1009200031303A57414954494E4720464F5220589A
:100930004D4F44454D00000000000000000000C87D
:100940003230303A554E4B4E4F574E20434F4D4D5F
:10095000414E4400000000000000000000000000C4
:10096000C93230313A494E56414C494420434F4DEB
:100970004D414E44205553414745000000000000C2
:1009800000CA3230323A494E56414C494420504117
:1009900052414D4554455200000000000000000047
:1009A0000000CB3230333A54494D454F5554000086
:1009B0000000000000000000000000000000000037
:1009C00000000056455253494F4E00000000000001
:1009D0000000000000000000009B16434F4E4649F7
:1009E0004700000000000000000000CF160000C417
:1009F00016BE16554944000000000000000000002B
:100A00000000000000000094176A17415451410093
:100A1000000000000000000000000000000000FCDA
:100A200016D51653414B00000000000000000000E6
:100A3000000000000000004F172F17524541444F9F
:100A40004E4C59000000000000000000000000E7CC
:100A500017DB1755504C4F414400000000000000C8
:100A6000000000FA17000000000000444F574E4CF1
:100A70004F41440000000000000000FF170000008C
:100A800000000052455345540000000000000000E3
:100A900000000004180000000000005550475241BB
:100AA00044450000000000000000000F1800000096
:100AB0000000004D454D53495A450000000000001C
:100AC0000000000000000000001A18574F524B4D64
:100AD000454D0000000000000000002F190000003C
:100AE000002B19574F524B4D454D55504C4F4144DB
:100AF0000000003319000000000000574F524B4D1A
:100B0000454D444F574E4C4F4144003819000000AA
:100B100000000055494453495A45000000000000B8
:100B20000000000000000000003D19425554544FE1
:100B30004E0000000000000000000053190000619A
:100B4000195919425554544F4E5F4C4F4E470000AF
:100B50000000006C1900007A197219534554544969
:100B60004E47000000000000000000000000008B65
:100B7000198519434C454152000000000000000057
:100B8000000000961900000000000048454C50008D
:100B90000000000000000000000000A61900000096
:100BA0000000005253534900000000000000000004
:100BB000000000000000000000E5195549444D4FB9
:100BC0004445000000000000000000000000001686
:100BD0001A001A434C454152414C4C0000000000A1
:100BE000000000281A0000000000000000000000C3
:100BF00000000000000000000000000000000000F5
:100C00000000000011241FBECFEFCDBFDFE2DEBF2A
:100C100010E2A0E0B0E2E6E5FEE602C005900D922B
:100C2000AA3DB107D9F727E2AAEDB0E201C01D92B3
:100C3000AC34B207E1F703D00C94293757C05CD02D
:100C40000E948A132DD387D3F8D00E943A1642D13E
:100C500086D20ED4B6D0C1E080910C0A80FF0CC0C1
:100C6000C0930C0A91D33AD10E9457167FD2E091DB
:100C70004D21F0914E2109950E943E16E0914521AB
:100C8000F09146210995E8CF292F30E02230310537
:100C900059F02330310569F021303105F9F482E152
:100CA00090E02CE832E01EC08EE390E02EE432E0CB
:100CB00019C0882349F0813061F0823079F48EE2E6
:100CC00090E02CEF31E00EC084E090E02AE432E0C6
:100CD00009C08CE190E02CE232E004C080E090E0BA
:100CE00020E030E0FA012083318308951F920F92B3
:100CF0000FB60F921124FFCF8091780083FF0AC0B6
:100D000088E08093780088ED84BF81E08093800044
:100D1000FD95FEC0809150008660809350008091C8
:100D2000510081FFFCCF8091510082FFFCCF1092D7
:100D3000560081E08093600098ED94BF809340005E
:100D400023ED30E32093260A3093270A96E0909310
:100D5000000A8093430080930004089588ED84BFC7
:100D600081E080937900089588ED84BF8BE18093C2
:100D7000800008958BEC8093520080915000886031
:100D8000809350008091510083FFFCCF84EC8093CE
:100D900055008091500080618093500080915100F7
:100DA00084FFFCCF0895E0E4F0E084818E7F8483AB
:100DB000E0E5F0E080818F7E80838081877F808383
:100DC000089587E08093A20078940895089580E0C4
:100DD00090E008950895FC0110821182089508950D
:100DE000FC0110820895089524E0FC0111922A95D7
:100DF000E9F70895089508950895089508950895C8
:100E0000CF93DF93E0916A21F0916B21828398E286
:100E1000899FB001112462567D4F48E250E081E481
:100E200091E20E944233C1E4D1E2E881F98109955F
:100E3000EE81FF81DF91CF910994E0916A21F091D9
:100E40006B218281DDCF0F931F93E0916A21F09196
:100E50006B218B019C01428169E086E094E0A4D281
:100E60001F910F9108951F93CF93DF931F92CDB7DA
:100E7000DEB79E012F5F3F4FAC0169E086E094E052
:100E8000ABD2182F882311F08981BADF812F0F9000
:100E9000DF91CF911F9108959B01AC0169E086E03D
:100EA00094E0C1C228E2829FC0011124FC01E454F5
:100EB000FD4F6591759185919491089528E2829FE7
:100EC000C0011124FC01E054FD4F6591759185919D
:100ED0009491089508950C94343308950E94343306
:100EE0000E9434330E9434330C943433CF93DF9315
:100EF000EC0161507109DA01420F531FFC01CF016F
:100F00008C1B9D0BA417B50721F41082DF91CF91A4
:100F1000089562307105C8F39D91392F32953F7065
:100F20003A3010F4305D01C0395C30839F709A30E4
:100F300010F4905D01C0995C918332966250710902
:100F4000DECFCF93DF93EC01DA0120E030E05C915B
:100F5000552351F111969C911197992339F1261738
:100F6000370711F180ED850F8A3020F08FEB850F68
:100F70008630E0F480ED890F8A3020F04FEB490F86
:100F80004630A0F4E52FF0E0513408F0F797E295F1
:100F9000E07F913410F4982F01C097539E2B9993C2
:100FA0002F5F3F4F1296D3CFC90102C080E090E07F
:100FB000DF91CF9108950F931F93CF93DF93CDB718
:100FC000DEB76097CDBFDEBF8130B9F4E091532129
:100FD000F0915421CE010196099510E0809167218E
:100FE000181708F099C077DFE1E0F0E0EC0FFD1F83
:100FF000E10FF11D80831F5FF1CF8230B9F5E091E1
:101000005321F09154218E010F5F1F4FC8010995A4
:1010100020916721F80191E08E2F801B8217F8F450
:10102000992339F0808191E08F3F09F090E08F5F44
:1010300080833196F1CF843009F049C0E09153218B
:10104000F09154218E010F5F1F4FC8010995209127
:101050006721F80191E08E2F801B821770F1E091DB
:101060005521F0915621C801099571C0833019F7B7
:10107000E0915321F0915421CE0101960995809180
:10108000672141E0815008F447C04423D9F3282F59
:1010900030E0E1E0F0E0EC0FFD1FE20FF31F908184
:1010A00041E09F3F09F040E0E1E0F0E0EC0FFD1F80
:1010B000E20FF31F9F5F9083E5CF992331F080818A
:1010C00091E0811190E0815080833196C4CF8530CA
:1010D00051F5E0915321F0915421CE0101960995EB
:1010E0008091672141E08150B8F04423E1F3282F3B
:1010F00030E0E1E0F0E0EC0FFD1FE20FF31F908124
:1011000041E0911140E0E1E0F0E0EC0FFD1FE20F63
:10111000F31F91509083E7CFE0915521F091562134
:10112000CE010196A1CF863011F4DDD010C08730FA
:1011300039F49091682181E089278093682107C064
:10114000883029F4E0914F21F09150210995609663
:10115000CDBFDEBFDF91CF911F910F910895E0E0E9
:10116000F6E080E4828388E1868B089590910806FA
:101170008091DA2096FD10C08A3050F08A30B9F4A0
:10118000E0916A21F0916B21818115DF8091DA2055
:101190008F5F8093DA20089581508A3030F4E09197
:1011A0006A21F0916B21808106DF1092DA20089588
:1011B000CF93615071094FE257E020E0CCE2FA0191
:1011C000DC01CD013491311108C0283071F0CC938D
:1011D00061507109CD01019608C065317105A8F310
:1011E0003D93319661507109ECCF2F5F4C5E5F4F9C
:1011F000293029F7FC011082CF910895E9E6F1E248
:1012000098E0811102C0638303C0813009F46483D4
:10121000915035969111F5CF0895282FCB012111CA
:101220000AC0E0916A21F0916B21608124E1629F04
:10123000B00111240BC0213069F4E0916A21F091D2
:101240006B216181E4E16E9FB0011124615D784FF3
:101250000C945433FB0110820895EF92FF920F9388
:101260001F93CF93DF93D82F7B010FE217E0C0E0ED
:10127000B801C7010E944B33892B29F46C2F8D2FA5
:10128000BDDF81E006C0CF5F0C5E1F4FC93081F724
:1012900080E0DF91CF911F910F91FF90EF90089523
:1012A0004CE250E060E070E089E691E20C94823616
:1012B0004CE250E060E070E089E691E20C942F3659
:1012C000883078F48093692125E0829FC001112441
:1012D00084599E4D80936A2190936B21AEDD81E00D
:1012E000089580E008953091692129E045E021507A
:1012F000B1F0832F90E0019687709927382FBC01B9
:101300006F5F7F4F469FF001479FF00D1124E75913
:10131000FE4D5081552359F3D3DF8111C9CF089574
:10132000FC018EE480838FE481838EE2828380914E
:101330006921805D838314820895FC01218121113C
:1013400005C080818053883008F4BACF80E00895CA
:1013500080939421ADCF8FE0809381068CE38093BE
:101360000106089590E0FC01EE0FFF1F8E0F9F1FF6
:10137000FC01ED51F84FA591B491FC01EB51F84FF0
:10138000849115968C930895A0E0B6E016961C9271
:101390001697E0E8F6E016828CE316968C938FE0C1
:1013A000868380916921DECF0F931F93FC01662312
:1013B00079F094916150941309C0BF016F5F7F4F22
:1013C000A801C9010E94543381E003C0B196EFCF58
:1013D00080E01F910F910895CF92DF92EF92FF92DC
:1013E0001F93CF93DF93EC017A016901162F11232C
:1013F00089F0BE016F5F7F4FC7010E944B331150D0
:10140000892B31F4FE01C491F601C08381E003C051
:10141000A196EDCF80E0DF91CF911F91FF90EF90EB
:10142000DF90CF900895CF930196CCE26623D1F060
:10143000FC01DA01AD017491772341F021153105EA
:10144000A9F07D93319621503109F4CF623038F004
:101450002115310559F0FD01C0834F5F5F4F615089
:101460008196E4CF232B11F0FA011082CF910895D9
:10147000E0E0F2E081E08083118292E0928393E0E9
:10148000948380A388E381A30895809120028068DB
:10149000809320028091230280FFFCCF81E0809323
:1014A0002302A0911002B0911102AE5BB109B7FF07
:1014B00002C0A0E0B0E029E637E54BE050E00C9434
:1014C000E7320895E0ECF1E084858860848780E06D
:1014D00094E0809395219093962181E00895FF9266
:1014E0000F931F93CF93DF93CDB7DEB72897CDBF70
:1014F000DEBF88E0E5E2F0E2DE01119601900D9298
:101500008A95E1F7FFB600E010E048E050E0B8014E
:10151000CE0101960E949D36085F1F4F011584E0A1
:10152000180799F7FFBE81E02896CDBFDEBFDF9197
:10153000CF911F910F91FF900895CF93DF93CDB777
:10154000DEB72897CDBFDEBF2091DB20222309F430
:101550005CC02091A7213091A8218217930708F041
:1015600054C020E147ED209366064093A0093091D6
:10157000A10936FFFCCF3091A10937FFFCCF309194
:10158000A0091092A0093091A10936FFFCCF30913B
:10159000A10937FFFCCF3091A0092093650637FFE2
:1015A000E2CF20E120936606A0E0B0E00090A12108
:1015B00004C0880F991FAA1FBB1F0A94D2F78D83FE
:1015C0009E83AF83B88781E889838F818A838E81E8
:1015D0008B838D818C83FE013196CE010596E817B1
:1015E000F90771F021912093A0092091A10926FF0C
:1015F000FCCF2091A10927FFFCCF2091A009EFCFBC
:1016000080E18093650681E001C080E02896CDBF2F
:10161000DEBFDF91CF910895CF93DF93CDB7DEB7D3
:101620002897CDBFDEBF2091DB20222309F45AC0CA
:101630002091AB213091AC218217930708F052C062
:1016400020E147ED209366064093A0093091A1095F
:1016500036FFFCCF3091A10937FFFCCF3091A009B4
:101660001092A0093091A10936FFFCCF3091A10959
:1016700037FFFCCF3091A0092093650637FFE2CFFA
:1016800020E1209366060090A22102C0880F991FD6
:101690000A94E2F7A0E0B0E08D839E83AF83B88721
:1016A00080E589838F818A838E818B838D818C8372
:1016B000FE013196CE010596E817F90771F02191E8
:1016C0002093A0092091A10926FFFCCF2091A10918
:1016D00027FFFCCF2091A009EFCF80E18093650622
:1016E00081E001C080E02896CDBFDEBFDF91CF91C1
:1016F0000895CF93DF93CDB7DEB72897CDBFDEBF78
:101700002091DB20222309F46EC02091B72130E024
:101710008217930708F067C020E147ED2093660623
:101720004093A0093091A10936FFFCCF3091A10967
:1017300037FFFCCF3091A0091092A0093091A10988
:1017400036FFFCCF3091A10937FFFCCF3091A009C3
:101750002093650637FFE2CF20E1209366060097CD
:1017600061F0A0E0B0E00090A42104C0880F991FB0
:10177000AA1FBB1F0A94D2F710C080E090E04CDF94
:1017800081E090E0A0E0B0E00090A32104C0880FC9
:10179000991FAA1FBB1F0A94D2F78D839E83AF8324
:1017A000B8878CE789838F818A838E818B838D8133
:1017B0008C83FE013196CE010596E817F90771F08A
:1017C00021912093A0092091A10926FFFCCF20910F
:1017D000A10927FFFCCF2091A009EFCF80E18093E2
:1017E000650681E001C080E02896CDBFDEBFDF91B5
:1017F000CF910895FF920F931F93CF93DF93CDB7AF
:10180000DEB72597CDBFDEBF80E18093650682E01D
:101810008093660688E0809365068AE1809361067E
:101820001092A6091092A70980EC8093A50988E17F
:101830008093A40980E127ED809366062093A00998
:101840009091A10996FFFCCF9091A10997FFFCCF41
:101850009091A0091092A0099091A10996FFFCCF48
:101860009091A10997FFFCCF9091A0098093650604
:1018700097FFE2CF80E1809366068FE98093A0090D
:101880008091A10986FFFCCF8091A10987FFFCCF41
:101890008091A009FE013196CE0106968F01E817CE
:1018A000F90771F01092A0092091A10926FFFCCF41
:1018B0002091A10927FFFCCF2091A0092193EFCF10
:1018C00080E1F82EF09265068981809397218A81C4
:1018D000809398212B81209399219D8190939A2127
:1018E000982F92959695977090939B218F7190E089
:1018F00080939C2190939D21322F3295369537709D
:1019000030939E212F7130E020939F213093A021AE
:1019100004978530910508F0A1C02EE1289FB00101
:10192000299F700D11246550784F4EE150E081EAF7
:1019300091E20E944233809197218F3109F08EC04D
:1019400080919B21813009F089C0F092660687ED75
:101950008093A0098091A10986FFFCCF8091A10905
:1019600087FFFCCF8091A0091092A0098091A10966
:1019700086FFFCCF8091A10987FFFCCF8091A00951
:1019800090E19093650680FD65C080912D20909137
:101990002E20A0912F20B091302089839A83AB8391
:1019A000BC8380E127ED809366062093A009909187
:1019B000A10996FFFCCF9091A10997FFFCCF9091D0
:1019C000A0091092A0099091A10996FFFCCF9091D7
:1019D000A10997FFFCCF9091A0098093650697FF1E
:1019E000E2CF80E180936606F801CE0105968E175E
:1019F0009F0771F021912093A0092091A10926FF52
:101A0000FCCF2091A10927FFFCCF2091A009EFCFA7
:101A100080E18093650627ED809366062093A009F8
:101A20009091A10996FFFCCF9091A10997FFFCCF5F
:101A30009091A0091092A0099091A10996FFFCCF66
:101A40009091A10997FFFCCF9091A0098093650622
:101A500097FFE2CF81E08093DB2001C080E02596F4
:101A6000CDBFDEBFDF91CF911F910F91FF90089501
:101A7000CF92DF92EF92FF920F931F93CF93DF935A
:101A8000CDB7DEB72897CDBFDEBFE091DB20EE23D8
:101A9000B9F0011511052105310591F0C090BB2168
:101AA000D090BC21E090BD21F090BE21C01AD10A97
:101AB000E20AF30AE1E0C416D506E606F70608F4E2
:101AC000E0E0E0FF68C0F0E1A7EDF0936606A093C8
:101AD000A009E091A109E6FFFCCFE091A109E7FF91
:101AE000FCCFE091A0091092A009E091A109E6FFC6
:101AF000FCCFE091A109E7FFFCCFE091A009F093B2
:101B00006506E7FFE2CFE0E1E09366064D835E8382
:101B10006F8378874BE049834F814A834E814B83A3
:101B20004D814C83FE013196AE014B5F5F4FE41750
:101B3000F50771F061916093A0096091A10966FFBA
:101B4000FCCF6091A10967FFFCCF6091A009EFCFA6
:101B50001092A0094091A10946FFFCCF4091A10934
:101B600047FFFCCF4091A009FC010150110970F022
:101B70001092A0098091A10986FFFCCF8091A10954
:101B800087FFFCCF8091A0098193EFCF80E1809304
:101B9000650681E001C080E02896CDBFDEBFDF9101
:101BA000CF911F910F91FF90EF90DF90CF9008950C
:101BB0002F923F924F925F926F927F928F929F925D
:101BC000AF92BF92CF92DF92EF92FF920F931F934B
:101BD000CF93DF93CDB7DEB76A97CDBFDEBF8D8BD6
:101BE0009E8B2A013B01480159018091DB2088230B
:101BF000B9F0011511052105310591F04091BB2186
:101C00005091BC216091BD217091BE21401B510BB0
:101C1000620B730B81E0441555056605770508F4E2
:101C200080E080FFFFC01D861E861F86188A10E197
:101C300000E11E0125E0220E311CC090A521D090AC
:101C4000A621C601A0E0B0E08F8B988FA98FBA8F34
:101C5000C301B2012F89388D498D5A8D0E94AC3253
:101C600069017A010090A12104C0CC0CDD1CEE1C9E
:101C7000FF1C0A94D2F7C98ADA8AEB8AFC8ACF88D9
:101C8000D88CE98CFA8C8C149D04AE04BF0428F027
:101C9000C61AD70AE80AF90A02C07501640100935E
:101CA000660627ED2093A0092091A10926FFFCCF0D
:101CB0002091A10927FFFCCF2091A0091092A00933
:101CC0002091A10926FFFCCF2091A10927FFFCCF7D
:101CD0002091A0091093650627FFE1CF00936606C7
:101CE00029893A894B895C892D833E834F835887A4
:101CF00033E539832F812A832E812B832D812C83F9
:101D0000FE013196E215F30571F021912093A009AF
:101D10002091A10926FFFCCF2091A10927FFFCCF2C
:101D20002091A009EFCF109365061093660647ED4A
:101D30004093A0092091A10926FFFCCF2091A10981
:101D400027FFFCCF2091A0091092A0092091A109A2
:101D500026FFFCCF2091A10927FFFCCF2091A009ED
:101D60001093650627FFE1CF0093660629893A891B
:101D70004B895C89262B372B482B592B29873A878F
:101D80004B875C8732E839838B858A838A858B838E
:101D900089858C83FE013196E215F30571F08191FE
:101DA0008093A0098091A10986FFFCCF8091A109B1
:101DB00087FFFCCF8091A009EFCFC601ED89FE8996
:101DC0004D855E85E40FF51F019770F021912093FA
:101DD000A0092091A10926FFFCCF2091A10927FF8E
:101DE000FCCF2091A009F0CF109365068C189D08B8
:101DF000AE08BF084C0C5D1C6E1C7F1C8D859E853B
:101E0000AF85B8898C0D9D1DAE1DBF1D8D879E872A
:101E1000AF87B88B81149104A104B10409F00DCFF0
:101E200081E001C080E06A96CDBFDEBFDF91CF9137
:101E30001F910F91FF90EF90DF90CF90BF90AF90E8
:101E40009F908F907F906F905F904F903F902F90DA
:101E50000895CF93DF9300D000D0CDB7DEB7809147
:101E6000DB20882309F468C08091312090913220D2
:101E7000A0913320B091342089839A83AB83BC83B3
:101E800080E127ED809366062093A0099091A10937
:101E900096FFFCCF9091A10997FFFCCF9091A009EC
:101EA0001092A0099091A10996FFFCCF9091A109F1
:101EB00097FFFCCF9091A0098093650697FFE2CF32
:101EC00080E180936606FE013196CE010596E81703
:101ED000F90771F021912093A0092091A10926FF13
:101EE000FCCF2091A10927FFFCCF2091A009EFCFC3
:101EF00080E18093650627ED809366062093A00914
:101F00009091A10996FFFCCF9091A10997FFFCCF7A
:101F10009091A0091092A0099091A10996FFFCCF81
:101F20009091A10997FFFCCF9091A009809365063D
:101F300097FFE2CF81E001C080E02496CDBFDEBFF5
:101F4000DF91CF9108952F923F924F925F926F92BF
:101F50007F928F929F92AF92BF92CF92DF92EF9239
:101F6000FF920F931F93CF93DF93CDB7DEB72E97DA
:101F7000CDBFDEBF4B015C0129013A012DB73EB751
:101F80002C873D87672B682B692B79F48091BB21C7
:101F90009091BC21A091BD21B091BE2184159505E1
:101FA000A605B70511F455DF13C28091A5219091C4
:101FB000A621A0E0B0E0481659066A067B06D0F4D8
:101FC000CDB6DEB64DB75EB7441955094DBF5EBFFD
:101FD0008DB79EB701967C01A2016FEF70E00E9461
:101FE000793393018201B501A401C701E1DDCDBEC2
:101FF000DEBEEEC18091DB208823B9F0411451048C
:102000006104710491F04091BB215091BC21609119
:10201000BD217091BE21441955096609770981E0F7
:10202000481559056A057B0508F480E080FFCFC19B
:10203000C090AD21D090AE21E090AF21F090B021C2
:10204000C301B201A70196010E94AC3229833A83F1
:102050004B835C836D8379878A879B8729803A804D
:102060002114310409F48AC0C501B401A701960105
:102070000E94AC328901672B682B692B99F4298166
:102080003A814B815C8144275527C701B6010E94E4
:102090008932860E971EA81EB91E4D8059846A8407
:1020A0007B843AC02A94232899F129803A80A1E0C0
:1020B0002A1A310889010F5F1F4F0C9DC0010D9D29
:1020C000900D1C9D900D1124881999099C0140E0E8
:1020D00050E029833A834B835C83892B19F0C50137
:1020E000B40131DFD101A70196010E94DD32860ED5
:1020F000971EA81EB91E29813A814B815C81260F4B
:10210000371F481F591F421A530A640A750A04C030
:1021100000E010E0212C312C8091AD219091AE2176
:10212000A091AF21B091B021C816D906EA06FB06EE
:1021300081F08091A9219091AA21A0E0B0E0C81679
:10214000D906EA06FB0651F0EDE9CE2EEAE0DE2ED6
:1021500009C079E7C72E7BE0D72E04C06CE0C62EFD
:102160006BE0D62E7101E00EF11EE016F10631F0A3
:10217000C801F60109950F5F1F4FF7CF0091A92104
:102180001091AA216801E12CF12CC301B201A70131
:1021900096010E94AC322D833E834F835887698716
:1021A0007A878B879E872D803E802114310409F425
:1021B00093C0C501B401A70196010E94AC322983E6
:1021C0003A83672B682B692B99F42D813E814F81CF
:1021D000588544275527C701B6010E948932860ECB
:1021E000971EA81EB91E49845A846B847E843AC007
:1021F0002A94232899F12D803E8081E0281A310805
:10220000D9011196A983BA830A9FC0010B9F900D33
:102210001A9F900D1124881999099C0140E050E003
:102220002D833E834F835887892B19F0C501B40154
:102230008ADE9801D1010E94CE32860E971EA81E1A
:10224000B91E461A570A680A790A8D819E81AF81A4
:10225000B885481A590A6A0A7B0A04C019821A8288
:10226000212C312C8091AD219091AE21A091AF21F4
:10227000B091B021C816D906EA06FB0681F080911C
:10228000A9219091AA21A0E0B0E0C816D906EA06DB
:10229000FB0651F05DE9E52E5AE0F52E09C049E74D
:1022A000E42E4BE0F42E04C03CE0E32E3BE0F32EA2
:1022B00009811A81020D131D49815A8104171507DE
:1022C00059F089819A81F701099529813A812F5F17
:1022D0003F4F29833A83F0CFC090A521D090A6210B
:1022E000C601A0E0B0E089839A83AB83BC83C301BD
:1022F000B20129813A814B815C810E94AC32290173
:102300003A017901232B11F481E062C0C501B401C7
:1023100029813A814B815C810E94AC328901672B13
:10232000682B692BF1F091E049165104B1F072016C
:10233000A1E0EA1AF1080F5F1F4FC09E9001C19EF5
:10234000300DD09E300D11242819390951F040E08C
:1023500050E0C501B401F7DD04C000E010E0E12C5D
:10236000F12C8091AD219091AE21A091AF21B0913F
:10237000B02129813A814B815C81281739074A07AE
:102380005B0781F08091A9219091AA21A0E0B0E0A3
:10239000281739074A075B0751F02DE9C22E2AE0BA
:1023A000D22E09C099E7C92E9BE0D92E04C08CE03B
:1023B000C82E8BE0D82EE00EF11E0E151F0509F475
:1023C000A3CFC801F60109950F5F1F4FF6CF80E03C
:1023D0002C853D852DBF3EBF2E96CDBFDEBFDF9144
:1023E000CF911F910F91FF90EF90DF90CF90BF9012
:1023F000AF909F908F907F906F905F904F903F90A5
:102400002F900895CF92DF92EF92FF926A017B01A5
:102410002091DC203091DD204091DE205091DF20A2
:10242000A82FB0E00E94DD326C0D7D1D8E1D9F1D1A
:10243000FF90EF90DF90CF9008950F931F939091AE
:102440006921981309C000915F21109160212091AA
:102450006121309162210FC090E0019625E0289F14
:10246000F001299FF00D1124E759FE4D80810E9453
:1024700052078B019C016091E0207091E1208091D6
:10248000E2209091E3200F3F4FEF14072407340719
:1024900039F0061717072807390710F4C901B801E2
:1024A0001F910F91089580916921C7CF8F929F92BC
:1024B000AF92BF92CF92DF92EF92FF92CF93C82F4D
:1024C0004A015B01BADF6B017C012091DC20309175
:1024D000DD204091DE205091DF20AC2FB0E00E9443
:1024E000DD32DC01CB01880D991DAA1DBB1DBC018D
:1024F000CD016C0D7D1D8E1D9F1DCF91FF90EF9026
:10250000DF90CF90BF90AF909F908F9008958F9263
:102510009F92AF92BF92CF92DF92EF92FF92CF93B2
:10252000C82F809169218C1309C0809063219090FD
:102530006421A0906521B090662110C08C2F90E09E
:10254000019625E0289FF001299FF00D1124E759FD
:10255000FE4D80810E945E074B015C01C090DC2033
:10256000D090DD20E090DE20F090DF208C2F65DF22
:10257000A7019601261B370B480B590BCA01B9015D
:102580003FEF83169306A306B30639F08616970627
:10259000A806B90610F4C501B401CF91FF90EF90E1
:1025A000DF90CF90BF90AF909F908F9008958091D3
:1025B0006921ADCFCF92DF92EF92FF92CF93C82FD8
:1025C0003CDF6B017C018C2FA2DF6C0D7D1D8E1D0D
:1025D0009F1DCF91FF90EF90DF90CF900895909145
:1025E0006921981731F091E0883008F090E0892F48
:1025F00001C081E0817008954F925F926F927F9247
:102600008F929F92AF92BF92CF92DF92EF92FF9202
:102610000F931F935091E6205523E1F028013901D3
:102620004B015C01842FDBDF8823A1F0811491042E
:10263000A104B10479F08C149D04AE04BF0450F0E1
:102640008C189D08AE08BF0881E084149504A60488
:10265000B70408F480E01F910F91FF90EF90DF9096
:10266000CF90BF90AF909F908F907F906F905F9032
:102670004F9008958F929F92AF92BF92CF92DF9228
:10268000EF92FF920F931F93CF93C82F4A015B01E4
:1026900068017901809169218C1302C004DF02C0B6
:1026A0008C2FCBDE950184014C2FA6DFCF911F919B
:1026B0000F91FF90EF90DF90CF90BF90AF909F90E1
:1026C0008F9008958F929F92AF92BF92CF92DF9298
:1026D000EF92FF920F931F93CF93C82F4A015B0194
:1026E00068017901809169218C1302C060DF02C00A
:1026F0008C2F0DDF950184014C2F7EDFCF911F9130
:102700000F91FF90EF90DF90CF90BF90AF909F9090
:102710008F900895CF936ED88823E9F18091BB21E3
:102720009091BC21A091BD21B091BE21AC01BD0111
:1027300033E076956795579547953A95D1F740934D
:10274000DC205093DD206093DE207093DF2046E094
:10275000B695A795979587954A95D1F78093E020F0
:102760009093E120A093E220B093E3208115904163
:10277000A105B10590F41092DC201092DD2010929A
:10278000DE201092DF201092E0201092E1201092C3
:10279000E2201092E320C0E001C0C1E00E94620A82
:1027A0008823B9F0809195219091962123E0969508
:1027B00087952A95E1F78093E4209093E520C197CF
:1027C00050F41092DC201092DD201092DE20109246
:1027D000DF2080E003C0CC23E1F381E081708093AF
:1027E000E620CF9108952F923F924F925F926F9281
:1027F0007F928F929F92AF92BF92CF92DF92EF9291
:10280000FF920F931F93CF93FC014B01C42F19012B
:102810002701380196018501B301A2018C2F09958A
:10282000882361F0B301A2018C2FF4010995AB015B
:10283000BC0196018501C1011BD901C080E0CF9187
:102840001F910F91FF90EF90DF90CF90BF90AF90CE
:102850009F908F907F906F905F904F903F902F90C0
:102860000895AF92BF92CF92DF92EF92FF920F93B3
:102870001F935701680179018A019B01482F62E08B
:1028800072E18AE393E1AFDF1F910F91FF90EF9028
:10289000DF90CF90BF90AF900895EF92FF920F938B
:1028A0001F93780189019A01AB01BC0180916921D4
:1028B000D8DF1F910F91FF90EF900895AF92BF92D4
:1028C000CF92DF92EF92FF920F931F93570168010F
:1028D00079018A019B01482F66E572E182E693E166
:1028E00082DF1F910F91FF90EF90DF90CF90BF900C
:1028F000AF900895EF92FF920F931F937801890193
:102900009A01AB01BC0180916921D8DF1F910F9121
:10291000FF90EF9008952F923F924F925F926F92A7
:102920007F928F929F92AF92BF92CF92DF92EF925F
:10293000FF920F931F93CF93FC014B01C42F1901FA
:102940002701380196018501B301A2018C2F099559
:10295000882361F0B301A2018C2FF4010995AB012A
:10296000BC0196018501C10123D901C080E0CF914E
:102970001F910F91FF90EF90DF90CF90BF90AF909D
:102980009F908F907F906F905F904F903F902F908F
:102990000895AF92BF92CF92DF92EF92FF920F9382
:1029A0001F935701680179018A019B01482F62E05A
:1029B00072E18AE393E1AFDF1F910F91FF90EF90F7
:1029C000DF90CF90BF90AF900895EF92FF920F935A
:1029D0001F93780189019A01AB01BC0180916921A3
:1029E000D8DF1F910F91FF90EF900895AF92BF92A3
:1029F000CF92DF92EF92FF920F931F9357016801DE
:102A000079018A019B01482F66E572E182E693E134
:102A100082DF1F910F91FF90EF90DF90CF90BF90DA
:102A2000AF900895EF92FF920F931F937801890161
:102A30009A01AB01BC0180916921D8DF1F910F91F0
:102A4000FF90EF9008954F925F926F927F92AF92B6
:102A5000BF92CF92DF92EF92FF920F931F93CF938B
:102A6000DF93EB015A0128013901FC010995461653
:102A700057066806790698F48B019C01041915091C
:102A800026093709C016D106E206F30610F49701AD
:102A90008601B301A201C501FE01099501C080E0D4
:102AA000DF91CF911F910F91FF90EF90DF90CF902A
:102AB000BF90AF907F906F905F904F900895CF92AE
:102AC000DF92EF92FF920F931F93680179018A01C1
:102AD0009B01AC016AE774E187ED92E1B4DF1F91DD
:102AE0000F91FF90EF90DF90CF900895CF92DF92FB
:102AF000EF92FF920F931F93680179018A019B0166
:102B0000AC016DE474E183E592E19DDF1F910F91CB
:102B1000FF90EF90DF90CF900895CF92DF92EF92E9
:102B2000FF920F931F93680179018A019B01AC0109
:102B300065EE74E183E592E186DF1F910F91FF90CE
:102B4000EF90DF90CF900895CF92DF92EF92FF92B7
:102B50000F931F93680179018A019B01AC0162E127
:102B600075E187ED92E16FDF1F910F91FF90EF907C
:102B7000DF90CF900895CF936CD9C82F0E946F0A31
:102B8000C11102C080E090E08170CF9108958F92D2
:102B90009F92AF92BF92CF92DF92EF92FF920F93EC
:102BA0001F936A017B014801590119DD882379F0DF
:102BB000A5019401C701B6011F910F91FF90EF90FD
:102BC000DF90CF90BF90AF909F908F90BCC980E076
:102BD0001F910F91FF90EF90DF90CF90BF90AF903B
:102BE0009F908F900895CF92DF92EF92FF920F9374
:102BF0001F93CF93C82FDEDC6B017C012091DC207A
:102C00003091DD204091DE205091DF20AC2FB0E0EC
:102C10000E94DD32AB01BC01970186018C2FB7DF2A
:102C2000CF911F910F91FF90EF90DF90CF9008957B
:102C300080916921D8CF809194210895BC0181E0D1
:102C400090E20C94C430CF93DF93FC016491EC01CB
:102C50002196662331F081E090E20E941231CE018C
:102C6000F4CFDF91CF910895AB01BC0181E090E2F8
:102C70000C94EE3080E2809362060895CF93DF9348
:102C800081E090E20E947B310E94682C81E090E21A
:102C90000E949731EC0197FD07C027D4811104C031
:102CA0008C2FDF91CF91C7C5DF91CF91089580918F
:102CB000E720813079F028F08230D9F0833011F1AB
:102CC0002EC08091680685FF2AC084E18093002091
:102CD00081E00CC080910020815080930020811100
:102CE0001EC00E94BA060E94003082E08093E72056
:102CF00016C08091680685FD12C084E18093002093
:102D000083E0F4CF809100208150809300208111D6
:102D100006C00E94C52F0E94D3061092E72037D527
:102D200087C60895089581E090E20C949F3081E079
:102D300090E20C94EB3121EC30E23F932F9329EC9D
:102D400030E23F932F931F9223E02F931F9221E0B5
:102D50002F9340ED50E25F934F9349EA58E05F9321
:102D60004F932F931F929F938F930E9480338DB721
:102D70009EB740968DBF9EBF85E6089560E071E0E6
:102D80000E94230785E60895CB010E94330788231C
:102D900021F00E94580984E608958AEC089560E0C5
:102DA00071E00E944C0785E608950F931F93CF931F
:102DB000DF9300D000D0CDB7DEB78C01E0915B216E
:102DC000F0915C21CE01039609959B818C819A83B9
:102DD000898322E030E0AE014F5F5F4F60E071E039
:102DE000C8010E94760785E62496CDBFDEBFDF913D
:102DF000CF911F910F9108950F931F93CF93DF935E
:102E000000D0CDB7DEB78B0119821A82AB0162E028
:102E100070E0CE0101960E94A1070297C1F4F8016B
:102E200001900020E9F73197E01BF10B339730F068
:102E300089819A8198278927982702C0898190E003
:102E4000E0915D21F0915E21099584E601C08AEC54
:102E50000F900F90DF91CF911F910F9108950F93D5
:102E60001F93CF93DF931F92CDB7DEB78C01E09114
:102E70005721F0915821CE010196099521E030E0CB
:102E8000AE014F5F5F4F60E071E0C8010E947607BE
:102E900085E60F90DF91CF911F910F910895CF9309
:102EA000DF931F92CDB7DEB7AB0161E070E0CE01DA
:102EB00001960E94A107019741F4E0915921F091F8
:102EC0005A218981099584E601C08AEC0F90DF912F
:102ED000CF910895EF92FF920F931F93CF93DF93BB
:102EE000CDB7DEB7A097CDBFDEBF7C01E1E4F1E254
:102EF00006A110E00288F389E02DCE010196099524
:102F00009801AE014F5F5F4F60E071E0C7010E9422
:102F1000760785E6A096CDBFDEBFDF91CF911F91EA
:102F20000F91FF90EF900895DF92EF92FF920F9331
:102F30001F93CF93DF93CDB7DEB7A097CDBFDEBF92
:102F40007B010091672110E062EA78E0C7010E94EE
:102F50004B33892BD1F4D12CED2CF12CE016F1065A
:102F600058F40E946B07E1E0F0E0EC0FFD1FEE0D5E
:102F7000FF1D8083D394F0CFE0915521F09156212D
:102F8000CE010196099584E60BC0A70160E270E0CE
:102F9000CE0101960E94A1070817190769F38AEC70
:102FA000A096CDBFDEBFDF91CF911F910F91FF9013
:102FB000EF90DF900895FC0180916821882311F043
:102FC00081E301C080E38083118285E60895FB01DF
:102FD000818181110DC08081813321F481E0809352
:102FE000682104C0803321F41092682184E608959A
:102FF0008AEC08958DE895E147D28EE6089586E73C
:1030000095E15DD28EE60895E0ECF4E081818E7F5B
:1030100081830E94C52F0E94AE0684E60895E0ECED
:10302000F4E081818E7F81830E94C52F0E94B406C7
:1030300084E60895E1E4F1E221A12F9320A12F93EA
:10304000278D2F93268D2F932EE938E03F932F93D2
:1030500021E02F931F929F938F930E9480338DB70F
:103060009EB70A968DBF9EBF85E608954F925F92E8
:103070006F927F928F929F92AF92BF92CF92DF9288
:10308000EF92FF920F931F93CF93DF93CDB7DEB7ED
:103090007A01B02E4DB65EB6213041E0340708F01B
:1030A00042C02E153F0508F43EC06DB67EB62DB762
:1030B0003EB72E193F092DBF3EBF2F5F3F4F69011D
:1030C000870120E030E0AB01BC01C60113DCBB206E
:1030D00029F18DB69EB68701000F111FB8016D5FF3
:1030E0007F4F8DB79EB7861B970B8DBF9EBF2DB7A9
:1030F0003EB72F5F3F4F59019701A601C5010E94BE
:103100007607F501E00FF11F8DE080838AE081836F
:103110001282C50193DD8DBE9EBE03C0B701C601FC
:10312000A3DD6DBE7EBE4DBE5EBEDF91CF911F9111
:103130000F91FF90EF90DF90CF90BF90AF909F9056
:103140008F907F906F905F904F9008952F923F9255
:103150004F925F926F927F928F929F92AF92BF92A7
:10316000CF92DF92EF92FF920F931F93CF93DF9353
:10317000CDB7DEB72A97CDBFDEBF1C01162F17DAF9
:1031800021E02216320608F04DC061157105810557
:10319000910509F447C04101A12CB12CA50194016E
:1031A0000E94AC322D833E834F83588769837A8394
:1031B0008B839C8349815A8149875A8760E070E0FC
:1031C000CB01C12CD12C760124013501460E571EAE
:1031D000681E791E2D813E814F815885C216D30607
:1031E000E406F50661F0012F9101A1013FDF5FEFD9
:1031F000C51AD50AE50AF50AC301B201E5CF49852A
:103200005A85452B59F0A5019401C701B6010E94CA
:103210008932012F910149815A8128DF111104C09F
:1032200084E603C089EC01C085E62A96CDBFDEBFE7
:10323000DF91CF911F910F91FF90EF90DF90CF9092
:10324000BF90AF909F908F907F906F905F904F90C6
:103250003F902F90089561E080E190E077CF60E0AB
:1032600080E091E073CF84EA95E10ED18EE6089577
:103270008FE595E124D18EE60895209167211F9274
:103280002F932BE938E03F932F9321E02F931F9248
:103290009F938F930E9480338DB79EB708968DBF02
:1032A0009EBF85E6089560E071E00E94D80885E63B
:1032B000089540E051E0BC0180E00E940D0985E6E0
:1032C000089580E00E942D09882321F00E9458096A
:1032D00084E608958AEC089560E071E00E94D808C1
:1032E00085E6089540E051E0BC0181E00E940D09AF
:1032F00085E6089581E00E942D09882321F00E942F
:10330000580984E608958AEC089560E071E00E940F
:10331000900985E60895CB010E949D09882321F03C
:103320000E94580984E608958AEC089581DC80E0C3
:103330000E94000766E080E00E94FE0860E081E0F5
:103340000E94FE080E94580984E60895BF92CF9219
:10335000DF92EF92FF920F931F93CF93DF93EC01D5
:10336000EE24EA94F12C03EC19E09CE2B92E6801FA
:10337000B80188EC90E20E944B33892BC9F0DE0142
:10338000F6012491ED012196C7010197211105C095
:10339000BC927C01085E1F4FEACFF1E2EF16F10408
:1033A000B8F32C93DE012FEFC21AD20A7C01E8CFCA
:1033B0002197188285E6DF91CF911F910F91FF90A1
:1033C000EF90DF90CF90BF900895CF93DF93EC0103
:1033D0000E94450A9F938F9384E998E09F938F936F
:1033E00081E08F931F92DF93CF930E9480338DB73C
:1033F0009EB708968DBF9EBF85E6DF91CF91089559
:10340000209194211F922F9321E938E03F932F932D
:1034100021E02F931F929F938F930E9480338DB74B
:103420009EB708968DBF9EBF85E60895FB018181FA
:1034300081110CC08081813311F481E003C080339D
:1034400029F480E00E94A80984E608958AEC089592
:10345000CF9391DBC0E08C2F0E94600980E00E9436
:10346000000766E080E00E94FE0860E081E00E94C4
:10347000FE08CF5FC83079F780E00E9460090E94A3
:10348000580984E6CF91089521E02093F5202093F8
:10349000F42024E12093F22025E030E02093F02076
:1034A0003093F1201092EA201092EB201092EC2041
:1034B0001092ED208093E8209093E920089527E072
:1034C0002093F52024E630E02093F0203093F12083
:1034D0001092EA201092EB201092EC201092ED2036
:1034E0008093E8209093E92008950F931F93CF9342
:1034F0009091F5209530B9F130F4933001F118F541
:10350000913068F43EC1973009F4A5C008F440C07A
:10351000983009F4A5C0993009F430C132C1813026
:1035200031F41092EE201092EF2083E0FBC0843043
:1035300011F466E08BC0883109F0F6C01FC180939A
:10354000F32084E0EFC090E04091F3202FEF30E0D3
:10355000241B31098217930721F485E0E3C0891702
:1035600041F165E16CC02091EE203091EF20A9017E
:103570004F5F5F4F4093EE205093EF20F901E154ED
:10358000FE4D80834038510509F0CEC086E0CAC0A8
:103590002091F3209091F420291349C0EFEBF1E240
:1035A0002FE332E290E02E173F07C9F24191940FCA
:1035B000FACF4091EA205091EB206091EC2070917D
:1035C000ED20E091E820F091E92000E810E020E013
:1035D00030E08FEB91E20995C82F882311F180919B
:1035E000F4208F5F8093F4208091EA209091EB206B
:1035F000A091EC20B091ED2080589F4FAF4FBF4F6E
:103600008093EA209093EB20A093EC20B093ED20E0
:1036100066E081E090E20E94123182E08093F52022
:10362000B1C068E181E090E20E9412310EC030E04A
:10363000892F90E001972817390739F466E081E077
:1036400090E20E94123182E06DC068E181E090E278
:103650000E94123193C0853119F41092F42006C0F3
:10366000883109F466CF863009F060C08091F4207B
:103670008F5F8093F4204091EA205091EB2060917D
:10368000EC207091ED20E091E820F091E92000E835
:1036900010E020E030E08FEB91E20995C82F8823FD
:1036A000D9F161E081E090E20E9412316091F42052
:1036B00081E090E20E9412316091F420609581E0F7
:1036C00090E20E94123160E870E08FEB91E2CCDA78
:1036D000EFEBF1E28FE392E260E08E179F0719F0C3
:1036E0002191620FFACF81E090E20E941231809125
:1036F000EA209091EB20A091EC20B091ED20805831
:103700009F4FAF4FBF4F8093EA209093EB20A09341
:10371000EC20B093ED2036C064E081E090E20E949E
:10372000123189E08093F520C1E02CC08531E1F7AA
:1037300061E081E090E20E9412316091F42081E02A
:1037400090E20E9412316091F420609581E090E255
:103750000E94123160E870E08FEB91E285DAEFEBC6
:10376000F1E260E082E2EF33F80719F08191680F2F
:10377000F9CF81E090E20E941231D6CF1092F5206D
:10378000D3CFC0E08C2FCF911F910F9108958091DE
:10379000F520813019F0873029F108958091F020CB
:1037A0009091F1209C01215031092093F020309319
:1037B000F120892B31F58091F2209FEF980F9093A3
:1037C000F220882331F065E181E090E20E9412311D
:1037D00002C01092F52085E090E08093F020909355
:1037E000F12008958091F0209091F1209C012150CA
:1037F00031092093F0203093F120892B11F410929D
:10380000F5200895ECEDF8E020E030E09491981375
:1038100009C041E2429FC001439F900D1124835291
:10382000974F08952F5F3F4FB1962730310571F7BD
:1038300080E090E00895CF92DF92EF92FF920F9395
:103840001F93CF93982F9F7D91549A3160F090ED04
:10385000980F9A3040F08F3531F0982F9D7F9D332F
:1038600011F08032C9F49FE9980F9A3108F4805220
:103870002091FB203091FC202F3F310508F0CFC074
:10388000A9014F5F5F4F4093FB205093FC20F9014B
:10389000E154FE4D8083C3C08D3009F095C0E091A6
:1038A000FB20F091FC20E154FE4D10821092FB2091
:1038B0001092FC208091FA208111B1C08091BF212B
:1038C000982F9F7D09F495C08D7F8D3309F491C0A9
:1038D000EFEBF1E27F01C191CC2331F0CF3321F046
:1038E000CD3311F0C032B1F7F701108283ECC82E4E
:1038F00089E0D82E00E010E0B6018FEB91E20E9443
:103900004B33892B09F056C01092BF21CF3349F4B5
:1039100088E1809FF001819FF00D1124E752F64F5E
:1039200018C0B7016F5F7F4FCD3349F488E1809FA6
:10393000F001819FF00D1124E952F64F20C0C11112
:1039400013C088E1809FF001819FF00D1124ED529A
:10395000F64F259134912115310509F44DC08FEBB7
:1039600091E2F901099514C0C03209F045C088E11F
:10397000809FF001819FF00D1124EB52F64F2591AD
:10398000349121153105C1F18FEB91E2F9010995CF
:103990008F3F99F581E08093FA202EB13FB180915D
:1039A000080490910904822B932B8093F820909324
:1039B000F92035C00F5F1F4FF8E1CF0ED11C083141
:1039C000110509F099CF15C0883061F48091FB2072
:1039D0009091FC20009719F101978093FB20909320
:1039E000FC201DC08B31D9F41092FB201092FC20DA
:1039F00016C088ECC0E002C089ECC1E003DF23D927
:103A000089ED98E020D9CC2351F08091BF21882303
:103A100031F08FEB91E212D986ED98E014D981E074
:103A2000CF911F910F91FF90EF90DF90CF9008956D
:103A30008091FA20882389F1E0916A21F0916B212D
:103A4000238134812115310541F14EB15FB180915F
:103A5000080490910904842B952B4091F8205091F3
:103A6000F920841B950B64E670E00E94983262177F
:103A7000730798F01092FA208BECC4DEE4D883ED43
:103A800098E0E1D8E091F620F091F720309729F006
:103A900009951092F6201092F7200895A0E2B6E062
:103AA00082E011968C93119715968C931597E0E40C
:103AB000F8E010A211A28DE291E086A397A38FEF08
:103AC0009FEF80A791A781E0808398E8938393E09C
:103AD00097831A968C9308951F920F920FB60F92A8
:103AE00011248F939F93EF93FF938FEB92E2809338
:103AF000092190930A218FE393E280930721909309
:103B0000082110920221109201211092FD201092A2
:103B100005211092062110920021E0E4F8E01382C2
:103B200086E990E086AB97AB8AE190E080AF91AFF9
:103B3000E0E4F9E010A211A28FEF9FEF86A397A314
:103B400089E883838EE0808310922A06FF91EF91AB
:103B50009F918F910F900FBE0F901F9018951F92FD
:103B60000F920FB60F9211242F933F938F939F9331
:103B7000EF93FF939091280680910121957021E0A9
:103B800009F020E0880F822B809301219091FD2085
:103B9000992309F46BC0982F9770973091F5109284
:103BA000400880E180934C08109243098091FF20E7
:103BB000882319F08CEB94E002C08CE794E08093AA
:103BC0006609909367091092FE2081E080934C096A
:103BD00083E08093460980910521909106218770AA
:103BE00061F0909102218F5F893011F09695FBCFA3
:103BF000E0910921F0910A21908381E080930B21CB
:103C000035C0982F9C7091F191E0382F347082FD6F
:103C100090E09093FF2080910021811125C0209198
:103C200002212695311101C080E8282B2093022122
:103C30008091052190910621019680930521909312
:103C4000062187709927892B89F4E0910921F09149
:103C50000A21CF0101968093092190930A212083A4
:103C600081E08093002102C0109200219091FD20FC
:103C700081E089278093FD2088E880934308FF91A5
:103C8000EF919F918F913F912F910F900FBE0F90C9
:103C90001F9018951F920F920FB60F9211242F9319
:103CA0003F938F939F93EF93FF938091FE208530F6
:103CB00009F45AC0B8F48230B9F178F4882369F174
:103CC000813009F0C0C08FE390E080936609909343
:103CD00067098EE08093000827C0833051F184305B
:103CE000B1F1B1C0883009F4A3C038F4863009F4CA
:103CF00060C0873009F46DC0A6C0893009F49DC04A
:103D00008A3009F0A0C01092400910924609109222
:103D1000000881E080930C2196C08FE790E08093AB
:103D20006609909367098FC080E48093450683E01D
:103D300088C080E48093460684E08093FE20E09172
:103D40000921F0910A218081809302217CC0809119
:103D5000022180FF04C080E48093450603C080E414
:103D60008093460685E06DC08091022190E480FF3B
:103D700003C09093460602C09093450686958093B3
:103D800002218091032190910421019680930321C7
:103D9000909304219C0127703327232B11F486E094
:103DA00050C0209105213091062182179307F1F52B
:103DB00029C0E0910721F09108218081882321F01A
:103DC00080E48093450603C080E48093460687E044
:103DD00038C0E0910721F09108218081882321F0EB
:103DE00080E48093460603C080E4809345062091DA
:103DF00003213091042180910521909106212817FB
:103E0000390711F488E01DC03196E0930721F09343
:103E10000821E0910921F0910A21CF0101968093B8
:103E2000092190930A2181818093022184E009C0B5
:103E300080E48093460689E004C080E480934606CF
:103E40008AE08093FE20FF91EF919F918F913F91A7
:103E50002F910F900FBE0F901F901895CF93DF9367
:103E6000E0E4F6E084E08283128AC0E8D1E082E6F2
:103E70008E83A0E2B6E085E012968C93129781E0E3
:103E800050968C93509782E052968C9352971A9644
:103E90001C921A9783E019968C9398E598839AE57B
:103EA000998390E49183968381838683E0E0F8E0B0
:103EB0008FE090E086A397A388E090E082A793A785
:103EC00083E28183DF91CF91E9CD80910B2188231B
:103ED00009F457C010920B2182E080932106809351
:103EE000260660910521709106216115710521F169
:103EF000E0915121F09152218FEB92E2099594FDCE
:103F000008C0AC0123E0569547952A95E1F720E0DB
:103F100002C09F7E17C0A22FB0E0A417B50790F48F
:103F2000A154BD4DEC91F0E0E15DFA4FE491A05851
:103F3000BF4FEC932F5FEFCFE0914921F0914A21E1
:103F400009951AC00097C1F080930521909306212E
:103F500010920321109204218FEB92E280930921A9
:103F600090930A218FE393E2809307219093082195
:103F700081E08093FE2005C010924009109246090E
:103F80008DDD80910C21882319F010920C2186CDB3
:103F9000089521E020931C2040930F21411180645B
:103FA00080931121909312216093102110920E2181
:103FB00010920D21089541E080916721873009F02A
:103FC00040E068E084E090E0E4CF41E08091672148
:103FD000873009F040E068E182E090E0DACF40E02D
:103FE00069E084E090E0D5CF81E080931C200895C3
:103FF000FF920F931F93CF93DF93FC012081203515
:1040000001F5218121111DC08B01EC0180910E2150
:10401000FF24F3948F2580931C2062E070E0CF0191
:10402000C6D5882331F010921C20F801108211822D
:1040300006C0F88284E090E0F8018083918381E0FB
:1040400001C080E0DF91CF911F910F91FF90089503
:10405000EF92FF920F931F93CF93DF934730510559
:1040600011F080E020C0E80179018B01682FC801C0
:10407000CFD58823B1F3B701C801D6D580911C20D4
:10408000823040F484E080931C2080E190E08883BB
:10409000998308C090910E2181E0892780931C208C
:1040A0001882198281E0DF91CF911F910F91FF90CB
:1040B000EF9008958F929F92AF92BF92CF92DF922E
:1040C000EF92FF920F931F93CF93DF93CDB7DEB79D
:1040D0006297CDBFDEBF982E7B016A01FB01208174
:1040E000203619F06AE370E002C060E370E0F70187
:1040F000818187FF0AC0807FF0E18F9FC00111247A
:1041000060547F4F46EF50E007C08C7F30E1839FC3
:10411000C001112446E350E05C01A60EB71E2170D9
:10412000209327219C0164E0369527956A95E1F755
:1041300020932821480F591F60E070E004E010E050
:1041400020E030E083E191E20E944D1480910F2144
:1041500004E010E020E030E0882329F043E050E064
:1041600060E070E003C040E050E0BA01CE010F967D
:104170000E944D14A50160E070E006E010E020E030
:1041800030E0CE0101960E944D14992009F452C0EE
:104190001B861C861D861E8681E08B878B859C85F1
:1041A000AD85BE858093292190932A21A0932B2150
:1041B000B0932C2160E470E089E291E219D78091FC
:1041C000292190912A21A0912B21B0912C2180931B
:1041D0002D2190932E21A0932F21B093302160E2C6
:1041E00070E08DE291E204D79E01295F3F4FAE015E
:1041F000455F5F4FBE01615F7F4FCE0101963CD6A8
:10420000CE010B965C01D70104979E01215F3F4FC1
:10421000F50141915F014D93FC016191CF01AD0129
:1042200041585F4FFA016083A216B30689F780E216
:1042300090E13EC08090352090903620A0903720AD
:10424000B09038208F829886A986BA86409139200E
:1042500050913A2060913B2070913C2080913D200C
:1042600090913E20A0913F20B09140204093292181
:1042700050932A2160932B2170932C2180932D2120
:1042800090932E21A0932F21B0933021F7018082AB
:104290009182A282B38220E030E0AE01495F5F4F9D
:1042A000BE01615F7F4FCE010196E6D580E290E0CE
:1042B000F6018083918386E080931C206296CDBFB7
:1042C000DEBFDF91CF911F910F91FF90EF90DF90B4
:1042D000CF90BF90AF909F908F9008950F931F93B2
:1042E000CF93DF93EC018C01060F111DC017D1078E
:1042F00029F058D6988189278993F8CFDF91CF91FB
:104300001F910F910895CF92DF92EF92FF920F933A
:104310001F93CF937B018C016C01C40ED11C0C1533
:104320001D05A1F0F701C1917F013CD68C27F80152
:1043300081938F01EC2FF0E0E15DFA4FC49165D5D8
:10434000D801A158BF4F8C278C93E9CFCF911F91F3
:104350000F91FF90EF90DF90CF900895AF92BF92B2
:10436000CF92DF92EF92FF920F931F93CF93DF9341
:10437000CDB7DEB72897CDBFDEBF7C01AB016F8321
:1043800078871D821E82209111213091122181E0B7
:1043900090911C20911180E08E010B5F1F4FB7019F
:1043A00057DE811104C3B801C70122DE8111FFC2AB
:1043B00080911C20853009F40DC150F4823061F1E8
:1043C000B0F0833009F466C0843009F485C0E7C2D8
:1043D000883009F452C238F4863009F417C18730A6
:1043E00009F433C1DCC28C3008F46FC2D8C28095A6
:1043F000817080930E2110920D21F701808180340D
:1044000009F0D5C20E941B16882309F4D0C282E0AD
:1044100080931C208AE004C2F7018081982F9D7F41
:10442000913469F1803311F0803A59F562E070E01F
:10443000C701BDD3811102C081E0F2C1F7018081C3
:10444000803399F44181F0E14F9FA001112460E095
:1044500070E000E110E020E030E0C7010E944D1460
:1044600060E170E0C70178D3A9C0803A09F09FC22B
:10447000F70181818093282183E080931C208AE0CA
:10448000D0C1803509F093C2BE016B5F7F4FC70179
:10449000AFDD8DC260E170E0C70189D38823B9F038
:1044A00080916821811111C040912821F0E14F9F36
:1044B000A0011124052E000C660B770B00E110E023
:1044C00020E030E0C7010E94E5148AE001C081E0ED
:1044D000F701808382E00FC2F7018081833971F593
:1044E00080910F21882351F088E88983F4E0DF2E42
:1044F000A4E0CA2E03E0CE01029607C0C0901021AE
:10450000E5E0DE2E04E0CE01019610E020E030E090
:1045100040E050E0BA010E944D142C2DAE014F5FD7
:104520005F4FBE01695F7F4FC701A3D3882371F13D
:10453000D0921C2081E080930D2128C090910D2104
:10454000992309F43EC090910F21992311F18539E7
:1045500001F504E010E020E030E043E050E060E0EE
:1045600070E0CE0101960E944D1420911021AE0101
:104570004F5F5F4FBE01695F7F4FC7017AD38823CA
:1045800029F085E080931C2010920D218F81988561
:10459000B6C18033B1F400E110E020E030E040E04B
:1045A00050E0BA01C7010E944D1460E170E0C701FC
:1045B000D3D285E080931C2010920D2180E990E0F9
:1045C0009EC190910E2181E0892780931C2010923A
:1045D0000D21EDC1F7018081803421F40E941B166A
:1045E000811115CFF70180818056823068F462E036
:1045F00070E0C701DCD2882309F41ECFAE014B5F07
:104600005F4FB70180E035C184E00AC1C701AED475
:1046100064E06701F4E0CF0ED11CC6015FDE44E028
:1046200050E069E271E2C6010E946333892B59F4BC
:1046300044E06DE271E2C70166DE87E080931C20F2
:1046400080E290E15CC181E0B0C164E0C70146DE78
:10465000BE016B5F7F4FC701CBDC8111A8C162E057
:1046600070E0C701A4D2811107C080910E2111E032
:10467000812780931C20E0C0F7018081803309F0FE
:10468000A7C0418147FD04C0842F8370833029F087
:10469000842F8F708F3009F083C040932821809140
:1046A00013219091142120911521382F32953095A6
:1046B000592F5327507F09F03FC032273F70E1F553
:1046C000929590959227907FB9F5342F47FD02C0BF
:1046D000337003C03F7009F033E08095622F62951C
:1046E0006F703323B1F090E0032E02C0959587954B
:1046F0000A94E2F7E22FF0E0032E02C0F595E79569
:104700000A94E2F72E2F70E002C0759567953A95EE
:10471000E2F760FBAA24A0F8B12CF501EE0FFF1F11
:10472000EE0FFF1F20FBCC24C0F8D12CCC0CDD1CDD
:10473000EC298170E82B01C0E7E0F0E080912721AF
:10474000EE0FFF1FEF5BFF4DE80FF11D8081F701BA
:104750009701205F3F4F1192E217F307E1F7909125
:104760001621F701918782FF09C09091132196834A
:1047700090911421978390911521908784FF1DC0FB
:104780004360F0E14F9FA0011124465F5F4F60E05E
:1047900070E006E010E020E030E0C7010A960BC0B0
:1047A00080E1489FA001112460E070E000E110E08A
:1047B00020E030E0C7010E944D1460E170E0C701C5
:1047C000CBD142E1B701C7019EDD80E990E197C0FE
:1047D000982F9F7E903A39F5F70141814093282127
:1047E000411102C0F2D31CC0803A11F488E036C0F7
:1047F000803B09F082C08091682181110EC0F0E1F8
:104800004F9FA001112460E070E000E110E020E083
:1048100030E087E191E20E94E514D7D39AE089273E
:10482000F70180836AC0803C51F4F7018181809355
:1048300028211AE010931C20C8D38127F1CF813C96
:1048400031F4F70181818093282189E007C0823CFF
:1048500041F4F7018181809328218BE080931C2013
:10486000DCCF8056823038F4AE014B5F5F4FB7012A
:1048700081E020DC9CC085E098C062E1C7012EDDAC
:10488000BE016B5F7F4FC701B3DB811190C060E158
:1048900070E0C7018CD1882341F18091682181119A
:1048A00011C040912821F0E14F9FA0011124052E55
:1048B000000C660B770B00E110E020E030E0C70150
:1048C0000E94E51482D39AE012C066E0C70106DDBB
:1048D000BE016B5F7F4FC7018BDB811168C064E055
:1048E00070E0C70164D181110DC06FD391E08927B9
:1048F000F701808387E080931C2084E090E08D8323
:104900009E8355C040912821F0E14F9FA0011124C2
:1049100060E070E000E110E020E030E087E191E24B
:104920000E944D149091172180911B21809598131E
:104930004EC080911F2198134AC0909118218091F8
:104940001C218095981343C08091202198133FC06B
:104950009091192180911D218095981338C08091E4
:104960002121981334C090911A2180911E218095A5
:1049700098132DC080912221981329C09091232152
:10498000809124218095981322C08091252198132D
:104990001EC0809126218095981319C01BC01D82CE
:1049A0001E8290910E2181E0892780931C208D81A9
:1049B0009E812896CDBFDEBFDF91CF911F910F91D1
:1049C000FF90EF90DF90CF90BF90AF900895FDD211
:1049D00095E08DCF8091172190911821A0911921F8
:1049E000B0911A21F7014081518162817381209138
:1049F0001C202A3029F4841B950BA60BB70B06C08C
:104A0000293021F4840F951FA61FB71F809317210B
:104A1000C92EDA2EEB2EFF24C09218218D012227F9
:104A20003327009319214B2F55276627772740936B
:104A30001A21E82FE095E0931B21EC2DE095E093FF
:104A40001C21E02FE095E0931D21E42FE095E093F9
:104A50001E2180931F21C092202100932121409389
:104A6000222148CF0F931F93CF93DF93EC018091C6
:104A70000F218823A9F003E010E020E030E040E0BF
:104A800050E0BA01CE010E944D1404E010E020E095
:104A900030E043E050E060E070E0CE01039608C0F3
:104AA00004E010E020E030E040E050E0BA01CE0148
:104AB0000E944D14DF91CF911F910F9108950F9394
:104AC0001F93CF93DF931F92CDB7DEB720910F21B5
:104AD000222349F00091672110E020E030E040E01F
:104AE00050E0BA011CC0FC013081218123273281B2
:104AF000232733812327298304E010E020E030E0DE
:104B000040E050E0BA010E94E51401E010E020E02E
:104B100030E044E050E060E070E0CE0101960E9499
:104B2000E5140F90DF91CF911F910F91089520917F
:104B3000112130911221FC0120833183089580934B
:104B4000112190931221089520911021FC012083BE
:104B5000089580931021089520E42093D00026EC3E
:104B60002093D5002093D40021E02093D000DC01D5
:104B7000680F791FA617B70741F0ED91F0E0E15DEE
:104B8000F94FE491E093D300F5CFE091D500F0E048
:104B9000E15DF94FE491EC93E091D400F0E0E15D48
:104BA000F94FE4911196EC931092D000089520E40F
:104BB0002093D00026EC2093D5002093D40021E050
:104BC0002093D000DC01680F791FA617B70741F0CA
:104BD000ED91F0E0E15DF94FE491E093D300F5CF82
:104BE000E091D500F0E0E15DF94FE4918C918E13F6
:104BF0000AC0E091D400F0E0E15DF94FE49181E07A
:104C000011969C919E1380E01092D00081700895BF
:104C1000FC01908181E0611102C0963219F0923559
:104C200009F080E081700895FC016083718308952C
:104C3000EF92FF920F931F93CF93DF93EC018B01C1
:104C40007A01622FE5DF882349F0E882F98280E16A
:104C500090E0F8018083918381E004C0F801108224
:104C6000118280E0DF91CF911F910F91FF90EF9023
:104C70000895AF92BF92CF92DF92EF92FF920F937F
:104C80001F93CF93DF93EC01FA019981903229F0C1
:104C90008A016B01903789F02DC0308138832181E2
:104CA000298392819A8383818B8323279227892763
:104CB0008C8388E290E0FB0156C09A81FA018081E2
:104CC00098131BC09B818181981317C09C8182819E
:104CD000981313C09D81838198130FC0288361E0CE
:104CE00070E0CE0139DF88E190E0F60180839183A6
:104CF00081E03CC0892F8F7021F0F6011082118273
:104D000034C092959F709250E92EF12CA701BE01FC
:104D10006E5F7F4FCF010E946333892B19F0F6013C
:104D20001082118284E090E05C01AE18BF08B801E7
:104D30006E0D7F1DA501CE010E947033CA0DDB1DD3
:104D4000F801908181818927928189279381892720
:104D5000888385E090E08E199F0923E0880F991FD2
:104D60002A95E1F7F6018083918380E0DF91CF916E
:104D70001F910F91FF90EF90DF90CF90BF90AF9079
:104D80000895A0913121B091322140913321F091C9
:104D90003421E0913521309136212A2F217E9B2F1D
:104DA00090719227242F207292272F2F24799227F7
:104DB0002E2F23779227232F2A739227292F22958C
:104DC0002F709227292F269526959227292F2695F1
:104DD00050E060E070E0BA01552744275B2B4A2B76
:104DE00076956795579547959227917098136068C7
:104DF000F0933121E09332213093332140933421D9
:104E000050933521609336210895CF93DF9384E347
:104E100091E2DC011196EC911197AC91A295AF70E3
:104E2000B0E0AF58BF4DCE2FCF70D0E0CF58DF4DA0
:104E30003C912889232BE295EF70F0E0EF58FF4D6D
:104E400030A1232BEC01EA81AE2FAF70B0E0AF5858
:104E5000BF4DD0968C91922F982BE295EF70F0E099
:104E6000EF54FF4D8081E92FE82BF0E0EF5AFF4D22
:104E70008081DF91CF9108955F926F927F928F92A0
:104E80009F92AF92BF92CF92DF92EF92FF920F93D9
:104E90001F93CF93DF936901DC0101E311E2C4E3C7
:104EA000D1E27C0186E0E80EF11C11962C9111975D
:104EB00030E0322F22278C91282B88E090E0B12C13
:104EC000B694969520FF03C0EB2DE068BE2E21FD21
:104ED00090683695279536952795815089F7F80182
:104EE000B1928F0199931296EA16FB06F1F67B01B7
:104EF000EA0186015601F4E0AF0EB11C9880F7017B
:104F000071907F01792488E0682E812C5524539478
:104F10007CDF81118528872D817033DF550C7694D5
:104F20006A946110F5CF89248992C114D10449F0A3
:104F3000E92DF0E0E15DFA4F949067DF8925F801F3
:104F400080830F5F1F4FA016B106C1F6DF91CF918E
:104F50001F910F91FF90EF90DF90CF90BF90AF9097
:104F60009F908F907F906F905F900895CF92DF9287
:104F7000EF92FF92CF93FC01C080D180E280F3805A
:104F8000C0E243DF9C2D91708927FBDEF694E79405
:104F9000D794C794C150A9F7CF91FF90EF90DF90BD
:104FA000CF9008951F93CF93DF93D8E0C0E02DDF1B
:104FB000182F80E0E6DEC6951111C068D150B9F710
:104FC0008C2FDF91CF911F9108951F93CF93DF9383
:104FD000D4E0C0E01ADF182F80E0D3DEC6951111AF
:104FE000C860D150B9F78C2FDF91CF911F910895F0
:104FF000FC019B0121503109E0F082818D72982FD4
:1050000092959F708927982F969596958927982F26
:105010009695408151816281738176956795579508
:105020004795892780FD706840835183628373832D
:10503000E1CF08950F931F9381E080933F21109259
:105040003E2110923C2110923A21809140218130E2
:1050500039F020F0823039F487EE03C08DE201C0D0
:1050600087E880933D2140911D2050911E20609142
:105070001F20709120204D5F5F4F6F4F7F4F01E0E9
:1050800010E020E030E089E391E20E944D1440916D
:105090001D2050911E2060911F20709120204C5F98
:1050A0005F4F6F4F7F4F01E010E020E030E087E37B
:1050B00091E20E944D1480913721881F8827881F14
:1050C000809338211F910F9108950F931F93482FBC
:1050D0008091682181110FC0CB0124E0429FA00183
:1050E0001124052E000C660B770B04E010E020E085
:1050F00030E00E94E51480E01F910F9108950F9316
:105100001F93CF93DF93EC0103E010E020E030E049
:1051100040E050E0BA010E944D1404E010E020E0AD
:1051200030E044E050E060E070E0CE0103960E9481
:105130004D14DF91CF911F910F910895EF92FF923F
:105140000F931F93CF93DF9300D0CDB7DEB77C01D1
:10515000FC0190818181892798E88927928189279C
:105160008A839381848189279581892796818927DC
:10517000898303E010E020E030E040E050E0BA0135
:10518000C7010E94E51401E010E020E030E043E0B8
:1051900050E060E070E0CE0102960E94E51404E069
:1051A00010E020E030E044E050E060E070E0C70153
:1051B00003960E94E51401E010E020E030E048E0B2
:1051C00050E060E070E0CE0101960E94E5140F907F
:1051D0000F90DF91CF911F910F91FF90EF90089565
:1051E00081E080933F210895109240218DE28093C9
:1051F0003D2184EA90E0A0E0B0E080931D209093F0
:105200001E20A0931F20B093202014CF81E0809314
:10521000402187E880933D218CE092E0A0E0B0E05F
:1052200080931D2090931E20A0931F20B0932020D8
:1052300001CF82E08093402187EE80933D218CE86E
:1052400093E0A0E0B0E080931D2090931E20A093F7
:105250001F20B0932020EECEAF92BF92CF92DF926C
:10526000EF92FF920F931F93CF93DF93CDB7DEB7EB
:105270002697CDBFDEBF7C016D837E83FC0110814C
:1052800020913F212230B9F038F0233009F43EC09C
:10529000243009F465C0E1C12095217020933E219E
:1052A00044E450E0BE016B5F7F4FC2DC882309F409
:1052B000D4C182E050C020913E2144E450E0BE01C0
:1052C0006B5F7F4FB5DC811157C0133909F0C2C144
:1052D00019821A821B821C8288E8898303E010E00D
:1052E00020E030E040E050E0BA01CE0102960E949A
:1052F0004D1424E0AE014F5F5F4FBE016B5F7F4FE7
:10530000C701B7DC882349F183E025C020913E2105
:1053100044E450E0BE016B5F7F4F8ADC81112CC0FA
:10532000153909F097C104E010E020E030E044E0D6
:1053300050E060E070E0CE0101960E944D1420E044
:10534000AE014F5F5F4FBE016B5F7F4FC70191DCC6
:10535000882319F084E080933F218D819E817FC155
:10536000CD80DE8020913E2144E450E0BE016B5FA1
:105370007F4F5EDC882329F090913E2181E08927D0
:105380006AC1B601695F7F4F33E0769567953A95BC
:10539000E1F76330710508F45DC162507109C7011E
:1053A00006DC811102C081E03BC180913C21882351
:1053B00041F010923C21B7016E5F7F4F80913B21FD
:1053C00014C1F70180818C3309F42FC148F4803374
:1053D000B9F18A3309F46DC08B3109F03BC1A8C023
:1053E000803661F020F4803509F42DC133C1803A54
:1053F00009F4FDC0823A09F4E3C02CC1F701108220
:1054000084E08183828382E0838381E084831582C8
:1054100080914021813039F020F0823039F483E1ED
:1054200003C08FE001C081E1F701868383E0F701CB
:10543000878368E070E0C7018FDB80E590E00FC1F3
:10544000F701D18080913821882339F080913A2169
:10545000811103C0C090392102C0C0903D21DC14ED
:1054600018F0F7011082DEC0A12CB12CF4E0DF9E11
:10547000A0011124052E000C660B770B04E010E050
:1054800020E030E0C7018A0D9B1D0E944D14D3948B
:10549000CD1001C0D12C84E0A80EB11CE0E1AE1605
:1054A000B10421F760E170E0C70156DB80E990E0CC
:1054B000D6C0F7014181C280C41698F280913D2187
:1054C000481778F6C81668F680913821882361F06D
:1054D00080913A21811108C080913921481708F044
:1054E00050C0C81608F04DC0D12C50E0C41AD50ADF
:1054F000FFEFCF1ADF0ACC0CDD1CCC0CDD1C8601C3
:1055000020E030E0440F551F440F551F052E000CBE
:10551000660B770BC7010E944D14B601C7011CDB57
:10552000C601029623E0880F991F2A95E1F797C0DC
:1055300040911D2050911E2060911F2070912020CD
:10554000485F5F4F6F4F7F4F04E010E020E030E096
:10555000CE0101960E944D140E941B16811113C0AA
:105560009981F701818198130CC09A8182819813E7
:1055700008C09B818381981304C09C818481981703
:1055800011F084E04DC081E080933A2140911D20CC
:1055900050911E2060911F2070912020445F5F4F2A
:1055A0006F4F7F4F02E010E020E030E0C7010E9423
:1055B0004D1462E070E0C701CFDA80E290E04FC0A6
:1055C000F7018181823008F44CCF90913D218917F9
:1055D00008F047CF90913A21911104C09091392160
:1055E000891778F6B7016E5F7F4F6FDD18C0F7013E
:1055F0008181823008F435CF90913D21891708F0E0
:1056000030CF90913A21911105C09091392189179D
:1056100008F0B7CF80933B2181E080933C218AE062
:10562000F701808384E090E01AC040E250E06AEC29
:1056300070E0C7010E94793360E270E0C7018CDA44
:1056400080E191E00CC0F701818181110ACF1092B5
:105650003F2103C081E080933F2180E090E02696C7
:10566000CDBFDEBFDF91CF911F910F91FF90EF90E3
:10567000DF90CF90BF90AF9008950F931F93CF937B
:10568000DF93CDB7DEB7EA97CDBFDEBF04EC13E200
:105690009FD2F80181938F01F3E20C3C1F07C1F701
:1056A0000E94971610D3882309F404C18091C42363
:1056B0009091C523953009F478C030F4913091F180
:1056C00068F0933079F1F6C0983009F4CDC0993084
:1056D00009F4D2C0963009F0EDC07BC0803821F0CB
:1056E000823809F0E7C008C01091C0238091C1231F
:1056F000882399F0126011C08091C8238F70863082
:1057000008F0D8C085D2E091CE23F091CF2311814B
:1057100012FB112710F980E07BD2EFD2812F68D2E3
:1057200080E0A7C0282F2D7F09F0C4C0882319F07E
:10573000823061F0BFC08091C623813009F0BAC0C9
:10574000933009F080E08093C1232AC08091C62362
:10575000811126C0E091C8231E2F1F708FEF810F8B
:10576000853008F0A7C0812F53D28091C5238330A4
:1057700011F4EFD215C0E091CE23F091CF238181B7
:105780008B7F818324E8129FF0011124EE5EFB4D94
:105790001082E091CE23F091CF2380818E7F808391
:1057A00080E036D2AAD298D385C0811183C01091EF
:1057B000C6231F77A2D290D360D28823E9F3109337
:1057C000C304111102C082E001C083E08093C323AF
:1057D00071C08058823008F06DC08091C6239091CE
:1057E000C7238C3DE3E09E0761F583E08A838AE36B
:1057F00089834FB7F894DE01139620E038E052E039
:105800005093CA01E32FF0E0E4911092CA0120FF07
:1058100003C0E295EF703F5FEF708E2F90E0EA30AB
:1058200010F0C79601C0C0968D939D932F5F2C31C9
:1058300039F74FBF62D26AE370E0CE010196A6D07D
:1058400011C06091C8237091C923AE014F5F5F4FB3
:105850000E9444068C01892B69F14FD2B8018981DD
:105860009A8110D1A6D126C0803821F546D28091E8
:10587000BF23BED185D197CF81111CC08091C62393
:105880009091C72399270297ACF437D28091C62311
:105890008093BF2321D38091BF23811106C08091C3
:1058A000C304811102C081E001C084E08093C3235E
:1058B0000E94931608D2882311F01FD24AD2EA968A
:1058C000CDBFDEBFDF91CF911F910F910895089555
:1058D000CF938091C323882351F0C091D02380E0DF
:1058E00097D1F1D18111C9DE8C2FCF9191C1CF9188
:1058F0000895CF92DF92EF92FF920F931F93CF9371
:10590000DF93EC018B017A01FDD2811136C0E114E5
:10591000F10439F0F70180819181081B190BC80F40
:10592000D91FC12CD12C0115110531F18091CC2347
:105930009091CD23FC01EF5BFF4F20813197808157
:10594000281790F01DD1C4DFE114F10449F0F701EC
:1059500080819181C80ED91EC082D18285E00DC0A0
:10596000D1D2882301F309C0899142D10150110994
:10597000FFEFCF1ADF0AD7CF80E0DF91CF911F91E1
:105980000F91FF90EF90DF90CF900895DF92EF920C
:10599000FF920F931F93CF93DF93D82FC92F8B01C3
:1059A0008091D023806834D18091CA239091CB23F9
:1059B0008017910728F00115110519F4E1D001C0F5
:1059C0008C01ED2EFC2ED12C0115110509F440C0DF
:1059D0008091C323811102C082E04CC0853011F454
:1059E00083E048C070D1882311F081E043C051D1D9
:1059F00081113CC042D1882339F32091D02380917A
:105A0000CC239091CD23FC0127FF05C0EF5BFF4F16
:105A1000C081D0E013C0E05CFF4FC081319680812F
:105A2000D0E0C81BD1090AC0C830D10550F4F70135
:105A300081917F01DDD001501109219601151105D9
:105A400099F7DD24D394289709F0D12C99D0BCCFB5
:105A5000D110BECF0BC08091C323882309F4BCCFE3
:105A6000853009F4BDCF2FD18111BFCF12D188234A
:105A700091F380E0DF91CF911F910F91FF90EF9014
:105A8000DF900895DF92EF92FF920F931F93CF93D1
:105A9000DF93D82FC92F8B018091D0238068B8D095
:105AA0008091CA239091CB238017910728F001158C
:105AB000110519F465D001C08C01ED2EFC2ED12CFE
:105AC0000115110509F442C08091C323811102C060
:105AD00082E04EC0853011F483E04AC0F4D08823C0
