:10000000CCC50000E6C50000E4C50000E2C5000064
:10001000E0C50000DEC50000DCC50000DAC5000058
:10002000D8C50000D6C50000D4C50000D2C5000068
:10003000D0C50000CEC50000CCC50000CAC5000078
:10004000C8C50000C6C50000C4C50000C2C5000088
:10005000C0C50000BEC500000C94BD1DBAC500009F
:10006000B8C50000B6C50000B4C50000B2C50000A8
:10007000B0C50000AEC50000ACC50000AAC50000B8
:10008000A8C50000A6C500000C947A1DA2C50000FA
:10009000A0C500009EC500009CC500009AC50000D8
:1000A00098C5000096C5000094C5000092C50000E8
:1000B00090C500008EC500008CC500008AC50000F8
:1000C00088C5000086C5000084C5000082C5000008
:1000D00080C500007EC500007CC500007AC5000018
:1000E00078C5000076C5000074C5000072C5000028
:1000F00070C500006EC500006CC500006AC5000038
:1001000068C5000066C5000064C5000062C5000047
:1001100060C500005EC500005CC500005AC5000057
:1001200058C5000056C5000054C5000052C5000067
:1001300050C500004EC500004CC500004AC5000077
:1001400048C5000046C5000044C500000C94581E78
:1001500040C500003EC500003CC500003AC5000097
:1001600038C5000036C5000034C5000032C50000A7
:1001700030C500002EC500002CC500002AC50000B7
:1001800028C5000026C5000024C5000022C50000C7
:1001900020C500001EC500001CC500001AC50000D7
:1001A00018C5000016C5000014C5000012C50000E7
:1001B00010C500000EC500000CC500000AC50000F7
:1001C00008C5000006C5000004C5000002C5000007
:1001D00000C50000FEC40000FCC40000FAC400001A
:1001E000F8C40000F6C40000F4C40000F2C400002B
:1001F000F0C400000C94A22DECC400002E035200A9
:1002000065007600450020005200650062006F0026
:100210006F0074006500640020002800690063001E
:1002200065006D0061006E00290000001C034300A2
:10023000680061006D0065006C0065006F006E0075
:100240004D0069006E006900000004030904090202
:100250003E00020100C03209040000010202010058
:1002600005240010010424020605240600010705E8
:1002700082030800FF09040100020A0000000705CC
:100280000402100005070583021000051201100189
:1002900002000008EB03442001000102DC01C50656
:1002A0000000C606C706C806C906CA06B106B206D9
:1002B000BF06B506BB06BE06B606BA0610000000AD
:1002C0000000000004013C1F0000731F0A231D23CF
:1002D000C906CA06B1062123EF230E246D24722419
:1002E00060246824400000000400000007003C1F58
:1002F0000000731F15231D23C906CA06B10621235A
:10030000EF230E246D247224602468245000000022
:100310000400000007003C1F0000731F19231D2369
:10032000C906CA06B1062123EF230E246D247224C8
:1003300060246824A40000000400000007003C1FA3
:100340000000731F60265C26C906CA06B1069826FF
:10035000EB250A26BB06BE06B606BA06B4000000A8
:100360000000000007003C1F0000731F72265C267F
:10037000C906CA06B1069826EB250A26BB06BE06A4
:10038000B606BA061C0200000000000007003C1F71
:100390000000731F85265C26C906CA06B10698268A
:1003A000EB250A26BB06BE06B606BA069C0300006D
:1003B00000000000070000434C4F5345440000007C
:1003C000000000000000000000000000000000002D
:1003D00000000000000000014D465F554C545241A2
:1003E0004C49474854000000000000000000000095
:1003F0000000000000000000024D465F554C5452C2
:10040000414C494748545F4556315F3830420000FF
:10041000000000000000000000034D465F554C54F2
:1004200052414C494748545F4556315F313634425A
:1004300000000000000000000000044E544147325C
:100440003133000000000000000000000000000048
:100450000000000000000000000000054E5441476D
:1004600032313500000000000000000000000000F4
:10047000000000000000000000000000064E544193
:10048000473231360000000000000000000000008C
:10049000000000000000000000000000000100005B
:1004A0000100010100000101000100000100010143
:1004B0000001000001010000010001010000010134
:1004C0000001000001010000010001010001000025
:1004D0000100010100000101000100000100010113
:1004E0000001000001010000010001010001000005
:1004F00001000101000001010001000001010000F4
:1005000001000101000001010001000001000101E2
:1005100000010000010100000100010100000101D3
:1005200000010000010100000100010100010000C4
:1005300001000101000001010001000001010000B3
:1005400001000101000001010001000001000101A2
:100550000001000001010000010001010001000094
:100560000100010100000101000100000100010182
:100570000001000001010000010001010000010173
:100580000001000001010000010001010001000064
:100590000100010100000101000100000100804094
:1005A000C020A060E0109050D030B070F0088848B3
:1005B000C828A868E8189858D838B878F804844447
:1005C000C424A464E4149454D434B474F40C8C4C53
:1005D000CC2CAC6CEC1C9C5CDC3CBC7CFC028242F9
:1005E000C222A262E2129252D232B272F20A8A4A53
:1005F000CA2AAA6AEA1A9A5ADA3ABA7AFA068646E7
:10060000C626A666E6169656D636B676F60E8E4EF2
:10061000CE2EAE6EEE1E9E5EDE3EBE7EFE018141A1
:10062000C121A161E1119151D131B171F109894922
:10063000C929A969E9199959D939B979F9058545B6
:10064000C525A565E5159555D535B575F50D8D4DC2
:10065000CD2DAD6DED1D9D5DDD3DBD7DFD03834368
:10066000C323A363E3139353D333B373F30B8B4BC2
:10067000CB2BAB6BEB1B9B5BDB3BBB7BFB07874756
:10068000C727A767E7179757D737B777F70F8F4F62
:10069000CF2FAF6FEF1F9F5FDF3FBF7FFF434C4FF9
:1006A000534544000000000000000000000000006E
:1006B0000052414E444F4D5F554944000000000038
:1006C00000000000005549445F4C4546545F494EC8
:1006D0004352454D454E5400005549445F524947E9
:1006E00048545F494E4352454D454E540055494488
:1006F0005F4C4546545F44454352454D454E54007A
:10070000005549445F52494748545F444543524568
:100710004D454E54005357495443484341524400B9
:10072000000000000000000000524541444F4E4CC4
:10073000590000000000000000000000004341528A
:10074000445F46554E4354494F4E000000000000A0
:1007500000000620000610000608000604800608B7
:10076000800604800602800601080B0B10000100C1
:10077000080008000100000100000800F80000085F
:1007800004000200000800080B0B1000010010001C
:1007900008000200000100000800F8000010080036
:1007A0000400001000090C0C1100020010001000E1
:1007B0000200000200001000F0010010100008000C
:1007C000002000090C0C10000200200010000400A2
:1007D000000100001000F000004020001000004068
:1007E000000903030A000100800008001000000453
:1007F00000000800F80300204000200000800025D1
:100800007500253032782530327825303278253021
:10081000327800253575206D5600257500256C75DC
:100820000052414E444F4D004368616D656C656FE9
:100830006E4D696E692D2573207625642E25642002
:100840002825733A20257329000D0A000D0A000D92
:100850000A000D0A000D0A000D0A00643130303A1A
:100860004F4B0000000000000000000000000000EE
:100870000000000000000000000000006531303181
:100880003A4F4B20574954482054455854000000D3
:10089000000000000000000000000000006E313188
:1008A000303A57414954494E4720464F5220584DFF
:1008B0004F44454D00000000000000000000C83219
:1008C00030303A554E4B4E4F574E20434F4D4D41D1
:1008D0004E4400000000000000000000000000C9BD
:1008E0003230313A494E56414C494420434F4D4DE8
:1008F000414E442055534147450000000000000090
:10090000CA3230323A494E56414C49442050415245
:10091000414D455445520000000000000000000019
:1009200000CB3230333A54494D454F555400000006
:1009300000000000000000000000000000000000B7
:10094000000056455253494F4E0000000000000081
:1009500000000000000000006F16434F4E4649475C
:1009600000000000000000000000A3160000981620
:1009700092165549440000000000000000000000ED
:1009800000000000000068173E174154514100006C
:100990000000000000000000000000000000D01671
:1009A000A91653414B0000000000000000000000A9
:1009B00000000000000023170317524541444F4E2A
:1009C0004C59000000000000000000000000BB17B0
:1009D000AF1755504C4F414400000000000000008C
:1009E0000000CE17000000000000444F574E4C4F4F
:1009F00041440000000000000000D3170000000088
:100A00000000524553455400000000000000000063
:100A10000000D81700000000000055504752414424
:100A200045000000000000000000E3170000000087
:100A300000004D454D53495A45000000000000009C
:100A40000000000000000000EE17574F524B4D45CC
:100A50004D0000000000000000000319000000002D
:100A6000FF18574F524B4D454D55504C4F41440088
:100A700000000719000000000000574F524B4D4581
:100A80004D444F574E4C4F4144000C19000000009C
:100A9000000055494453495A450000000000000039
:100AA00000000000000000001119425554544F4E40
:100AB00000000000000000000000271900003519A8
:100AC0002D19425554544F4E5F4C4F4E4700000075
:100AD0000000401900004E19461953455454494E20
:100AE00047000000000000000000000000005F1947
:100AF0005919434C4541520000000000000000001D
:100B000000006A1900000000000048454C50000039
:100B1000000000000000000000007A190000000042
:100B20000000525353490000000000000000000084
:100B30000000000000000000B919505744000000F8
:100B400000000000000000000000000000000000A5
:100B5000D4195549444D4F444500000000000000A1
:100B6000000000000000241A0E1A434C4541524177
:100B70004C4C0000000000000000361A000000008D
:100B80000000000000000000000000000000000065
:100B90000000000000000000000011241FBECFEF85
:100BA000CDBFDFE2DEBF10E2A0E0B0E2EEE2F9E6A8
:100BB00002C005900D92AC34B107D9F726E2ACE43F
:100BC000B0E201C01D92A03AB207E1F703D00C9445
:100BD000953457C05CD00E945E1336D390D3F8D0C2
:100BE0000E940E1642D18FD217D4B6D0C1E08091A8
:100BF0000C0A80FF0CC0C0930C0A9AD33AD10E9411
:100C00002B1688D2E091A120F091A22009950E9494
:100C10001216E0919920F0919A200995E8CF292F9A
:100C200030E02230310559F02330310569F02130B0
:100C30003105F9F482E190E02CE832E01EC08EE349
:100C400090E02EE432E019C0882349F0813061F051
:100C5000823079F48EE290E02CEF31E00EC084E037
:100C600090E02AE432E009C08CE190E02CE232E02E
:100C700004C080E090E020E030E0FA01208331837E
:100C800008951F920F920FB60F921124FFCF8091FB
:100C9000780083FF0AC088E08093780088ED84BFE5
:100CA00081E080938000FD95FEC0809150008660B9
:100CB000809350008091510081FFFCCF80915100C2
:100CC00082FFFCCF1092560081E08093600098ED87
:100CD00094BF8093400023ED30E32093260A3093A5
:100CE000270A96E09093000A8093430080930004C3
:100CF000089588ED84BF81E080937900089588EDA0
:100D000084BF8BE18093800008958BEC8093520028
:100D1000809150008860809350008091510083FF43
:100D2000FCCF84EC809355008091500080618093CB
:100D300050008091510084FFFCCF0895E0E4F0E082
:100D400084818E7F8483E0E5F0E080818F7E8083E4
:100D50008081877F8083089587E08093A2007894C4
:100D60000895089580E090E008950895FC011082B0
:100D7000118208950895FC0110820895089524E0D9
:100D8000FC0111922A95E9F70895089508950895B0
:100D9000089508950895CF93DF93E091BE20F091D8
:100DA000BF20828398E2899FB001112462567D4F53
:100DB00048E250E085E990E20E94AE30C5E9D0E219
:100DC000E881F9810995EE81FF81DF91CF91099446
:100DD000E091BE20F091BF208281DDCF0F931F9361
:100DE000E091BE20F091BF208B019C01428167E021
:100DF00086EB93E0ADD21F910F9108951F93CF938F
:100E0000DF931F92CDB7DEB79E012F5F3F4FAC013E
:100E100067E086EB93E0B4D2182F882311F0898124
:100E2000BADF812F0F90DF91CF911F9108959B0121
:100E3000AC0167E086EB93E0CAC228E2829FC00162
:100E40001124FC01E454FD4F6591759185919491B5
:100E5000089528E2829FC0011124FC01E054FD4F57
:100E60006591759185919491089508950C94A030A1
:100E700008950E94A0300E94A0300E94A0300C94DF
:100E8000A030CF93DF93EC0161507109DA01420F7A
:100E9000531FFC01CF018C1B9D0BA417B50721F438
:100EA0001082DF91CF91089562307105C8F39D9152
:100EB000392F32953F703A3010F4305D01C0395C03
:100EC00030839F709A3010F4905D01C0995C9183DB
:100ED000329662507109DECFCF93DF93EC01DA01D5
:100EE00020E030E05C91552351F111969C911197CF
:100EF000992339F12617370711F180ED850F8A30D4
:100F000020F08FEB850F8630E0F480ED890F8A307A
:100F100020F04FEB490F4630A0F4E52FF0E05134BC
:100F200008F0F797E295E07F913410F4982F01C014
:100F300097539E2B99932F5F3F4F1296D3CFC901A2
:100F400002C080E090E0DF91CF9108950F931F934E
:100F5000CF93DF93CDB7DEB76097CDBFDEBF8130D3
:100F600001F5E091A720F091A820CE010196099506
:100F7000E091BE20F091BF208281815011E083304A
:100F800008F010E08091BB20181708F099C06EDFC0
:100F9000E1E0F0E0EC0FFD1FE10FF11D80831F5F2A
:100FA000F1CF8230B9F5E091A720F091A8208E0111
:100FB0000F5F1F4FC80109952091BB20F80191E0F8
:100FC0008E2F801B8217F8F4992339F0808191E0ED
:100FD0008F3F09F090E08F5F80833196F1CF8430AE
:100FE00009F049C0E091A720F091A8208E010F5F81
:100FF0001F4FC80109952091BB20F80191E08E2F69
:10100000801B821770F1E091A920F091AA20C801FD
:10101000099571C0833019F7E091A720F091A820BD
:10102000CE01019609958091BB2041E0815008F4E2
:1010300047C04423D9F3282F30E0E1E0F0E0EC0F83
:10104000FD1FE20FF31F908141E09F3F09F040E058
:10105000E1E0F0E0EC0FFD1FE20FF31F9F5F9083D4
:10106000E5CF992331F0808191E0811190E08150AA
:1010700080833196C4CF853051F5E091A720F0915F
:10108000A820CE01019609958091BB2041E08150B6
:10109000B8F04423E1F3282F30E0E1E0F0E0EC0F7A
:1010A000FD1FE20FF31F908141E0911140E0E1E06C
:1010B000F0E0EC0FFD1FE20FF31F91509083E7CF9C
:1010C000E091A920F091AA20CE010196A1CF86300F
:1010D00011F4DDD010C0873039F49091BC2081E04C
:1010E00089278093BC2007C0883029F4E091A32091
:1010F000F091A42009956096CDBFDEBFDF91CF911E
:101100001F910F910895E0E0F6E080E4828388E18A
:10111000868B08959091080680914C2096FD10C012
:101120008A3050F08A30B9F4E091BE20F091BF20AF
:1011300081810CDF80914C208F5F80934C2008953B
:1011400081508A3030F4E091BE20F091BF20808140
:10115000FDDE10924C200895CF93615071094DE946
:1011600056E020E0CCE2FA01DC01CD0134913111EE
:1011700008C0283071F0CC9361507109CD010196FF
:1011800008C065317105A8F33D933196615071092E
:10119000ECCF2F5F4C5E5F4F293029F7FC011082A6
:1011A000CF910895EDEBF0E298E0811102C06383E6
:1011B00003C0813009F46483915035969111F5CFC5
:1011C0000895282FCB0121110AC0E091BE20F09193
:1011D000BF20608124E1629FB00111240BC0213047
:1011E00069F4E091BE20F091BF206181E4E16E9F3F
:1011F000B00111246356794F0C94C030FB0110826A
:101200000895EF92FF920F931F93CF93DF93D82F00
:101210007B010DE916E0C0E0B801C7010E94B730BC
:10122000892B29F46C2F8D2FBDDF81E006C0CF5FA5
:101230000C5E1F4FC93081F780E0DF91CF911F9185
:101240000F91FF90EF9008954CE250E060E070E065
:101250008DEB90E20C94EE334CE250E060E070E0F5
:101260008DEB90E20C949B33883078F48093BD2012
:1012700025E0829FC001112480549F4D8093BE20A1
:101280009093BF20A5DD81E0089580E0089530911E
:10129000BD2029E045E02150B1F0832F90E0019678
:1012A00087709927382FBC016F5F7F4F469FF001F1
:1012B000479FF00D1124E354FF4D5081552359F3FE
:1012C000D3DF8111C9CF0895FC018EE480838FE4C0
:1012D00081838EE282838091BD20805D838314822E
:1012E0000895FC012181211105C08081805388303F
:1012F00008F4BACF80E008958093E820ADCF8FE066
:10130000809381068CE380930106089590E0FC01B0
:10131000EE0FFF1F8E0F9F1FFC01EF5AF84FA59194
:10132000B491FC01ED5AF84F849115968C93089571
:10133000A0E0B6E016961C921697E0E8F6E016825A
:101340008CE316968C938FE086838091BD20DECF50
:101350000F931F93FC01662379F0949161509413CD
:1013600009C0BF016F5F7F4FA801C9010E94C03053
:1013700081E003C0B196EFCF80E01F910F910895F7
:10138000CF92DF92EF92FF921F93CF93DF93EC0106
:101390007A016901162F112389F0BE016F5F7F4F1B
:1013A000C7010E94B7301150892B31F4FE01C4915E
:1013B000F601C08381E003C0A196EDCF80E0DF910C
:1013C000CF911F91FF90EF90DF90CF900895CF9332
:1013D0000196CCE26623D1F0FC01DA01AD017491F3
:1013E000772341F021153105A9F07D9331962150E5
:1013F0003109F4CF623038F02115310559F0FD0183
:10140000C0834F5F5F4F61508196E4CF232B11F073
:10141000FA011082CF910895E0E0F2E081E080834C
:10142000118292E0928393E0948380A388E381A366
:101430000895809120028068809320028091230289
:1014400080FFFCCF81E080932302A0911002B09135
:101450001102AE5BB109B7FF02C0A0E0B0E029E61F
:1014600037E54BE050E00C9453300895E0ECF1E0A8
:1014700084858860848780E094E08093E92090935D
:10148000EA2081E00895FF920F931F93CF93DF939B
:10149000CDB7DEB72897CDBFDEBF88E0E4E2F0E24B
:1014A000DE01119601900D928A95E1F7FFB600E0FA
:1014B00010E048E050E0B801CE0101960E940934E6
:1014C000085F1F4F011584E0180799F7FFBE81E000
:1014D0002896CDBFDEBFDF91CF911F910F91FF9076
:1014E0000895CF93DF93CDB7DEB72897CDBFDEBF8A
:1014F00020914D20222309F45CC02091FB203091E3
:10150000FC208217930708F054C020E147ED209398
:1015100066064093A0093091A10936FFFCCF3091B7
:10152000A10937FFFCCF3091A0091092A00930919A
:10153000A10936FFFCCF3091A10937FFFCCF3091D4
:10154000A0092093650637FFE2CF20E120936606CD
:10155000A0E0B0E00090F52004C0880F991FAA1FFA
:10156000BB1F0A94D2F78D839E83AF83B88781E82F
:1015700089838F818A838E818B838D818C83FE0109
:101580003196CE010596E817F90771F02191209365
:10159000A0092091A10926FFFCCF2091A10927FFD6
:1015A000FCCF2091A009EFCF80E18093650681E018
:1015B00001C080E02896CDBFDEBFDF91CF910895B6
:1015C000CF93DF93CDB7DEB72897CDBFDEBF209195
:1015D0004D20222309F45AC02091FF203091002190
:1015E0008217930708F052C020E147ED209366066A
:1015F0004093A0093091A10936FFFCCF3091A10999
:1016000037FFFCCF3091A0091092A0093091A109B9
:1016100036FFFCCF3091A10937FFFCCF3091A009F4
:101620002093650637FFE2CF20E120936606009005
:10163000F62002C0880F991F0A94E2F7A0E0B0E0FC
:101640008D839E83AF83B88780E589838F818A836A
:101650008E818B838D818C83FE013196CE01059620
:10166000E817F90771F021912093A0092091A109B1
:1016700026FFFCCF2091A10927FFFCCF2091A009D4
:10168000EFCF80E18093650681E001C080E028967D
:10169000CDBFDEBFDF91CF910895CF93DF93CDB75C
:1016A000DEB72897CDBFDEBF20914D20222309F45D
:1016B0006EC020910B2130E08217930708F067C0BD
:1016C00020E147ED209366064093A0093091A109DF
:1016D00036FFFCCF3091A10937FFFCCF3091A00934
:1016E0001092A0093091A10936FFFCCF3091A109D9
:1016F00037FFFCCF3091A0092093650637FFE2CF7A
:1017000020E120936606009761F0A0E0B0E0009031
:10171000F82004C0880F991FAA1FBB1F0A94D2F794
:1017200010C080E090E04CDF81E090E0A0E0B0E00D
:101730000090F72004C0880F991FAA1FBB1F0A94AE
:10174000D2F78D839E83AF83B8878CE789838F819F
:101750008A838E818B838D818C83FE013196CE01AD
:101760000596E817F90771F021912093A0092091BF
:10177000A10926FFFCCF2091A10927FFFCCF2091D2
:10178000A009EFCF80E18093650681E001C080E091
:101790002896CDBFDEBFDF91CF910895FF920F93C2
:1017A0001F93CF93DF93CDB7DEB72597CDBFDEBFB5
:1017B00080E18093650682E08093660688E08093EE
:1017C00065068AE1809361061092A6091092A70926
:1017D00080EC8093A50988E18093A40980E127ED3E
:1017E000809366062093A0099091A10996FFFCCFF3
:1017F0009091A10997FFFCCF9091A0091092A009A8
:101800009091A10996FFFCCF9091A10997FFFCCF81
:101810009091A0098093650697FFE2CF80E18093C5
:1018200066068FE98093A0098091A10986FFFCCF0D
:101830008091A10987FFFCCF8091A009FE0131961C
:10184000CE0106968F01E817F90771F01092A009F2
:101850002091A10926FFFCCF2091A10927FFFCCFF1
:101860002091A0092193EFCF80E1F82EF092650638
:1018700089818093EB208A818093EC202B812093B7
:10188000ED209D819093EE20982F929596959770DC
:101890009093EF208F7190E08093F0209093F1204F
:1018A000322F3295369537703093F2202F7130E019
:1018B0002093F3203093F42004978530910508F0AD
:1018C000A1C02EE1289FB001299F700D11246759F6
:1018D000784F4EE150E085EF90E20E94AE3080916B
:1018E000EB208F3109F08EC08091EF20813009F01C
:1018F00089C0F092660687ED8093A0098091A109C6
:1019000086FFFCCF8091A10987FFFCCF8091A009C1
:101910001092A0098091A10986FFFCCF8091A109B6
:1019200087FFFCCF8091A00990E19093650680FD30
:1019300065C080912C2090912D20A0912E20B091F7
:101940002F2089839A83AB83BC8380E127ED80932A
:1019500066062093A0099091A10996FFFCCF909173
:10196000A10997FFFCCF9091A0091092A009909136
:10197000A10996FFFCCF9091A10997FFFCCF909110
:10198000A0098093650697FFE2CF80E18093660609
:10199000F801CE0105968E179F0771F021912093D3
:1019A000A0092091A10926FFFCCF2091A10927FFC2
:1019B000FCCF2091A009EFCF80E18093650627ED51
:1019C000809366062093A0099091A10996FFFCCF11
:1019D0009091A10997FFFCCF9091A0091092A009C6
:1019E0009091A10996FFFCCF9091A10997FFFCCFA0
:1019F0009091A0098093650697FFE2CF81E08093E4
:101A00004D2001C080E02596CDBFDEBFDF91CF9194
:101A10001F910F91FF900895CF92DF92EF92FF9266
:101A20000F931F93CF93DF93CDB7DEB72897CDBF2A
:101A3000DEBFE0914D20EE23B9F00115110521051F
:101A4000310591F0C0900F21D0901021E09011212C
:101A5000F0901221C01AD10AE20AF30AE1E0C4169A
:101A6000D506E606F70608F4E0E0E0FF68C0F0E11E
:101A7000A7EDF0936606A093A009E091A109E6FF07
:101A8000FCCFE091A109E7FFFCCFE091A009109203
:101A9000A009E091A109E6FFFCCFE091A109E7FFD1
:101AA000FCCFE091A009F0936506E7FFE2CFE0E10B
:101AB000E09366064D835E836F8378874BE04983AE
:101AC0004F814A834E814B834D814C83FE01319679
:101AD000AE014B5F5F4FE417F50771F061916093C2
:101AE000A0096091A10966FFFCCF6091A10967FF81
:101AF000FCCF6091A009EFCF1092A0094091A109FD
:101B000046FFFCCF4091A10947FFFCCF4091A009BF
:101B1000FC010150110970F01092A0098091A109F7
:101B200086FFFCCF8091A10987FFFCCF8091A0099F
:101B30008193EFCF80E18093650681E001C080E072
:101B40002896CDBFDEBFDF91CF911F910F91FF90FF
:101B5000EF90DF90CF9008952F923F924F925F9237
:101B60006F927F928F929F92AF92BF92CF92DF92AD
:101B7000EF92FF920F931F93CF93DF93CDB7DEB712
:101B80006A97CDBFDEBF8D8B9E8B2A013B0148013A
:101B9000590180914D208823B9F0011511052105C7
:101BA000310591F040910F21509110216091112148
:101BB00070911221401B510B620B730B81E0441595
:101BC00055056605770508F480E080FFFFC01D8697
:101BD0001E861F86188A10E100E11E0125E0220EF4
:101BE000311CC090F920D090FA20C601A0E0B0E0EE
:101BF0008F8B988FA98FBA8FC301B2012F89388D2F
:101C0000498D5A8D0E94183069017A010090F520A3
:101C100004C0CC0CDD1CEE1CFF1C0A94D2F7C98A50
:101C2000DA8AEB8AFC8ACF88D88CE98CFA8C8C14FF
:101C30009D04AE04BF0428F0C61AD70AE80AF90AC0
:101C400002C0750164010093660627ED2093A00988
:101C50002091A10926FFFCCF2091A10927FFFCCFED
:101C60002091A0091092A0092091A10926FFFCCF84
:101C70002091A10927FFFCCF2091A00910936506B0
:101C800027FFE1CF0093660629893A894B895C8951
:101C90002D833E834F83588733E539832F812A83F1
:101CA0002E812B832D812C83FE013196E215F305C5
:101CB00071F021912093A0092091A10926FFFCCF6A
:101CC0002091A10927FFFCCF2091A009EFCF10930D
:101CD00065061093660647ED4093A0092091A1097F
:101CE00026FFFCCF2091A10927FFFCCF2091A0095E
:101CF0001092A0092091A10926FFFCCF2091A109F3
:101D000027FFFCCF2091A0091093650627FFE1CFA4
:101D10000093660629893A894B895C89262B372BE3
:101D2000482B592B29873A874B875C8732E83983C0
:101D30008B858A838A858B8389858C83FE01319686
:101D4000E215F30571F081918093A0098091A109BA
:101D500086FFFCCF8091A10987FFFCCF8091A0096D
:101D6000EFCFC601ED89FE894D855E85E40FF51F35
:101D7000019770F021912093A0092091A10926FFDD
:101D8000FCCF2091A10927FFFCCF2091A009F0CF23
:101D9000109365068C189D08AE08BF084C0C5D1C9E
:101DA0006E1C7F1C8D859E85AF85B8898C0D9D1D11
:101DB000AE1DBF1D8D879E87AF87B88B81149104A0
:101DC000A104B10409F00DCF81E001C080E06A9662
:101DD000CDBFDEBFDF91CF911F910F91FF90EF90AC
:101DE000DF90CF90BF90AF909F908F907F906F903B
:101DF0005F904F903F902F900895CF93DF9300D046
:101E000000D0CDB7DEB780914D20882309F468C09B
:101E10008091302090913120A0913220B0913320D8
:101E200089839A83AB83BC8380E127ED8093660628
:101E30002093A0099091A10996FFFCCF9091A10950
:101E400097FFFCCF9091A0091092A0099091A10951
:101E500096FFFCCF9091A10997FFFCCF9091A0092C
:101E60008093650697FFE2CF80E180936606FE01CE
:101E70003196CE010596E817F90771F0219120936C
:101E8000A0092091A10926FFFCCF2091A10927FFDD
:101E9000FCCF2091A009EFCF80E18093650627ED6C
:101EA000809366062093A0099091A10996FFFCCF2C
:101EB0009091A10997FFFCCF9091A0091092A009E1
:101EC0009091A10996FFFCCF9091A10997FFFCCFBB
:101ED0009091A0098093650697FFE2CF81E001C051
:101EE00080E02496CDBFDEBFDF91CF9108952F9281
:101EF0003F924F925F926F927F928F929F92AF929A
:101F0000BF92CF92DF92EF92FF920F931F93CF93E6
:101F1000DF93CDB7DEB72E97CDBFDEBF4B015C019F
:101F200029013A012DB73EB72C873D87672B682BD7
:101F3000692B79F480910F2190911021A0911121AA
:101F4000B091122184159505A605B70511F455DF4A
:101F500013C28091F9209091FA20A0E0B0E04816D9
:101F600059066A067B06D0F4CDB6DEB64DB75EB72D
:101F7000441955094DBF5EBF8DB79EB701967C01D0
:101F8000A2016FEF70E00E94E53093018201B5017C
:101F9000A401C701E1DDCDBEDEBEEEC180914D20C2
:101FA0008823B9F0411451046104710491F0409107
:101FB0000F2150911021609111217091122144192B
:101FC00055096609770981E0481559056A057B05B9
:101FD00008F480E080FFCFC1C0900121D0900221A1
:101FE000E0900321F0900421C301B201A701960102
:101FF0000E94183029833A834B835C836D837987F1
:102000008A879B8729803A802114310409F48AC089
:10201000C501B401A70196010E9418308901672B00
:10202000682B692B99F429813A814B815C81442783
:102030005527C701B6010E94F52F860E971EA81ED0
:10204000B91E4D8059846A847B843AC02A9423281F
:1020500099F129803A80A1E02A1A310889010F5F9D
:102060001F4F0C9DC0010D9D900D1C9D900D1124C6
:10207000881999099C0140E050E029833A834B83F9
:102080005C83892B19F0C501B40131DFD101A701AF
:1020900096010E944930860E971EA81EB91E2981FE
:1020A0003A814B815C81260F371F481F591F421A06
:1020B000530A640A750A04C000E010E0212C312C98
:1020C0008091012190910221A0910321B0910421DE
:1020D000C816D906EA06FB0681F08091FD20909192
:1020E000FE20A0E0B0E0C816D906EA06FB0651F0D3
:1020F000E1E7CE2EEAE0DE2E09C07DE4C72E7BE0CC
:10210000D72E04C060EEC62E6AE0D62E7101E00E16
:10211000F11EE016F10631F0C801F60109950F5FD6
:102120001F4FF7CF0091FD201091FE206801E12C98
:10213000F12CC301B201A70196010E9418302D8332
:102140003E834F83588769877A878B879E872D8048
:102150003E802114310409F493C0C501B401A701E4
:1021600096010E94183029833A83672B682B692BCC
:1021700099F42D813E814F81588544275527C70109
:10218000B6010E94F52F860E971EA81EB91E49841F
:102190005A846B847E843AC02A94232899F12D8036
:1021A0003E8081E0281A3108D9011196A983BA83AB
:1021B0000A9FC0010B9F900D1A9F900D1124881942
:1021C00099099C0140E050E02D833E834F8358875E
:1021D000892B19F0C501B4018ADE9801D1010E9452
:1021E0003A30860E971EA81EB91E461A570A680A6C
:1021F000790A8D819E81AF81B885481A590A6A0A89
:102200007B0A04C019821A82212C312C8091012171
:1022100090910221A0910321B0910421C816D90602
:10222000EA06FB0681F08091FD209091FE20A0E05F
:10223000B0E0C816D906EA06FB0651F051E7E52ED4
:102240005AE0F52E09C04DE4E42E4BE0F42E04C014
:1022500030EEE32E3AE0F32E09811A81020D131DB0
:1022600049815A810417150759F089819A81F7012C
:10227000099529813A812F5F3F4F29833A83F0CF17
:10228000C090F920D090FA20C601A0E0B0E0898388
:102290009A83AB83BC83C301B20129813A814B810C
:1022A0005C810E94183029013A017901232B11F435
:1022B00081E062C0C501B40129813A814B815C8112
:1022C0000E9418308901672B682B692BF1F091E08F
:1022D00049165104B1F07201A1E0EA1AF1080F5F4A
:1022E0001F4FC09E9001C19E300DD09E300D112415
:1022F0002819390951F040E050E0C501B401F7DD7B
:1023000004C000E010E0E12CF12C809101219091BB
:102310000221A0910321B091042129813A814B81AE
:102320005C81281739074A075B0781F08091FD20FF
:102330009091FE20A0E0B0E0281739074A075B071C
:1023400051F021E7C22E2AE0D22E09C09DE4C92E09
:102350009BE0D92E04C080EEC82E8AE0D82EE00E75
:10236000F11E0E151F0509F4A3CFC801F60109954A
:102370000F5F1F4FF6CF80E02C853D852DBF3EBF00
:102380002E96CDBFDEBFDF91CF911F910F91FF90B1
:10239000EF90DF90CF90BF90AF909F908F907F9005
:1023A0006F905F904F903F902F900895CF92DF9263
:1023B000EF92FF926A017B0120914E2030914F20D5
:1023C0004091502050915120A82FB0E00E944930F8
:1023D0006C0D7D1D8E1D9F1DFF90EF90DF90CF90A7
:1023E00008950F931F939091BD20981309C00091F9
:1023F000B3201091B4202091B5203091B6200FC0A9
:1024000090E0019625E0289FF001299FF00D11240E
:10241000E354FF4D80810E941D078B019C01609158
:1024200052207091532080915420909155200F3F5D
:102430004FEF14072407340739F00617170728074A
:10244000390710F4C901B8011F910F9108958091C7
:10245000BD20C7CF8F929F92AF92BF92CF92DF9253
:10246000EF92FF92CF93C82F4A015B01BADF6B0155
:102470007C0120914E2030914F204091502050916E
:102480005120AC2FB0E00E944930DC01CB01880D17
:10249000991DAA1DBB1DBC01CD016C0D7D1D8E1D9E
:1024A0009F1DCF91FF90EF90DF90CF90BF90AF90A6
:1024B0009F908F9008958F929F92AF92BF92CF92EC
:1024C000DF92EF92FF92CF93C82F8091BD208C13A3
:1024D00009C08090B7209090B820A090B920B0900B
:1024E000BA2010C08C2F90E0019625E0289FF001C3
:1024F000299FF00D1124E354FF4D80810E9429078C
:102500004B015C01C0904E20D0904F20E0905020B5
:10251000F09051208C2F65DFA7019601261B370B09
:10252000480B590BCA01B9013FEF83169306A30666
:10253000B30639F086169706A806B90610F4C50149
:10254000B401CF91FF90EF90DF90CF90BF90AF900C
:102550009F908F9008958091BD20ADCFCF92DF9254
:10256000EF92FF92CF93C82F3CDF6B017C018C2F41
:10257000A2DF6C0D7D1D8E1D9F1DCF91FF90EF90F2
:10258000DF90CF9008959091BD20981731F091E0A1
:10259000883008F090E0892F01C081E081700895B3
:1025A0004F925F926F927F928F929F92AF92BF9263
:1025B000CF92DF92EF92FF920F931F93509158208A
:1025C0005523E1F0280139014B015C01842FDBDF49
:1025D0008823A1F081149104A104B10479F08C1432
:1025E0009D04AE04BF0450F08C189D08AE08BF08CF
:1025F00081E084149504A604B70408F480E01F91D8
:102600000F91FF90EF90DF90CF90BF90AF909F9091
:102610008F907F906F905F904F9008958F929F92D0
:10262000AF92BF92CF92DF92EF92FF920F931F93E0
:10263000CF93C82F4A015B01680179018091BD20C9
:102640008C1302C004DF02C08C2FCBDE9501840105
:102650004C2FA6DFCF911F910F91FF90EF90DF904D
:10266000CF90BF90AF909F908F9008958F929F9240
:10267000AF92BF92CF92DF92EF92FF920F931F9390
:10268000CF93C82F4A015B01680179018091BD2079
:102690008C1302C060DF02C08C2F0DDF9501840116
:1026A0004C2F7EDFCF911F910F91FF90EF90DF9025
:1026B000CF90BF90AF909F908F900895CF936ED89A
:1026C0008823E9F180910F2190911021A09111218F
:1026D000B0911221AC01BD0133E076956795579515
:1026E00047953A95D1F740934E2050934F206093F1
:1026F00050207093512046E0B695A7959795879501
:102700004A95D1F78093522090935320A093542060
:10271000B093552081159240A105B10590F4109217
:102720004E2010924F201092502010925120109263
:102730005220109253201092542010925520C0E045
:1027400001C0C1E00E94360A8823B9F08091E920D7
:102750009091EA2023E0969587952A95E1F780935A
:10276000562090935720C19750F410924E2010920B
:102770004F20109250201092512080E003C0CC23B3
:10278000E1F381E0817080935820CF9108952F92DA
:102790003F924F925F926F927F928F929F92AF92F1
:1027A000BF92CF92DF92EF92FF920F931F93CF933E
:1027B000FC014B01C42F1901270138019601850145
:1027C000B301A2018C2F0995882361F0B301A20106
:1027D0008C2FF4010995AB01BC0196018501C10163
:1027E0001BD901C080E0CF911F910F91FF90EF9016
:1027F000DF90CF90BF90AF909F908F907F906F9021
:102800005F904F903F902F900895AF92BF92CF92DC
:10281000DF92EF92FF920F931F93570168017901A6
:102820008A019B01482F66ED71E18EE093E1AFDFF5
:102830001F910F91FF90EF90DF90CF90BF90AF90DE
:102840000895EF92FF920F931F93780189019A01E7
:10285000AB01BC018091BD20D8DF1F910F91FF908B
:10286000EF900895AF92BF92CF92DF92EF92FF92D6
:102870000F931F935701680179018A019B01482F2B
:102880006AE272E186E393E182DF1F910F91FF908C
:10289000EF90DF90CF90BF90AF900895EF92FF92AE
:1028A0000F931F93780189019A01AB01BC018091BC
:1028B000BD20D8DF1F910F91FF90EF9008952F92C8
:1028C0003F924F925F926F927F928F929F92AF92C0
:1028D000BF92CF92DF92EF92FF920F931F93CF930D
:1028E000FC014B01C42F1901270138019601850114
:1028F000B301A2018C2F0995882361F0B301A201D5
:102900008C2FF4010995AB01BC0196018501C10131
:1029100023D901C080E0CF911F910F91FF90EF90DC
:10292000DF90CF90BF90AF909F908F907F906F90EF
:102930005F904F903F902F900895AF92BF92CF92AB
:10294000DF92EF92FF920F931F9357016801790175
:102950008A019B01482F66ED71E18EE093E1AFDFC4
:102960001F910F91FF90EF90DF90CF90BF90AF90AD
:102970000895EF92FF920F931F93780189019A01B6
:10298000AB01BC018091BD20D8DF1F910F91FF905A
:10299000EF900895AF92BF92CF92DF92EF92FF92A5
:1029A0000F931F935701680179018A019B01482FFA
:1029B0006AE272E186E393E182DF1F910F91FF905B
:1029C000EF90DF90CF90BF90AF900895EF92FF927D
:1029D0000F931F93780189019A01AB01BC0180918B
:1029E000BD20D8DF1F910F91FF90EF9008954F9277
:1029F0005F926F927F92AF92BF92CF92DF92EF92EF
:102A0000FF920F931F93CF93DF93EB015A0128019D
:102A10003901FC010995461657066806790698F4AF
:102A20008B019C010419150926093709C016D10626
:102A3000E206F30610F497018601B301A201C50175
:102A4000FE01099501C080E0DF91CF911F910F91A8
:102A5000FF90EF90DF90CF90BF90AF907F906F90FE
:102A60005F904F900895CF92DF92EF92FF920F9375
:102A70001F93680179018A019B01AC016EE474E146
:102A80008BEA92E1B4DF1F910F91FF90EF90DF90FE
:102A9000CF900895CF92DF92EF92FF920F931F9302
:102AA000680179018A019B01AC0161E274E187E26E
:102AB00092E19DDF1F910F91FF90EF90DF90CF90FB
:102AC0000895CF92DF92EF92FF920F931F936801C8
:102AD00079018A019B01AC0169EB74E187E292E123
:102AE00086DF1F910F91FF90EF90DF90CF900895B8
:102AF000CF92DF92EF92FF920F931F9368017901BB
:102B00008A019B01AC0166EE74E18BEA92E16FDF12
:102B10001F910F91FF90EF90DF90CF900895CF938A
:102B20006CD9C82F0E94430AC11102C080E090E016
:102B30008170CF9108958F929F92AF92BF92CF9262
:102B4000DF92EF92FF920F931F936A017B0148017E
:102B5000590119DD882379F0A5019401C701B60157
:102B60001F910F91FF90EF90DF90CF90BF90AF90AB
:102B70009F908F90BCC980E01F910F91FF90EF90C4
:102B8000DF90CF90BF90AF909F908F900895CF929D
:102B9000DF92EF92FF920F931F93CF93C82FDEDC4B
:102BA0006B017C0120914E2030914F2040915020AC
:102BB00050915120AC2FB0E00E944930AB01BC01D4
:102BC000970186018C2FB7DFCF911F910F91FF9056
:102BD000EF90DF90CF9008958091BD20D8CF809165
:102BE000E8200895BC0181E090E20C94302ECF9350
:102BF000DF93FC016491EC012196662331F081E0C2
:102C000090E20E947E2ECE01F4CFDF91CF91089505
:102C1000AB01BC0181E090E20C945A2E80E28093DB
:102C200062060895CF93DF9381E090E20E94E72E41
:102C30000E94D42981E090E20E94032FEC0197FDCD
:102C400007C061D4811104C08C2FDF91CF9101C6E0
:102C5000DF91CF91089580915920813079F028F04B
:102C60008230D9F0833011F12EC08091680685FF43
:102C70002AC084E18093002081E00CC08091002074
:102C800081508093002081111EC00E9485060E9401
:102C90006C2D82E08093592016C08091680685FDD6
:102CA00012C084E18093002083E0F4CF8091002063
:102CB000815080930020811106C00E94312D0E9416
:102CC0009E061092592071D5C1C60895089581E0DD
:102CD00090E20C940B2E81E090E20C94572F24E3A9
:102CE00030E23F932F932CE330E23F932F931F92D8
:102CF00023E02F931F9221E02F9343E450E25F9350
:102D00004F9348E258E05F934F932F931F929F9306
:102D10008F930E94EC308DB79EB740968DBF9EBFBB
:102D200085E6089560E071E00E94EE0685E608956C
:102D3000CB010E94FE06882321F00E942C0984E624
:102D400008958AEC089560E071E00E94170785E617
:102D500008950F931F93CF93DF9300D000D0CDB78A
:102D6000DEB78C01E091AF20F091B020CE01039648
:102D700009959B818C819A83898322E030E0AE01A2
:102D80004F5F5F4F60E071E0C8010E94410785E638
:102D90002496CDBFDEBFDF91CF911F910F91089593
:102DA0000F931F93CF93DF9300D0CDB7DEB78B0186
:102DB00019821A82AB0162E070E0CE0101960E9496
:102DC0006C070297C1F4F80101900020E9F73197F0
:102DD000E01BF10B339730F089819A81982789277E
:102DE000982702C0898190E0E091B120F091B22053
:102DF000099584E601C08AEC0F900F90DF91CF9186
:102E00001F910F9108950F931F93CF93DF931F92FC
:102E1000CDB7DEB78C01E091AB20F091AC20CE01B4
:102E20000196099521E030E0AE014F5F5F4F60E011
:102E300071E0C8010E94410785E60F90DF91CF91B4
:102E40001F910F910895CF93DF931F92CDB7DEB7F7
:102E5000AB0161E070E0CE0101960E946C07019722
:102E600041F4E091AD20F091AE208981099584E68E
:102E700001C08AEC0F90DF91CF910895EF92FF92FD
:102E80000F931F93CF93DF93CDB7DEB7A097CDBF3E
:102E9000DEBF7C01E5E9F0E206A110E00288F389DB
:102EA000E02DCE01019609959801AE014F5F5F4F6D
:102EB00060E071E0C7010E94410785E6A096CDBFA2
:102EC000DEBFDF91CF911F910F91FF90EF9008959A
:102ED000DF92EF92FF920F931F93CF93DF93CDB7C3
:102EE000DEB7A097CDBFDEBF7B010091BB2010E015
:102EF00061E278E0C7010E94B730892BD1F4D12C70
:102F0000ED2CF12CE016F10658F40E943607E1E0B2
:102F1000F0E0EC0FFD1FEE0DFF1D8083D394F0CF8A
:102F2000E091A920F091AA20CE010196099584E6AE
:102F30000BC0A70160E270E0CE0101960E946C0711
:102F40000817190769F38AECA096CDBFDEBFDF91A1
:102F5000CF911F910F91FF90EF90DF900895FC01AA
:102F60008091BC20882311F081E301C080E380833D
:102F7000118285E60895FB01818181110DC0808158
:102F8000813321F481E08093BC2004C0803321F49C
:102F90001092BC2084E608958AEC089581E695E1BC
:102FA00081D28EE608958AE495E197D28EE608955F
:102FB000E0ECF4E081818E7F81830E94312D0E94BC
:102FC000790684E60895E0ECF4E081818E7F8183C8
:102FD0000E94312D0E947F0684E60895E5E9F0E223
:102FE00021A12F9320A12F93278D2F93268D2F93EF
:102FF0002DE138E03F932F9321E02F931F929F9371
:103000008F930E94EC308DB79EB70A968DBF9EBFFE
:1030100085E608954F925F926F927F928F929F9272
:10302000AF92BF92CF92DF92EF92FF920F931F93D6
:10303000CF93DF93CDB7DEB77A01B02E4DB65EB633
:10304000213041E0340708F042C02E153F0508F456
:103050003EC06DB67EB62DB73EB72E193F092DBFC7
:103060003EBF2F5F3F4F6901870120E030E0AB0199
:10307000BC01C60113DCBB2029F18DB69EB68701C9
:10308000000F111FB8016D5F7F4F8DB79EB7861B74
:10309000970B8DBF9EBF2DB73EB72F5F3F4F590196
:1030A0009701A601C5010E944107F501E00FF11F3C
:1030B0008DE080838AE081831282C50193DD8DBE1D
:1030C0009EBE03C0B701C601A3DD6DBE7EBE4DBE70
:1030D0005EBEDF91CF911F910F91FF90EF90DF9037
:1030E000CF90BF90AF909F908F907F906F905F90A8
:1030F0004F9008952F923F924F925F926F927F92DE
:103100008F929F92AF92BF92CF92DF92EF92FF92F7
:103110000F931F93CF93DF93CDB7DEB72A97CDBF21
:10312000DEBF1C01162F17DA21E02216320608F046
:103130004DC0611571058105910509F447C0410134
:10314000A12CB12CA50194010E9418302D833E833F
:103150004F83588769837A838B839C8349815A8103
:1031600049875A8760E070E0CB01C12CD12C7601F1
:1031700024013501460E571E681E791E2D813E81A1
:103180004F815885C216D306E406F50661F0012F7B
:103190009101A1013FDF5FEFC51AD50AE50AF50AE3
:1031A000C301B201E5CF49855A85452B59F0A501E8
:1031B0009401C701B6010E94F52F012F91014981A9
:1031C0005A8128DF111104C084E603C089EC01C0D4
:1031D00085E62A96CDBFDEBFDF91CF911F910F917B
:1031E000FF90EF90DF90CF90BF90AF909F908F9027
:1031F0007F906F905F904F903F902F90089561E087
:1032000080E190E077CF60E080E091E073CF88E7E5
:1032100095E148D18EE6089583E395E15ED18EE68F
:1032200008952091BB201F922F932AE138E03F930D
:103230002F9321E02F931F929F938F930E94EC3046
:103240008DB79EB708968DBF9EBF85E6089560E056
:1032500071E00E94AC0885E6089540E051E0BC01B1
:1032600080E00E94E10885E6089580E00E9401095F
:10327000882321F00E942C0984E608958AEC0895A1
:1032800060E071E00E94AC0885E6089540E051E0FE
:10329000BC0181E00E94E10885E6089581E00E947A
:1032A0000109882321F00E942C0984E608958AEC04
:1032B000089560E071E00E94640985E60895CB01FD
:1032C0000E947109882321F00E942C0984E6089548
:1032D0008AEC089581DC80E00E94CB0666E080E005
:1032E0000E94D20860E081E00E94D2080E942C096E
:1032F00084E60895BF92CF92DF92EF92FF920F93F0
:103300001F93CF93DF93EC01EE24EA94F12C02E4B7
:1033100019E09CE2B92E6801B8018BE390E20E94AB
:10332000B730892BC9F0DE01F6012491ED01219619
:10333000C7010197211105C0BC927C01085E1F4F97
:10334000EACFF1E2EF16F104B8F32C93DE012FEF90
:10335000C21AD20A7C01E8CF2197188285E6DF9154
:10336000CF911F910F91FF90EF90DF90CF90BF9082
:103370000895CF93DF93EC010E94190A9F938F93D6
:1033800083E198E09F938F9381E08F931F92DF9367
:10339000CF930E94EC308DB79EB708968DBF9EBF2D
:1033A00085E6DF91CF910895EF92FF920F931F93DF
:1033B000CF93DF9300D000D0CDB7DEB7F82EE92E43
:1033C00004E010E020E030E040E050E0BA01CE013F
:1033D000019664DA8C811F928F938B811F928F9359
:1033E0008A811F928F9389811F928F9382E098E048
:1033F0009F938F9381E08F931F92EF92FF920E9491
:10340000EC30CDBFDEBF85E62496CDBFDEBFDF91B9
:10341000CF911F910F91FF90EF9008952091E82098
:103420001F922F932FEF37E03F932F9321E02F939D
:103430001F929F938F930E94EC308DB79EB7089692
:103440008DBF9EBF85E60895FB01818181110CC06F
:103450008081813311F481E003C0803329F480E05E
:103460000E947C0984E608958AEC0895CF9357DB87
:10347000C0E08C2F0E94340980E00E94CB0666E0F9
:1034800080E00E94D20860E081E00E94D208CF5F15
:10349000C83079F780E00E9434090E942C0984E644
:1034A000CF91089521E0209367202093662024E1A6
:1034B0002093642025E030E0209362203093632045
:1034C00010925C2010925D2010925E2010925F207E
:1034D00080935A2090935B20089527E020936720E3
:1034E00024E630E0209362203093632010925C2029
:1034F00010925D2010925E2010925F2080935A20DF
:1035000090935B2008950F931F93CF939091672022
:103510009530B9F130F4933001F118F5913068F439
:103520003EC1973009F4A5C008F440C0983009F4B2
:10353000A5C0993009F430C132C1813031F4109204
:1035400060201092612083E0FBC0843011F466E0BB
:103550008BC0883109F0F6C01FC18093652084E0DC
:10356000EFC090E0409165202FEF30E0241B31093F
:103570008217930721F485E0E3C0891741F165E1E3
:103580006CC02091602030916120A9014F5F5F4F96
:103590004093602050936120F901ED5EFE4D8083E1
:1035A0004038510509F0CEC086E0CAC020916520A0
:1035B00090916620291349C0E3E1F1E223E931E269
:1035C00090E02E173F07C9F24191940FFACF409136
:1035D0005C2050915D2060915E2070915F20E091B1
:1035E0005A20F0915B2000E810E020E030E083E119
:1035F00091E20995C82F882311F1809166208F5F91
:103600008093662080915C2090915D20A0915E2047
:10361000B0915F2080589F4FAF4FBF4F80935C2089
:1036200090935D20A0935E20B0935F2066E081E0E0
:1036300090E20E947E2E82E080936720B1C068E114
:1036400081E090E20E947E2E0EC030E0892F90E053
:1036500001972817390739F466E081E090E20E946B
:103660007E2E82E06DC068E181E090E20E947E2EB5
:1036700093C0853119F41092662006C0883109F490
:1036800066CF863009F060C0809166208F5F80939E
:10369000662040915C2050915D2060915E20709189
:1036A0005F20E0915A20F0915B2000E810E020E0DC
:1036B00030E083E191E20995C82F8823D9F161E0D8
:1036C00081E090E20E947E2E6091662081E090E28F
:1036D0000E947E2E60916620609581E090E20E94BB
:1036E0007E2E60E870E083E191E292DAE3E1F1E2BC
:1036F00083E991E260E08E179F0719F02191620F34
:10370000FACF81E090E20E947E2E80915C20909121
:103710005D20A0915E20B0915F2080589F4FAF4FF9
:10372000BF4F80935C2090935D20A0935E20B09368
:103730005F2036C064E081E090E20E947E2E89E046
:1037400080936720C1E02CC08531E1F761E081E022
:1037500090E20E947E2E6091662081E090E20E94BD
:103760007E2E60916620609581E090E20E947E2E20
:1037700060E870E083E191E24BDAE3E1F1E260E0DE
:1037800081E2E339F80719F08191680FF9CF81E000
:1037900090E20E947E2ED6CF10926720D3CFC0E059
:1037A0008C2FCF911F910F910895809167208130C8
:1037B00019F0873029F1089580916220909163205B
:1037C0009C01215031092093622030936320892B82
:1037D00031F5809164209FEF980F909364208823A7
:1037E00031F065E181E090E20E947E2E02C01092ED
:1037F000672085E090E08093622090936320089595
:1038000080916220909163209C0121503109209386
:10381000622030936320892B11F410926720089561
:10382000EBE5F8E020E030E09491981309C041E224
:10383000429FC001439F900D1124845A974F0895D1
:103840002F5F3F4FB1962730310571F780E090E050
:103850000895CF92DF92EF92FF920F931F93CF9331
:10386000982F9F7D91549A3160F090ED980F9A3087
:1038700040F08F3531F0982F9D7F9D3311F08032CD
:10388000C9F49FE9980F9A3108F4805220916D2075
:1038900030916E202F3F310508F0CFC0A9014F5F56
:1038A0005F4F40936D2050936E20F901ED5EFE4D09
:1038B0008083C3C08D3009F095C0E0916D20F091F8
:1038C0006E20ED5EFE4D108210926D2010926E20E3
:1038D00080916C208111B1C080911321982F9F7D20
:1038E00009F495C08D7F8D3309F491C0E3E1F1E2D5
:1038F0007F01C191CC2331F0CF3321F0CD3311F0D2
:10390000C032B1F7F701108282E4C82E89E0D82EC8
:1039100000E010E0B60183E191E20E94B730892B0C
:1039200009F056C010921321CF3349F488E1809FEB
:10393000F001819FF00D1124E85AF64F18C0B7012D
:103940006F5F7F4FCD3349F488E1809FF001819F05
:10395000F00D1124EA5AF64F20C0C11113C088E1BE
:10396000809FF001819FF00D1124EE5AF64F2591B2
:1039700034912115310509F44DC083E191E2F9013B
:10398000099514C0C03209F045C088E1809FF0015C
:10399000819FF00D1124EC5AF64F25913491211599
:1039A0003105C1F183E191E2F90109958F3F99F564
:1039B00081E080936C202EB13FB1809108049091FA
:1039C0000904822B932B80936A2090936B2035C03F
:1039D0000F5F1F4FF8E1CF0ED11C0931110509F01F
:1039E00099CF15C0883061F480916D2090916E2040
:1039F000009719F1019780936D2090936E201DC060
:103A00008B31D9F410926D2010926E2016C088EC84
:103A1000C0E002C089ECC1E003DFE9D888E598E0A6
:103A2000E6D8CC2351F080911321882331F083E133
:103A300091E2D8D885E598E0DAD881E0CF911F915E
:103A40000F91FF90EF90DF90CF90089580916C20C0
:103A5000882389F1E091BE20F091BF202381348139
:103A60002115310541F14EB15FB18091080490916B
:103A70000904842B952B40916A2050916B20841B64
:103A8000950B64E670E00E9404306217730798F0AB
:103A900010926C208BECC4DEAAD882E598E0A7D8FF
:103AA000E0916820F0916920309729F009951092F3
:103AB0006820109269200895A0E2B6E082E0119695
:103AC0008C93119715968C931597E0E4F8E010A26B
:103AD00011A28DE291E086A397A38FEF9FEF80A7BD
:103AE00091A781E0808398E8938393E097831A9667
:103AF0008C9308951F920F920FB60F9211248F93FB
:103B00009F93EF93FF9383E192E280937B209093C6
:103B10007C2083E992E28093792090937A2010921E
:103B200074201092732010926F20109277201092C0
:103B3000782010927220E0E4F8E0138286E990E0A9
:103B400086AB97AB8AE190E080AF91AFE0E4F9E01B
:103B500010A211A28FEF9FEF86A397A389E883831A
:103B60008EE0808310922A06FF91EF919F918F91B2
:103B70000F900FBE0F901F9018951F920F920FB6C7
:103B80000F9211242F933F938F939F93EF93FF9363
:103B90009091280680917320957021E009F020E033
:103BA000880F822B8093732090916F20992309F4C2
:103BB0006BC0982F9770973091F51092400880E174
:103BC00080934C081092430980917120882319F04A
:103BD0008CEB94E002C08CE794E0809366099093AC
:103BE00067091092702081E080934C0983E08093F4
:103BF00046098091772090917820877061F09091AC
:103C000074208F5F893011F09695FBCFE0917B2077
:103C1000F0917C20908381E080937D2035C0982FA7
:103C20009C7091F191E0382F347082FD90E0909378
:103C3000712080917220811125C0209174202695D9
:103C4000311101C080E8282B2093742080917720C7
:103C500090917820019680937720909378208770B8
:103C60009927892B89F4E0917B20F0917C20CF016A
:103C7000019680937B2090937C20208381E0809329
:103C8000722002C01092722090916F2081E08927EB
:103C900080936F2088E880934308FF91EF919F9174
:103CA0008F913F912F910F900FBE0F901F901895FD
:103CB0001F920F920FB60F9211242F933F938F9361
:103CC0009F93EF93FF9380917020853009F45AC041
:103CD000B8F48230B9F178F4882369F1813009F0C1
:103CE000C0C08FE390E080936609909367098EE0EF
:103CF0008093000827C0833051F18430B1F1B1C006
:103D0000883009F4A3C038F4863009F460C08730E5
:103D100009F46DC0A6C0893009F49DC08A3009F04D
:103D2000A0C010924009109246091092000881E04C
:103D300080937E2096C08FE790E0809366099093F1
:103D400067098FC080E48093450683E088C080E4E3
:103D50008093460684E080937020E0917B20F09170
:103D60007C208081809374207CC08091742080FFAF
:103D700004C080E48093450603C080E48093460637
:103D800085E06DC08091742090E480FF03C0909323
:103D9000460602C0909345068695809374208091D4
:103DA00075209091762001968093752090937620CF
:103DB0009C0127703327232B11F486E050C02091FB
:103DC00077203091782082179307F1F529C0E09190
:103DD0007920F0917A208081882321F080E48093FB
:103DE000450603C080E48093460687E038C0E09132
:103DF0007920F0917A208081882321F080E48093DB
:103E0000460603C080E480934506209175203091DA
:103E1000762080917720909178202817390711F427
:103E200088E01DC03196E0937920F0937A20E091EC
:103E30007B20F0917C20CF01019680937B20909392
:103E40007C2081818093742084E009C080E4809389
:103E5000460689E004C080E4809346068AE08093A9
:103E60007020FF91EF919F918F913F912F910F9033
:103E70000FBE0F901F901895CF93DF93E0E4F6E00C
:103E800084E08283128AC0E8D1E082E68E83A0E2D9
:103E9000B6E085E012968C93129781E050968C9351
:103EA000509782E052968C9352971A961C921A97CA
:103EB00083E019968C9398E598839AE5998390E42A
:103EC0009183968381838683E0E0F8E08FE090E041
:103ED00086A397A388E090E082A793A783E28183DB
:103EE000DF91CF91E9CD80917D20882309F457C0DF
:103EF00010927D2082E080932106809326066091B7
:103F00007720709178206115710521F1E091A5204D
:103F1000F091A62083E192E2099594FD08C0AC01DE
:103F200023E0569547952A95E1F720E002C09F7E51
:103F300017C0A22FB0E0A417B50790F4AD5EBD4D39
:103F4000EC91F0E0E356FB4FE491A058BF4FEC93A7
:103F50002F5FEFCFE0919D20F0919E2009951AC030
:103F60000097C1F08093772090937820109275206D
:103F70001092762083E192E280937B2090937C20C4
:103F800083E992E28093792090937A2081E0809374
:103F9000702005C010924009109246098DDD809175
:103FA0007E20882319F010927E2086CD089581E02E
:103FB000809389201092882010928420109286206D
:103FC00084E490E0809380209093812084E080932B
:103FD0007F200895982F80918A20882359F080911E
:103FE0008420811108C081E020918320921718F06D
:103FF00080E0089581E00895EF92FF920F931F9360
:10400000CF93DF931F92CDB7DEB740918720440F47
:10401000440F405181E080938A20E42EF12CA701C7
:104020004D5F5F4F052E000C660B770B01E010E033
:1040300020E030E083E890E20E942114A7014C5F69
:104040005F4F052E000C660B770B01E010E020E0BF
:1040500030E0CE0101960E9421148981881F8827B3
:10406000881F80938220A3DF0F90DF91CF911F9153
:104070000F91FF90EF900895BF92CF92DF92EF9251
:10408000FF920F931F93CF93DF9300D000D0CDB753
:10409000DEB79091BC2091113CC07B01B82E8EEF11
:1040A0008B0DCB2CD12C823020F5A601440F551F4F
:1040B000440F551F052E000C660B770B04E010E033
:1040C00020E030E0CE0101960E94211482E0B81277
:1040D00003C0F70111821082FE013196D7019701CA
:1040E0002C5F3F4F81919C91892B8D93A217B30731
:1040F000C9F7A601440F551F440F551F052E000C8C
:10410000660B770B04E010E020E030E0C7010E946E
:10411000B91480E02496CDBFDEBFDF91CF911F910F
:104120000F91FF90EF90DF90CF90BF9008959F92F6
:10413000AF92BF92CF92DF92EF92FF920F931F93B5
:10414000CF93DF93CDB7DEB7A097CDBFDEBF7C01A5
:1041500080918620882331F010928620B7018091CB
:10416000852061C0F7018081803509F472C018F4A0
:10417000803341F075C0803A09F457C0823A09F49F
:1041800040C06EC0F701D18080918A20882359F009
:1041900080918220882339F080918420811103C08E
:1041A000C090832002C0C0908720DC1428F0F70163
:1041B000108284E090E01FC2A12CB12CF4E0DF9EBD
:1041C000A0011124052E000C660B770B04E010E013
:1041D00020E030E0C7018A0D9B1D0E942114D3947A
:1041E000CD1001C0D12C24E0A20EB11C80E1A81694
:1041F000B10421F760E170E0C70177D380E990E076
:10420000FAC1F7011181123090F2809187201817BE
:1042100070F6812FDFDE811102C086E07AC1B7011E
:104220006E5F7F4F812F28DF73C1F701118112303C
:1042300008F4BDCF80918720181708F0B8CF812FE0
:10424000C9DE882351F31093852081E08093862076
:104250005FC1F70181818111AACF10928920C9C164
:1042600090918A20992309F4C1C18C3309F454C177
:1042700050F4893309F4D9C08A3309F447C08B312B
:1042800009F0B4C186C08B3409F496C120F48E3392
:1042900009F473C1ABC1803621F0853A09F4E5C059
:1042A000A5C14091872050E04D5F5F4F440F551FDF
:1042B000440F551F052E000C660B770B08E010E02D
:1042C00020E030E0C7010E942114F70186818B3085
:1042D000B1F08E30A1F0108284E0818383E082838C
:1042E00081E083838483158280918720843111F05B
:1042F0008EE001C08BE0F701868383E0878368E06E
:1043000070E0C701F2D280E590E075C1F701D1807D
:10431000C280CD1408F44BCF80918720D81608F0C6
:1043200046CFC81608F043CF80918220882351F0F1
:104330008D2D50DE882309F470CF8C2D4BDE882321
:1043400009F46BCF8C2D90E04D2D50E06C01C41A18
:10435000D50AFFEFCF1ADF0ACC0CDD1CCC0CDD1C1C
:10436000860120E030E0440F551F440F551F052EF5
:10437000000C660B770BC7010E942114B601C70120
:10438000B4D2C6010296A3E0880F991FAA95E1F75F
:1043900032C1C09087208C2D880F880F70EFC72EF8
:1043A000C80E04E010E020E030E040E050E0BA0148
:1043B000C70101960E94E614D12CA601485F5F4F09
:1043C000052E000C660B770B04E010E020E030E0D7
:1043D000CE0101960E9421149981F70181819813E1
:1043E0001CCF9A818281981318CF9B818381981367
:1043F00014CF9C818481981310CF81E08093842016
:10440000A601445F5F4F052E000C660B770B02E0A0
:1044100010E020E030E0C7010E94211462E070E06B
:10442000C70163D280E290E0E6C0F70141814330EA
:1044300008F0BDCE8091872050E0480F511D440FF9
:10444000551F440F551F052E000C660B770B03E01C
:1044500010E020E030E0C7010E94211463E070E02A
:10446000C70143D288E290E0C6C0F7014181B28023
:10447000A380948019821A821B821C82433008F028
:1044800097CEC42ED12C80918720A601480F511DB4
:10449000440F551F440F551F052E000C660B770B5C
:1044A00003E010E020E030E0CE0101960E942114EC
:1044B000892D90E0A0E0B0E0DC01992788279A29B7
:1044C0008B2949815A816B817C81840F951FA61F9E
:1044D000B71F89839A83AB83BC830097A105B14042
:1044E00010F084E016C080918720A601480F511D6E
:1044F000440F551F440F551F052E000C660B770BFC
:1045000003E010E020E030E0CE0101960E94B914F3
:104510008AE0F70180834DCE4091872050E04B5FC9
:104520005F4F440F551F440F551F052E000C660B9F
:10453000770B00E210E020E030E0C7010E94211478
:10454000BE016F5F7F4F80E2FB0111928A95E9F710
:1045500040E250E0C7010E94CF30892B39F440E29D
:1045600050E06AEC70E0C7010E94E53060E270E064
:10457000C701BBD180E191E03EC080918720F70167
:10458000418150E0480F511D440F551F440F551FE6
:104590004D5F5F4F052E000C660B770B01E010E0BE
:1045A00020E030E0C7010E942114F70180818111D1
:1045B00016C08DEB808313C040918720440F440FB9
:1045C000405150E04B5F5F4F052E000C660B770BA0
:1045D00001E010E020E030E0C7010E94211461E01A
:1045E00070E0C70182D188E190E005C081E080934E
:1045F000892080E090E0A096CDBFDEBFDF91CF9113
:104600001F910F91FF90EF90DF90CF90BF90AF90F0
:104610009F90089510928A2080E1809387208FEFE9
:104620008093832010928220C2CC84E180938720E3
:10463000E3CC89E280938720DFCC81E080938920DE
:104640000895DF92EF92FF920F931F93CF93DF9322
:10465000CDB7DEB72697CDBFDEBF7C018B016D8362
:104660007E83095F1F4F83E0169507958A95E1F7D2
:1046700020918920243038F440918020509181206D
:10468000223028F012C0243009F473C09BC020955A
:10469000217020938820BE016B5F7F4FC7018DD1B1
:1046A000882309F48FC082E051C0F701D0802091A7
:1046B0008820BE016B5F7F4FC7017FD181116BC026
:1046C000F3E9DF1224C080918920823009F061C0B3
:1046D00019821A821B821C8288E8898303E010E019
:1046E00020E030E040E050E0BA01CE0102960E94A6
:1046F000211420917F20AE014F5F5F4FBE016B5FA1
:104700007F4FC7017BD1882319F183E01FC085E962
:10471000D81221C0809189208330D9F504E010E0BF
:1047200020E030E044E050E060E070E0CE0101962F
:104730000E94211420E0AE014F5F5F4FBE016B5F0E
:104740007F4FC7015BD1882319F084E080938920D3
:104750008D819E8139C0E0E3DE121BC0043011055B
:10476000C1F4F7018181811114C084E08093892014
:1047700026C0409180205091812020918820BE0148
:104780006B5F7F4FC70119D1811105C0033011053F
:1047900048F481E004C09091882081E089278093CB
:1047A000892010C0B80162507109C701C9D08111B8
:1047B00006C081E0F701808384E090E005C0C70176
:1047C000B6DC02C080E090E02696CDBFDEBFDF9170
:1047D000CF911F910F91FF90EF90DF9008950F936D
:1047E0001F93CF93DF93EC0103E010E020E030E073
:1047F00040E050E0BA010E94211404E010E020E003
:1048000030E044E050E060E070E0CE0103960E94AA
:104810002114DF91CF911F910F910895EF92FF9294
:104820000F931F93CF93DF9300D0CDB7DEB77C01FA
:10483000FC0190818181892798E8892792818927C5
:104840008A83938184818927958189279681892705
:10485000898303E010E020E030E040E050E0BA015E
:10486000C7010E94B91401E010E020E030E043E00D
:1048700050E060E070E0CE0102960E94B91404E0BE
:1048800010E020E030E044E050E060E070E0C7017C
:1048900003960E94B91401E010E020E030E048E007
:1048A00050E060E070E0CE0101960E94B9140F90D4
:1048B0000F90DF91CF911F910F91FF90EF9008958E
:1048C0002091802030918120FC0120833183089544
:1048D0008093802090938120089520917F20FC0177
:1048E0002083089580937F20089520E42093D000B2
:1048F00026EC2093D5002093D40021E02093D00013
:10490000DC01680F791FA617B70741F0ED91F0E0C1
:10491000E356FA4FE491E093D300F5CFE091D50050
:10492000F0E0E356FA4FE491EC93E091D400F0E02C
:10493000E356FA4FE4911196EC931092D00008954B
:1049400020E42093D00026EC2093D5002093D400BF
:1049500021E02093D000DC01680F791FA617B7076C
:1049600041F0ED91F0E0E356FA4FE491E093D3008B
:10497000F5CFE091D500F0E0E356FA4FE4918C9149
:104980008E130AC0E091D400F0E0E356FA4FE491B0
:1049900081E011969C919E1380E01092D00081706E
:1049A0000895FC01908181E0611102C0963219F0F6
:1049B000923509F080E081700895EF92FF920F9395
:1049C0001F93CF93DF93EC018B017A01622FE9DF14
:1049D000882349F0E882F98280E190E0F801808341
:1049E000918381E004C0F8011082118280E0DF91A0
:1049F000CF911F910F91FF90EF900895AF92BF92CA
:104A0000CF92DF92EF92FF920F931F93CF93DF939A
:104A1000EC01FA019981903229F08A016B019037FB
:104A200089F02DC0308138832181298392819A8336
:104A300083818B832327922789278C8388E290E0C8
:104A4000FB0156C09A81FA01808198131BC09B819B
:104A50008181981317C09C818281981313C09D8116
:104A6000838198130FC0288361E070E0CE013DDFA1
:104A700088E190E0F6018083918381E03CC0892F3A
:104A80008F7021F0F6011082118234C092959F70D0
:104A90009250E92EF12CA701BE016E5F7F4FCF012E
:104AA0000E94CF30892B19F0F6011082118284E028
:104AB00090E05C01AE18BF08B8016E0D7F1DA50126
:104AC000CE010E94DC30CA0DDB1DF801908181818E
:104AD00089279281892793818927888385E090E0BF
:104AE0008E199F0923E0880F991F2A95E1F7F60197
:104AF0008083918380E0DF91CF911F910F91FF9090
:104B0000EF90DF90CF90BF90AF9008950F931F93D9
:104B100081E0809393201092922010929020109226
:104B20008E2080919420813039F020F0823039F449
:104B300087EE03C08DE201C087E880939120409109
:104B40001C2050911D2060911E2070911F204D5FF0
:104B50005F4F6F4F7F4F01E010E020E030E08DE8C5
:104B600090E20E94211440911C2050911D206091E0
:104B70001E2070911F204C5F5F4F6F4F7F4F01E0F1
:104B800010E020E030E08BE890E20E942114809158
:104B90008B20881F8827881F80938C201F910F915E
:104BA00008950F931F93482F8091BC2081110FC04F
:104BB000CB0124E0429FA0011124052E000C660BBE
:104BC000770B04E010E020E030E00E94B91480E0B0
:104BD0001F910F9108950F931F93CF93DF93EC01D3
:104BE00003E010E020E030E040E050E0BA010E9435
:104BF000211404E010E020E030E044E050E060E008
:104C000070E0CE0103960E942114DF91CF911F9195
:104C10000F910895EF92FF920F931F93CF93DF931D
:104C200000D0CDB7DEB77C01FC019081818189275E
:104C300098E88927928189278A83938184818927AB
:104C40009581892796818927898303E010E020E0F8
:104C500030E040E050E0BA01C7010E94B91401E021
:104C600010E020E030E043E050E060E070E0CE0192
:104C700002960E94B91404E010E020E030E044E025
:104C800050E060E070E0C70103960E94B91401E0B3
:104C900010E020E030E048E050E060E070E0CE015D
:104CA00001960E94B9140F900F90DF91CF911F9140
:104CB0000F91FF90EF90089581E0809393200895E5
:104CC000109294208DE28093912084EA90E0A0E0FD
:104CD000B0E080931C2090931D20A0931E20B093E1
:104CE0001F2014CF81E08093942087E88093912047
:104CF0008CE092E0A0E0B0E080931C2090931D2017
:104D0000A0931E20B0931F2001CF82E080939420B7
:104D100087EE809391208CE893E0A0E0B0E0809350
:104D20001C2090931D20A0931E20B0931F20EECE38
:104D3000AF92BF92CF92DF92EF92FF920F931F93A9
:104D4000CF93DF93CDB7DEB72697CDBFDEBF7C0113
:104D50006D837E83FC011081209193202230B9F075
:104D600038F0233009F43EC0243009F465C0E1C1B5
:104D7000209521702093922044E450E0BE016B5FA7
:104D80007F4F1BDE882309F4D4C182E050C02091FC
:104D9000922044E450E0BE016B5F7F4F0EDE811134
:104DA00057C0133909F0C2C119821A821B821C82B2
:104DB00088E8898303E010E020E030E040E050E044
:104DC000BA01CE0102960E94211424E0AE014F5F89
:104DD0005F4FBE016B5F7F4FC70110DE882349F133
:104DE00083E025C02091922044E450E0BE016B5F37
:104DF0007F4FE3DD81112CC0153909F097C104E024
:104E000010E020E030E044E050E060E070E0CE01EF
:104E100001960E94211420E0AE014F5F5F4FBE015A
:104E20006B5F7F4FC701EADD882319F084E0809330
:104E300093208D819E817FC1CD80DE802091922044
:104E400044E450E0BE016B5F7F4FB7DD882329F05B
:104E50009091922081E089276AC1B601695F7F4FF6
:104E600033E0769567953A95E1F76330710508F47C
:104E70005DC162507109C70163DD811102C081E02B
:104E80003BC180919020882341F010929020B7017F
:104E90006E5F7F4F80918F2014C1F70180818C332A
:104EA00009F42FC148F48033B9F18A3309F46DC095
:104EB0008B3109F03BC1A8C0803661F020F4803509
:104EC00009F42DC133C1803A09F4FDC0823A09F4D6
:104ED000E3C02CC1F701108284E08183828382E0E9
:104EE000838381E08483158280919420813039F01E
:104EF00020F0823039F483E103C08FE001C081E10A
:104F0000F701868383E0F701878368E070E0C701DB
:104F1000ECDC80E590E00FC1F701D18080918C201E
:104F2000882339F080918E20811103C0C0908D209C
:104F300002C0C0909120DC1418F0F7011082DEC08E
:104F4000A12CB12CF4E0DF9EA0011124052E000C51
:104F5000660B770B04E010E020E030E0C7018A0D1B
:104F60009B1D0E942114D394CD1001C0D12C84E04C
:104F7000A80EB11CE0E1AE16B10421F760E170E0CB
:104F8000C701B3DC80E990E0D6C0F7014181C2805F
:104F9000C41698F280919120481778F6C81668F6E2
:104FA00080918C20882361F080918E20811108C02F
:104FB00080918D20481708F050C0C81608F04DC0E9
:104FC000D12C50E0C41AD50AFFEFCF1ADF0ACC0C5F
:104FD000DD1CCC0CDD1C860120E030E0440F551FA9
:104FE000440F551F052E000C660B770BC7010E945E
:104FF0002114B601C70179DCC601029623E0880FAF
:10500000991F2A95E1F797C040911C2050911D20CF
:1050100060911E2070911F20485F5F4F6F4F7F4F40
:1050200004E010E020E030E0CE0101960E9421145F
:105030000E94EF15811113C09981F70181819813A6
:105040000CC09A818281981308C09B818381981338
:1050500004C09C818481981711F084E04DC081E0E8
:1050600080938E2040911C2050911D2060911E2025
:1050700070911F20445F5F4F6F4F7F4F02E010E041
:1050800020E030E0C7010E94211462E070E0C70117
:105090002CDC80E290E04FC0F7018181823008F47F
:1050A0004CCF90919120891708F047CF90918E2096
:1050B000911104C090918D20891778F6B7016E5F29
:1050C0007F4F6FDD18C0F7018181823008F435CF42
:1050D00090919120891708F030CF90918E209111F6
:1050E00005C090918D20891708F0B7CF80938F204D
:1050F00081E0809390208AE0F701808384E090E053
:105100001AC040E250E06AEC70E0C7010E94E5304E
:1051100060E270E0C701E9DB80E191E00CC0F701DB
:10512000818181110ACF1092932003C081E0809386
:10513000932080E090E02696CDBFDEBFDF91CF9137
:105140001F910F91FF90EF90DF90CF90BF90AF90A5
:1051500008950F931F93CF93DF93CDB7DEB7EA97F0
:10516000CDBFDEBF08E113E29FD2F80181938F012A
:10517000F3E200321F07C1F70E946B1610D3882399
:1051800009F404C18091182390911923953009F4F2
:1051900078C030F4913091F168F0933079F1F6C035
:1051A000983009F4CDC0993009F4D2C0963009F096
:1051B000EDC07BC0803821F0823809F0E7C008C01C
:1051C0001091142380911523882399F0126011C047
:1051D00080911C238F70863008F0D8C085D2E09172
:1051E0002223F0912323118112FB112710F980E073
:1051F0007BD2EFD2812F68D280E0A7C0282F2D7FED
:1052000009F0C4C0882319F0823061F0BFC08091DA
:105210001A23813009F0BAC0933009F080E08093FE
:1052200015232AC080911A23811126C0E0911C23E6
:105230001E2F1F708FEF810F853008F0A7C0812FC0
:1052400053D280911923833011F4EFD215C0E0912D
:105250002223F091232381818B7F818324E8129F75
:10526000F0011124EA59FC4D1082E0912223F091C3
:10527000232380818E7F808380E036D2AAD298D388
:1052800085C0811183C010911A231F77A2D290D3B9
:1052900060D28823E9F31093C304111102C082E0A5
:1052A00001C083E08093172371C08058823008F0DA
:1052B0006DC080911A2390911B238C3DE3E09E07E3
:1052C00061F583E08A838AE389834FB7F894DE012E
:1052D000139620E038E052E05093CA01E32FF0E04B
:1052E000E4911092CA0120FF03C0E295EF703F5F86
:1052F000EF708E2F90E0EA3010F0C79601C0C09694
:105300008D939D932F5F2C3139F74FBF62D26AE3A3
:1053100070E0CE010196A6D011C060911C2370915F
:105320001D23AE014F5F5F4F0E940F068C01892B3A
:1053300069F14FD2B80189819A8110D1A6D126C0D6
:10534000803821F546D280911323BED185D197CFE5
:1053500081111CC080911A2390911B2399270297D9
:10536000ACF437D280911A238093132321D38091F8
:105370001323811106C08091C304811102C081E012
:1053800001C084E0809317230E94671608D2882307
:1053900011F01FD24AD2EA96CDBFDEBFDF91CF9186
:1053A0001F910F9108950895CF938091172388231B
:1053B00051F0C091242380E097D1F1D18111C9DE51
:1053C0008C2FCF9191C1CF910895CF92DF92EF9220
:1053D000FF920F931F93CF93DF93EC018B017A0120
:1053E000FDD2811136C0E114F10439F0F70180815A
:1053F0009181081B190BC80FD91FC12CD12C011585
:10540000110531F18091202390912123FC01EF5B64
:10541000FF4F208131978081281790F01DD1C4DF84
:10542000E114F10449F0F70180819181C80ED91E81
:10543000C082D18285E00DC0D1D2882301F309C09A
:10544000899142D101501109FFEFCF1ADF0AD7CF5E
:1054500080E0DF91CF911F910F91FF90EF90DF904F
:10546000CF900895DF92EF92FF920F931F93CF9307
:10547000DF93D82FC92F8B0180912423806834D1EA
:1054800080911E2390911F238017910728F001150A
:10549000110519F4E1D001C08C01ED2EFC2ED12CA8
:1054A0000115110509F440C080911723811102C034
:1054B00082E04CC0853011F483E048C070D188236D
:1054C00011F081E043C051D181113CC042D1882309
:1054D00039F3209124238091202390912123FC01F2
:1054E00027FF05C0EF5BFF4FC081D0E013C0E05C39
:1054F000FF4FC08131968081D0E0C81BD1090AC01E
:10550000C830D10550F4F70181917F01DDD0015001
:10551000110921960115110599F7DD24D3942897D7
:1055200009F0D12C99D0BCCFD110BECF0BC0809147
:105530001723882309F4BCCF853009F4BDCF2FD1C0
:105540008111BFCF12D1882391F380E0DF91CF91F9
:105550001F910F91FF90EF90DF900895DF92EF92EF
:10556000FF920F931F93CF93DF93D82FC92F8B01F7
:10557000809124238068B8D080911E2390911F23AE
:105580008017910728F00115110519F465D001C0A5
:105590008C01ED2EFC2ED12C0115110509F442C011
:1055A00080911723811102C082E04EC0853011F432
:1055B00083E04AC0F4D0882311F081E045C0D5D003
:1055C00081113EC0C6D0882339F3209124238091D5
:1055D000202390912123FC0127FF05C0EF5BFF4FA3
:1055E000C081D0E015C0E05CFF4FC0813196808162
:1055F000D0E0C81BD1090CC0C830D10560F4F70158
:10560000849162D0FFEFEF1AFF0A01501109219631
:105610000115110589F7DD24D394289709F0D12CC1
:105620001BD0BACFD110BCCF0BC0809117238823D9
:1056300009F4BACF853009F4BBCFB1D08111BDCF09
:1056400094D0882391F380E0DF91CF911F910F9147
:10565000FF90EF90DF900895E0912223F0912323B3
:10566000A0912023B0912123AF5BBF4F8C9190E09C
:105670008283938380818D798083E0912023F091D0
:105680002123EF5BFF4F10820895E0912223F091D8
:10569000232380818D798083E0912023F091212341
:1056A000EF5BFF4F1082089580912023909121237A
:1056B000FC01EF5BFF4F208131E0320F3083FC01B2
:1056C000E20FF11D80810895209120233091212344
:1056D000F901EF5BFF4F908141E0490F4083F901F1
:1056E000E90FF11D8083089580932423482F4F7084
:1056F00050E06091C6047091C7049A0194E0220FB3
:10570000331F9A95E1F7E4E887FF11C0E49FC001D9
:10571000E59F900D112489599C4D809320239093EF
:105720002123C90108969B01280F391F0DC0E49F52
:10573000C001E59F900D11248B5D9C4D809320232B
:1057400090932123260F371F209322233093232366
:105750000895809124238068C7DFE0912223F0918F
:1057600023238081869581700895809124238F77EB
:10577000BBDFA0912223B09123238C9185FF0DC024
:10578000E0912023F091212312968D919C91139703
:10579000E05CFF4F808381E0089580E00895809170
:1057A00024238F77A1DFA0912223B09123238C9112
:1057B00084FF0DC0E0912023F091212312968D915A
:1057C0009C911397E05CFF4F808381E0089580E017
:1057D0000895809124238F7787DFE0912223F09131
:1057E000232380818D788083E0912223F0912323ED
:1057F000808181608083E0912023F0912123EF5B01
:10580000FF4F10828091242380686EDFE091222375
:10581000F0912323808181608083E0912023F091A7
:105820002123EF5BFF4F10820895E0912223F09136
:105830002323818184608183E0912223F0912323BB
:105840008181807C803459F48091242380584CDFFE
:10585000E0912223F0912323818184608183089544
:105860001F93CF93DF93C82F162FD42F3DDFE091E6
:105870002223F09123231182E0912223F09123230C
:105880008C2F881F8827881F880F8083E091222310
:10589000F09123231183E0912223F091232312829C
:1058A0001382209120233091212324833583CC0F30
:1058B000CC0BCD23F901E05CFF4FC0833196108201
:1058C00081E0DF91CF911F910895CF92DF92EF9207
:1058D000FF920F931F93CF93DF93C62E8C01D12C91
:1058E000DC1409F43FC0F801D081D11104C0D39475
:1058F0000B5F1F4FF5CFF801E180F2809381848127
:10590000823010F488E001C088E128E030E0C0E097
:105910002E153F0520F4CF5F220F331FF9CFC82B80
:105920008D2F8F70863010F080E01DC0CF7EF1E4A7
:10593000EF16F104C8F7992321F0913021F4C06CDF
:105940000AC0C06403C0C068911105C04E2D6C2F01
:1059500080E88D0F85DF4E2D6C2F8D2F81DF81111B
:10596000C6CFE2CF81E0DF91CF911F910F91FF90E1
:10597000EF90DF90CF90089580E090E0E091C60432
:10598000F091C7049C0144E0220F331F4A95E1F7D0
:10599000E20FF31F11864091C6045091C704FA012B
:1059A000E20FF31F118201968630910539F70895B1
:1059B0008091182387FF0DC0D8DE811105C080912A
:1059C00017238111F9CF09C060CE80911723882356
:1059D00021F0BFDE8823C9F33FCE08950F931F93B4
:1059E000CF93E091C604F091C704E05AFF4F0081C5
:1059F0001181C4E68091242387FF0AC0AADE8111A9
:105A000005C080911723811105C022C080E025C008
:105A1000ACDEF5CF8530F1F0E0912223F091232325
:105A2000818182FD19C0E091C604F091C704E05A5B
:105A3000FF4F808191810817190711F48C01DACF8B
:105A40002FEF2C0FCC2311F0C22FF8CF84E005C02C
:105A500082E003C083E001C081E0CF911F910F91EC
:105A6000089563D069D0E0ECF4E081818E7F81837A
:105A700080818F778083109216230895CF93DF93D0
:105A8000E0E4F0E014828481816084834ED054D0BD
:105A9000C0ECD4E088818F77888388818068888390
:105AA000109217231092132310921523109214238F
:105AB00088818064888348E068E480E8D1DE48E03B
:105AC00068E480E0CDDE8885806488878981816094
:105AD0008983DF91CF910895CF93DF933FB7F894F7
